{
	"contracts/GeoNexusToken.sol": {
		"GeoNexusToken": {
			"abi": [
				{
					"inputs": [
						{
							"internalType": "uint256",
							"name": "cap",
							"type": "uint256"
						},
						{
							"internalType": "uint256",
							"name": "reward",
							"type": "uint256"
						}
					],
					"stateMutability": "nonpayable",
					"type": "constructor"
				},
				{
					"anonymous": false,
					"inputs": [
						{
							"indexed": true,
							"internalType": "address",
							"name": "owner",
							"type": "address"
						},
						{
							"indexed": true,
							"internalType": "address",
							"name": "spender",
							"type": "address"
						},
						{
							"indexed": false,
							"internalType": "uint256",
							"name": "value",
							"type": "uint256"
						}
					],
					"name": "Approval",
					"type": "event"
				},
				{
					"anonymous": false,
					"inputs": [
						{
							"indexed": true,
							"internalType": "address",
							"name": "from",
							"type": "address"
						},
						{
							"indexed": true,
							"internalType": "address",
							"name": "to",
							"type": "address"
						},
						{
							"indexed": false,
							"internalType": "uint256",
							"name": "value",
							"type": "uint256"
						}
					],
					"name": "Transfer",
					"type": "event"
				},
				{
					"inputs": [
						{
							"internalType": "address",
							"name": "owner",
							"type": "address"
						},
						{
							"internalType": "address",
							"name": "spender",
							"type": "address"
						}
					],
					"name": "allowance",
					"outputs": [
						{
							"internalType": "uint256",
							"name": "",
							"type": "uint256"
						}
					],
					"stateMutability": "view",
					"type": "function"
				},
				{
					"inputs": [
						{
							"internalType": "address",
							"name": "spender",
							"type": "address"
						},
						{
							"internalType": "uint256",
							"name": "amount",
							"type": "uint256"
						}
					],
					"name": "approve",
					"outputs": [
						{
							"internalType": "bool",
							"name": "",
							"type": "bool"
						}
					],
					"stateMutability": "nonpayable",
					"type": "function"
				},
				{
					"inputs": [
						{
							"internalType": "address",
							"name": "account",
							"type": "address"
						}
					],
					"name": "balanceOf",
					"outputs": [
						{
							"internalType": "uint256",
							"name": "",
							"type": "uint256"
						}
					],
					"stateMutability": "view",
					"type": "function"
				},
				{
					"inputs": [],
					"name": "blockReward",
					"outputs": [
						{
							"internalType": "uint256",
							"name": "",
							"type": "uint256"
						}
					],
					"stateMutability": "view",
					"type": "function"
				},
				{
					"inputs": [
						{
							"internalType": "uint256",
							"name": "amount",
							"type": "uint256"
						}
					],
					"name": "burn",
					"outputs": [],
					"stateMutability": "nonpayable",
					"type": "function"
				},
				{
					"inputs": [
						{
							"internalType": "address",
							"name": "account",
							"type": "address"
						},
						{
							"internalType": "uint256",
							"name": "amount",
							"type": "uint256"
						}
					],
					"name": "burnFrom",
					"outputs": [],
					"stateMutability": "nonpayable",
					"type": "function"
				},
				{
					"inputs": [],
					"name": "cap",
					"outputs": [
						{
							"internalType": "uint256",
							"name": "",
							"type": "uint256"
						}
					],
					"stateMutability": "view",
					"type": "function"
				},
				{
					"inputs": [],
					"name": "decimals",
					"outputs": [
						{
							"internalType": "uint8",
							"name": "",
							"type": "uint8"
						}
					],
					"stateMutability": "view",
					"type": "function"
				},
				{
					"inputs": [
						{
							"internalType": "address",
							"name": "spender",
							"type": "address"
						},
						{
							"internalType": "uint256",
							"name": "subtractedValue",
							"type": "uint256"
						}
					],
					"name": "decreaseAllowance",
					"outputs": [
						{
							"internalType": "bool",
							"name": "",
							"type": "bool"
						}
					],
					"stateMutability": "nonpayable",
					"type": "function"
				},
				{
					"inputs": [],
					"name": "getBlockReward",
					"outputs": [
						{
							"internalType": "uint256",
							"name": "",
							"type": "uint256"
						}
					],
					"stateMutability": "view",
					"type": "function"
				},
				{
					"inputs": [
						{
							"internalType": "address",
							"name": "spender",
							"type": "address"
						},
						{
							"internalType": "uint256",
							"name": "addedValue",
							"type": "uint256"
						}
					],
					"name": "increaseAllowance",
					"outputs": [
						{
							"internalType": "bool",
							"name": "",
							"type": "bool"
						}
					],
					"stateMutability": "nonpayable",
					"type": "function"
				},
				{
					"inputs": [],
					"name": "name",
					"outputs": [
						{
							"internalType": "string",
							"name": "",
							"type": "string"
						}
					],
					"stateMutability": "view",
					"type": "function"
				},
				{
					"inputs": [
						{
							"internalType": "uint256",
							"name": "reward",
							"type": "uint256"
						}
					],
					"name": "setBlockReward",
					"outputs": [
						{
							"internalType": "uint256",
							"name": "",
							"type": "uint256"
						}
					],
					"stateMutability": "nonpayable",
					"type": "function"
				},
				{
					"inputs": [],
					"name": "symbol",
					"outputs": [
						{
							"internalType": "string",
							"name": "",
							"type": "string"
						}
					],
					"stateMutability": "view",
					"type": "function"
				},
				{
					"inputs": [],
					"name": "totalSupply",
					"outputs": [
						{
							"internalType": "uint256",
							"name": "",
							"type": "uint256"
						}
					],
					"stateMutability": "view",
					"type": "function"
				},
				{
					"inputs": [
						{
							"internalType": "address",
							"name": "recipient",
							"type": "address"
						},
						{
							"internalType": "uint256",
							"name": "amount",
							"type": "uint256"
						}
					],
					"name": "transfer",
					"outputs": [
						{
							"internalType": "bool",
							"name": "",
							"type": "bool"
						}
					],
					"stateMutability": "nonpayable",
					"type": "function"
				},
				{
					"inputs": [
						{
							"internalType": "address payable",
							"name": "_to",
							"type": "address"
						}
					],
					"name": "transferEther",
					"outputs": [],
					"stateMutability": "nonpayable",
					"type": "function"
				},
				{
					"inputs": [
						{
							"internalType": "address",
							"name": "sender",
							"type": "address"
						},
						{
							"internalType": "address",
							"name": "recipient",
							"type": "address"
						},
						{
							"internalType": "uint256",
							"name": "amount",
							"type": "uint256"
						}
					],
					"name": "transferFrom",
					"outputs": [
						{
							"internalType": "bool",
							"name": "",
							"type": "bool"
						}
					],
					"stateMutability": "nonpayable",
					"type": "function"
				}
			],
			"devdoc": {
				"events": {
					"Approval(address,address,uint256)": {
						"details": "Emitted when the allowance of a `spender` for an `owner` is set by a call to {approve}. `value` is the new allowance."
					},
					"Transfer(address,address,uint256)": {
						"details": "Emitted when `value` tokens are moved from one account (`from`) to another (`to`). Note that `value` may be zero."
					}
				},
				"kind": "dev",
				"methods": {
					"allowance(address,address)": {
						"details": "See {IERC20-allowance}."
					},
					"approve(address,uint256)": {
						"details": "See {IERC20-approve}. Requirements: - `spender` cannot be the zero address."
					},
					"balanceOf(address)": {
						"details": "See {IERC20-balanceOf}."
					},
					"burn(uint256)": {
						"details": "Destroys `amount` tokens from the caller. See {ERC20-_burn}."
					},
					"burnFrom(address,uint256)": {
						"details": "Destroys `amount` tokens from `account`, deducting from the caller's allowance. See {ERC20-_burn} and {ERC20-allowance}. Requirements: - the caller must have allowance for ``accounts``'s tokens of at least `amount`."
					},
					"cap()": {
						"details": "Returns the cap on the token's total supply."
					},
					"decimals()": {
						"details": "Returns the number of decimals used to get its user representation. For example, if `decimals` equals `2`, a balance of `505` tokens should be displayed to a user as `5.05` (`505 / 10 ** 2`). Tokens usually opt for a value of 18, imitating the relationship between Ether and Wei. This is the value {ERC20} uses, unless this function is overridden; NOTE: This information is only used for _display_ purposes: it in no way affects any of the arithmetic of the contract, including {IERC20-balanceOf} and {IERC20-transfer}."
					},
					"decreaseAllowance(address,uint256)": {
						"details": "Atomically decreases the allowance granted to `spender` by the caller. This is an alternative to {approve} that can be used as a mitigation for problems described in {IERC20-approve}. Emits an {Approval} event indicating the updated allowance. Requirements: - `spender` cannot be the zero address. - `spender` must have allowance for the caller of at least `subtractedValue`."
					},
					"increaseAllowance(address,uint256)": {
						"details": "Atomically increases the allowance granted to `spender` by the caller. This is an alternative to {approve} that can be used as a mitigation for problems described in {IERC20-approve}. Emits an {Approval} event indicating the updated allowance. Requirements: - `spender` cannot be the zero address."
					},
					"name()": {
						"details": "Returns the name of the token."
					},
					"symbol()": {
						"details": "Returns the symbol of the token, usually a shorter version of the name."
					},
					"totalSupply()": {
						"details": "See {IERC20-totalSupply}."
					},
					"transfer(address,uint256)": {
						"details": "See {IERC20-transfer}. Requirements: - `recipient` cannot be the zero address. - the caller must have a balance of at least `amount`."
					},
					"transferFrom(address,address,uint256)": {
						"details": "See {IERC20-transferFrom}. Emits an {Approval} event indicating the updated allowance. This is not required by the EIP. See the note at the beginning of {ERC20}. Requirements: - `sender` and `recipient` cannot be the zero address. - `sender` must have a balance of at least `amount`. - the caller must have allowance for ``sender``'s tokens of at least `amount`."
					}
				},
				"version": 1
			},
			"evm": {
				"assembly": "    /* \"contracts/GeoNexusToken.sol\":338:1919  contract GeoNexusToken is ERC20, ERC20Capped, ERC20Burnable {... */\n  mstore(0x40, 0xa0)\n    /* \"contracts/GeoNexusToken.sol\":464:724  constructor(uint256 cap, uint reward) ERC20(\"GeoNexus Token\", \"GNT\") ERC20Capped(cap * (10 ** decimals())) {... */\n  callvalue\n  dup1\n  iszero\n  tag_1\n  jumpi\n  0x00\n  dup1\n  revert\ntag_1:\n  pop\n  mload(0x40)\n  sub(codesize, bytecodeSize)\n  dup1\n  bytecodeSize\n  dup4\n  codecopy\n  dup2\n  dup2\n  add\n  0x40\n  mstore\n  dup2\n  add\n  swap1\n  tag_2\n  swap2\n  swap1\n  tag_3\n  jump\t// in\ntag_2:\n    /* \"contracts/GeoNexusToken.sol\":558:568  decimals() */\n  tag_5\n    /* \"contracts/GeoNexusToken.sol\":558:566  decimals */\n  shl(0x20, tag_6)\n    /* \"contracts/GeoNexusToken.sol\":558:568  decimals() */\n  0x20\n  shr\n  jump\t// in\ntag_5:\n    /* \"contracts/GeoNexusToken.sol\":552:554  10 */\n  0x0a\n    /* \"contracts/GeoNexusToken.sol\":552:568  10 ** decimals() */\n  tag_7\n  swap2\n  swap1\n  tag_8\n  jump\t// in\ntag_7:\n    /* \"contracts/GeoNexusToken.sol\":545:548  cap */\n  dup3\n    /* \"contracts/GeoNexusToken.sol\":545:569  cap * (10 ** decimals()) */\n  tag_9\n  swap2\n  swap1\n  tag_10\n  jump\t// in\ntag_9:\n    /* \"@openzeppelin/contracts/token/ERC20/ERC20.sol\":1906:2019  constructor(string memory name_, string memory symbol_) {... */\n  mload(0x40)\n  dup1\n  0x40\n  add\n  0x40\n  mstore\n  dup1\n  0x0e\n  dup2\n  mstore\n  0x20\n  add\n  0x47656f4e6578757320546f6b656e000000000000000000000000000000000000\n  dup2\n  mstore\n  pop\n  mload(0x40)\n  dup1\n  0x40\n  add\n  0x40\n  mstore\n  dup1\n  0x03\n  dup2\n  mstore\n  0x20\n  add\n  0x474e540000000000000000000000000000000000000000000000000000000000\n  dup2\n  mstore\n  pop\n    /* \"@openzeppelin/contracts/token/ERC20/ERC20.sol\":1980:1985  name_ */\n  dup2\n    /* \"@openzeppelin/contracts/token/ERC20/ERC20.sol\":1972:1977  _name */\n  0x03\n    /* \"@openzeppelin/contracts/token/ERC20/ERC20.sol\":1972:1985  _name = name_ */\n  swap1\n  dup2\n  tag_14\n  swap2\n  swap1\n  tag_15\n  jump\t// in\ntag_14:\n  pop\n    /* \"@openzeppelin/contracts/token/ERC20/ERC20.sol\":2005:2012  symbol_ */\n  dup1\n    /* \"@openzeppelin/contracts/token/ERC20/ERC20.sol\":1995:2002  _symbol */\n  0x04\n    /* \"@openzeppelin/contracts/token/ERC20/ERC20.sol\":1995:2012  _symbol = symbol_ */\n  swap1\n  dup2\n  tag_16\n  swap2\n  swap1\n  tag_15\n  jump\t// in\ntag_16:\n  pop\n    /* \"@openzeppelin/contracts/token/ERC20/ERC20.sol\":1906:2019  constructor(string memory name_, string memory symbol_) {... */\n  pop\n  pop\n    /* \"@openzeppelin/contracts/token/ERC20/extensions/ERC20Capped.sol\":427:428  0 */\n  0x00\n    /* \"@openzeppelin/contracts/token/ERC20/extensions/ERC20Capped.sol\":420:424  cap_ */\n  dup2\n    /* \"@openzeppelin/contracts/token/ERC20/extensions/ERC20Capped.sol\":420:428  cap_ > 0 */\n  gt\n    /* \"@openzeppelin/contracts/token/ERC20/extensions/ERC20Capped.sol\":412:454  require(cap_ > 0, \"ERC20Capped: cap is 0\") */\n  tag_18\n  jumpi\n  mload(0x40)\n  0x08c379a000000000000000000000000000000000000000000000000000000000\n  dup2\n  mstore\n  0x04\n  add\n  tag_19\n  swap1\n  tag_20\n  jump\t// in\ntag_19:\n  mload(0x40)\n  dup1\n  swap2\n  sub\n  swap1\n  revert\ntag_18:\n    /* \"@openzeppelin/contracts/token/ERC20/extensions/ERC20Capped.sol\":471:475  cap_ */\n  dup1\n    /* \"@openzeppelin/contracts/token/ERC20/extensions/ERC20Capped.sol\":464:475  _cap = cap_ */\n  0x80\n  dup2\n  dup2\n  mstore\n  pop\n  pop\n    /* \"@openzeppelin/contracts/token/ERC20/extensions/ERC20Capped.sol\":376:482  constructor(uint256 cap_) {... */\n  pop\n    /* \"contracts/GeoNexusToken.sol\":581:629  _mint(msg.sender, 69000000 * (10 ** decimals())) */\n  tag_22\n    /* \"contracts/GeoNexusToken.sol\":587:597  msg.sender */\n  caller\n    /* \"contracts/GeoNexusToken.sol\":617:627  decimals() */\n  tag_23\n    /* \"contracts/GeoNexusToken.sol\":617:625  decimals */\n  shl(0x20, tag_6)\n    /* \"contracts/GeoNexusToken.sol\":617:627  decimals() */\n  0x20\n  shr\n  jump\t// in\ntag_23:\n    /* \"contracts/GeoNexusToken.sol\":611:613  10 */\n  0x0a\n    /* \"contracts/GeoNexusToken.sol\":611:627  10 ** decimals() */\n  tag_24\n  swap2\n  swap1\n  tag_8\n  jump\t// in\ntag_24:\n    /* \"contracts/GeoNexusToken.sol\":599:607  69000000 */\n  0x041cdb40\n    /* \"contracts/GeoNexusToken.sol\":599:628  69000000 * (10 ** decimals()) */\n  tag_25\n  swap2\n  swap1\n  tag_10\n  jump\t// in\ntag_25:\n    /* \"contracts/GeoNexusToken.sol\":581:586  _mint */\n  shl(0x20, tag_26)\n    /* \"contracts/GeoNexusToken.sol\":581:629  _mint(msg.sender, 69000000 * (10 ** decimals())) */\n  0x20\n  shr\n  jump\t// in\ntag_22:\n    /* \"contracts/GeoNexusToken.sol\":655:665  msg.sender */\n  caller\n    /* \"contracts/GeoNexusToken.sol\":639:644  owner */\n  0x05\n  0x00\n    /* \"contracts/GeoNexusToken.sol\":639:666  owner = payable(msg.sender) */\n  0x0100\n  exp\n  dup2\n  sload\n  dup2\n  0xffffffffffffffffffffffffffffffffffffffff\n  mul\n  not\n  and\n  swap1\n  dup4\n  0xffffffffffffffffffffffffffffffffffffffff\n  and\n  mul\n  or\n  swap1\n  sstore\n  pop\n    /* \"contracts/GeoNexusToken.sol\":706:716  decimals() */\n  tag_27\n    /* \"contracts/GeoNexusToken.sol\":706:714  decimals */\n  shl(0x20, tag_6)\n    /* \"contracts/GeoNexusToken.sol\":706:716  decimals() */\n  0x20\n  shr\n  jump\t// in\ntag_27:\n    /* \"contracts/GeoNexusToken.sol\":700:702  10 */\n  0x0a\n    /* \"contracts/GeoNexusToken.sol\":700:716  10 ** decimals() */\n  tag_28\n  swap2\n  swap1\n  tag_8\n  jump\t// in\ntag_28:\n    /* \"contracts/GeoNexusToken.sol\":690:696  reward */\n  dup2\n    /* \"contracts/GeoNexusToken.sol\":690:717  reward * (10 ** decimals()) */\n  tag_29\n  swap2\n  swap1\n  tag_10\n  jump\t// in\ntag_29:\n    /* \"contracts/GeoNexusToken.sol\":676:687  blockReward */\n  0x06\n    /* \"contracts/GeoNexusToken.sol\":676:717  blockReward = reward * (10 ** decimals()) */\n  dup2\n  swap1\n  sstore\n  pop\n    /* \"contracts/GeoNexusToken.sol\":464:724  constructor(uint256 cap, uint reward) ERC20(\"GeoNexus Token\", \"GNT\") ERC20Capped(cap * (10 ** decimals())) {... */\n  pop\n  pop\n    /* \"contracts/GeoNexusToken.sol\":338:1919  contract GeoNexusToken is ERC20, ERC20Capped, ERC20Burnable {... */\n  jump(tag_30)\n    /* \"@openzeppelin/contracts/token/ERC20/ERC20.sol\":3021:3112  function decimals() public view virtual override returns (uint8) {... */\ntag_6:\n    /* \"@openzeppelin/contracts/token/ERC20/ERC20.sol\":3079:3084  uint8 */\n  0x00\n    /* \"@openzeppelin/contracts/token/ERC20/ERC20.sol\":3103:3105  18 */\n  0x12\n    /* \"@openzeppelin/contracts/token/ERC20/ERC20.sol\":3096:3105  return 18 */\n  swap1\n  pop\n    /* \"@openzeppelin/contracts/token/ERC20/ERC20.sol\":3021:3112  function decimals() public view virtual override returns (uint8) {... */\n  swap1\n  jump\t// out\n    /* \"contracts/GeoNexusToken.sol\":783:1007  function _mint(address account, uint256 amount) internal virtual override(ERC20Capped, ERC20) {... */\ntag_26:\n    /* \"contracts/GeoNexusToken.sol\":927:932  cap() */\n  tag_33\n    /* \"contracts/GeoNexusToken.sol\":927:930  cap */\n  shl(0x20, tag_34)\n    /* \"contracts/GeoNexusToken.sol\":927:932  cap() */\n  0x20\n  shr\n  jump\t// in\ntag_33:\n    /* \"contracts/GeoNexusToken.sol\":917:923  amount */\n  dup2\n    /* \"contracts/GeoNexusToken.sol\":895:914  ERC20.totalSupply() */\n  tag_35\n    /* \"contracts/GeoNexusToken.sol\":895:912  ERC20.totalSupply */\n  shl(0x20, tag_36)\n    /* \"contracts/GeoNexusToken.sol\":895:914  ERC20.totalSupply() */\n  0x20\n  shr\n  jump\t// in\ntag_35:\n    /* \"contracts/GeoNexusToken.sol\":895:923  ERC20.totalSupply() + amount */\n  tag_37\n  swap2\n  swap1\n  tag_38\n  jump\t// in\ntag_37:\n    /* \"contracts/GeoNexusToken.sol\":895:932  ERC20.totalSupply() + amount <= cap() */\n  gt\n  iszero\n    /* \"contracts/GeoNexusToken.sol\":887:962  require(ERC20.totalSupply() + amount <= cap(), \"ERC20Capped: cap exceeded\") */\n  tag_39\n  jumpi\n  mload(0x40)\n  0x08c379a000000000000000000000000000000000000000000000000000000000\n  dup2\n  mstore\n  0x04\n  add\n  tag_40\n  swap1\n  tag_41\n  jump\t// in\ntag_40:\n  mload(0x40)\n  dup1\n  swap2\n  sub\n  swap1\n  revert\ntag_39:\n    /* \"contracts/GeoNexusToken.sol\":972:1000  super._mint(account, amount) */\n  tag_42\n    /* \"contracts/GeoNexusToken.sol\":984:991  account */\n  dup3\n    /* \"contracts/GeoNexusToken.sol\":993:999  amount */\n  dup3\n    /* \"contracts/GeoNexusToken.sol\":972:983  super._mint */\n  shl(0x20, tag_43)\n    /* \"contracts/GeoNexusToken.sol\":972:1000  super._mint(account, amount) */\n  0x20\n  shr\n  jump\t// in\ntag_42:\n    /* \"contracts/GeoNexusToken.sol\":783:1007  function _mint(address account, uint256 amount) internal virtual override(ERC20Capped, ERC20) {... */\n  pop\n  pop\n  jump\t// out\n    /* \"@openzeppelin/contracts/token/ERC20/extensions/ERC20Capped.sol\":561:642  function cap() public view virtual returns (uint256) {... */\ntag_34:\n    /* \"@openzeppelin/contracts/token/ERC20/extensions/ERC20Capped.sol\":605:612  uint256 */\n  0x00\n    /* \"@openzeppelin/contracts/token/ERC20/extensions/ERC20Capped.sol\":631:635  _cap */\n  mload(0x80)\n    /* \"@openzeppelin/contracts/token/ERC20/extensions/ERC20Capped.sol\":624:635  return _cap */\n  swap1\n  pop\n    /* \"@openzeppelin/contracts/token/ERC20/extensions/ERC20Capped.sol\":561:642  function cap() public view virtual returns (uint256) {... */\n  swap1\n  jump\t// out\n    /* \"@openzeppelin/contracts/token/ERC20/ERC20.sol\":3172:3278  function totalSupply() public view virtual override returns (uint256) {... */\ntag_36:\n    /* \"@openzeppelin/contracts/token/ERC20/ERC20.sol\":3233:3240  uint256 */\n  0x00\n    /* \"@openzeppelin/contracts/token/ERC20/ERC20.sol\":3259:3271  _totalSupply */\n  sload(0x02)\n    /* \"@openzeppelin/contracts/token/ERC20/ERC20.sol\":3252:3271  return _totalSupply */\n  swap1\n  pop\n    /* \"@openzeppelin/contracts/token/ERC20/ERC20.sol\":3172:3278  function totalSupply() public view virtual override returns (uint256) {... */\n  swap1\n  jump\t// out\n    /* \"@openzeppelin/contracts/token/ERC20/extensions/ERC20Capped.sol\":695:899  function _mint(address account, uint256 amount) internal virtual override {... */\ntag_43:\n    /* \"@openzeppelin/contracts/token/ERC20/extensions/ERC20Capped.sol\":819:824  cap() */\n  tag_47\n    /* \"@openzeppelin/contracts/token/ERC20/extensions/ERC20Capped.sol\":819:822  cap */\n  shl(0x20, tag_34)\n    /* \"@openzeppelin/contracts/token/ERC20/extensions/ERC20Capped.sol\":819:824  cap() */\n  0x20\n  shr\n  jump\t// in\ntag_47:\n    /* \"@openzeppelin/contracts/token/ERC20/extensions/ERC20Capped.sol\":809:815  amount */\n  dup2\n    /* \"@openzeppelin/contracts/token/ERC20/extensions/ERC20Capped.sol\":787:806  ERC20.totalSupply() */\n  tag_48\n    /* \"@openzeppelin/contracts/token/ERC20/extensions/ERC20Capped.sol\":787:804  ERC20.totalSupply */\n  shl(0x20, tag_36)\n    /* \"@openzeppelin/contracts/token/ERC20/extensions/ERC20Capped.sol\":787:806  ERC20.totalSupply() */\n  0x20\n  shr\n  jump\t// in\ntag_48:\n    /* \"@openzeppelin/contracts/token/ERC20/extensions/ERC20Capped.sol\":787:815  ERC20.totalSupply() + amount */\n  tag_49\n  swap2\n  swap1\n  tag_38\n  jump\t// in\ntag_49:\n    /* \"@openzeppelin/contracts/token/ERC20/extensions/ERC20Capped.sol\":787:824  ERC20.totalSupply() + amount <= cap() */\n  gt\n  iszero\n    /* \"@openzeppelin/contracts/token/ERC20/extensions/ERC20Capped.sol\":779:854  require(ERC20.totalSupply() + amount <= cap(), \"ERC20Capped: cap exceeded\") */\n  tag_50\n  jumpi\n  mload(0x40)\n  0x08c379a000000000000000000000000000000000000000000000000000000000\n  dup2\n  mstore\n  0x04\n  add\n  tag_51\n  swap1\n  tag_41\n  jump\t// in\ntag_51:\n  mload(0x40)\n  dup1\n  swap2\n  sub\n  swap1\n  revert\ntag_50:\n    /* \"@openzeppelin/contracts/token/ERC20/extensions/ERC20Capped.sol\":864:892  super._mint(account, amount) */\n  tag_52\n    /* \"@openzeppelin/contracts/token/ERC20/extensions/ERC20Capped.sol\":876:883  account */\n  dup3\n    /* \"@openzeppelin/contracts/token/ERC20/extensions/ERC20Capped.sol\":885:891  amount */\n  dup3\n    /* \"@openzeppelin/contracts/token/ERC20/extensions/ERC20Capped.sol\":864:875  super._mint */\n  shl(0x20, tag_53)\n    /* \"@openzeppelin/contracts/token/ERC20/extensions/ERC20Capped.sol\":864:892  super._mint(account, amount) */\n  0x20\n  shr\n  jump\t// in\ntag_52:\n    /* \"@openzeppelin/contracts/token/ERC20/extensions/ERC20Capped.sol\":695:899  function _mint(address account, uint256 amount) internal virtual override {... */\n  pop\n  pop\n  jump\t// out\n    /* \"@openzeppelin/contracts/token/ERC20/ERC20.sol\":8254:8643  function _mint(address account, uint256 amount) internal virtual {... */\ntag_53:\n    /* \"@openzeppelin/contracts/token/ERC20/ERC20.sol\":8356:8357  0 */\n  0x00\n    /* \"@openzeppelin/contracts/token/ERC20/ERC20.sol\":8337:8358  account != address(0) */\n  0xffffffffffffffffffffffffffffffffffffffff\n  and\n    /* \"@openzeppelin/contracts/token/ERC20/ERC20.sol\":8337:8344  account */\n  dup3\n    /* \"@openzeppelin/contracts/token/ERC20/ERC20.sol\":8337:8358  account != address(0) */\n  0xffffffffffffffffffffffffffffffffffffffff\n  and\n  sub\n    /* \"@openzeppelin/contracts/token/ERC20/ERC20.sol\":8329:8394  require(account != address(0), \"ERC20: mint to the zero address\") */\n  tag_55\n  jumpi\n  mload(0x40)\n  0x08c379a000000000000000000000000000000000000000000000000000000000\n  dup2\n  mstore\n  0x04\n  add\n  tag_56\n  swap1\n  tag_57\n  jump\t// in\ntag_56:\n  mload(0x40)\n  dup1\n  swap2\n  sub\n  swap1\n  revert\ntag_55:\n    /* \"@openzeppelin/contracts/token/ERC20/ERC20.sol\":8405:8454  _beforeTokenTransfer(address(0), account, amount) */\n  tag_58\n    /* \"@openzeppelin/contracts/token/ERC20/ERC20.sol\":8434:8435  0 */\n  0x00\n    /* \"@openzeppelin/contracts/token/ERC20/ERC20.sol\":8438:8445  account */\n  dup4\n    /* \"@openzeppelin/contracts/token/ERC20/ERC20.sol\":8447:8453  amount */\n  dup4\n    /* \"@openzeppelin/contracts/token/ERC20/ERC20.sol\":8405:8425  _beforeTokenTransfer */\n  shl(0x20, tag_59)\n    /* \"@openzeppelin/contracts/token/ERC20/ERC20.sol\":8405:8454  _beforeTokenTransfer(address(0), account, amount) */\n  0x20\n  shr\n  jump\t// in\ntag_58:\n    /* \"@openzeppelin/contracts/token/ERC20/ERC20.sol\":8481:8487  amount */\n  dup1\n    /* \"@openzeppelin/contracts/token/ERC20/ERC20.sol\":8465:8477  _totalSupply */\n  0x02\n  0x00\n    /* \"@openzeppelin/contracts/token/ERC20/ERC20.sol\":8465:8487  _totalSupply += amount */\n  dup3\n  dup3\n  sload\n  tag_60\n  swap2\n  swap1\n  tag_38\n  jump\t// in\ntag_60:\n  swap3\n  pop\n  pop\n  dup2\n  swap1\n  sstore\n  pop\n    /* \"@openzeppelin/contracts/token/ERC20/ERC20.sol\":8519:8525  amount */\n  dup1\n    /* \"@openzeppelin/contracts/token/ERC20/ERC20.sol\":8497:8506  _balances */\n  0x00\n    /* \"@openzeppelin/contracts/token/ERC20/ERC20.sol\":8497:8515  _balances[account] */\n  dup1\n    /* \"@openzeppelin/contracts/token/ERC20/ERC20.sol\":8507:8514  account */\n  dup5\n    /* \"@openzeppelin/contracts/token/ERC20/ERC20.sol\":8497:8515  _balances[account] */\n  0xffffffffffffffffffffffffffffffffffffffff\n  and\n  0xffffffffffffffffffffffffffffffffffffffff\n  and\n  dup2\n  mstore\n  0x20\n  add\n  swap1\n  dup2\n  mstore\n  0x20\n  add\n  0x00\n  keccak256\n  0x00\n    /* \"@openzeppelin/contracts/token/ERC20/ERC20.sol\":8497:8525  _balances[account] += amount */\n  dup3\n  dup3\n  sload\n  tag_61\n  swap2\n  swap1\n  tag_38\n  jump\t// in\ntag_61:\n  swap3\n  pop\n  pop\n  dup2\n  swap1\n  sstore\n  pop\n    /* \"@openzeppelin/contracts/token/ERC20/ERC20.sol\":8561:8568  account */\n  dup2\n    /* \"@openzeppelin/contracts/token/ERC20/ERC20.sol\":8540:8577  Transfer(address(0), account, amount) */\n  0xffffffffffffffffffffffffffffffffffffffff\n  and\n    /* \"@openzeppelin/contracts/token/ERC20/ERC20.sol\":8557:8558  0 */\n  0x00\n    /* \"@openzeppelin/contracts/token/ERC20/ERC20.sol\":8540:8577  Transfer(address(0), account, amount) */\n  0xffffffffffffffffffffffffffffffffffffffff\n  and\n  0xddf252ad1be2c89b69c2b068fc378daa952ba7f163c4a11628f55a4df523b3ef\n    /* \"@openzeppelin/contracts/token/ERC20/ERC20.sol\":8570:8576  amount */\n  dup4\n    /* \"@openzeppelin/contracts/token/ERC20/ERC20.sol\":8540:8577  Transfer(address(0), account, amount) */\n  mload(0x40)\n  tag_62\n  swap2\n  swap1\n  tag_63\n  jump\t// in\ntag_62:\n  mload(0x40)\n  dup1\n  swap2\n  sub\n  swap1\n  log3\n    /* \"@openzeppelin/contracts/token/ERC20/ERC20.sol\":8588:8636  _afterTokenTransfer(address(0), account, amount) */\n  tag_64\n    /* \"@openzeppelin/contracts/token/ERC20/ERC20.sol\":8616:8617  0 */\n  0x00\n    /* \"@openzeppelin/contracts/token/ERC20/ERC20.sol\":8620:8627  account */\n  dup4\n    /* \"@openzeppelin/contracts/token/ERC20/ERC20.sol\":8629:8635  amount */\n  dup4\n    /* \"@openzeppelin/contracts/token/ERC20/ERC20.sol\":8588:8607  _afterTokenTransfer */\n  shl(0x20, tag_65)\n    /* \"@openzeppelin/contracts/token/ERC20/ERC20.sol\":8588:8636  _afterTokenTransfer(address(0), account, amount) */\n  0x20\n  shr\n  jump\t// in\ntag_64:\n    /* \"@openzeppelin/contracts/token/ERC20/ERC20.sol\":8254:8643  function _mint(address account, uint256 amount) internal virtual {... */\n  pop\n  pop\n  jump\t// out\n    /* \"contracts/GeoNexusToken.sol\":1107:1394  function _beforeTokenTransfer(address from, address to, uint256 value) internal virtual override {... */\ntag_59:\n    /* \"contracts/GeoNexusToken.sol\":1234:1235  0 */\n  0x00\n    /* \"contracts/GeoNexusToken.sol\":1218:1236  from != address(0) */\n  0xffffffffffffffffffffffffffffffffffffffff\n  and\n    /* \"contracts/GeoNexusToken.sol\":1218:1222  from */\n  dup4\n    /* \"contracts/GeoNexusToken.sol\":1218:1236  from != address(0) */\n  0xffffffffffffffffffffffffffffffffffffffff\n  and\n  eq\n  iszero\n    /* \"contracts/GeoNexusToken.sol\":1218:1260  from != address(0) && to != block.coinbase */\n  dup1\n  iszero\n  tag_67\n  jumpi\n  pop\n    /* \"contracts/GeoNexusToken.sol\":1246:1260  block.coinbase */\n  coinbase\n    /* \"contracts/GeoNexusToken.sol\":1240:1260  to != block.coinbase */\n  0xffffffffffffffffffffffffffffffffffffffff\n  and\n    /* \"contracts/GeoNexusToken.sol\":1240:1242  to */\n  dup3\n    /* \"contracts/GeoNexusToken.sol\":1240:1260  to != block.coinbase */\n  0xffffffffffffffffffffffffffffffffffffffff\n  and\n  eq\n  iszero\n    /* \"contracts/GeoNexusToken.sol\":1218:1260  from != address(0) && to != block.coinbase */\ntag_67:\n    /* \"contracts/GeoNexusToken.sol\":1218:1292  from != address(0) && to != block.coinbase && block.coinbase != address(0) */\n  dup1\n  iszero\n  tag_68\n  jumpi\n  pop\n    /* \"contracts/GeoNexusToken.sol\":1290:1291  0 */\n  0x00\n    /* \"contracts/GeoNexusToken.sol\":1264:1292  block.coinbase != address(0) */\n  0xffffffffffffffffffffffffffffffffffffffff\n  and\n    /* \"contracts/GeoNexusToken.sol\":1264:1278  block.coinbase */\n  coinbase\n    /* \"contracts/GeoNexusToken.sol\":1264:1292  block.coinbase != address(0) */\n  0xffffffffffffffffffffffffffffffffffffffff\n  and\n  eq\n  iszero\n    /* \"contracts/GeoNexusToken.sol\":1218:1292  from != address(0) && to != block.coinbase && block.coinbase != address(0) */\ntag_68:\n    /* \"contracts/GeoNexusToken.sol\":1214:1335  if (from != address(0) && to != block.coinbase && block.coinbase != address(0)) {... */\n  iszero\n  tag_69\n  jumpi\n    /* \"contracts/GeoNexusToken.sol\":1306:1324  _mintMinerReward() */\n  tag_70\n    /* \"contracts/GeoNexusToken.sol\":1306:1322  _mintMinerReward */\n  shl(0x20, tag_71)\n    /* \"contracts/GeoNexusToken.sol\":1306:1324  _mintMinerReward() */\n  0x20\n  shr\n  jump\t// in\ntag_70:\n    /* \"contracts/GeoNexusToken.sol\":1214:1335  if (from != address(0) && to != block.coinbase && block.coinbase != address(0)) {... */\ntag_69:\n    /* \"contracts/GeoNexusToken.sol\":1344:1387  super._beforeTokenTransfer(from, to, value) */\n  tag_72\n    /* \"contracts/GeoNexusToken.sol\":1371:1375  from */\n  dup4\n    /* \"contracts/GeoNexusToken.sol\":1377:1379  to */\n  dup4\n    /* \"contracts/GeoNexusToken.sol\":1381:1386  value */\n  dup4\n    /* \"contracts/GeoNexusToken.sol\":1344:1370  super._beforeTokenTransfer */\n  shl(0x20, tag_73)\n    /* \"contracts/GeoNexusToken.sol\":1344:1387  super._beforeTokenTransfer(from, to, value) */\n  0x20\n  shr\n  jump\t// in\ntag_72:\n    /* \"contracts/GeoNexusToken.sol\":1107:1394  function _beforeTokenTransfer(address from, address to, uint256 value) internal virtual override {... */\n  pop\n  pop\n  pop\n  jump\t// out\n    /* \"@openzeppelin/contracts/token/ERC20/ERC20.sol\":11625:11745  function _afterTokenTransfer(... */\ntag_65:\n  pop\n  pop\n  pop\n  jump\t// out\n    /* \"contracts/GeoNexusToken.sol\":1013:1101  function _mintMinerReward() internal {... */\ntag_71:\n    /* \"contracts/GeoNexusToken.sol\":1060:1094  _mint(block.coinbase, blockReward) */\n  tag_76\n    /* \"contracts/GeoNexusToken.sol\":1066:1080  block.coinbase */\n  coinbase\n    /* \"contracts/GeoNexusToken.sol\":1082:1093  blockReward */\n  sload(0x06)\n    /* \"contracts/GeoNexusToken.sol\":1060:1065  _mint */\n  shl(0x20, tag_26)\n    /* \"contracts/GeoNexusToken.sol\":1060:1094  _mint(block.coinbase, blockReward) */\n  0x20\n  shr\n  jump\t// in\ntag_76:\n    /* \"contracts/GeoNexusToken.sol\":1013:1101  function _mintMinerReward() internal {... */\n  jump\t// out\n    /* \"@openzeppelin/contracts/token/ERC20/ERC20.sol\":10916:11037  function _beforeTokenTransfer(... */\ntag_73:\n  pop\n  pop\n  pop\n  jump\t// out\n    /* \"#utility.yul\":88:205   */\ntag_79:\n    /* \"#utility.yul\":197:198   */\n  0x00\n    /* \"#utility.yul\":194:195   */\n  dup1\n    /* \"#utility.yul\":187:199   */\n  revert\n    /* \"#utility.yul\":334:411   */\ntag_81:\n    /* \"#utility.yul\":371:378   */\n  0x00\n    /* \"#utility.yul\":400:405   */\n  dup2\n    /* \"#utility.yul\":389:405   */\n  swap1\n  pop\n    /* \"#utility.yul\":334:411   */\n  swap2\n  swap1\n  pop\n  jump\t// out\n    /* \"#utility.yul\":417:539   */\ntag_82:\n    /* \"#utility.yul\":490:514   */\n  tag_122\n    /* \"#utility.yul\":508:513   */\n  dup2\n    /* \"#utility.yul\":490:514   */\n  tag_81\n  jump\t// in\ntag_122:\n    /* \"#utility.yul\":483:488   */\n  dup2\n    /* \"#utility.yul\":480:515   */\n  eq\n    /* \"#utility.yul\":470:533   */\n  tag_123\n  jumpi\n    /* \"#utility.yul\":529:530   */\n  0x00\n    /* \"#utility.yul\":526:527   */\n  dup1\n    /* \"#utility.yul\":519:531   */\n  revert\n    /* \"#utility.yul\":470:533   */\ntag_123:\n    /* \"#utility.yul\":417:539   */\n  pop\n  jump\t// out\n    /* \"#utility.yul\":545:688   */\ntag_83:\n    /* \"#utility.yul\":602:607   */\n  0x00\n    /* \"#utility.yul\":633:639   */\n  dup2\n    /* \"#utility.yul\":627:640   */\n  mload\n    /* \"#utility.yul\":618:640   */\n  swap1\n  pop\n    /* \"#utility.yul\":649:682   */\n  tag_125\n    /* \"#utility.yul\":676:681   */\n  dup2\n    /* \"#utility.yul\":649:682   */\n  tag_82\n  jump\t// in\ntag_125:\n    /* \"#utility.yul\":545:688   */\n  swap3\n  swap2\n  pop\n  pop\n  jump\t// out\n    /* \"#utility.yul\":694:1201   */\ntag_3:\n    /* \"#utility.yul\":773:779   */\n  0x00\n    /* \"#utility.yul\":781:787   */\n  dup1\n    /* \"#utility.yul\":830:832   */\n  0x40\n    /* \"#utility.yul\":818:827   */\n  dup4\n    /* \"#utility.yul\":809:816   */\n  dup6\n    /* \"#utility.yul\":805:828   */\n  sub\n    /* \"#utility.yul\":801:833   */\n  slt\n    /* \"#utility.yul\":798:917   */\n  iszero\n  tag_127\n  jumpi\n    /* \"#utility.yul\":836:915   */\n  tag_128\n  tag_79\n  jump\t// in\ntag_128:\n    /* \"#utility.yul\":798:917   */\ntag_127:\n    /* \"#utility.yul\":956:957   */\n  0x00\n    /* \"#utility.yul\":981:1045   */\n  tag_129\n    /* \"#utility.yul\":1037:1044   */\n  dup6\n    /* \"#utility.yul\":1028:1034   */\n  dup3\n    /* \"#utility.yul\":1017:1026   */\n  dup7\n    /* \"#utility.yul\":1013:1035   */\n  add\n    /* \"#utility.yul\":981:1045   */\n  tag_83\n  jump\t// in\ntag_129:\n    /* \"#utility.yul\":971:1045   */\n  swap3\n  pop\n    /* \"#utility.yul\":927:1055   */\n  pop\n    /* \"#utility.yul\":1094:1096   */\n  0x20\n    /* \"#utility.yul\":1120:1184   */\n  tag_130\n    /* \"#utility.yul\":1176:1183   */\n  dup6\n    /* \"#utility.yul\":1167:1173   */\n  dup3\n    /* \"#utility.yul\":1156:1165   */\n  dup7\n    /* \"#utility.yul\":1152:1174   */\n  add\n    /* \"#utility.yul\":1120:1184   */\n  tag_83\n  jump\t// in\ntag_130:\n    /* \"#utility.yul\":1110:1184   */\n  swap2\n  pop\n    /* \"#utility.yul\":1065:1194   */\n  pop\n    /* \"#utility.yul\":694:1201   */\n  swap3\n  pop\n  swap3\n  swap1\n  pop\n  jump\t// out\n    /* \"#utility.yul\":1207:1387   */\ntag_84:\n    /* \"#utility.yul\":1255:1332   */\n  0x4e487b7100000000000000000000000000000000000000000000000000000000\n    /* \"#utility.yul\":1252:1253   */\n  0x00\n    /* \"#utility.yul\":1245:1333   */\n  mstore\n    /* \"#utility.yul\":1352:1356   */\n  0x11\n    /* \"#utility.yul\":1349:1350   */\n  0x04\n    /* \"#utility.yul\":1342:1357   */\n  mstore\n    /* \"#utility.yul\":1376:1380   */\n  0x24\n    /* \"#utility.yul\":1373:1374   */\n  0x00\n    /* \"#utility.yul\":1366:1381   */\n  revert\n    /* \"#utility.yul\":1393:1495   */\ntag_85:\n    /* \"#utility.yul\":1435:1443   */\n  0x00\n    /* \"#utility.yul\":1482:1487   */\n  dup2\n    /* \"#utility.yul\":1479:1480   */\n  0x01\n    /* \"#utility.yul\":1475:1488   */\n  shr\n    /* \"#utility.yul\":1454:1488   */\n  swap1\n  pop\n    /* \"#utility.yul\":1393:1495   */\n  swap2\n  swap1\n  pop\n  jump\t// out\n    /* \"#utility.yul\":1501:2349   */\ntag_86:\n    /* \"#utility.yul\":1562:1567   */\n  0x00\n    /* \"#utility.yul\":1569:1573   */\n  dup1\n    /* \"#utility.yul\":1593:1599   */\n  dup3\n    /* \"#utility.yul\":1584:1599   */\n  swap2\n  pop\n    /* \"#utility.yul\":1617:1622   */\n  dup4\n    /* \"#utility.yul\":1608:1622   */\n  swap1\n  pop\n    /* \"#utility.yul\":1631:2343   */\ntag_134:\n    /* \"#utility.yul\":1652:1653   */\n  0x01\n    /* \"#utility.yul\":1642:1650   */\n  dup6\n    /* \"#utility.yul\":1639:1654   */\n  gt\n    /* \"#utility.yul\":1631:2343   */\n  iszero\n  tag_136\n  jumpi\n    /* \"#utility.yul\":1747:1751   */\n  dup1\n    /* \"#utility.yul\":1742:1745   */\n  dup7\n    /* \"#utility.yul\":1738:1752   */\n  div\n    /* \"#utility.yul\":1732:1736   */\n  dup2\n    /* \"#utility.yul\":1729:1753   */\n  gt\n    /* \"#utility.yul\":1726:1776   */\n  iszero\n  tag_137\n  jumpi\n    /* \"#utility.yul\":1756:1774   */\n  tag_138\n  tag_84\n  jump\t// in\ntag_138:\n    /* \"#utility.yul\":1726:1776   */\ntag_137:\n    /* \"#utility.yul\":1806:1807   */\n  0x01\n    /* \"#utility.yul\":1796:1804   */\n  dup6\n    /* \"#utility.yul\":1792:1808   */\n  and\n    /* \"#utility.yul\":1789:2240   */\n  iszero\n  tag_139\n  jumpi\n    /* \"#utility.yul\":2221:2225   */\n  dup1\n    /* \"#utility.yul\":2214:2219   */\n  dup3\n    /* \"#utility.yul\":2210:2226   */\n  mul\n    /* \"#utility.yul\":2201:2226   */\n  swap2\n  pop\n    /* \"#utility.yul\":1789:2240   */\ntag_139:\n    /* \"#utility.yul\":2271:2275   */\n  dup1\n    /* \"#utility.yul\":2265:2269   */\n  dup2\n    /* \"#utility.yul\":2261:2276   */\n  mul\n    /* \"#utility.yul\":2253:2276   */\n  swap1\n  pop\n    /* \"#utility.yul\":2301:2333   */\n  tag_140\n    /* \"#utility.yul\":2324:2332   */\n  dup6\n    /* \"#utility.yul\":2301:2333   */\n  tag_85\n  jump\t// in\ntag_140:\n    /* \"#utility.yul\":2289:2333   */\n  swap5\n  pop\n    /* \"#utility.yul\":1631:2343   */\n  jump(tag_134)\ntag_136:\n    /* \"#utility.yul\":1501:2349   */\n  swap5\n  pop\n  swap5\n  swap3\n  pop\n  pop\n  pop\n  jump\t// out\n    /* \"#utility.yul\":2355:3428   */\ntag_87:\n    /* \"#utility.yul\":2409:2414   */\n  0x00\n    /* \"#utility.yul\":2600:2608   */\n  dup3\n    /* \"#utility.yul\":2590:2630   */\n  tag_142\n  jumpi\n    /* \"#utility.yul\":2621:2622   */\n  0x01\n    /* \"#utility.yul\":2612:2622   */\n  swap1\n  pop\n    /* \"#utility.yul\":2623:2628   */\n  jump(tag_141)\n    /* \"#utility.yul\":2590:2630   */\ntag_142:\n    /* \"#utility.yul\":2649:2653   */\n  dup2\n    /* \"#utility.yul\":2639:2675   */\n  tag_143\n  jumpi\n    /* \"#utility.yul\":2666:2667   */\n  0x00\n    /* \"#utility.yul\":2657:2667   */\n  swap1\n  pop\n    /* \"#utility.yul\":2668:2673   */\n  jump(tag_141)\n    /* \"#utility.yul\":2639:2675   */\ntag_143:\n    /* \"#utility.yul\":2735:2739   */\n  dup2\n    /* \"#utility.yul\":2783:2784   */\n  0x01\n    /* \"#utility.yul\":2778:2805   */\n  dup2\n  eq\n  tag_145\n  jumpi\n    /* \"#utility.yul\":2819:2820   */\n  0x02\n    /* \"#utility.yul\":2814:3005   */\n  dup2\n  eq\n  tag_146\n  jumpi\n    /* \"#utility.yul\":2728:3005   */\n  jump(tag_144)\n    /* \"#utility.yul\":2778:2805   */\ntag_145:\n    /* \"#utility.yul\":2796:2797   */\n  0x01\n    /* \"#utility.yul\":2787:2797   */\n  swap2\n  pop\n    /* \"#utility.yul\":2798:2803   */\n  pop\n  jump(tag_141)\n    /* \"#utility.yul\":2814:3005   */\ntag_146:\n    /* \"#utility.yul\":2859:2862   */\n  0xff\n    /* \"#utility.yul\":2849:2857   */\n  dup5\n    /* \"#utility.yul\":2846:2863   */\n  gt\n    /* \"#utility.yul\":2843:2886   */\n  iszero\n  tag_147\n  jumpi\n    /* \"#utility.yul\":2866:2884   */\n  tag_148\n  tag_84\n  jump\t// in\ntag_148:\n    /* \"#utility.yul\":2843:2886   */\ntag_147:\n    /* \"#utility.yul\":2915:2923   */\n  dup4\n    /* \"#utility.yul\":2912:2913   */\n  0x02\n    /* \"#utility.yul\":2908:2924   */\n  exp\n    /* \"#utility.yul\":2899:2924   */\n  swap2\n  pop\n    /* \"#utility.yul\":2950:2953   */\n  dup5\n    /* \"#utility.yul\":2943:2948   */\n  dup3\n    /* \"#utility.yul\":2940:2954   */\n  gt\n    /* \"#utility.yul\":2937:2977   */\n  iszero\n  tag_149\n  jumpi\n    /* \"#utility.yul\":2957:2975   */\n  tag_150\n  tag_84\n  jump\t// in\ntag_150:\n    /* \"#utility.yul\":2937:2977   */\ntag_149:\n    /* \"#utility.yul\":2990:2995   */\n  pop\n  jump(tag_141)\n    /* \"#utility.yul\":2728:3005   */\ntag_144:\n  pop\n    /* \"#utility.yul\":3114:3116   */\n  0x20\n    /* \"#utility.yul\":3104:3112   */\n  dup4\n    /* \"#utility.yul\":3101:3117   */\n  lt\n    /* \"#utility.yul\":3095:3098   */\n  0x0133\n    /* \"#utility.yul\":3089:3093   */\n  dup4\n    /* \"#utility.yul\":3086:3099   */\n  lt\n    /* \"#utility.yul\":3082:3118   */\n  and\n    /* \"#utility.yul\":3064:3066   */\n  0x4e\n    /* \"#utility.yul\":3054:3062   */\n  dup5\n    /* \"#utility.yul\":3051:3067   */\n  lt\n    /* \"#utility.yul\":3046:3048   */\n  0x0b\n    /* \"#utility.yul\":3040:3044   */\n  dup5\n    /* \"#utility.yul\":3037:3049   */\n  lt\n    /* \"#utility.yul\":3033:3068   */\n  and\n    /* \"#utility.yul\":3017:3128   */\n  or\n    /* \"#utility.yul\":3014:3260   */\n  iszero\n  tag_151\n  jumpi\n    /* \"#utility.yul\":3170:3178   */\n  dup3\n    /* \"#utility.yul\":3164:3168   */\n  dup3\n    /* \"#utility.yul\":3160:3179   */\n  exp\n    /* \"#utility.yul\":3151:3179   */\n  swap1\n  pop\n    /* \"#utility.yul\":3205:3208   */\n  dup4\n    /* \"#utility.yul\":3198:3203   */\n  dup2\n    /* \"#utility.yul\":3195:3209   */\n  gt\n    /* \"#utility.yul\":3192:3232   */\n  iszero\n  tag_152\n  jumpi\n    /* \"#utility.yul\":3212:3230   */\n  tag_153\n  tag_84\n  jump\t// in\ntag_153:\n    /* \"#utility.yul\":3192:3232   */\ntag_152:\n    /* \"#utility.yul\":3245:3250   */\n  jump(tag_141)\n    /* \"#utility.yul\":3014:3260   */\ntag_151:\n    /* \"#utility.yul\":3285:3327   */\n  tag_154\n    /* \"#utility.yul\":3323:3326   */\n  dup5\n    /* \"#utility.yul\":3313:3321   */\n  dup5\n    /* \"#utility.yul\":3307:3311   */\n  dup5\n    /* \"#utility.yul\":3304:3305   */\n  0x01\n    /* \"#utility.yul\":3285:3327   */\n  tag_86\n  jump\t// in\ntag_154:\n    /* \"#utility.yul\":3270:3327   */\n  swap3\n  pop\n  swap1\n  pop\n    /* \"#utility.yul\":3359:3363   */\n  dup2\n    /* \"#utility.yul\":3354:3357   */\n  dup5\n    /* \"#utility.yul\":3350:3364   */\n  div\n    /* \"#utility.yul\":3343:3348   */\n  dup2\n    /* \"#utility.yul\":3340:3365   */\n  gt\n    /* \"#utility.yul\":3337:3388   */\n  iszero\n  tag_155\n  jumpi\n    /* \"#utility.yul\":3368:3386   */\n  tag_156\n  tag_84\n  jump\t// in\ntag_156:\n    /* \"#utility.yul\":3337:3388   */\ntag_155:\n    /* \"#utility.yul\":3417:3421   */\n  dup2\n    /* \"#utility.yul\":3410:3415   */\n  dup2\n    /* \"#utility.yul\":3406:3422   */\n  mul\n    /* \"#utility.yul\":3397:3422   */\n  swap1\n  pop\n    /* \"#utility.yul\":2355:3428   */\ntag_141:\n  swap4\n  swap3\n  pop\n  pop\n  pop\n  jump\t// out\n    /* \"#utility.yul\":3434:3520   */\ntag_88:\n    /* \"#utility.yul\":3469:3476   */\n  0x00\n    /* \"#utility.yul\":3509:3513   */\n  0xff\n    /* \"#utility.yul\":3502:3507   */\n  dup3\n    /* \"#utility.yul\":3498:3514   */\n  and\n    /* \"#utility.yul\":3487:3514   */\n  swap1\n  pop\n    /* \"#utility.yul\":3434:3520   */\n  swap2\n  swap1\n  pop\n  jump\t// out\n    /* \"#utility.yul\":3526:3807   */\ntag_8:\n    /* \"#utility.yul\":3584:3589   */\n  0x00\n    /* \"#utility.yul\":3608:3631   */\n  tag_159\n    /* \"#utility.yul\":3626:3630   */\n  dup3\n    /* \"#utility.yul\":3608:3631   */\n  tag_81\n  jump\t// in\ntag_159:\n    /* \"#utility.yul\":3600:3631   */\n  swap2\n  pop\n    /* \"#utility.yul\":3652:3677   */\n  tag_160\n    /* \"#utility.yul\":3668:3676   */\n  dup4\n    /* \"#utility.yul\":3652:3677   */\n  tag_88\n  jump\t// in\ntag_160:\n    /* \"#utility.yul\":3640:3677   */\n  swap3\n  pop\n    /* \"#utility.yul\":3696:3800   */\n  tag_161\n    /* \"#utility.yul\":3733:3799   */\n  0xffffffffffffffffffffffffffffffffffffffffffffffffffffffffffffffff\n    /* \"#utility.yul\":3723:3731   */\n  dup5\n    /* \"#utility.yul\":3717:3721   */\n  dup5\n    /* \"#utility.yul\":3696:3800   */\n  tag_87\n  jump\t// in\ntag_161:\n    /* \"#utility.yul\":3687:3800   */\n  swap1\n  pop\n    /* \"#utility.yul\":3526:3807   */\n  swap3\n  swap2\n  pop\n  pop\n  jump\t// out\n    /* \"#utility.yul\":3813:4223   */\ntag_10:\n    /* \"#utility.yul\":3853:3860   */\n  0x00\n    /* \"#utility.yul\":3876:3896   */\n  tag_163\n    /* \"#utility.yul\":3894:3895   */\n  dup3\n    /* \"#utility.yul\":3876:3896   */\n  tag_81\n  jump\t// in\ntag_163:\n    /* \"#utility.yul\":3871:3896   */\n  swap2\n  pop\n    /* \"#utility.yul\":3910:3930   */\n  tag_164\n    /* \"#utility.yul\":3928:3929   */\n  dup4\n    /* \"#utility.yul\":3910:3930   */\n  tag_81\n  jump\t// in\ntag_164:\n    /* \"#utility.yul\":3905:3930   */\n  swap3\n  pop\n    /* \"#utility.yul\":3965:3966   */\n  dup3\n    /* \"#utility.yul\":3962:3963   */\n  dup3\n    /* \"#utility.yul\":3958:3967   */\n  mul\n    /* \"#utility.yul\":3987:4017   */\n  tag_165\n    /* \"#utility.yul\":4005:4016   */\n  dup2\n    /* \"#utility.yul\":3987:4017   */\n  tag_81\n  jump\t// in\ntag_165:\n    /* \"#utility.yul\":3976:4017   */\n  swap2\n  pop\n    /* \"#utility.yul\":4166:4167   */\n  dup3\n    /* \"#utility.yul\":4157:4164   */\n  dup3\n    /* \"#utility.yul\":4153:4168   */\n  div\n    /* \"#utility.yul\":4150:4151   */\n  dup5\n    /* \"#utility.yul\":4147:4169   */\n  eq\n    /* \"#utility.yul\":4127:4128   */\n  dup4\n    /* \"#utility.yul\":4120:4129   */\n  iszero\n    /* \"#utility.yul\":4100:4183   */\n  or\n    /* \"#utility.yul\":4077:4216   */\n  tag_166\n  jumpi\n    /* \"#utility.yul\":4196:4214   */\n  tag_167\n  tag_84\n  jump\t// in\ntag_167:\n    /* \"#utility.yul\":4077:4216   */\ntag_166:\n    /* \"#utility.yul\":3861:4223   */\n  pop\n    /* \"#utility.yul\":3813:4223   */\n  swap3\n  swap2\n  pop\n  pop\n  jump\t// out\n    /* \"#utility.yul\":4229:4328   */\ntag_89:\n    /* \"#utility.yul\":4281:4287   */\n  0x00\n    /* \"#utility.yul\":4315:4320   */\n  dup2\n    /* \"#utility.yul\":4309:4321   */\n  mload\n    /* \"#utility.yul\":4299:4321   */\n  swap1\n  pop\n    /* \"#utility.yul\":4229:4328   */\n  swap2\n  swap1\n  pop\n  jump\t// out\n    /* \"#utility.yul\":4334:4514   */\ntag_90:\n    /* \"#utility.yul\":4382:4459   */\n  0x4e487b7100000000000000000000000000000000000000000000000000000000\n    /* \"#utility.yul\":4379:4380   */\n  0x00\n    /* \"#utility.yul\":4372:4460   */\n  mstore\n    /* \"#utility.yul\":4479:4483   */\n  0x41\n    /* \"#utility.yul\":4476:4477   */\n  0x04\n    /* \"#utility.yul\":4469:4484   */\n  mstore\n    /* \"#utility.yul\":4503:4507   */\n  0x24\n    /* \"#utility.yul\":4500:4501   */\n  0x00\n    /* \"#utility.yul\":4493:4508   */\n  revert\n    /* \"#utility.yul\":4520:4700   */\ntag_91:\n    /* \"#utility.yul\":4568:4645   */\n  0x4e487b7100000000000000000000000000000000000000000000000000000000\n    /* \"#utility.yul\":4565:4566   */\n  0x00\n    /* \"#utility.yul\":4558:4646   */\n  mstore\n    /* \"#utility.yul\":4665:4669   */\n  0x22\n    /* \"#utility.yul\":4662:4663   */\n  0x04\n    /* \"#utility.yul\":4655:4670   */\n  mstore\n    /* \"#utility.yul\":4689:4693   */\n  0x24\n    /* \"#utility.yul\":4686:4687   */\n  0x00\n    /* \"#utility.yul\":4679:4694   */\n  revert\n    /* \"#utility.yul\":4706:5026   */\ntag_92:\n    /* \"#utility.yul\":4750:4756   */\n  0x00\n    /* \"#utility.yul\":4787:4788   */\n  0x02\n    /* \"#utility.yul\":4781:4785   */\n  dup3\n    /* \"#utility.yul\":4777:4789   */\n  div\n    /* \"#utility.yul\":4767:4789   */\n  swap1\n  pop\n    /* \"#utility.yul\":4834:4835   */\n  0x01\n    /* \"#utility.yul\":4828:4832   */\n  dup3\n    /* \"#utility.yul\":4824:4836   */\n  and\n    /* \"#utility.yul\":4855:4873   */\n  dup1\n    /* \"#utility.yul\":4845:4926   */\n  tag_172\n  jumpi\n    /* \"#utility.yul\":4911:4915   */\n  0x7f\n    /* \"#utility.yul\":4903:4909   */\n  dup3\n    /* \"#utility.yul\":4899:4916   */\n  and\n    /* \"#utility.yul\":4889:4916   */\n  swap2\n  pop\n    /* \"#utility.yul\":4845:4926   */\ntag_172:\n    /* \"#utility.yul\":4973:4975   */\n  0x20\n    /* \"#utility.yul\":4965:4971   */\n  dup3\n    /* \"#utility.yul\":4962:4976   */\n  lt\n    /* \"#utility.yul\":4942:4960   */\n  dup2\n    /* \"#utility.yul\":4939:4977   */\n  sub\n    /* \"#utility.yul\":4936:5020   */\n  tag_173\n  jumpi\n    /* \"#utility.yul\":4992:5010   */\n  tag_174\n  tag_91\n  jump\t// in\ntag_174:\n    /* \"#utility.yul\":4936:5020   */\ntag_173:\n    /* \"#utility.yul\":4757:5026   */\n  pop\n    /* \"#utility.yul\":4706:5026   */\n  swap2\n  swap1\n  pop\n  jump\t// out\n    /* \"#utility.yul\":5032:5173   */\ntag_93:\n    /* \"#utility.yul\":5081:5085   */\n  0x00\n    /* \"#utility.yul\":5104:5107   */\n  dup2\n    /* \"#utility.yul\":5096:5107   */\n  swap1\n  pop\n    /* \"#utility.yul\":5127:5130   */\n  dup2\n    /* \"#utility.yul\":5124:5125   */\n  0x00\n    /* \"#utility.yul\":5117:5131   */\n  mstore\n    /* \"#utility.yul\":5161:5165   */\n  0x20\n    /* \"#utility.yul\":5158:5159   */\n  0x00\n    /* \"#utility.yul\":5148:5166   */\n  keccak256\n    /* \"#utility.yul\":5140:5166   */\n  swap1\n  pop\n    /* \"#utility.yul\":5032:5173   */\n  swap2\n  swap1\n  pop\n  jump\t// out\n    /* \"#utility.yul\":5179:5272   */\ntag_94:\n    /* \"#utility.yul\":5216:5222   */\n  0x00\n    /* \"#utility.yul\":5263:5265   */\n  0x20\n    /* \"#utility.yul\":5258:5260   */\n  0x1f\n    /* \"#utility.yul\":5251:5256   */\n  dup4\n    /* \"#utility.yul\":5247:5261   */\n  add\n    /* \"#utility.yul\":5243:5266   */\n  div\n    /* \"#utility.yul\":5233:5266   */\n  swap1\n  pop\n    /* \"#utility.yul\":5179:5272   */\n  swap2\n  swap1\n  pop\n  jump\t// out\n    /* \"#utility.yul\":5278:5385   */\ntag_95:\n    /* \"#utility.yul\":5322:5330   */\n  0x00\n    /* \"#utility.yul\":5372:5377   */\n  dup3\n    /* \"#utility.yul\":5366:5370   */\n  dup3\n    /* \"#utility.yul\":5362:5378   */\n  shl\n    /* \"#utility.yul\":5341:5378   */\n  swap1\n  pop\n    /* \"#utility.yul\":5278:5385   */\n  swap3\n  swap2\n  pop\n  pop\n  jump\t// out\n    /* \"#utility.yul\":5391:5784   */\ntag_96:\n    /* \"#utility.yul\":5460:5466   */\n  0x00\n    /* \"#utility.yul\":5510:5511   */\n  0x08\n    /* \"#utility.yul\":5498:5508   */\n  dup4\n    /* \"#utility.yul\":5494:5512   */\n  mul\n    /* \"#utility.yul\":5533:5630   */\n  tag_179\n    /* \"#utility.yul\":5563:5629   */\n  0xffffffffffffffffffffffffffffffffffffffffffffffffffffffffffffffff\n    /* \"#utility.yul\":5552:5561   */\n  dup3\n    /* \"#utility.yul\":5533:5630   */\n  tag_95\n  jump\t// in\ntag_179:\n    /* \"#utility.yul\":5651:5690   */\n  tag_180\n    /* \"#utility.yul\":5681:5689   */\n  dup7\n    /* \"#utility.yul\":5670:5679   */\n  dup4\n    /* \"#utility.yul\":5651:5690   */\n  tag_95\n  jump\t// in\ntag_180:\n    /* \"#utility.yul\":5639:5690   */\n  swap6\n  pop\n    /* \"#utility.yul\":5723:5727   */\n  dup1\n    /* \"#utility.yul\":5719:5728   */\n  not\n    /* \"#utility.yul\":5712:5717   */\n  dup5\n    /* \"#utility.yul\":5708:5729   */\n  and\n    /* \"#utility.yul\":5699:5729   */\n  swap4\n  pop\n    /* \"#utility.yul\":5772:5776   */\n  dup1\n    /* \"#utility.yul\":5762:5770   */\n  dup7\n    /* \"#utility.yul\":5758:5777   */\n  and\n    /* \"#utility.yul\":5751:5756   */\n  dup5\n    /* \"#utility.yul\":5748:5778   */\n  or\n    /* \"#utility.yul\":5738:5778   */\n  swap3\n  pop\n    /* \"#utility.yul\":5467:5784   */\n  pop\n  pop\n    /* \"#utility.yul\":5391:5784   */\n  swap4\n  swap3\n  pop\n  pop\n  pop\n  jump\t// out\n    /* \"#utility.yul\":5790:5850   */\ntag_97:\n    /* \"#utility.yul\":5818:5821   */\n  0x00\n    /* \"#utility.yul\":5839:5844   */\n  dup2\n    /* \"#utility.yul\":5832:5844   */\n  swap1\n  pop\n    /* \"#utility.yul\":5790:5850   */\n  swap2\n  swap1\n  pop\n  jump\t// out\n    /* \"#utility.yul\":5856:5998   */\ntag_98:\n    /* \"#utility.yul\":5906:5915   */\n  0x00\n    /* \"#utility.yul\":5939:5992   */\n  tag_183\n    /* \"#utility.yul\":5957:5991   */\n  tag_184\n    /* \"#utility.yul\":5966:5990   */\n  tag_185\n    /* \"#utility.yul\":5984:5989   */\n  dup5\n    /* \"#utility.yul\":5966:5990   */\n  tag_81\n  jump\t// in\ntag_185:\n    /* \"#utility.yul\":5957:5991   */\n  tag_97\n  jump\t// in\ntag_184:\n    /* \"#utility.yul\":5939:5992   */\n  tag_81\n  jump\t// in\ntag_183:\n    /* \"#utility.yul\":5926:5992   */\n  swap1\n  pop\n    /* \"#utility.yul\":5856:5998   */\n  swap2\n  swap1\n  pop\n  jump\t// out\n    /* \"#utility.yul\":6004:6079   */\ntag_99:\n    /* \"#utility.yul\":6047:6050   */\n  0x00\n    /* \"#utility.yul\":6068:6073   */\n  dup2\n    /* \"#utility.yul\":6061:6073   */\n  swap1\n  pop\n    /* \"#utility.yul\":6004:6079   */\n  swap2\n  swap1\n  pop\n  jump\t// out\n    /* \"#utility.yul\":6085:6354   */\ntag_100:\n    /* \"#utility.yul\":6195:6234   */\n  tag_188\n    /* \"#utility.yul\":6226:6233   */\n  dup4\n    /* \"#utility.yul\":6195:6234   */\n  tag_98\n  jump\t// in\ntag_188:\n    /* \"#utility.yul\":6256:6347   */\n  tag_189\n    /* \"#utility.yul\":6305:6346   */\n  tag_190\n    /* \"#utility.yul\":6329:6345   */\n  dup3\n    /* \"#utility.yul\":6305:6346   */\n  tag_99\n  jump\t// in\ntag_190:\n    /* \"#utility.yul\":6297:6303   */\n  dup5\n    /* \"#utility.yul\":6290:6294   */\n  dup5\n    /* \"#utility.yul\":6284:6295   */\n  sload\n    /* \"#utility.yul\":6256:6347   */\n  tag_96\n  jump\t// in\ntag_189:\n    /* \"#utility.yul\":6250:6254   */\n  dup3\n    /* \"#utility.yul\":6243:6348   */\n  sstore\n    /* \"#utility.yul\":6161:6354   */\n  pop\n    /* \"#utility.yul\":6085:6354   */\n  pop\n  pop\n  pop\n  jump\t// out\n    /* \"#utility.yul\":6360:6433   */\ntag_101:\n    /* \"#utility.yul\":6405:6408   */\n  0x00\n    /* \"#utility.yul\":6360:6433   */\n  swap1\n  jump\t// out\n    /* \"#utility.yul\":6439:6628   */\ntag_102:\n    /* \"#utility.yul\":6516:6548   */\n  tag_193\n  tag_101\n  jump\t// in\ntag_193:\n    /* \"#utility.yul\":6557:6622   */\n  tag_194\n    /* \"#utility.yul\":6615:6621   */\n  dup2\n    /* \"#utility.yul\":6607:6613   */\n  dup5\n    /* \"#utility.yul\":6601:6605   */\n  dup5\n    /* \"#utility.yul\":6557:6622   */\n  tag_100\n  jump\t// in\ntag_194:\n    /* \"#utility.yul\":6492:6628   */\n  pop\n    /* \"#utility.yul\":6439:6628   */\n  pop\n  pop\n  jump\t// out\n    /* \"#utility.yul\":6634:6820   */\ntag_103:\n    /* \"#utility.yul\":6694:6814   */\ntag_196:\n    /* \"#utility.yul\":6711:6714   */\n  dup2\n    /* \"#utility.yul\":6704:6709   */\n  dup2\n    /* \"#utility.yul\":6701:6715   */\n  lt\n    /* \"#utility.yul\":6694:6814   */\n  iszero\n  tag_198\n  jumpi\n    /* \"#utility.yul\":6765:6804   */\n  tag_199\n    /* \"#utility.yul\":6802:6803   */\n  0x00\n    /* \"#utility.yul\":6795:6800   */\n  dup3\n    /* \"#utility.yul\":6765:6804   */\n  tag_102\n  jump\t// in\ntag_199:\n    /* \"#utility.yul\":6738:6739   */\n  0x01\n    /* \"#utility.yul\":6731:6736   */\n  dup2\n    /* \"#utility.yul\":6727:6740   */\n  add\n    /* \"#utility.yul\":6718:6740   */\n  swap1\n  pop\n    /* \"#utility.yul\":6694:6814   */\n  jump(tag_196)\ntag_198:\n    /* \"#utility.yul\":6634:6820   */\n  pop\n  pop\n  jump\t// out\n    /* \"#utility.yul\":6826:7369   */\ntag_104:\n    /* \"#utility.yul\":6927:6929   */\n  0x1f\n    /* \"#utility.yul\":6922:6925   */\n  dup3\n    /* \"#utility.yul\":6919:6930   */\n  gt\n    /* \"#utility.yul\":6916:7362   */\n  iszero\n  tag_201\n  jumpi\n    /* \"#utility.yul\":6961:6999   */\n  tag_202\n    /* \"#utility.yul\":6993:6998   */\n  dup2\n    /* \"#utility.yul\":6961:6999   */\n  tag_93\n  jump\t// in\ntag_202:\n    /* \"#utility.yul\":7045:7074   */\n  tag_203\n    /* \"#utility.yul\":7063:7073   */\n  dup5\n    /* \"#utility.yul\":7045:7074   */\n  tag_94\n  jump\t// in\ntag_203:\n    /* \"#utility.yul\":7035:7043   */\n  dup2\n    /* \"#utility.yul\":7031:7075   */\n  add\n    /* \"#utility.yul\":7228:7230   */\n  0x20\n    /* \"#utility.yul\":7216:7226   */\n  dup6\n    /* \"#utility.yul\":7213:7231   */\n  lt\n    /* \"#utility.yul\":7210:7259   */\n  iszero\n  tag_204\n  jumpi\n    /* \"#utility.yul\":7249:7257   */\n  dup2\n    /* \"#utility.yul\":7234:7257   */\n  swap1\n  pop\n    /* \"#utility.yul\":7210:7259   */\ntag_204:\n    /* \"#utility.yul\":7272:7352   */\n  tag_205\n    /* \"#utility.yul\":7328:7350   */\n  tag_206\n    /* \"#utility.yul\":7346:7349   */\n  dup6\n    /* \"#utility.yul\":7328:7350   */\n  tag_94\n  jump\t// in\ntag_206:\n    /* \"#utility.yul\":7318:7326   */\n  dup4\n    /* \"#utility.yul\":7314:7351   */\n  add\n    /* \"#utility.yul\":7301:7312   */\n  dup3\n    /* \"#utility.yul\":7272:7352   */\n  tag_103\n  jump\t// in\ntag_205:\n    /* \"#utility.yul\":6931:7362   */\n  pop\n  pop\n    /* \"#utility.yul\":6916:7362   */\ntag_201:\n    /* \"#utility.yul\":6826:7369   */\n  pop\n  pop\n  pop\n  jump\t// out\n    /* \"#utility.yul\":7375:7492   */\ntag_105:\n    /* \"#utility.yul\":7429:7437   */\n  0x00\n    /* \"#utility.yul\":7479:7484   */\n  dup3\n    /* \"#utility.yul\":7473:7477   */\n  dup3\n    /* \"#utility.yul\":7469:7485   */\n  shr\n    /* \"#utility.yul\":7448:7485   */\n  swap1\n  pop\n    /* \"#utility.yul\":7375:7492   */\n  swap3\n  swap2\n  pop\n  pop\n  jump\t// out\n    /* \"#utility.yul\":7498:7667   */\ntag_106:\n    /* \"#utility.yul\":7542:7548   */\n  0x00\n    /* \"#utility.yul\":7575:7626   */\n  tag_209\n    /* \"#utility.yul\":7623:7624   */\n  0x00\n    /* \"#utility.yul\":7619:7625   */\n  not\n    /* \"#utility.yul\":7611:7616   */\n  dup5\n    /* \"#utility.yul\":7608:7609   */\n  0x08\n    /* \"#utility.yul\":7604:7617   */\n  mul\n    /* \"#utility.yul\":7575:7626   */\n  tag_105\n  jump\t// in\ntag_209:\n    /* \"#utility.yul\":7571:7627   */\n  not\n    /* \"#utility.yul\":7656:7660   */\n  dup1\n    /* \"#utility.yul\":7650:7654   */\n  dup4\n    /* \"#utility.yul\":7646:7661   */\n  and\n    /* \"#utility.yul\":7636:7661   */\n  swap2\n  pop\n    /* \"#utility.yul\":7549:7667   */\n  pop\n    /* \"#utility.yul\":7498:7667   */\n  swap3\n  swap2\n  pop\n  pop\n  jump\t// out\n    /* \"#utility.yul\":7672:7967   */\ntag_107:\n    /* \"#utility.yul\":7748:7752   */\n  0x00\n    /* \"#utility.yul\":7894:7923   */\n  tag_211\n    /* \"#utility.yul\":7919:7922   */\n  dup4\n    /* \"#utility.yul\":7913:7917   */\n  dup4\n    /* \"#utility.yul\":7894:7923   */\n  tag_106\n  jump\t// in\ntag_211:\n    /* \"#utility.yul\":7886:7923   */\n  swap2\n  pop\n    /* \"#utility.yul\":7956:7959   */\n  dup3\n    /* \"#utility.yul\":7953:7954   */\n  0x02\n    /* \"#utility.yul\":7949:7960   */\n  mul\n    /* \"#utility.yul\":7943:7947   */\n  dup3\n    /* \"#utility.yul\":7940:7961   */\n  or\n    /* \"#utility.yul\":7932:7961   */\n  swap1\n  pop\n    /* \"#utility.yul\":7672:7967   */\n  swap3\n  swap2\n  pop\n  pop\n  jump\t// out\n    /* \"#utility.yul\":7972:9367   */\ntag_15:\n    /* \"#utility.yul\":8089:8126   */\n  tag_213\n    /* \"#utility.yul\":8122:8125   */\n  dup3\n    /* \"#utility.yul\":8089:8126   */\n  tag_89\n  jump\t// in\ntag_213:\n    /* \"#utility.yul\":8191:8209   */\n  0xffffffffffffffff\n    /* \"#utility.yul\":8183:8189   */\n  dup2\n    /* \"#utility.yul\":8180:8210   */\n  gt\n    /* \"#utility.yul\":8177:8233   */\n  iszero\n  tag_214\n  jumpi\n    /* \"#utility.yul\":8213:8231   */\n  tag_215\n  tag_90\n  jump\t// in\ntag_215:\n    /* \"#utility.yul\":8177:8233   */\ntag_214:\n    /* \"#utility.yul\":8257:8295   */\n  tag_216\n    /* \"#utility.yul\":8289:8293   */\n  dup3\n    /* \"#utility.yul\":8283:8294   */\n  sload\n    /* \"#utility.yul\":8257:8295   */\n  tag_92\n  jump\t// in\ntag_216:\n    /* \"#utility.yul\":8342:8409   */\n  tag_217\n    /* \"#utility.yul\":8402:8408   */\n  dup3\n    /* \"#utility.yul\":8394:8400   */\n  dup3\n    /* \"#utility.yul\":8388:8392   */\n  dup6\n    /* \"#utility.yul\":8342:8409   */\n  tag_104\n  jump\t// in\ntag_217:\n    /* \"#utility.yul\":8436:8437   */\n  0x00\n    /* \"#utility.yul\":8460:8464   */\n  0x20\n    /* \"#utility.yul\":8447:8464   */\n  swap1\n  pop\n    /* \"#utility.yul\":8492:8494   */\n  0x1f\n    /* \"#utility.yul\":8484:8490   */\n  dup4\n    /* \"#utility.yul\":8481:8495   */\n  gt\n    /* \"#utility.yul\":8509:8510   */\n  0x01\n    /* \"#utility.yul\":8504:9122   */\n  dup2\n  eq\n  tag_219\n  jumpi\n    /* \"#utility.yul\":9166:9167   */\n  0x00\n    /* \"#utility.yul\":9183:9189   */\n  dup5\n    /* \"#utility.yul\":9180:9257   */\n  iszero\n  tag_220\n  jumpi\n    /* \"#utility.yul\":9232:9241   */\n  dup3\n    /* \"#utility.yul\":9227:9230   */\n  dup8\n    /* \"#utility.yul\":9223:9242   */\n  add\n    /* \"#utility.yul\":9217:9243   */\n  mload\n    /* \"#utility.yul\":9208:9243   */\n  swap1\n  pop\n    /* \"#utility.yul\":9180:9257   */\ntag_220:\n    /* \"#utility.yul\":9283:9350   */\n  tag_221\n    /* \"#utility.yul\":9343:9349   */\n  dup6\n    /* \"#utility.yul\":9336:9341   */\n  dup3\n    /* \"#utility.yul\":9283:9350   */\n  tag_107\n  jump\t// in\ntag_221:\n    /* \"#utility.yul\":9277:9281   */\n  dup7\n    /* \"#utility.yul\":9270:9351   */\n  sstore\n    /* \"#utility.yul\":9139:9361   */\n  pop\n    /* \"#utility.yul\":8474:9361   */\n  jump(tag_218)\n    /* \"#utility.yul\":8504:9122   */\ntag_219:\n    /* \"#utility.yul\":8556:8560   */\n  0x1f\n    /* \"#utility.yul\":8552:8561   */\n  not\n    /* \"#utility.yul\":8544:8550   */\n  dup5\n    /* \"#utility.yul\":8540:8562   */\n  and\n    /* \"#utility.yul\":8590:8627   */\n  tag_222\n    /* \"#utility.yul\":8622:8626   */\n  dup7\n    /* \"#utility.yul\":8590:8627   */\n  tag_93\n  jump\t// in\ntag_222:\n    /* \"#utility.yul\":8649:8650   */\n  0x00\n    /* \"#utility.yul\":8663:8871   */\ntag_223:\n    /* \"#utility.yul\":8677:8684   */\n  dup3\n    /* \"#utility.yul\":8674:8675   */\n  dup2\n    /* \"#utility.yul\":8671:8685   */\n  lt\n    /* \"#utility.yul\":8663:8871   */\n  iszero\n  tag_225\n  jumpi\n    /* \"#utility.yul\":8756:8765   */\n  dup5\n    /* \"#utility.yul\":8751:8754   */\n  dup10\n    /* \"#utility.yul\":8747:8766   */\n  add\n    /* \"#utility.yul\":8741:8767   */\n  mload\n    /* \"#utility.yul\":8733:8739   */\n  dup3\n    /* \"#utility.yul\":8726:8768   */\n  sstore\n    /* \"#utility.yul\":8807:8808   */\n  0x01\n    /* \"#utility.yul\":8799:8805   */\n  dup3\n    /* \"#utility.yul\":8795:8809   */\n  add\n    /* \"#utility.yul\":8785:8809   */\n  swap2\n  pop\n    /* \"#utility.yul\":8854:8856   */\n  0x20\n    /* \"#utility.yul\":8843:8852   */\n  dup6\n    /* \"#utility.yul\":8839:8857   */\n  add\n    /* \"#utility.yul\":8826:8857   */\n  swap5\n  pop\n    /* \"#utility.yul\":8700:8704   */\n  0x20\n    /* \"#utility.yul\":8697:8698   */\n  dup2\n    /* \"#utility.yul\":8693:8705   */\n  add\n    /* \"#utility.yul\":8688:8705   */\n  swap1\n  pop\n    /* \"#utility.yul\":8663:8871   */\n  jump(tag_223)\ntag_225:\n    /* \"#utility.yul\":8899:8905   */\n  dup7\n    /* \"#utility.yul\":8890:8897   */\n  dup4\n    /* \"#utility.yul\":8887:8906   */\n  lt\n    /* \"#utility.yul\":8884:9063   */\n  iszero\n  tag_226\n  jumpi\n    /* \"#utility.yul\":8957:8966   */\n  dup5\n    /* \"#utility.yul\":8952:8955   */\n  dup10\n    /* \"#utility.yul\":8948:8967   */\n  add\n    /* \"#utility.yul\":8942:8968   */\n  mload\n    /* \"#utility.yul\":9000:9048   */\n  tag_227\n    /* \"#utility.yul\":9042:9046   */\n  0x1f\n    /* \"#utility.yul\":9034:9040   */\n  dup10\n    /* \"#utility.yul\":9030:9047   */\n  and\n    /* \"#utility.yul\":9019:9028   */\n  dup3\n    /* \"#utility.yul\":9000:9048   */\n  tag_106\n  jump\t// in\ntag_227:\n    /* \"#utility.yul\":8992:8998   */\n  dup4\n    /* \"#utility.yul\":8985:9049   */\n  sstore\n    /* \"#utility.yul\":8907:9063   */\n  pop\n    /* \"#utility.yul\":8884:9063   */\ntag_226:\n    /* \"#utility.yul\":9109:9110   */\n  0x01\n    /* \"#utility.yul\":9105:9106   */\n  0x02\n    /* \"#utility.yul\":9097:9103   */\n  dup9\n    /* \"#utility.yul\":9093:9107   */\n  mul\n    /* \"#utility.yul\":9089:9111   */\n  add\n    /* \"#utility.yul\":9083:9087   */\n  dup9\n    /* \"#utility.yul\":9076:9112   */\n  sstore\n    /* \"#utility.yul\":8511:9122   */\n  pop\n  pop\n  pop\n    /* \"#utility.yul\":8474:9361   */\ntag_218:\n  pop\n    /* \"#utility.yul\":8064:9367   */\n  pop\n  pop\n  pop\n    /* \"#utility.yul\":7972:9367   */\n  pop\n  pop\n  jump\t// out\n    /* \"#utility.yul\":9373:9542   */\ntag_108:\n    /* \"#utility.yul\":9457:9468   */\n  0x00\n    /* \"#utility.yul\":9491:9497   */\n  dup3\n    /* \"#utility.yul\":9486:9489   */\n  dup3\n    /* \"#utility.yul\":9479:9498   */\n  mstore\n    /* \"#utility.yul\":9531:9535   */\n  0x20\n    /* \"#utility.yul\":9526:9529   */\n  dup3\n    /* \"#utility.yul\":9522:9536   */\n  add\n    /* \"#utility.yul\":9507:9536   */\n  swap1\n  pop\n    /* \"#utility.yul\":9373:9542   */\n  swap3\n  swap2\n  pop\n  pop\n  jump\t// out\n    /* \"#utility.yul\":9548:9719   */\ntag_109:\n    /* \"#utility.yul\":9688:9711   */\n  0x45524332304361707065643a2063617020697320300000000000000000000000\n    /* \"#utility.yul\":9684:9685   */\n  0x00\n    /* \"#utility.yul\":9676:9682   */\n  dup3\n    /* \"#utility.yul\":9672:9686   */\n  add\n    /* \"#utility.yul\":9665:9712   */\n  mstore\n    /* \"#utility.yul\":9548:9719   */\n  pop\n  jump\t// out\n    /* \"#utility.yul\":9725:10091   */\ntag_110:\n    /* \"#utility.yul\":9867:9870   */\n  0x00\n    /* \"#utility.yul\":9888:9955   */\n  tag_231\n    /* \"#utility.yul\":9952:9954   */\n  0x15\n    /* \"#utility.yul\":9947:9950   */\n  dup4\n    /* \"#utility.yul\":9888:9955   */\n  tag_108\n  jump\t// in\ntag_231:\n    /* \"#utility.yul\":9881:9955   */\n  swap2\n  pop\n    /* \"#utility.yul\":9964:10057   */\n  tag_232\n    /* \"#utility.yul\":10053:10056   */\n  dup3\n    /* \"#utility.yul\":9964:10057   */\n  tag_109\n  jump\t// in\ntag_232:\n    /* \"#utility.yul\":10082:10084   */\n  0x20\n    /* \"#utility.yul\":10077:10080   */\n  dup3\n    /* \"#utility.yul\":10073:10085   */\n  add\n    /* \"#utility.yul\":10066:10085   */\n  swap1\n  pop\n    /* \"#utility.yul\":9725:10091   */\n  swap2\n  swap1\n  pop\n  jump\t// out\n    /* \"#utility.yul\":10097:10516   */\ntag_20:\n    /* \"#utility.yul\":10263:10267   */\n  0x00\n    /* \"#utility.yul\":10301:10303   */\n  0x20\n    /* \"#utility.yul\":10290:10299   */\n  dup3\n    /* \"#utility.yul\":10286:10304   */\n  add\n    /* \"#utility.yul\":10278:10304   */\n  swap1\n  pop\n    /* \"#utility.yul\":10350:10359   */\n  dup2\n    /* \"#utility.yul\":10344:10348   */\n  dup2\n    /* \"#utility.yul\":10340:10360   */\n  sub\n    /* \"#utility.yul\":10336:10337   */\n  0x00\n    /* \"#utility.yul\":10325:10334   */\n  dup4\n    /* \"#utility.yul\":10321:10338   */\n  add\n    /* \"#utility.yul\":10314:10361   */\n  mstore\n    /* \"#utility.yul\":10378:10509   */\n  tag_234\n    /* \"#utility.yul\":10504:10508   */\n  dup2\n    /* \"#utility.yul\":10378:10509   */\n  tag_110\n  jump\t// in\ntag_234:\n    /* \"#utility.yul\":10370:10509   */\n  swap1\n  pop\n    /* \"#utility.yul\":10097:10516   */\n  swap2\n  swap1\n  pop\n  jump\t// out\n    /* \"#utility.yul\":10522:10713   */\ntag_38:\n    /* \"#utility.yul\":10562:10565   */\n  0x00\n    /* \"#utility.yul\":10581:10601   */\n  tag_236\n    /* \"#utility.yul\":10599:10600   */\n  dup3\n    /* \"#utility.yul\":10581:10601   */\n  tag_81\n  jump\t// in\ntag_236:\n    /* \"#utility.yul\":10576:10601   */\n  swap2\n  pop\n    /* \"#utility.yul\":10615:10635   */\n  tag_237\n    /* \"#utility.yul\":10633:10634   */\n  dup4\n    /* \"#utility.yul\":10615:10635   */\n  tag_81\n  jump\t// in\ntag_237:\n    /* \"#utility.yul\":10610:10635   */\n  swap3\n  pop\n    /* \"#utility.yul\":10658:10659   */\n  dup3\n    /* \"#utility.yul\":10655:10656   */\n  dup3\n    /* \"#utility.yul\":10651:10660   */\n  add\n    /* \"#utility.yul\":10644:10660   */\n  swap1\n  pop\n    /* \"#utility.yul\":10679:10682   */\n  dup1\n    /* \"#utility.yul\":10676:10677   */\n  dup3\n    /* \"#utility.yul\":10673:10683   */\n  gt\n    /* \"#utility.yul\":10670:10706   */\n  iszero\n  tag_238\n  jumpi\n    /* \"#utility.yul\":10686:10704   */\n  tag_239\n  tag_84\n  jump\t// in\ntag_239:\n    /* \"#utility.yul\":10670:10706   */\ntag_238:\n    /* \"#utility.yul\":10522:10713   */\n  swap3\n  swap2\n  pop\n  pop\n  jump\t// out\n    /* \"#utility.yul\":10719:10894   */\ntag_111:\n    /* \"#utility.yul\":10859:10886   */\n  0x45524332304361707065643a2063617020657863656564656400000000000000\n    /* \"#utility.yul\":10855:10856   */\n  0x00\n    /* \"#utility.yul\":10847:10853   */\n  dup3\n    /* \"#utility.yul\":10843:10857   */\n  add\n    /* \"#utility.yul\":10836:10887   */\n  mstore\n    /* \"#utility.yul\":10719:10894   */\n  pop\n  jump\t// out\n    /* \"#utility.yul\":10900:11266   */\ntag_112:\n    /* \"#utility.yul\":11042:11045   */\n  0x00\n    /* \"#utility.yul\":11063:11130   */\n  tag_242\n    /* \"#utility.yul\":11127:11129   */\n  0x19\n    /* \"#utility.yul\":11122:11125   */\n  dup4\n    /* \"#utility.yul\":11063:11130   */\n  tag_108\n  jump\t// in\ntag_242:\n    /* \"#utility.yul\":11056:11130   */\n  swap2\n  pop\n    /* \"#utility.yul\":11139:11232   */\n  tag_243\n    /* \"#utility.yul\":11228:11231   */\n  dup3\n    /* \"#utility.yul\":11139:11232   */\n  tag_111\n  jump\t// in\ntag_243:\n    /* \"#utility.yul\":11257:11259   */\n  0x20\n    /* \"#utility.yul\":11252:11255   */\n  dup3\n    /* \"#utility.yul\":11248:11260   */\n  add\n    /* \"#utility.yul\":11241:11260   */\n  swap1\n  pop\n    /* \"#utility.yul\":10900:11266   */\n  swap2\n  swap1\n  pop\n  jump\t// out\n    /* \"#utility.yul\":11272:11691   */\ntag_41:\n    /* \"#utility.yul\":11438:11442   */\n  0x00\n    /* \"#utility.yul\":11476:11478   */\n  0x20\n    /* \"#utility.yul\":11465:11474   */\n  dup3\n    /* \"#utility.yul\":11461:11479   */\n  add\n    /* \"#utility.yul\":11453:11479   */\n  swap1\n  pop\n    /* \"#utility.yul\":11525:11534   */\n  dup2\n    /* \"#utility.yul\":11519:11523   */\n  dup2\n    /* \"#utility.yul\":11515:11535   */\n  sub\n    /* \"#utility.yul\":11511:11512   */\n  0x00\n    /* \"#utility.yul\":11500:11509   */\n  dup4\n    /* \"#utility.yul\":11496:11513   */\n  add\n    /* \"#utility.yul\":11489:11536   */\n  mstore\n    /* \"#utility.yul\":11553:11684   */\n  tag_245\n    /* \"#utility.yul\":11679:11683   */\n  dup2\n    /* \"#utility.yul\":11553:11684   */\n  tag_112\n  jump\t// in\ntag_245:\n    /* \"#utility.yul\":11545:11684   */\n  swap1\n  pop\n    /* \"#utility.yul\":11272:11691   */\n  swap2\n  swap1\n  pop\n  jump\t// out\n    /* \"#utility.yul\":11697:11878   */\ntag_113:\n    /* \"#utility.yul\":11837:11870   */\n  0x45524332303a206d696e7420746f20746865207a65726f206164647265737300\n    /* \"#utility.yul\":11833:11834   */\n  0x00\n    /* \"#utility.yul\":11825:11831   */\n  dup3\n    /* \"#utility.yul\":11821:11835   */\n  add\n    /* \"#utility.yul\":11814:11871   */\n  mstore\n    /* \"#utility.yul\":11697:11878   */\n  pop\n  jump\t// out\n    /* \"#utility.yul\":11884:12250   */\ntag_114:\n    /* \"#utility.yul\":12026:12029   */\n  0x00\n    /* \"#utility.yul\":12047:12114   */\n  tag_248\n    /* \"#utility.yul\":12111:12113   */\n  0x1f\n    /* \"#utility.yul\":12106:12109   */\n  dup4\n    /* \"#utility.yul\":12047:12114   */\n  tag_108\n  jump\t// in\ntag_248:\n    /* \"#utility.yul\":12040:12114   */\n  swap2\n  pop\n    /* \"#utility.yul\":12123:12216   */\n  tag_249\n    /* \"#utility.yul\":12212:12215   */\n  dup3\n    /* \"#utility.yul\":12123:12216   */\n  tag_113\n  jump\t// in\ntag_249:\n    /* \"#utility.yul\":12241:12243   */\n  0x20\n    /* \"#utility.yul\":12236:12239   */\n  dup3\n    /* \"#utility.yul\":12232:12244   */\n  add\n    /* \"#utility.yul\":12225:12244   */\n  swap1\n  pop\n    /* \"#utility.yul\":11884:12250   */\n  swap2\n  swap1\n  pop\n  jump\t// out\n    /* \"#utility.yul\":12256:12675   */\ntag_57:\n    /* \"#utility.yul\":12422:12426   */\n  0x00\n    /* \"#utility.yul\":12460:12462   */\n  0x20\n    /* \"#utility.yul\":12449:12458   */\n  dup3\n    /* \"#utility.yul\":12445:12463   */\n  add\n    /* \"#utility.yul\":12437:12463   */\n  swap1\n  pop\n    /* \"#utility.yul\":12509:12518   */\n  dup2\n    /* \"#utility.yul\":12503:12507   */\n  dup2\n    /* \"#utility.yul\":12499:12519   */\n  sub\n    /* \"#utility.yul\":12495:12496   */\n  0x00\n    /* \"#utility.yul\":12484:12493   */\n  dup4\n    /* \"#utility.yul\":12480:12497   */\n  add\n    /* \"#utility.yul\":12473:12520   */\n  mstore\n    /* \"#utility.yul\":12537:12668   */\n  tag_251\n    /* \"#utility.yul\":12663:12667   */\n  dup2\n    /* \"#utility.yul\":12537:12668   */\n  tag_114\n  jump\t// in\ntag_251:\n    /* \"#utility.yul\":12529:12668   */\n  swap1\n  pop\n    /* \"#utility.yul\":12256:12675   */\n  swap2\n  swap1\n  pop\n  jump\t// out\n    /* \"#utility.yul\":12681:12799   */\ntag_115:\n    /* \"#utility.yul\":12768:12792   */\n  tag_253\n    /* \"#utility.yul\":12786:12791   */\n  dup2\n    /* \"#utility.yul\":12768:12792   */\n  tag_81\n  jump\t// in\ntag_253:\n    /* \"#utility.yul\":12763:12766   */\n  dup3\n    /* \"#utility.yul\":12756:12793   */\n  mstore\n    /* \"#utility.yul\":12681:12799   */\n  pop\n  pop\n  jump\t// out\n    /* \"#utility.yul\":12805:13027   */\ntag_63:\n    /* \"#utility.yul\":12898:12902   */\n  0x00\n    /* \"#utility.yul\":12936:12938   */\n  0x20\n    /* \"#utility.yul\":12925:12934   */\n  dup3\n    /* \"#utility.yul\":12921:12939   */\n  add\n    /* \"#utility.yul\":12913:12939   */\n  swap1\n  pop\n    /* \"#utility.yul\":12949:13020   */\n  tag_255\n    /* \"#utility.yul\":13017:13018   */\n  0x00\n    /* \"#utility.yul\":13006:13015   */\n  dup4\n    /* \"#utility.yul\":13002:13019   */\n  add\n    /* \"#utility.yul\":12993:12999   */\n  dup5\n    /* \"#utility.yul\":12949:13020   */\n  tag_115\n  jump\t// in\ntag_255:\n    /* \"#utility.yul\":12805:13027   */\n  swap3\n  swap2\n  pop\n  pop\n  jump\t// out\n    /* \"contracts/GeoNexusToken.sol\":338:1919  contract GeoNexusToken is ERC20, ERC20Capped, ERC20Burnable {... */\ntag_30:\n  mload(0x80)\n  codecopy(0x00, dataOffset(sub_0), dataSize(sub_0))\n  0x00\n  assignImmutable(\"0x3f05a130a08b7e5d37eae001d8ff17da84504eb70721406fc5f5d0894aa28c71\")\n  return(0x00, dataSize(sub_0))\nstop\n\nsub_0: assembly {\n        /* \"contracts/GeoNexusToken.sol\":338:1919  contract GeoNexusToken is ERC20, ERC20Capped, ERC20Burnable {... */\n      mstore(0x40, 0x80)\n      callvalue\n      dup1\n      iszero\n      tag_1\n      jumpi\n      0x00\n      dup1\n      revert\n    tag_1:\n      pop\n      jumpi(tag_2, lt(calldatasize, 0x04))\n      shr(0xe0, calldataload(0x00))\n      dup1\n      0x42966c68\n      gt\n      tag_21\n      jumpi\n      dup1\n      0x95d89b41\n      gt\n      tag_22\n      jumpi\n      dup1\n      0x95d89b41\n      eq\n      tag_16\n      jumpi\n      dup1\n      0xa457c2d7\n      eq\n      tag_17\n      jumpi\n      dup1\n      0xa9059cbb\n      eq\n      tag_18\n      jumpi\n      dup1\n      0xdd62ed3e\n      eq\n      tag_19\n      jumpi\n      dup1\n      0xf89d4086\n      eq\n      tag_20\n      jumpi\n      jump(tag_2)\n    tag_22:\n      dup1\n      0x42966c68\n      eq\n      tag_12\n      jumpi\n      dup1\n      0x6b55e991\n      eq\n      tag_13\n      jumpi\n      dup1\n      0x70a08231\n      eq\n      tag_14\n      jumpi\n      dup1\n      0x79cc6790\n      eq\n      tag_15\n      jumpi\n      jump(tag_2)\n    tag_21:\n      dup1\n      0x1a18e707\n      gt\n      tag_23\n      jumpi\n      dup1\n      0x1a18e707\n      eq\n      tag_7\n      jumpi\n      dup1\n      0x23b872dd\n      eq\n      tag_8\n      jumpi\n      dup1\n      0x313ce567\n      eq\n      tag_9\n      jumpi\n      dup1\n      0x355274ea\n      eq\n      tag_10\n      jumpi\n      dup1\n      0x39509351\n      eq\n      tag_11\n      jumpi\n      jump(tag_2)\n    tag_23:\n      dup1\n      0x06fdde03\n      eq\n      tag_3\n      jumpi\n      dup1\n      0x095ea7b3\n      eq\n      tag_4\n      jumpi\n      dup1\n      0x0ac168a1\n      eq\n      tag_5\n      jumpi\n      dup1\n      0x18160ddd\n      eq\n      tag_6\n      jumpi\n    tag_2:\n      0x00\n      dup1\n      revert\n        /* \"@openzeppelin/contracts/token/ERC20/ERC20.sol\":2084:2182  function name() public view virtual override returns (string memory) {... */\n    tag_3:\n      tag_24\n      tag_25\n      jump\t// in\n    tag_24:\n      mload(0x40)\n      tag_26\n      swap2\n      swap1\n      tag_27\n      jump\t// in\n    tag_26:\n      mload(0x40)\n      dup1\n      swap2\n      sub\n      swap1\n      return\n        /* \"@openzeppelin/contracts/token/ERC20/ERC20.sol\":4181:4347  function approve(address spender, uint256 amount) public virtual override returns (bool) {... */\n    tag_4:\n      tag_28\n      0x04\n      dup1\n      calldatasize\n      sub\n      dup2\n      add\n      swap1\n      tag_29\n      swap2\n      swap1\n      tag_30\n      jump\t// in\n    tag_29:\n      tag_31\n      jump\t// in\n    tag_28:\n      mload(0x40)\n      tag_32\n      swap2\n      swap1\n      tag_33\n      jump\t// in\n    tag_32:\n      mload(0x40)\n      dup1\n      swap2\n      sub\n      swap1\n      return\n        /* \"contracts/GeoNexusToken.sol\":431:457  uint256 public blockReward */\n    tag_5:\n      tag_34\n      tag_35\n      jump\t// in\n    tag_34:\n      mload(0x40)\n      tag_36\n      swap2\n      swap1\n      tag_37\n      jump\t// in\n    tag_36:\n      mload(0x40)\n      dup1\n      swap2\n      sub\n      swap1\n      return\n        /* \"@openzeppelin/contracts/token/ERC20/ERC20.sol\":3172:3278  function totalSupply() public view virtual override returns (uint256) {... */\n    tag_6:\n      tag_38\n      tag_39\n      jump\t// in\n    tag_38:\n      mload(0x40)\n      tag_40\n      swap2\n      swap1\n      tag_37\n      jump\t// in\n    tag_40:\n      mload(0x40)\n      dup1\n      swap2\n      sub\n      swap1\n      return\n        /* \"contracts/GeoNexusToken.sol\":1493:1625  function setBlockReward(uint256 reward) public onlyOwner returns (uint256) {... */\n    tag_7:\n      tag_41\n      0x04\n      dup1\n      calldatasize\n      sub\n      dup2\n      add\n      swap1\n      tag_42\n      swap2\n      swap1\n      tag_43\n      jump\t// in\n    tag_42:\n      tag_44\n      jump\t// in\n    tag_41:\n      mload(0x40)\n      tag_45\n      swap2\n      swap1\n      tag_37\n      jump\t// in\n    tag_45:\n      mload(0x40)\n      dup1\n      swap2\n      sub\n      swap1\n      return\n        /* \"@openzeppelin/contracts/token/ERC20/ERC20.sol\":4814:5292  function transferFrom(... */\n    tag_8:\n      tag_46\n      0x04\n      dup1\n      calldatasize\n      sub\n      dup2\n      add\n      swap1\n      tag_47\n      swap2\n      swap1\n      tag_48\n      jump\t// in\n    tag_47:\n      tag_49\n      jump\t// in\n    tag_46:\n      mload(0x40)\n      tag_50\n      swap2\n      swap1\n      tag_33\n      jump\t// in\n    tag_50:\n      mload(0x40)\n      dup1\n      swap2\n      sub\n      swap1\n      return\n        /* \"@openzeppelin/contracts/token/ERC20/ERC20.sol\":3021:3112  function decimals() public view virtual override returns (uint8) {... */\n    tag_9:\n      tag_51\n      tag_52\n      jump\t// in\n    tag_51:\n      mload(0x40)\n      tag_53\n      swap2\n      swap1\n      tag_54\n      jump\t// in\n    tag_53:\n      mload(0x40)\n      dup1\n      swap2\n      sub\n      swap1\n      return\n        /* \"@openzeppelin/contracts/token/ERC20/extensions/ERC20Capped.sol\":561:642  function cap() public view virtual returns (uint256) {... */\n    tag_10:\n      tag_55\n      tag_56\n      jump\t// in\n    tag_55:\n      mload(0x40)\n      tag_57\n      swap2\n      swap1\n      tag_37\n      jump\t// in\n    tag_57:\n      mload(0x40)\n      dup1\n      swap2\n      sub\n      swap1\n      return\n        /* \"@openzeppelin/contracts/token/ERC20/ERC20.sol\":5687:5899  function increaseAllowance(address spender, uint256 addedValue) public virtual returns (bool) {... */\n    tag_11:\n      tag_58\n      0x04\n      dup1\n      calldatasize\n      sub\n      dup2\n      add\n      swap1\n      tag_59\n      swap2\n      swap1\n      tag_30\n      jump\t// in\n    tag_59:\n      tag_60\n      jump\t// in\n    tag_58:\n      mload(0x40)\n      tag_61\n      swap2\n      swap1\n      tag_33\n      jump\t// in\n    tag_61:\n      mload(0x40)\n      dup1\n      swap2\n      sub\n      swap1\n      return\n        /* \"@openzeppelin/contracts/token/ERC20/extensions/ERC20Burnable.sol\":487:576  function burn(uint256 amount) public virtual {... */\n    tag_12:\n      tag_62\n      0x04\n      dup1\n      calldatasize\n      sub\n      dup2\n      add\n      swap1\n      tag_63\n      swap2\n      swap1\n      tag_43\n      jump\t// in\n    tag_63:\n      tag_64\n      jump\t// in\n    tag_62:\n      stop\n        /* \"contracts/GeoNexusToken.sol\":1658:1760  function transferEther(address payable _to) public {... */\n    tag_13:\n      tag_65\n      0x04\n      dup1\n      calldatasize\n      sub\n      dup2\n      add\n      swap1\n      tag_66\n      swap2\n      swap1\n      tag_67\n      jump\t// in\n    tag_66:\n      tag_68\n      jump\t// in\n    tag_65:\n      stop\n        /* \"@openzeppelin/contracts/token/ERC20/ERC20.sol\":3336:3461  function balanceOf(address account) public view virtual override returns (uint256) {... */\n    tag_14:\n      tag_69\n      0x04\n      dup1\n      calldatasize\n      sub\n      dup2\n      add\n      swap1\n      tag_70\n      swap2\n      swap1\n      tag_71\n      jump\t// in\n    tag_70:\n      tag_72\n      jump\t// in\n    tag_69:\n      mload(0x40)\n      tag_73\n      swap2\n      swap1\n      tag_37\n      jump\t// in\n    tag_73:\n      mload(0x40)\n      dup1\n      swap2\n      sub\n      swap1\n      return\n        /* \"@openzeppelin/contracts/token/ERC20/extensions/ERC20Burnable.sol\":882:1243  function burnFrom(address account, uint256 amount) public virtual {... */\n    tag_15:\n      tag_74\n      0x04\n      dup1\n      calldatasize\n      sub\n      dup2\n      add\n      swap1\n      tag_75\n      swap2\n      swap1\n      tag_30\n      jump\t// in\n    tag_75:\n      tag_76\n      jump\t// in\n    tag_74:\n      stop\n        /* \"@openzeppelin/contracts/token/ERC20/ERC20.sol\":2295:2397  function symbol() public view virtual override returns (string memory) {... */\n    tag_16:\n      tag_77\n      tag_78\n      jump\t// in\n    tag_77:\n      mload(0x40)\n      tag_79\n      swap2\n      swap1\n      tag_27\n      jump\t// in\n    tag_79:\n      mload(0x40)\n      dup1\n      swap2\n      sub\n      swap1\n      return\n        /* \"@openzeppelin/contracts/token/ERC20/ERC20.sol\":6386:6791  function decreaseAllowance(address spender, uint256 subtractedValue) public virtual returns (bool) {... */\n    tag_17:\n      tag_80\n      0x04\n      dup1\n      calldatasize\n      sub\n      dup2\n      add\n      swap1\n      tag_81\n      swap2\n      swap1\n      tag_30\n      jump\t// in\n    tag_81:\n      tag_82\n      jump\t// in\n    tag_80:\n      mload(0x40)\n      tag_83\n      swap2\n      swap1\n      tag_33\n      jump\t// in\n    tag_83:\n      mload(0x40)\n      dup1\n      swap2\n      sub\n      swap1\n      return\n        /* \"@openzeppelin/contracts/token/ERC20/ERC20.sol\":3664:3836  function transfer(address recipient, uint256 amount) public virtual override returns (bool) {... */\n    tag_18:\n      tag_84\n      0x04\n      dup1\n      calldatasize\n      sub\n      dup2\n      add\n      swap1\n      tag_85\n      swap2\n      swap1\n      tag_30\n      jump\t// in\n    tag_85:\n      tag_86\n      jump\t// in\n    tag_84:\n      mload(0x40)\n      tag_87\n      swap2\n      swap1\n      tag_33\n      jump\t// in\n    tag_87:\n      mload(0x40)\n      dup1\n      swap2\n      sub\n      swap1\n      return\n        /* \"@openzeppelin/contracts/token/ERC20/ERC20.sol\":3894:4043  function allowance(address owner, address spender) public view virtual override returns (uint256) {... */\n    tag_19:\n      tag_88\n      0x04\n      dup1\n      calldatasize\n      sub\n      dup2\n      add\n      swap1\n      tag_89\n      swap2\n      swap1\n      tag_90\n      jump\t// in\n    tag_89:\n      tag_91\n      jump\t// in\n    tag_88:\n      mload(0x40)\n      tag_92\n      swap2\n      swap1\n      tag_37\n      jump\t// in\n    tag_92:\n      mload(0x40)\n      dup1\n      swap2\n      sub\n      swap1\n      return\n        /* \"contracts/GeoNexusToken.sol\":1400:1491  function getBlockReward() public view returns (uint256) {... */\n    tag_20:\n      tag_93\n      tag_94\n      jump\t// in\n    tag_93:\n      mload(0x40)\n      tag_95\n      swap2\n      swap1\n      tag_37\n      jump\t// in\n    tag_95:\n      mload(0x40)\n      dup1\n      swap2\n      sub\n      swap1\n      return\n        /* \"@openzeppelin/contracts/token/ERC20/ERC20.sol\":2084:2182  function name() public view virtual override returns (string memory) {... */\n    tag_25:\n        /* \"@openzeppelin/contracts/token/ERC20/ERC20.sol\":2138:2151  string memory */\n      0x60\n        /* \"@openzeppelin/contracts/token/ERC20/ERC20.sol\":2170:2175  _name */\n      0x03\n        /* \"@openzeppelin/contracts/token/ERC20/ERC20.sol\":2163:2175  return _name */\n      dup1\n      sload\n      tag_97\n      swap1\n      tag_98\n      jump\t// in\n    tag_97:\n      dup1\n      0x1f\n      add\n      0x20\n      dup1\n      swap2\n      div\n      mul\n      0x20\n      add\n      mload(0x40)\n      swap1\n      dup2\n      add\n      0x40\n      mstore\n      dup1\n      swap3\n      swap2\n      swap1\n      dup2\n      dup2\n      mstore\n      0x20\n      add\n      dup3\n      dup1\n      sload\n      tag_99\n      swap1\n      tag_98\n      jump\t// in\n    tag_99:\n      dup1\n      iszero\n      tag_100\n      jumpi\n      dup1\n      0x1f\n      lt\n      tag_101\n      jumpi\n      0x0100\n      dup1\n      dup4\n      sload\n      div\n      mul\n      dup4\n      mstore\n      swap2\n      0x20\n      add\n      swap2\n      jump(tag_100)\n    tag_101:\n      dup3\n      add\n      swap2\n      swap1\n      0x00\n      mstore\n      keccak256(0x00, 0x20)\n      swap1\n    tag_102:\n      dup2\n      sload\n      dup2\n      mstore\n      swap1\n      0x01\n      add\n      swap1\n      0x20\n      add\n      dup1\n      dup4\n      gt\n      tag_102\n      jumpi\n      dup3\n      swap1\n      sub\n      0x1f\n      and\n      dup3\n      add\n      swap2\n    tag_100:\n      pop\n      pop\n      pop\n      pop\n      pop\n      swap1\n      pop\n        /* \"@openzeppelin/contracts/token/ERC20/ERC20.sol\":2084:2182  function name() public view virtual override returns (string memory) {... */\n      swap1\n      jump\t// out\n        /* \"@openzeppelin/contracts/token/ERC20/ERC20.sol\":4181:4347  function approve(address spender, uint256 amount) public virtual override returns (bool) {... */\n    tag_31:\n        /* \"@openzeppelin/contracts/token/ERC20/ERC20.sol\":4264:4268  bool */\n      0x00\n        /* \"@openzeppelin/contracts/token/ERC20/ERC20.sol\":4280:4319  _approve(_msgSender(), spender, amount) */\n      tag_104\n        /* \"@openzeppelin/contracts/token/ERC20/ERC20.sol\":4289:4301  _msgSender() */\n      tag_105\n        /* \"@openzeppelin/contracts/token/ERC20/ERC20.sol\":4289:4299  _msgSender */\n      tag_106\n        /* \"@openzeppelin/contracts/token/ERC20/ERC20.sol\":4289:4301  _msgSender() */\n      jump\t// in\n    tag_105:\n        /* \"@openzeppelin/contracts/token/ERC20/ERC20.sol\":4303:4310  spender */\n      dup5\n        /* \"@openzeppelin/contracts/token/ERC20/ERC20.sol\":4312:4318  amount */\n      dup5\n        /* \"@openzeppelin/contracts/token/ERC20/ERC20.sol\":4280:4288  _approve */\n      tag_107\n        /* \"@openzeppelin/contracts/token/ERC20/ERC20.sol\":4280:4319  _approve(_msgSender(), spender, amount) */\n      jump\t// in\n    tag_104:\n        /* \"@openzeppelin/contracts/token/ERC20/ERC20.sol\":4336:4340  true */\n      0x01\n        /* \"@openzeppelin/contracts/token/ERC20/ERC20.sol\":4329:4340  return true */\n      swap1\n      pop\n        /* \"@openzeppelin/contracts/token/ERC20/ERC20.sol\":4181:4347  function approve(address spender, uint256 amount) public virtual override returns (bool) {... */\n      swap3\n      swap2\n      pop\n      pop\n      jump\t// out\n        /* \"contracts/GeoNexusToken.sol\":431:457  uint256 public blockReward */\n    tag_35:\n      sload(0x06)\n      dup2\n      jump\t// out\n        /* \"@openzeppelin/contracts/token/ERC20/ERC20.sol\":3172:3278  function totalSupply() public view virtual override returns (uint256) {... */\n    tag_39:\n        /* \"@openzeppelin/contracts/token/ERC20/ERC20.sol\":3233:3240  uint256 */\n      0x00\n        /* \"@openzeppelin/contracts/token/ERC20/ERC20.sol\":3259:3271  _totalSupply */\n      sload(0x02)\n        /* \"@openzeppelin/contracts/token/ERC20/ERC20.sol\":3252:3271  return _totalSupply */\n      swap1\n      pop\n        /* \"@openzeppelin/contracts/token/ERC20/ERC20.sol\":3172:3278  function totalSupply() public view virtual override returns (uint256) {... */\n      swap1\n      jump\t// out\n        /* \"contracts/GeoNexusToken.sol\":1493:1625  function setBlockReward(uint256 reward) public onlyOwner returns (uint256) {... */\n    tag_44:\n        /* \"contracts/GeoNexusToken.sol\":1559:1566  uint256 */\n      0x00\n        /* \"contracts/GeoNexusToken.sol\":1845:1857  _msgSender() */\n      tag_110\n        /* \"contracts/GeoNexusToken.sol\":1845:1855  _msgSender */\n      tag_106\n        /* \"contracts/GeoNexusToken.sol\":1845:1857  _msgSender() */\n      jump\t// in\n    tag_110:\n        /* \"contracts/GeoNexusToken.sol\":1836:1857  owner == _msgSender() */\n      0xffffffffffffffffffffffffffffffffffffffff\n      and\n        /* \"contracts/GeoNexusToken.sol\":1836:1841  owner */\n      0x05\n      0x00\n      swap1\n      sload\n      swap1\n      0x0100\n      exp\n      swap1\n      div\n      0xffffffffffffffffffffffffffffffffffffffff\n      and\n        /* \"contracts/GeoNexusToken.sol\":1836:1857  owner == _msgSender() */\n      0xffffffffffffffffffffffffffffffffffffffff\n      and\n      eq\n        /* \"contracts/GeoNexusToken.sol\":1828:1898  require(owner == _msgSender(), \"Ownable: Only Owner Can Modifie This\") */\n      tag_111\n      jumpi\n      mload(0x40)\n      0x08c379a000000000000000000000000000000000000000000000000000000000\n      dup2\n      mstore\n      0x04\n      add\n      tag_112\n      swap1\n      tag_113\n      jump\t// in\n    tag_112:\n      mload(0x40)\n      dup1\n      swap2\n      sub\n      swap1\n      revert\n    tag_111:\n        /* \"contracts/GeoNexusToken.sol\":1611:1621  decimals() */\n      tag_115\n        /* \"contracts/GeoNexusToken.sol\":1611:1619  decimals */\n      tag_52\n        /* \"contracts/GeoNexusToken.sol\":1611:1621  decimals() */\n      jump\t// in\n    tag_115:\n        /* \"contracts/GeoNexusToken.sol\":1605:1607  10 */\n      0x0a\n        /* \"contracts/GeoNexusToken.sol\":1605:1621  10 ** decimals() */\n      tag_116\n      swap2\n      swap1\n      tag_117\n      jump\t// in\n    tag_116:\n        /* \"contracts/GeoNexusToken.sol\":1595:1601  reward */\n      dup3\n        /* \"contracts/GeoNexusToken.sol\":1595:1622  reward * (10 ** decimals()) */\n      tag_118\n      swap2\n      swap1\n      tag_119\n      jump\t// in\n    tag_118:\n        /* \"contracts/GeoNexusToken.sol\":1581:1592  blockReward */\n      0x06\n        /* \"contracts/GeoNexusToken.sol\":1581:1622  blockReward = reward * (10 ** decimals()) */\n      dup2\n      swap1\n      sstore\n        /* \"contracts/GeoNexusToken.sol\":1574:1622  return blockReward = reward * (10 ** decimals()) */\n      swap1\n      pop\n        /* \"contracts/GeoNexusToken.sol\":1493:1625  function setBlockReward(uint256 reward) public onlyOwner returns (uint256) {... */\n      swap2\n      swap1\n      pop\n      jump\t// out\n        /* \"@openzeppelin/contracts/token/ERC20/ERC20.sol\":4814:5292  function transferFrom(... */\n    tag_49:\n        /* \"@openzeppelin/contracts/token/ERC20/ERC20.sol\":4950:4954  bool */\n      0x00\n        /* \"@openzeppelin/contracts/token/ERC20/ERC20.sol\":4966:5002  _transfer(sender, recipient, amount) */\n      tag_121\n        /* \"@openzeppelin/contracts/token/ERC20/ERC20.sol\":4976:4982  sender */\n      dup5\n        /* \"@openzeppelin/contracts/token/ERC20/ERC20.sol\":4984:4993  recipient */\n      dup5\n        /* \"@openzeppelin/contracts/token/ERC20/ERC20.sol\":4995:5001  amount */\n      dup5\n        /* \"@openzeppelin/contracts/token/ERC20/ERC20.sol\":4966:4975  _transfer */\n      tag_122\n        /* \"@openzeppelin/contracts/token/ERC20/ERC20.sol\":4966:5002  _transfer(sender, recipient, amount) */\n      jump\t// in\n    tag_121:\n        /* \"@openzeppelin/contracts/token/ERC20/ERC20.sol\":5013:5037  uint256 currentAllowance */\n      0x00\n        /* \"@openzeppelin/contracts/token/ERC20/ERC20.sol\":5040:5051  _allowances */\n      0x01\n        /* \"@openzeppelin/contracts/token/ERC20/ERC20.sol\":5040:5059  _allowances[sender] */\n      0x00\n        /* \"@openzeppelin/contracts/token/ERC20/ERC20.sol\":5052:5058  sender */\n      dup7\n        /* \"@openzeppelin/contracts/token/ERC20/ERC20.sol\":5040:5059  _allowances[sender] */\n      0xffffffffffffffffffffffffffffffffffffffff\n      and\n      0xffffffffffffffffffffffffffffffffffffffff\n      and\n      dup2\n      mstore\n      0x20\n      add\n      swap1\n      dup2\n      mstore\n      0x20\n      add\n      0x00\n      keccak256\n        /* \"@openzeppelin/contracts/token/ERC20/ERC20.sol\":5040:5073  _allowances[sender][_msgSender()] */\n      0x00\n        /* \"@openzeppelin/contracts/token/ERC20/ERC20.sol\":5060:5072  _msgSender() */\n      tag_123\n        /* \"@openzeppelin/contracts/token/ERC20/ERC20.sol\":5060:5070  _msgSender */\n      tag_106\n        /* \"@openzeppelin/contracts/token/ERC20/ERC20.sol\":5060:5072  _msgSender() */\n      jump\t// in\n    tag_123:\n        /* \"@openzeppelin/contracts/token/ERC20/ERC20.sol\":5040:5073  _allowances[sender][_msgSender()] */\n      0xffffffffffffffffffffffffffffffffffffffff\n      and\n      0xffffffffffffffffffffffffffffffffffffffff\n      and\n      dup2\n      mstore\n      0x20\n      add\n      swap1\n      dup2\n      mstore\n      0x20\n      add\n      0x00\n      keccak256\n      sload\n        /* \"@openzeppelin/contracts/token/ERC20/ERC20.sol\":5013:5073  uint256 currentAllowance = _allowances[sender][_msgSender()] */\n      swap1\n      pop\n        /* \"@openzeppelin/contracts/token/ERC20/ERC20.sol\":5111:5117  amount */\n      dup3\n        /* \"@openzeppelin/contracts/token/ERC20/ERC20.sol\":5091:5107  currentAllowance */\n      dup2\n        /* \"@openzeppelin/contracts/token/ERC20/ERC20.sol\":5091:5117  currentAllowance >= amount */\n      lt\n      iszero\n        /* \"@openzeppelin/contracts/token/ERC20/ERC20.sol\":5083:5162  require(currentAllowance >= amount, \"ERC20: transfer amount exceeds allowance\") */\n      tag_124\n      jumpi\n      mload(0x40)\n      0x08c379a000000000000000000000000000000000000000000000000000000000\n      dup2\n      mstore\n      0x04\n      add\n      tag_125\n      swap1\n      tag_126\n      jump\t// in\n    tag_125:\n      mload(0x40)\n      dup1\n      swap2\n      sub\n      swap1\n      revert\n    tag_124:\n        /* \"@openzeppelin/contracts/token/ERC20/ERC20.sol\":5196:5253  _approve(sender, _msgSender(), currentAllowance - amount) */\n      tag_127\n        /* \"@openzeppelin/contracts/token/ERC20/ERC20.sol\":5205:5211  sender */\n      dup6\n        /* \"@openzeppelin/contracts/token/ERC20/ERC20.sol\":5213:5225  _msgSender() */\n      tag_128\n        /* \"@openzeppelin/contracts/token/ERC20/ERC20.sol\":5213:5223  _msgSender */\n      tag_106\n        /* \"@openzeppelin/contracts/token/ERC20/ERC20.sol\":5213:5225  _msgSender() */\n      jump\t// in\n    tag_128:\n        /* \"@openzeppelin/contracts/token/ERC20/ERC20.sol\":5246:5252  amount */\n      dup6\n        /* \"@openzeppelin/contracts/token/ERC20/ERC20.sol\":5227:5243  currentAllowance */\n      dup5\n        /* \"@openzeppelin/contracts/token/ERC20/ERC20.sol\":5227:5252  currentAllowance - amount */\n      sub\n        /* \"@openzeppelin/contracts/token/ERC20/ERC20.sol\":5196:5204  _approve */\n      tag_107\n        /* \"@openzeppelin/contracts/token/ERC20/ERC20.sol\":5196:5253  _approve(sender, _msgSender(), currentAllowance - amount) */\n      jump\t// in\n    tag_127:\n        /* \"@openzeppelin/contracts/token/ERC20/ERC20.sol\":5281:5285  true */\n      0x01\n        /* \"@openzeppelin/contracts/token/ERC20/ERC20.sol\":5274:5285  return true */\n      swap2\n      pop\n      pop\n        /* \"@openzeppelin/contracts/token/ERC20/ERC20.sol\":4814:5292  function transferFrom(... */\n      swap4\n      swap3\n      pop\n      pop\n      pop\n      jump\t// out\n        /* \"@openzeppelin/contracts/token/ERC20/ERC20.sol\":3021:3112  function decimals() public view virtual override returns (uint8) {... */\n    tag_52:\n        /* \"@openzeppelin/contracts/token/ERC20/ERC20.sol\":3079:3084  uint8 */\n      0x00\n        /* \"@openzeppelin/contracts/token/ERC20/ERC20.sol\":3103:3105  18 */\n      0x12\n        /* \"@openzeppelin/contracts/token/ERC20/ERC20.sol\":3096:3105  return 18 */\n      swap1\n      pop\n        /* \"@openzeppelin/contracts/token/ERC20/ERC20.sol\":3021:3112  function decimals() public view virtual override returns (uint8) {... */\n      swap1\n      jump\t// out\n        /* \"@openzeppelin/contracts/token/ERC20/extensions/ERC20Capped.sol\":561:642  function cap() public view virtual returns (uint256) {... */\n    tag_56:\n        /* \"@openzeppelin/contracts/token/ERC20/extensions/ERC20Capped.sol\":605:612  uint256 */\n      0x00\n        /* \"@openzeppelin/contracts/token/ERC20/extensions/ERC20Capped.sol\":631:635  _cap */\n      immutable(\"0x3f05a130a08b7e5d37eae001d8ff17da84504eb70721406fc5f5d0894aa28c71\")\n        /* \"@openzeppelin/contracts/token/ERC20/extensions/ERC20Capped.sol\":624:635  return _cap */\n      swap1\n      pop\n        /* \"@openzeppelin/contracts/token/ERC20/extensions/ERC20Capped.sol\":561:642  function cap() public view virtual returns (uint256) {... */\n      swap1\n      jump\t// out\n        /* \"@openzeppelin/contracts/token/ERC20/ERC20.sol\":5687:5899  function increaseAllowance(address spender, uint256 addedValue) public virtual returns (bool) {... */\n    tag_60:\n        /* \"@openzeppelin/contracts/token/ERC20/ERC20.sol\":5775:5779  bool */\n      0x00\n        /* \"@openzeppelin/contracts/token/ERC20/ERC20.sol\":5791:5871  _approve(_msgSender(), spender, _allowances[_msgSender()][spender] + addedValue) */\n      tag_132\n        /* \"@openzeppelin/contracts/token/ERC20/ERC20.sol\":5800:5812  _msgSender() */\n      tag_133\n        /* \"@openzeppelin/contracts/token/ERC20/ERC20.sol\":5800:5810  _msgSender */\n      tag_106\n        /* \"@openzeppelin/contracts/token/ERC20/ERC20.sol\":5800:5812  _msgSender() */\n      jump\t// in\n    tag_133:\n        /* \"@openzeppelin/contracts/token/ERC20/ERC20.sol\":5814:5821  spender */\n      dup5\n        /* \"@openzeppelin/contracts/token/ERC20/ERC20.sol\":5860:5870  addedValue */\n      dup5\n        /* \"@openzeppelin/contracts/token/ERC20/ERC20.sol\":5823:5834  _allowances */\n      0x01\n        /* \"@openzeppelin/contracts/token/ERC20/ERC20.sol\":5823:5848  _allowances[_msgSender()] */\n      0x00\n        /* \"@openzeppelin/contracts/token/ERC20/ERC20.sol\":5835:5847  _msgSender() */\n      tag_134\n        /* \"@openzeppelin/contracts/token/ERC20/ERC20.sol\":5835:5845  _msgSender */\n      tag_106\n        /* \"@openzeppelin/contracts/token/ERC20/ERC20.sol\":5835:5847  _msgSender() */\n      jump\t// in\n    tag_134:\n        /* \"@openzeppelin/contracts/token/ERC20/ERC20.sol\":5823:5848  _allowances[_msgSender()] */\n      0xffffffffffffffffffffffffffffffffffffffff\n      and\n      0xffffffffffffffffffffffffffffffffffffffff\n      and\n      dup2\n      mstore\n      0x20\n      add\n      swap1\n      dup2\n      mstore\n      0x20\n      add\n      0x00\n      keccak256\n        /* \"@openzeppelin/contracts/token/ERC20/ERC20.sol\":5823:5857  _allowances[_msgSender()][spender] */\n      0x00\n        /* \"@openzeppelin/contracts/token/ERC20/ERC20.sol\":5849:5856  spender */\n      dup9\n        /* \"@openzeppelin/contracts/token/ERC20/ERC20.sol\":5823:5857  _allowances[_msgSender()][spender] */\n      0xffffffffffffffffffffffffffffffffffffffff\n      and\n      0xffffffffffffffffffffffffffffffffffffffff\n      and\n      dup2\n      mstore\n      0x20\n      add\n      swap1\n      dup2\n      mstore\n      0x20\n      add\n      0x00\n      keccak256\n      sload\n        /* \"@openzeppelin/contracts/token/ERC20/ERC20.sol\":5823:5870  _allowances[_msgSender()][spender] + addedValue */\n      tag_135\n      swap2\n      swap1\n      tag_136\n      jump\t// in\n    tag_135:\n        /* \"@openzeppelin/contracts/token/ERC20/ERC20.sol\":5791:5799  _approve */\n      tag_107\n        /* \"@openzeppelin/contracts/token/ERC20/ERC20.sol\":5791:5871  _approve(_msgSender(), spender, _allowances[_msgSender()][spender] + addedValue) */\n      jump\t// in\n    tag_132:\n        /* \"@openzeppelin/contracts/token/ERC20/ERC20.sol\":5888:5892  true */\n      0x01\n        /* \"@openzeppelin/contracts/token/ERC20/ERC20.sol\":5881:5892  return true */\n      swap1\n      pop\n        /* \"@openzeppelin/contracts/token/ERC20/ERC20.sol\":5687:5899  function increaseAllowance(address spender, uint256 addedValue) public virtual returns (bool) {... */\n      swap3\n      swap2\n      pop\n      pop\n      jump\t// out\n        /* \"@openzeppelin/contracts/token/ERC20/extensions/ERC20Burnable.sol\":487:576  function burn(uint256 amount) public virtual {... */\n    tag_64:\n        /* \"@openzeppelin/contracts/token/ERC20/extensions/ERC20Burnable.sol\":542:569  _burn(_msgSender(), amount) */\n      tag_138\n        /* \"@openzeppelin/contracts/token/ERC20/extensions/ERC20Burnable.sol\":548:560  _msgSender() */\n      tag_139\n        /* \"@openzeppelin/contracts/token/ERC20/extensions/ERC20Burnable.sol\":548:558  _msgSender */\n      tag_106\n        /* \"@openzeppelin/contracts/token/ERC20/extensions/ERC20Burnable.sol\":548:560  _msgSender() */\n      jump\t// in\n    tag_139:\n        /* \"@openzeppelin/contracts/token/ERC20/extensions/ERC20Burnable.sol\":562:568  amount */\n      dup3\n        /* \"@openzeppelin/contracts/token/ERC20/extensions/ERC20Burnable.sol\":542:547  _burn */\n      tag_140\n        /* \"@openzeppelin/contracts/token/ERC20/extensions/ERC20Burnable.sol\":542:569  _burn(_msgSender(), amount) */\n      jump\t// in\n    tag_138:\n        /* \"@openzeppelin/contracts/token/ERC20/extensions/ERC20Burnable.sol\":487:576  function burn(uint256 amount) public virtual {... */\n      pop\n      jump\t// out\n        /* \"contracts/GeoNexusToken.sol\":1658:1760  function transferEther(address payable _to) public {... */\n    tag_68:\n        /* \"contracts/GeoNexusToken.sol\":1718:1721  _to */\n      dup1\n        /* \"contracts/GeoNexusToken.sol\":1718:1730  _to.transfer */\n      0xffffffffffffffffffffffffffffffffffffffff\n      and\n        /* \"contracts/GeoNexusToken.sol\":1718:1753  _to.transfer(address(this).balance) */\n      0x08fc\n        /* \"contracts/GeoNexusToken.sol\":1731:1752  address(this).balance */\n      selfbalance\n        /* \"contracts/GeoNexusToken.sol\":1718:1753  _to.transfer(address(this).balance) */\n      swap1\n      dup2\n      iszero\n      mul\n      swap1\n      mload(0x40)\n      0x00\n      mload(0x40)\n      dup1\n      dup4\n      sub\n      dup2\n      dup6\n      dup9\n      dup9\n      call\n      swap4\n      pop\n      pop\n      pop\n      pop\n      iszero\n      dup1\n      iszero\n      tag_143\n      jumpi\n      returndatasize\n      0x00\n      dup1\n      returndatacopy\n      revert(0x00, returndatasize)\n    tag_143:\n      pop\n        /* \"contracts/GeoNexusToken.sol\":1658:1760  function transferEther(address payable _to) public {... */\n      pop\n      jump\t// out\n        /* \"@openzeppelin/contracts/token/ERC20/ERC20.sol\":3336:3461  function balanceOf(address account) public view virtual override returns (uint256) {... */\n    tag_72:\n        /* \"@openzeppelin/contracts/token/ERC20/ERC20.sol\":3410:3417  uint256 */\n      0x00\n        /* \"@openzeppelin/contracts/token/ERC20/ERC20.sol\":3436:3445  _balances */\n      dup1\n        /* \"@openzeppelin/contracts/token/ERC20/ERC20.sol\":3436:3454  _balances[account] */\n      0x00\n        /* \"@openzeppelin/contracts/token/ERC20/ERC20.sol\":3446:3453  account */\n      dup4\n        /* \"@openzeppelin/contracts/token/ERC20/ERC20.sol\":3436:3454  _balances[account] */\n      0xffffffffffffffffffffffffffffffffffffffff\n      and\n      0xffffffffffffffffffffffffffffffffffffffff\n      and\n      dup2\n      mstore\n      0x20\n      add\n      swap1\n      dup2\n      mstore\n      0x20\n      add\n      0x00\n      keccak256\n      sload\n        /* \"@openzeppelin/contracts/token/ERC20/ERC20.sol\":3429:3454  return _balances[account] */\n      swap1\n      pop\n        /* \"@openzeppelin/contracts/token/ERC20/ERC20.sol\":3336:3461  function balanceOf(address account) public view virtual override returns (uint256) {... */\n      swap2\n      swap1\n      pop\n      jump\t// out\n        /* \"@openzeppelin/contracts/token/ERC20/extensions/ERC20Burnable.sol\":882:1243  function burnFrom(address account, uint256 amount) public virtual {... */\n    tag_76:\n        /* \"@openzeppelin/contracts/token/ERC20/extensions/ERC20Burnable.sol\":958:982  uint256 currentAllowance */\n      0x00\n        /* \"@openzeppelin/contracts/token/ERC20/extensions/ERC20Burnable.sol\":985:1017  allowance(account, _msgSender()) */\n      tag_146\n        /* \"@openzeppelin/contracts/token/ERC20/extensions/ERC20Burnable.sol\":995:1002  account */\n      dup4\n        /* \"@openzeppelin/contracts/token/ERC20/extensions/ERC20Burnable.sol\":1004:1016  _msgSender() */\n      tag_147\n        /* \"@openzeppelin/contracts/token/ERC20/extensions/ERC20Burnable.sol\":1004:1014  _msgSender */\n      tag_106\n        /* \"@openzeppelin/contracts/token/ERC20/extensions/ERC20Burnable.sol\":1004:1016  _msgSender() */\n      jump\t// in\n    tag_147:\n        /* \"@openzeppelin/contracts/token/ERC20/extensions/ERC20Burnable.sol\":985:994  allowance */\n      tag_91\n        /* \"@openzeppelin/contracts/token/ERC20/extensions/ERC20Burnable.sol\":985:1017  allowance(account, _msgSender()) */\n      jump\t// in\n    tag_146:\n        /* \"@openzeppelin/contracts/token/ERC20/extensions/ERC20Burnable.sol\":958:1017  uint256 currentAllowance = allowance(account, _msgSender()) */\n      swap1\n      pop\n        /* \"@openzeppelin/contracts/token/ERC20/extensions/ERC20Burnable.sol\":1055:1061  amount */\n      dup2\n        /* \"@openzeppelin/contracts/token/ERC20/extensions/ERC20Burnable.sol\":1035:1051  currentAllowance */\n      dup2\n        /* \"@openzeppelin/contracts/token/ERC20/extensions/ERC20Burnable.sol\":1035:1061  currentAllowance >= amount */\n      lt\n      iszero\n        /* \"@openzeppelin/contracts/token/ERC20/extensions/ERC20Burnable.sol\":1027:1102  require(currentAllowance >= amount, \"ERC20: burn amount exceeds allowance\") */\n      tag_148\n      jumpi\n      mload(0x40)\n      0x08c379a000000000000000000000000000000000000000000000000000000000\n      dup2\n      mstore\n      0x04\n      add\n      tag_149\n      swap1\n      tag_150\n      jump\t// in\n    tag_149:\n      mload(0x40)\n      dup1\n      swap2\n      sub\n      swap1\n      revert\n    tag_148:\n        /* \"@openzeppelin/contracts/token/ERC20/extensions/ERC20Burnable.sol\":1136:1194  _approve(account, _msgSender(), currentAllowance - amount) */\n      tag_151\n        /* \"@openzeppelin/contracts/token/ERC20/extensions/ERC20Burnable.sol\":1145:1152  account */\n      dup4\n        /* \"@openzeppelin/contracts/token/ERC20/extensions/ERC20Burnable.sol\":1154:1166  _msgSender() */\n      tag_152\n        /* \"@openzeppelin/contracts/token/ERC20/extensions/ERC20Burnable.sol\":1154:1164  _msgSender */\n      tag_106\n        /* \"@openzeppelin/contracts/token/ERC20/extensions/ERC20Burnable.sol\":1154:1166  _msgSender() */\n      jump\t// in\n    tag_152:\n        /* \"@openzeppelin/contracts/token/ERC20/extensions/ERC20Burnable.sol\":1187:1193  amount */\n      dup5\n        /* \"@openzeppelin/contracts/token/ERC20/extensions/ERC20Burnable.sol\":1168:1184  currentAllowance */\n      dup5\n        /* \"@openzeppelin/contracts/token/ERC20/extensions/ERC20Burnable.sol\":1168:1193  currentAllowance - amount */\n      sub\n        /* \"@openzeppelin/contracts/token/ERC20/extensions/ERC20Burnable.sol\":1136:1144  _approve */\n      tag_107\n        /* \"@openzeppelin/contracts/token/ERC20/extensions/ERC20Burnable.sol\":1136:1194  _approve(account, _msgSender(), currentAllowance - amount) */\n      jump\t// in\n    tag_151:\n        /* \"@openzeppelin/contracts/token/ERC20/extensions/ERC20Burnable.sol\":1214:1236  _burn(account, amount) */\n      tag_153\n        /* \"@openzeppelin/contracts/token/ERC20/extensions/ERC20Burnable.sol\":1220:1227  account */\n      dup4\n        /* \"@openzeppelin/contracts/token/ERC20/extensions/ERC20Burnable.sol\":1229:1235  amount */\n      dup4\n        /* \"@openzeppelin/contracts/token/ERC20/extensions/ERC20Burnable.sol\":1214:1219  _burn */\n      tag_140\n        /* \"@openzeppelin/contracts/token/ERC20/extensions/ERC20Burnable.sol\":1214:1236  _burn(account, amount) */\n      jump\t// in\n    tag_153:\n        /* \"@openzeppelin/contracts/token/ERC20/extensions/ERC20Burnable.sol\":948:1243  {... */\n      pop\n        /* \"@openzeppelin/contracts/token/ERC20/extensions/ERC20Burnable.sol\":882:1243  function burnFrom(address account, uint256 amount) public virtual {... */\n      pop\n      pop\n      jump\t// out\n        /* \"@openzeppelin/contracts/token/ERC20/ERC20.sol\":2295:2397  function symbol() public view virtual override returns (string memory) {... */\n    tag_78:\n        /* \"@openzeppelin/contracts/token/ERC20/ERC20.sol\":2351:2364  string memory */\n      0x60\n        /* \"@openzeppelin/contracts/token/ERC20/ERC20.sol\":2383:2390  _symbol */\n      0x04\n        /* \"@openzeppelin/contracts/token/ERC20/ERC20.sol\":2376:2390  return _symbol */\n      dup1\n      sload\n      tag_155\n      swap1\n      tag_98\n      jump\t// in\n    tag_155:\n      dup1\n      0x1f\n      add\n      0x20\n      dup1\n      swap2\n      div\n      mul\n      0x20\n      add\n      mload(0x40)\n      swap1\n      dup2\n      add\n      0x40\n      mstore\n      dup1\n      swap3\n      swap2\n      swap1\n      dup2\n      dup2\n      mstore\n      0x20\n      add\n      dup3\n      dup1\n      sload\n      tag_156\n      swap1\n      tag_98\n      jump\t// in\n    tag_156:\n      dup1\n      iszero\n      tag_157\n      jumpi\n      dup1\n      0x1f\n      lt\n      tag_158\n      jumpi\n      0x0100\n      dup1\n      dup4\n      sload\n      div\n      mul\n      dup4\n      mstore\n      swap2\n      0x20\n      add\n      swap2\n      jump(tag_157)\n    tag_158:\n      dup3\n      add\n      swap2\n      swap1\n      0x00\n      mstore\n      keccak256(0x00, 0x20)\n      swap1\n    tag_159:\n      dup2\n      sload\n      dup2\n      mstore\n      swap1\n      0x01\n      add\n      swap1\n      0x20\n      add\n      dup1\n      dup4\n      gt\n      tag_159\n      jumpi\n      dup3\n      swap1\n      sub\n      0x1f\n      and\n      dup3\n      add\n      swap2\n    tag_157:\n      pop\n      pop\n      pop\n      pop\n      pop\n      swap1\n      pop\n        /* \"@openzeppelin/contracts/token/ERC20/ERC20.sol\":2295:2397  function symbol() public view virtual override returns (string memory) {... */\n      swap1\n      jump\t// out\n        /* \"@openzeppelin/contracts/token/ERC20/ERC20.sol\":6386:6791  function decreaseAllowance(address spender, uint256 subtractedValue) public virtual returns (bool) {... */\n    tag_82:\n        /* \"@openzeppelin/contracts/token/ERC20/ERC20.sol\":6479:6483  bool */\n      0x00\n        /* \"@openzeppelin/contracts/token/ERC20/ERC20.sol\":6495:6519  uint256 currentAllowance */\n      dup1\n        /* \"@openzeppelin/contracts/token/ERC20/ERC20.sol\":6522:6533  _allowances */\n      0x01\n        /* \"@openzeppelin/contracts/token/ERC20/ERC20.sol\":6522:6547  _allowances[_msgSender()] */\n      0x00\n        /* \"@openzeppelin/contracts/token/ERC20/ERC20.sol\":6534:6546  _msgSender() */\n      tag_161\n        /* \"@openzeppelin/contracts/token/ERC20/ERC20.sol\":6534:6544  _msgSender */\n      tag_106\n        /* \"@openzeppelin/contracts/token/ERC20/ERC20.sol\":6534:6546  _msgSender() */\n      jump\t// in\n    tag_161:\n        /* \"@openzeppelin/contracts/token/ERC20/ERC20.sol\":6522:6547  _allowances[_msgSender()] */\n      0xffffffffffffffffffffffffffffffffffffffff\n      and\n      0xffffffffffffffffffffffffffffffffffffffff\n      and\n      dup2\n      mstore\n      0x20\n      add\n      swap1\n      dup2\n      mstore\n      0x20\n      add\n      0x00\n      keccak256\n        /* \"@openzeppelin/contracts/token/ERC20/ERC20.sol\":6522:6556  _allowances[_msgSender()][spender] */\n      0x00\n        /* \"@openzeppelin/contracts/token/ERC20/ERC20.sol\":6548:6555  spender */\n      dup6\n        /* \"@openzeppelin/contracts/token/ERC20/ERC20.sol\":6522:6556  _allowances[_msgSender()][spender] */\n      0xffffffffffffffffffffffffffffffffffffffff\n      and\n      0xffffffffffffffffffffffffffffffffffffffff\n      and\n      dup2\n      mstore\n      0x20\n      add\n      swap1\n      dup2\n      mstore\n      0x20\n      add\n      0x00\n      keccak256\n      sload\n        /* \"@openzeppelin/contracts/token/ERC20/ERC20.sol\":6495:6556  uint256 currentAllowance = _allowances[_msgSender()][spender] */\n      swap1\n      pop\n        /* \"@openzeppelin/contracts/token/ERC20/ERC20.sol\":6594:6609  subtractedValue */\n      dup3\n        /* \"@openzeppelin/contracts/token/ERC20/ERC20.sol\":6574:6590  currentAllowance */\n      dup2\n        /* \"@openzeppelin/contracts/token/ERC20/ERC20.sol\":6574:6609  currentAllowance >= subtractedValue */\n      lt\n      iszero\n        /* \"@openzeppelin/contracts/token/ERC20/ERC20.sol\":6566:6651  require(currentAllowance >= subtractedValue, \"ERC20: decreased allowance below zero\") */\n      tag_162\n      jumpi\n      mload(0x40)\n      0x08c379a000000000000000000000000000000000000000000000000000000000\n      dup2\n      mstore\n      0x04\n      add\n      tag_163\n      swap1\n      tag_164\n      jump\t// in\n    tag_163:\n      mload(0x40)\n      dup1\n      swap2\n      sub\n      swap1\n      revert\n    tag_162:\n        /* \"@openzeppelin/contracts/token/ERC20/ERC20.sol\":6685:6752  _approve(_msgSender(), spender, currentAllowance - subtractedValue) */\n      tag_165\n        /* \"@openzeppelin/contracts/token/ERC20/ERC20.sol\":6694:6706  _msgSender() */\n      tag_166\n        /* \"@openzeppelin/contracts/token/ERC20/ERC20.sol\":6694:6704  _msgSender */\n      tag_106\n        /* \"@openzeppelin/contracts/token/ERC20/ERC20.sol\":6694:6706  _msgSender() */\n      jump\t// in\n    tag_166:\n        /* \"@openzeppelin/contracts/token/ERC20/ERC20.sol\":6708:6715  spender */\n      dup6\n        /* \"@openzeppelin/contracts/token/ERC20/ERC20.sol\":6736:6751  subtractedValue */\n      dup6\n        /* \"@openzeppelin/contracts/token/ERC20/ERC20.sol\":6717:6733  currentAllowance */\n      dup5\n        /* \"@openzeppelin/contracts/token/ERC20/ERC20.sol\":6717:6751  currentAllowance - subtractedValue */\n      sub\n        /* \"@openzeppelin/contracts/token/ERC20/ERC20.sol\":6685:6693  _approve */\n      tag_107\n        /* \"@openzeppelin/contracts/token/ERC20/ERC20.sol\":6685:6752  _approve(_msgSender(), spender, currentAllowance - subtractedValue) */\n      jump\t// in\n    tag_165:\n        /* \"@openzeppelin/contracts/token/ERC20/ERC20.sol\":6780:6784  true */\n      0x01\n        /* \"@openzeppelin/contracts/token/ERC20/ERC20.sol\":6773:6784  return true */\n      swap2\n      pop\n      pop\n        /* \"@openzeppelin/contracts/token/ERC20/ERC20.sol\":6386:6791  function decreaseAllowance(address spender, uint256 subtractedValue) public virtual returns (bool) {... */\n      swap3\n      swap2\n      pop\n      pop\n      jump\t// out\n        /* \"@openzeppelin/contracts/token/ERC20/ERC20.sol\":3664:3836  function transfer(address recipient, uint256 amount) public virtual override returns (bool) {... */\n    tag_86:\n        /* \"@openzeppelin/contracts/token/ERC20/ERC20.sol\":3750:3754  bool */\n      0x00\n        /* \"@openzeppelin/contracts/token/ERC20/ERC20.sol\":3766:3808  _transfer(_msgSender(), recipient, amount) */\n      tag_168\n        /* \"@openzeppelin/contracts/token/ERC20/ERC20.sol\":3776:3788  _msgSender() */\n      tag_169\n        /* \"@openzeppelin/contracts/token/ERC20/ERC20.sol\":3776:3786  _msgSender */\n      tag_106\n        /* \"@openzeppelin/contracts/token/ERC20/ERC20.sol\":3776:3788  _msgSender() */\n      jump\t// in\n    tag_169:\n        /* \"@openzeppelin/contracts/token/ERC20/ERC20.sol\":3790:3799  recipient */\n      dup5\n        /* \"@openzeppelin/contracts/token/ERC20/ERC20.sol\":3801:3807  amount */\n      dup5\n        /* \"@openzeppelin/contracts/token/ERC20/ERC20.sol\":3766:3775  _transfer */\n      tag_122\n        /* \"@openzeppelin/contracts/token/ERC20/ERC20.sol\":3766:3808  _transfer(_msgSender(), recipient, amount) */\n      jump\t// in\n    tag_168:\n        /* \"@openzeppelin/contracts/token/ERC20/ERC20.sol\":3825:3829  true */\n      0x01\n        /* \"@openzeppelin/contracts/token/ERC20/ERC20.sol\":3818:3829  return true */\n      swap1\n      pop\n        /* \"@openzeppelin/contracts/token/ERC20/ERC20.sol\":3664:3836  function transfer(address recipient, uint256 amount) public virtual override returns (bool) {... */\n      swap3\n      swap2\n      pop\n      pop\n      jump\t// out\n        /* \"@openzeppelin/contracts/token/ERC20/ERC20.sol\":3894:4043  function allowance(address owner, address spender) public view virtual override returns (uint256) {... */\n    tag_91:\n        /* \"@openzeppelin/contracts/token/ERC20/ERC20.sol\":3983:3990  uint256 */\n      0x00\n        /* \"@openzeppelin/contracts/token/ERC20/ERC20.sol\":4009:4020  _allowances */\n      0x01\n        /* \"@openzeppelin/contracts/token/ERC20/ERC20.sol\":4009:4027  _allowances[owner] */\n      0x00\n        /* \"@openzeppelin/contracts/token/ERC20/ERC20.sol\":4021:4026  owner */\n      dup5\n        /* \"@openzeppelin/contracts/token/ERC20/ERC20.sol\":4009:4027  _allowances[owner] */\n      0xffffffffffffffffffffffffffffffffffffffff\n      and\n      0xffffffffffffffffffffffffffffffffffffffff\n      and\n      dup2\n      mstore\n      0x20\n      add\n      swap1\n      dup2\n      mstore\n      0x20\n      add\n      0x00\n      keccak256\n        /* \"@openzeppelin/contracts/token/ERC20/ERC20.sol\":4009:4036  _allowances[owner][spender] */\n      0x00\n        /* \"@openzeppelin/contracts/token/ERC20/ERC20.sol\":4028:4035  spender */\n      dup4\n        /* \"@openzeppelin/contracts/token/ERC20/ERC20.sol\":4009:4036  _allowances[owner][spender] */\n      0xffffffffffffffffffffffffffffffffffffffff\n      and\n      0xffffffffffffffffffffffffffffffffffffffff\n      and\n      dup2\n      mstore\n      0x20\n      add\n      swap1\n      dup2\n      mstore\n      0x20\n      add\n      0x00\n      keccak256\n      sload\n        /* \"@openzeppelin/contracts/token/ERC20/ERC20.sol\":4002:4036  return _allowances[owner][spender] */\n      swap1\n      pop\n        /* \"@openzeppelin/contracts/token/ERC20/ERC20.sol\":3894:4043  function allowance(address owner, address spender) public view virtual override returns (uint256) {... */\n      swap3\n      swap2\n      pop\n      pop\n      jump\t// out\n        /* \"contracts/GeoNexusToken.sol\":1400:1491  function getBlockReward() public view returns (uint256) {... */\n    tag_94:\n        /* \"contracts/GeoNexusToken.sol\":1447:1454  uint256 */\n      0x00\n        /* \"contracts/GeoNexusToken.sol\":1473:1484  blockReward */\n      sload(0x06)\n        /* \"contracts/GeoNexusToken.sol\":1466:1484  return blockReward */\n      swap1\n      pop\n        /* \"contracts/GeoNexusToken.sol\":1400:1491  function getBlockReward() public view returns (uint256) {... */\n      swap1\n      jump\t// out\n        /* \"@openzeppelin/contracts/utils/Context.sol\":587:683  function _msgSender() internal view virtual returns (address) {... */\n    tag_106:\n        /* \"@openzeppelin/contracts/utils/Context.sol\":640:647  address */\n      0x00\n        /* \"@openzeppelin/contracts/utils/Context.sol\":666:676  msg.sender */\n      caller\n        /* \"@openzeppelin/contracts/utils/Context.sol\":659:676  return msg.sender */\n      swap1\n      pop\n        /* \"@openzeppelin/contracts/utils/Context.sol\":587:683  function _msgSender() internal view virtual returns (address) {... */\n      swap1\n      jump\t// out\n        /* \"@openzeppelin/contracts/token/ERC20/ERC20.sol\":9962:10332  function _approve(... */\n    tag_107:\n        /* \"@openzeppelin/contracts/token/ERC20/ERC20.sol\":10110:10111  0 */\n      0x00\n        /* \"@openzeppelin/contracts/token/ERC20/ERC20.sol\":10093:10112  owner != address(0) */\n      0xffffffffffffffffffffffffffffffffffffffff\n      and\n        /* \"@openzeppelin/contracts/token/ERC20/ERC20.sol\":10093:10098  owner */\n      dup4\n        /* \"@openzeppelin/contracts/token/ERC20/ERC20.sol\":10093:10112  owner != address(0) */\n      0xffffffffffffffffffffffffffffffffffffffff\n      and\n      sub\n        /* \"@openzeppelin/contracts/token/ERC20/ERC20.sol\":10085:10153  require(owner != address(0), \"ERC20: approve from the zero address\") */\n      tag_174\n      jumpi\n      mload(0x40)\n      0x08c379a000000000000000000000000000000000000000000000000000000000\n      dup2\n      mstore\n      0x04\n      add\n      tag_175\n      swap1\n      tag_176\n      jump\t// in\n    tag_175:\n      mload(0x40)\n      dup1\n      swap2\n      sub\n      swap1\n      revert\n    tag_174:\n        /* \"@openzeppelin/contracts/token/ERC20/ERC20.sol\":10190:10191  0 */\n      0x00\n        /* \"@openzeppelin/contracts/token/ERC20/ERC20.sol\":10171:10192  spender != address(0) */\n      0xffffffffffffffffffffffffffffffffffffffff\n      and\n        /* \"@openzeppelin/contracts/token/ERC20/ERC20.sol\":10171:10178  spender */\n      dup3\n        /* \"@openzeppelin/contracts/token/ERC20/ERC20.sol\":10171:10192  spender != address(0) */\n      0xffffffffffffffffffffffffffffffffffffffff\n      and\n      sub\n        /* \"@openzeppelin/contracts/token/ERC20/ERC20.sol\":10163:10231  require(spender != address(0), \"ERC20: approve to the zero address\") */\n      tag_177\n      jumpi\n      mload(0x40)\n      0x08c379a000000000000000000000000000000000000000000000000000000000\n      dup2\n      mstore\n      0x04\n      add\n      tag_178\n      swap1\n      tag_179\n      jump\t// in\n    tag_178:\n      mload(0x40)\n      dup1\n      swap2\n      sub\n      swap1\n      revert\n    tag_177:\n        /* \"@openzeppelin/contracts/token/ERC20/ERC20.sol\":10272:10278  amount */\n      dup1\n        /* \"@openzeppelin/contracts/token/ERC20/ERC20.sol\":10242:10253  _allowances */\n      0x01\n        /* \"@openzeppelin/contracts/token/ERC20/ERC20.sol\":10242:10260  _allowances[owner] */\n      0x00\n        /* \"@openzeppelin/contracts/token/ERC20/ERC20.sol\":10254:10259  owner */\n      dup6\n        /* \"@openzeppelin/contracts/token/ERC20/ERC20.sol\":10242:10260  _allowances[owner] */\n      0xffffffffffffffffffffffffffffffffffffffff\n      and\n      0xffffffffffffffffffffffffffffffffffffffff\n      and\n      dup2\n      mstore\n      0x20\n      add\n      swap1\n      dup2\n      mstore\n      0x20\n      add\n      0x00\n      keccak256\n        /* \"@openzeppelin/contracts/token/ERC20/ERC20.sol\":10242:10269  _allowances[owner][spender] */\n      0x00\n        /* \"@openzeppelin/contracts/token/ERC20/ERC20.sol\":10261:10268  spender */\n      dup5\n        /* \"@openzeppelin/contracts/token/ERC20/ERC20.sol\":10242:10269  _allowances[owner][spender] */\n      0xffffffffffffffffffffffffffffffffffffffff\n      and\n      0xffffffffffffffffffffffffffffffffffffffff\n      and\n      dup2\n      mstore\n      0x20\n      add\n      swap1\n      dup2\n      mstore\n      0x20\n      add\n      0x00\n      keccak256\n        /* \"@openzeppelin/contracts/token/ERC20/ERC20.sol\":10242:10278  _allowances[owner][spender] = amount */\n      dup2\n      swap1\n      sstore\n      pop\n        /* \"@openzeppelin/contracts/token/ERC20/ERC20.sol\":10309:10316  spender */\n      dup2\n        /* \"@openzeppelin/contracts/token/ERC20/ERC20.sol\":10293:10325  Approval(owner, spender, amount) */\n      0xffffffffffffffffffffffffffffffffffffffff\n      and\n        /* \"@openzeppelin/contracts/token/ERC20/ERC20.sol\":10302:10307  owner */\n      dup4\n        /* \"@openzeppelin/contracts/token/ERC20/ERC20.sol\":10293:10325  Approval(owner, spender, amount) */\n      0xffffffffffffffffffffffffffffffffffffffff\n      and\n      0x8c5be1e5ebec7d5bd14f71427d1e84f3dd0314c0f7b2291e5b200ac8c7c3b925\n        /* \"@openzeppelin/contracts/token/ERC20/ERC20.sol\":10318:10324  amount */\n      dup4\n        /* \"@openzeppelin/contracts/token/ERC20/ERC20.sol\":10293:10325  Approval(owner, spender, amount) */\n      mload(0x40)\n      tag_180\n      swap2\n      swap1\n      tag_37\n      jump\t// in\n    tag_180:\n      mload(0x40)\n      dup1\n      swap2\n      sub\n      swap1\n      log3\n        /* \"@openzeppelin/contracts/token/ERC20/ERC20.sol\":9962:10332  function _approve(... */\n      pop\n      pop\n      pop\n      jump\t// out\n        /* \"@openzeppelin/contracts/token/ERC20/ERC20.sol\":7265:7978  function _transfer(... */\n    tag_122:\n        /* \"@openzeppelin/contracts/token/ERC20/ERC20.sol\":7418:7419  0 */\n      0x00\n        /* \"@openzeppelin/contracts/token/ERC20/ERC20.sol\":7400:7420  sender != address(0) */\n      0xffffffffffffffffffffffffffffffffffffffff\n      and\n        /* \"@openzeppelin/contracts/token/ERC20/ERC20.sol\":7400:7406  sender */\n      dup4\n        /* \"@openzeppelin/contracts/token/ERC20/ERC20.sol\":7400:7420  sender != address(0) */\n      0xffffffffffffffffffffffffffffffffffffffff\n      and\n      sub\n        /* \"@openzeppelin/contracts/token/ERC20/ERC20.sol\":7392:7462  require(sender != address(0), \"ERC20: transfer from the zero address\") */\n      tag_182\n      jumpi\n      mload(0x40)\n      0x08c379a000000000000000000000000000000000000000000000000000000000\n      dup2\n      mstore\n      0x04\n      add\n      tag_183\n      swap1\n      tag_184\n      jump\t// in\n    tag_183:\n      mload(0x40)\n      dup1\n      swap2\n      sub\n      swap1\n      revert\n    tag_182:\n        /* \"@openzeppelin/contracts/token/ERC20/ERC20.sol\":7501:7502  0 */\n      0x00\n        /* \"@openzeppelin/contracts/token/ERC20/ERC20.sol\":7480:7503  recipient != address(0) */\n      0xffffffffffffffffffffffffffffffffffffffff\n      and\n        /* \"@openzeppelin/contracts/token/ERC20/ERC20.sol\":7480:7489  recipient */\n      dup3\n        /* \"@openzeppelin/contracts/token/ERC20/ERC20.sol\":7480:7503  recipient != address(0) */\n      0xffffffffffffffffffffffffffffffffffffffff\n      and\n      sub\n        /* \"@openzeppelin/contracts/token/ERC20/ERC20.sol\":7472:7543  require(recipient != address(0), \"ERC20: transfer to the zero address\") */\n      tag_185\n      jumpi\n      mload(0x40)\n      0x08c379a000000000000000000000000000000000000000000000000000000000\n      dup2\n      mstore\n      0x04\n      add\n      tag_186\n      swap1\n      tag_187\n      jump\t// in\n    tag_186:\n      mload(0x40)\n      dup1\n      swap2\n      sub\n      swap1\n      revert\n    tag_185:\n        /* \"@openzeppelin/contracts/token/ERC20/ERC20.sol\":7554:7601  _beforeTokenTransfer(sender, recipient, amount) */\n      tag_188\n        /* \"@openzeppelin/contracts/token/ERC20/ERC20.sol\":7575:7581  sender */\n      dup4\n        /* \"@openzeppelin/contracts/token/ERC20/ERC20.sol\":7583:7592  recipient */\n      dup4\n        /* \"@openzeppelin/contracts/token/ERC20/ERC20.sol\":7594:7600  amount */\n      dup4\n        /* \"@openzeppelin/contracts/token/ERC20/ERC20.sol\":7554:7574  _beforeTokenTransfer */\n      tag_189\n        /* \"@openzeppelin/contracts/token/ERC20/ERC20.sol\":7554:7601  _beforeTokenTransfer(sender, recipient, amount) */\n      jump\t// in\n    tag_188:\n        /* \"@openzeppelin/contracts/token/ERC20/ERC20.sol\":7612:7633  uint256 senderBalance */\n      0x00\n        /* \"@openzeppelin/contracts/token/ERC20/ERC20.sol\":7636:7645  _balances */\n      dup1\n        /* \"@openzeppelin/contracts/token/ERC20/ERC20.sol\":7636:7653  _balances[sender] */\n      0x00\n        /* \"@openzeppelin/contracts/token/ERC20/ERC20.sol\":7646:7652  sender */\n      dup6\n        /* \"@openzeppelin/contracts/token/ERC20/ERC20.sol\":7636:7653  _balances[sender] */\n      0xffffffffffffffffffffffffffffffffffffffff\n      and\n      0xffffffffffffffffffffffffffffffffffffffff\n      and\n      dup2\n      mstore\n      0x20\n      add\n      swap1\n      dup2\n      mstore\n      0x20\n      add\n      0x00\n      keccak256\n      sload\n        /* \"@openzeppelin/contracts/token/ERC20/ERC20.sol\":7612:7653  uint256 senderBalance = _balances[sender] */\n      swap1\n      pop\n        /* \"@openzeppelin/contracts/token/ERC20/ERC20.sol\":7688:7694  amount */\n      dup2\n        /* \"@openzeppelin/contracts/token/ERC20/ERC20.sol\":7671:7684  senderBalance */\n      dup2\n        /* \"@openzeppelin/contracts/token/ERC20/ERC20.sol\":7671:7694  senderBalance >= amount */\n      lt\n      iszero\n        /* \"@openzeppelin/contracts/token/ERC20/ERC20.sol\":7663:7737  require(senderBalance >= amount, \"ERC20: transfer amount exceeds balance\") */\n      tag_190\n      jumpi\n      mload(0x40)\n      0x08c379a000000000000000000000000000000000000000000000000000000000\n      dup2\n      mstore\n      0x04\n      add\n      tag_191\n      swap1\n      tag_192\n      jump\t// in\n    tag_191:\n      mload(0x40)\n      dup1\n      swap2\n      sub\n      swap1\n      revert\n    tag_190:\n        /* \"@openzeppelin/contracts/token/ERC20/ERC20.sol\":7807:7813  amount */\n      dup2\n        /* \"@openzeppelin/contracts/token/ERC20/ERC20.sol\":7791:7804  senderBalance */\n      dup2\n        /* \"@openzeppelin/contracts/token/ERC20/ERC20.sol\":7791:7813  senderBalance - amount */\n      sub\n        /* \"@openzeppelin/contracts/token/ERC20/ERC20.sol\":7771:7780  _balances */\n      0x00\n        /* \"@openzeppelin/contracts/token/ERC20/ERC20.sol\":7771:7788  _balances[sender] */\n      dup1\n        /* \"@openzeppelin/contracts/token/ERC20/ERC20.sol\":7781:7787  sender */\n      dup7\n        /* \"@openzeppelin/contracts/token/ERC20/ERC20.sol\":7771:7788  _balances[sender] */\n      0xffffffffffffffffffffffffffffffffffffffff\n      and\n      0xffffffffffffffffffffffffffffffffffffffff\n      and\n      dup2\n      mstore\n      0x20\n      add\n      swap1\n      dup2\n      mstore\n      0x20\n      add\n      0x00\n      keccak256\n        /* \"@openzeppelin/contracts/token/ERC20/ERC20.sol\":7771:7813  _balances[sender] = senderBalance - amount */\n      dup2\n      swap1\n      sstore\n      pop\n        /* \"@openzeppelin/contracts/token/ERC20/ERC20.sol\":7857:7863  amount */\n      dup2\n        /* \"@openzeppelin/contracts/token/ERC20/ERC20.sol\":7833:7842  _balances */\n      0x00\n        /* \"@openzeppelin/contracts/token/ERC20/ERC20.sol\":7833:7853  _balances[recipient] */\n      dup1\n        /* \"@openzeppelin/contracts/token/ERC20/ERC20.sol\":7843:7852  recipient */\n      dup6\n        /* \"@openzeppelin/contracts/token/ERC20/ERC20.sol\":7833:7853  _balances[recipient] */\n      0xffffffffffffffffffffffffffffffffffffffff\n      and\n      0xffffffffffffffffffffffffffffffffffffffff\n      and\n      dup2\n      mstore\n      0x20\n      add\n      swap1\n      dup2\n      mstore\n      0x20\n      add\n      0x00\n      keccak256\n      0x00\n        /* \"@openzeppelin/contracts/token/ERC20/ERC20.sol\":7833:7863  _balances[recipient] += amount */\n      dup3\n      dup3\n      sload\n      tag_193\n      swap2\n      swap1\n      tag_136\n      jump\t// in\n    tag_193:\n      swap3\n      pop\n      pop\n      dup2\n      swap1\n      sstore\n      pop\n        /* \"@openzeppelin/contracts/token/ERC20/ERC20.sol\":7896:7905  recipient */\n      dup3\n        /* \"@openzeppelin/contracts/token/ERC20/ERC20.sol\":7879:7914  Transfer(sender, recipient, amount) */\n      0xffffffffffffffffffffffffffffffffffffffff\n      and\n        /* \"@openzeppelin/contracts/token/ERC20/ERC20.sol\":7888:7894  sender */\n      dup5\n        /* \"@openzeppelin/contracts/token/ERC20/ERC20.sol\":7879:7914  Transfer(sender, recipient, amount) */\n      0xffffffffffffffffffffffffffffffffffffffff\n      and\n      0xddf252ad1be2c89b69c2b068fc378daa952ba7f163c4a11628f55a4df523b3ef\n        /* \"@openzeppelin/contracts/token/ERC20/ERC20.sol\":7907:7913  amount */\n      dup5\n        /* \"@openzeppelin/contracts/token/ERC20/ERC20.sol\":7879:7914  Transfer(sender, recipient, amount) */\n      mload(0x40)\n      tag_194\n      swap2\n      swap1\n      tag_37\n      jump\t// in\n    tag_194:\n      mload(0x40)\n      dup1\n      swap2\n      sub\n      swap1\n      log3\n        /* \"@openzeppelin/contracts/token/ERC20/ERC20.sol\":7925:7971  _afterTokenTransfer(sender, recipient, amount) */\n      tag_195\n        /* \"@openzeppelin/contracts/token/ERC20/ERC20.sol\":7945:7951  sender */\n      dup5\n        /* \"@openzeppelin/contracts/token/ERC20/ERC20.sol\":7953:7962  recipient */\n      dup5\n        /* \"@openzeppelin/contracts/token/ERC20/ERC20.sol\":7964:7970  amount */\n      dup5\n        /* \"@openzeppelin/contracts/token/ERC20/ERC20.sol\":7925:7944  _afterTokenTransfer */\n      tag_196\n        /* \"@openzeppelin/contracts/token/ERC20/ERC20.sol\":7925:7971  _afterTokenTransfer(sender, recipient, amount) */\n      jump\t// in\n    tag_195:\n        /* \"@openzeppelin/contracts/token/ERC20/ERC20.sol\":7382:7978  {... */\n      pop\n        /* \"@openzeppelin/contracts/token/ERC20/ERC20.sol\":7265:7978  function _transfer(... */\n      pop\n      pop\n      pop\n      jump\t// out\n        /* \"@openzeppelin/contracts/token/ERC20/ERC20.sol\":8963:9539  function _burn(address account, uint256 amount) internal virtual {... */\n    tag_140:\n        /* \"@openzeppelin/contracts/token/ERC20/ERC20.sol\":9065:9066  0 */\n      0x00\n        /* \"@openzeppelin/contracts/token/ERC20/ERC20.sol\":9046:9067  account != address(0) */\n      0xffffffffffffffffffffffffffffffffffffffff\n      and\n        /* \"@openzeppelin/contracts/token/ERC20/ERC20.sol\":9046:9053  account */\n      dup3\n        /* \"@openzeppelin/contracts/token/ERC20/ERC20.sol\":9046:9067  account != address(0) */\n      0xffffffffffffffffffffffffffffffffffffffff\n      and\n      sub\n        /* \"@openzeppelin/contracts/token/ERC20/ERC20.sol\":9038:9105  require(account != address(0), \"ERC20: burn from the zero address\") */\n      tag_198\n      jumpi\n      mload(0x40)\n      0x08c379a000000000000000000000000000000000000000000000000000000000\n      dup2\n      mstore\n      0x04\n      add\n      tag_199\n      swap1\n      tag_200\n      jump\t// in\n    tag_199:\n      mload(0x40)\n      dup1\n      swap2\n      sub\n      swap1\n      revert\n    tag_198:\n        /* \"@openzeppelin/contracts/token/ERC20/ERC20.sol\":9116:9165  _beforeTokenTransfer(account, address(0), amount) */\n      tag_201\n        /* \"@openzeppelin/contracts/token/ERC20/ERC20.sol\":9137:9144  account */\n      dup3\n        /* \"@openzeppelin/contracts/token/ERC20/ERC20.sol\":9154:9155  0 */\n      0x00\n        /* \"@openzeppelin/contracts/token/ERC20/ERC20.sol\":9158:9164  amount */\n      dup4\n        /* \"@openzeppelin/contracts/token/ERC20/ERC20.sol\":9116:9136  _beforeTokenTransfer */\n      tag_189\n        /* \"@openzeppelin/contracts/token/ERC20/ERC20.sol\":9116:9165  _beforeTokenTransfer(account, address(0), amount) */\n      jump\t// in\n    tag_201:\n        /* \"@openzeppelin/contracts/token/ERC20/ERC20.sol\":9176:9198  uint256 accountBalance */\n      0x00\n        /* \"@openzeppelin/contracts/token/ERC20/ERC20.sol\":9201:9210  _balances */\n      dup1\n        /* \"@openzeppelin/contracts/token/ERC20/ERC20.sol\":9201:9219  _balances[account] */\n      0x00\n        /* \"@openzeppelin/contracts/token/ERC20/ERC20.sol\":9211:9218  account */\n      dup5\n        /* \"@openzeppelin/contracts/token/ERC20/ERC20.sol\":9201:9219  _balances[account] */\n      0xffffffffffffffffffffffffffffffffffffffff\n      and\n      0xffffffffffffffffffffffffffffffffffffffff\n      and\n      dup2\n      mstore\n      0x20\n      add\n      swap1\n      dup2\n      mstore\n      0x20\n      add\n      0x00\n      keccak256\n      sload\n        /* \"@openzeppelin/contracts/token/ERC20/ERC20.sol\":9176:9219  uint256 accountBalance = _balances[account] */\n      swap1\n      pop\n        /* \"@openzeppelin/contracts/token/ERC20/ERC20.sol\":9255:9261  amount */\n      dup2\n        /* \"@openzeppelin/contracts/token/ERC20/ERC20.sol\":9237:9251  accountBalance */\n      dup2\n        /* \"@openzeppelin/contracts/token/ERC20/ERC20.sol\":9237:9261  accountBalance >= amount */\n      lt\n      iszero\n        /* \"@openzeppelin/contracts/token/ERC20/ERC20.sol\":9229:9300  require(accountBalance >= amount, \"ERC20: burn amount exceeds balance\") */\n      tag_202\n      jumpi\n      mload(0x40)\n      0x08c379a000000000000000000000000000000000000000000000000000000000\n      dup2\n      mstore\n      0x04\n      add\n      tag_203\n      swap1\n      tag_204\n      jump\t// in\n    tag_203:\n      mload(0x40)\n      dup1\n      swap2\n      sub\n      swap1\n      revert\n    tag_202:\n        /* \"@openzeppelin/contracts/token/ERC20/ERC20.sol\":9372:9378  amount */\n      dup2\n        /* \"@openzeppelin/contracts/token/ERC20/ERC20.sol\":9355:9369  accountBalance */\n      dup2\n        /* \"@openzeppelin/contracts/token/ERC20/ERC20.sol\":9355:9378  accountBalance - amount */\n      sub\n        /* \"@openzeppelin/contracts/token/ERC20/ERC20.sol\":9334:9343  _balances */\n      0x00\n        /* \"@openzeppelin/contracts/token/ERC20/ERC20.sol\":9334:9352  _balances[account] */\n      dup1\n        /* \"@openzeppelin/contracts/token/ERC20/ERC20.sol\":9344:9351  account */\n      dup6\n        /* \"@openzeppelin/contracts/token/ERC20/ERC20.sol\":9334:9352  _balances[account] */\n      0xffffffffffffffffffffffffffffffffffffffff\n      and\n      0xffffffffffffffffffffffffffffffffffffffff\n      and\n      dup2\n      mstore\n      0x20\n      add\n      swap1\n      dup2\n      mstore\n      0x20\n      add\n      0x00\n      keccak256\n        /* \"@openzeppelin/contracts/token/ERC20/ERC20.sol\":9334:9378  _balances[account] = accountBalance - amount */\n      dup2\n      swap1\n      sstore\n      pop\n        /* \"@openzeppelin/contracts/token/ERC20/ERC20.sol\":9414:9420  amount */\n      dup2\n        /* \"@openzeppelin/contracts/token/ERC20/ERC20.sol\":9398:9410  _totalSupply */\n      0x02\n      0x00\n        /* \"@openzeppelin/contracts/token/ERC20/ERC20.sol\":9398:9420  _totalSupply -= amount */\n      dup3\n      dup3\n      sload\n      tag_205\n      swap2\n      swap1\n      tag_206\n      jump\t// in\n    tag_205:\n      swap3\n      pop\n      pop\n      dup2\n      swap1\n      sstore\n      pop\n        /* \"@openzeppelin/contracts/token/ERC20/ERC20.sol\":9462:9463  0 */\n      0x00\n        /* \"@openzeppelin/contracts/token/ERC20/ERC20.sol\":9436:9473  Transfer(account, address(0), amount) */\n      0xffffffffffffffffffffffffffffffffffffffff\n      and\n        /* \"@openzeppelin/contracts/token/ERC20/ERC20.sol\":9445:9452  account */\n      dup4\n        /* \"@openzeppelin/contracts/token/ERC20/ERC20.sol\":9436:9473  Transfer(account, address(0), amount) */\n      0xffffffffffffffffffffffffffffffffffffffff\n      and\n      0xddf252ad1be2c89b69c2b068fc378daa952ba7f163c4a11628f55a4df523b3ef\n        /* \"@openzeppelin/contracts/token/ERC20/ERC20.sol\":9466:9472  amount */\n      dup5\n        /* \"@openzeppelin/contracts/token/ERC20/ERC20.sol\":9436:9473  Transfer(account, address(0), amount) */\n      mload(0x40)\n      tag_207\n      swap2\n      swap1\n      tag_37\n      jump\t// in\n    tag_207:\n      mload(0x40)\n      dup1\n      swap2\n      sub\n      swap1\n      log3\n        /* \"@openzeppelin/contracts/token/ERC20/ERC20.sol\":9484:9532  _afterTokenTransfer(account, address(0), amount) */\n      tag_208\n        /* \"@openzeppelin/contracts/token/ERC20/ERC20.sol\":9504:9511  account */\n      dup4\n        /* \"@openzeppelin/contracts/token/ERC20/ERC20.sol\":9521:9522  0 */\n      0x00\n        /* \"@openzeppelin/contracts/token/ERC20/ERC20.sol\":9525:9531  amount */\n      dup5\n        /* \"@openzeppelin/contracts/token/ERC20/ERC20.sol\":9484:9503  _afterTokenTransfer */\n      tag_196\n        /* \"@openzeppelin/contracts/token/ERC20/ERC20.sol\":9484:9532  _afterTokenTransfer(account, address(0), amount) */\n      jump\t// in\n    tag_208:\n        /* \"@openzeppelin/contracts/token/ERC20/ERC20.sol\":9028:9539  {... */\n      pop\n        /* \"@openzeppelin/contracts/token/ERC20/ERC20.sol\":8963:9539  function _burn(address account, uint256 amount) internal virtual {... */\n      pop\n      pop\n      jump\t// out\n        /* \"contracts/GeoNexusToken.sol\":1107:1394  function _beforeTokenTransfer(address from, address to, uint256 value) internal virtual override {... */\n    tag_189:\n        /* \"contracts/GeoNexusToken.sol\":1234:1235  0 */\n      0x00\n        /* \"contracts/GeoNexusToken.sol\":1218:1236  from != address(0) */\n      0xffffffffffffffffffffffffffffffffffffffff\n      and\n        /* \"contracts/GeoNexusToken.sol\":1218:1222  from */\n      dup4\n        /* \"contracts/GeoNexusToken.sol\":1218:1236  from != address(0) */\n      0xffffffffffffffffffffffffffffffffffffffff\n      and\n      eq\n      iszero\n        /* \"contracts/GeoNexusToken.sol\":1218:1260  from != address(0) && to != block.coinbase */\n      dup1\n      iszero\n      tag_210\n      jumpi\n      pop\n        /* \"contracts/GeoNexusToken.sol\":1246:1260  block.coinbase */\n      coinbase\n        /* \"contracts/GeoNexusToken.sol\":1240:1260  to != block.coinbase */\n      0xffffffffffffffffffffffffffffffffffffffff\n      and\n        /* \"contracts/GeoNexusToken.sol\":1240:1242  to */\n      dup3\n        /* \"contracts/GeoNexusToken.sol\":1240:1260  to != block.coinbase */\n      0xffffffffffffffffffffffffffffffffffffffff\n      and\n      eq\n      iszero\n        /* \"contracts/GeoNexusToken.sol\":1218:1260  from != address(0) && to != block.coinbase */\n    tag_210:\n        /* \"contracts/GeoNexusToken.sol\":1218:1292  from != address(0) && to != block.coinbase && block.coinbase != address(0) */\n      dup1\n      iszero\n      tag_211\n      jumpi\n      pop\n        /* \"contracts/GeoNexusToken.sol\":1290:1291  0 */\n      0x00\n        /* \"contracts/GeoNexusToken.sol\":1264:1292  block.coinbase != address(0) */\n      0xffffffffffffffffffffffffffffffffffffffff\n      and\n        /* \"contracts/GeoNexusToken.sol\":1264:1278  block.coinbase */\n      coinbase\n        /* \"contracts/GeoNexusToken.sol\":1264:1292  block.coinbase != address(0) */\n      0xffffffffffffffffffffffffffffffffffffffff\n      and\n      eq\n      iszero\n        /* \"contracts/GeoNexusToken.sol\":1218:1292  from != address(0) && to != block.coinbase && block.coinbase != address(0) */\n    tag_211:\n        /* \"contracts/GeoNexusToken.sol\":1214:1335  if (from != address(0) && to != block.coinbase && block.coinbase != address(0)) {... */\n      iszero\n      tag_212\n      jumpi\n        /* \"contracts/GeoNexusToken.sol\":1306:1324  _mintMinerReward() */\n      tag_213\n        /* \"contracts/GeoNexusToken.sol\":1306:1322  _mintMinerReward */\n      tag_214\n        /* \"contracts/GeoNexusToken.sol\":1306:1324  _mintMinerReward() */\n      jump\t// in\n    tag_213:\n        /* \"contracts/GeoNexusToken.sol\":1214:1335  if (from != address(0) && to != block.coinbase && block.coinbase != address(0)) {... */\n    tag_212:\n        /* \"contracts/GeoNexusToken.sol\":1344:1387  super._beforeTokenTransfer(from, to, value) */\n      tag_215\n        /* \"contracts/GeoNexusToken.sol\":1371:1375  from */\n      dup4\n        /* \"contracts/GeoNexusToken.sol\":1377:1379  to */\n      dup4\n        /* \"contracts/GeoNexusToken.sol\":1381:1386  value */\n      dup4\n        /* \"contracts/GeoNexusToken.sol\":1344:1370  super._beforeTokenTransfer */\n      tag_216\n        /* \"contracts/GeoNexusToken.sol\":1344:1387  super._beforeTokenTransfer(from, to, value) */\n      jump\t// in\n    tag_215:\n        /* \"contracts/GeoNexusToken.sol\":1107:1394  function _beforeTokenTransfer(address from, address to, uint256 value) internal virtual override {... */\n      pop\n      pop\n      pop\n      jump\t// out\n        /* \"@openzeppelin/contracts/token/ERC20/ERC20.sol\":11625:11745  function _afterTokenTransfer(... */\n    tag_196:\n      pop\n      pop\n      pop\n      jump\t// out\n        /* \"contracts/GeoNexusToken.sol\":1013:1101  function _mintMinerReward() internal {... */\n    tag_214:\n        /* \"contracts/GeoNexusToken.sol\":1060:1094  _mint(block.coinbase, blockReward) */\n      tag_219\n        /* \"contracts/GeoNexusToken.sol\":1066:1080  block.coinbase */\n      coinbase\n        /* \"contracts/GeoNexusToken.sol\":1082:1093  blockReward */\n      sload(0x06)\n        /* \"contracts/GeoNexusToken.sol\":1060:1065  _mint */\n      tag_220\n        /* \"contracts/GeoNexusToken.sol\":1060:1094  _mint(block.coinbase, blockReward) */\n      jump\t// in\n    tag_219:\n        /* \"contracts/GeoNexusToken.sol\":1013:1101  function _mintMinerReward() internal {... */\n      jump\t// out\n        /* \"@openzeppelin/contracts/token/ERC20/ERC20.sol\":10916:11037  function _beforeTokenTransfer(... */\n    tag_216:\n      pop\n      pop\n      pop\n      jump\t// out\n        /* \"contracts/GeoNexusToken.sol\":783:1007  function _mint(address account, uint256 amount) internal virtual override(ERC20Capped, ERC20) {... */\n    tag_220:\n        /* \"contracts/GeoNexusToken.sol\":927:932  cap() */\n      tag_223\n        /* \"contracts/GeoNexusToken.sol\":927:930  cap */\n      tag_56\n        /* \"contracts/GeoNexusToken.sol\":927:932  cap() */\n      jump\t// in\n    tag_223:\n        /* \"contracts/GeoNexusToken.sol\":917:923  amount */\n      dup2\n        /* \"contracts/GeoNexusToken.sol\":895:914  ERC20.totalSupply() */\n      tag_224\n        /* \"contracts/GeoNexusToken.sol\":895:912  ERC20.totalSupply */\n      tag_39\n        /* \"contracts/GeoNexusToken.sol\":895:914  ERC20.totalSupply() */\n      jump\t// in\n    tag_224:\n        /* \"contracts/GeoNexusToken.sol\":895:923  ERC20.totalSupply() + amount */\n      tag_225\n      swap2\n      swap1\n      tag_136\n      jump\t// in\n    tag_225:\n        /* \"contracts/GeoNexusToken.sol\":895:932  ERC20.totalSupply() + amount <= cap() */\n      gt\n      iszero\n        /* \"contracts/GeoNexusToken.sol\":887:962  require(ERC20.totalSupply() + amount <= cap(), \"ERC20Capped: cap exceeded\") */\n      tag_226\n      jumpi\n      mload(0x40)\n      0x08c379a000000000000000000000000000000000000000000000000000000000\n      dup2\n      mstore\n      0x04\n      add\n      tag_227\n      swap1\n      tag_228\n      jump\t// in\n    tag_227:\n      mload(0x40)\n      dup1\n      swap2\n      sub\n      swap1\n      revert\n    tag_226:\n        /* \"contracts/GeoNexusToken.sol\":972:1000  super._mint(account, amount) */\n      tag_229\n        /* \"contracts/GeoNexusToken.sol\":984:991  account */\n      dup3\n        /* \"contracts/GeoNexusToken.sol\":993:999  amount */\n      dup3\n        /* \"contracts/GeoNexusToken.sol\":972:983  super._mint */\n      tag_230\n        /* \"contracts/GeoNexusToken.sol\":972:1000  super._mint(account, amount) */\n      jump\t// in\n    tag_229:\n        /* \"contracts/GeoNexusToken.sol\":783:1007  function _mint(address account, uint256 amount) internal virtual override(ERC20Capped, ERC20) {... */\n      pop\n      pop\n      jump\t// out\n        /* \"@openzeppelin/contracts/token/ERC20/extensions/ERC20Capped.sol\":695:899  function _mint(address account, uint256 amount) internal virtual override {... */\n    tag_230:\n        /* \"@openzeppelin/contracts/token/ERC20/extensions/ERC20Capped.sol\":819:824  cap() */\n      tag_232\n        /* \"@openzeppelin/contracts/token/ERC20/extensions/ERC20Capped.sol\":819:822  cap */\n      tag_56\n        /* \"@openzeppelin/contracts/token/ERC20/extensions/ERC20Capped.sol\":819:824  cap() */\n      jump\t// in\n    tag_232:\n        /* \"@openzeppelin/contracts/token/ERC20/extensions/ERC20Capped.sol\":809:815  amount */\n      dup2\n        /* \"@openzeppelin/contracts/token/ERC20/extensions/ERC20Capped.sol\":787:806  ERC20.totalSupply() */\n      tag_233\n        /* \"@openzeppelin/contracts/token/ERC20/extensions/ERC20Capped.sol\":787:804  ERC20.totalSupply */\n      tag_39\n        /* \"@openzeppelin/contracts/token/ERC20/extensions/ERC20Capped.sol\":787:806  ERC20.totalSupply() */\n      jump\t// in\n    tag_233:\n        /* \"@openzeppelin/contracts/token/ERC20/extensions/ERC20Capped.sol\":787:815  ERC20.totalSupply() + amount */\n      tag_234\n      swap2\n      swap1\n      tag_136\n      jump\t// in\n    tag_234:\n        /* \"@openzeppelin/contracts/token/ERC20/extensions/ERC20Capped.sol\":787:824  ERC20.totalSupply() + amount <= cap() */\n      gt\n      iszero\n        /* \"@openzeppelin/contracts/token/ERC20/extensions/ERC20Capped.sol\":779:854  require(ERC20.totalSupply() + amount <= cap(), \"ERC20Capped: cap exceeded\") */\n      tag_235\n      jumpi\n      mload(0x40)\n      0x08c379a000000000000000000000000000000000000000000000000000000000\n      dup2\n      mstore\n      0x04\n      add\n      tag_236\n      swap1\n      tag_228\n      jump\t// in\n    tag_236:\n      mload(0x40)\n      dup1\n      swap2\n      sub\n      swap1\n      revert\n    tag_235:\n        /* \"@openzeppelin/contracts/token/ERC20/extensions/ERC20Capped.sol\":864:892  super._mint(account, amount) */\n      tag_237\n        /* \"@openzeppelin/contracts/token/ERC20/extensions/ERC20Capped.sol\":876:883  account */\n      dup3\n        /* \"@openzeppelin/contracts/token/ERC20/extensions/ERC20Capped.sol\":885:891  amount */\n      dup3\n        /* \"@openzeppelin/contracts/token/ERC20/extensions/ERC20Capped.sol\":864:875  super._mint */\n      tag_238\n        /* \"@openzeppelin/contracts/token/ERC20/extensions/ERC20Capped.sol\":864:892  super._mint(account, amount) */\n      jump\t// in\n    tag_237:\n        /* \"@openzeppelin/contracts/token/ERC20/extensions/ERC20Capped.sol\":695:899  function _mint(address account, uint256 amount) internal virtual override {... */\n      pop\n      pop\n      jump\t// out\n        /* \"@openzeppelin/contracts/token/ERC20/ERC20.sol\":8254:8643  function _mint(address account, uint256 amount) internal virtual {... */\n    tag_238:\n        /* \"@openzeppelin/contracts/token/ERC20/ERC20.sol\":8356:8357  0 */\n      0x00\n        /* \"@openzeppelin/contracts/token/ERC20/ERC20.sol\":8337:8358  account != address(0) */\n      0xffffffffffffffffffffffffffffffffffffffff\n      and\n        /* \"@openzeppelin/contracts/token/ERC20/ERC20.sol\":8337:8344  account */\n      dup3\n        /* \"@openzeppelin/contracts/token/ERC20/ERC20.sol\":8337:8358  account != address(0) */\n      0xffffffffffffffffffffffffffffffffffffffff\n      and\n      sub\n        /* \"@openzeppelin/contracts/token/ERC20/ERC20.sol\":8329:8394  require(account != address(0), \"ERC20: mint to the zero address\") */\n      tag_240\n      jumpi\n      mload(0x40)\n      0x08c379a000000000000000000000000000000000000000000000000000000000\n      dup2\n      mstore\n      0x04\n      add\n      tag_241\n      swap1\n      tag_242\n      jump\t// in\n    tag_241:\n      mload(0x40)\n      dup1\n      swap2\n      sub\n      swap1\n      revert\n    tag_240:\n        /* \"@openzeppelin/contracts/token/ERC20/ERC20.sol\":8405:8454  _beforeTokenTransfer(address(0), account, amount) */\n      tag_243\n        /* \"@openzeppelin/contracts/token/ERC20/ERC20.sol\":8434:8435  0 */\n      0x00\n        /* \"@openzeppelin/contracts/token/ERC20/ERC20.sol\":8438:8445  account */\n      dup4\n        /* \"@openzeppelin/contracts/token/ERC20/ERC20.sol\":8447:8453  amount */\n      dup4\n        /* \"@openzeppelin/contracts/token/ERC20/ERC20.sol\":8405:8425  _beforeTokenTransfer */\n      tag_189\n        /* \"@openzeppelin/contracts/token/ERC20/ERC20.sol\":8405:8454  _beforeTokenTransfer(address(0), account, amount) */\n      jump\t// in\n    tag_243:\n        /* \"@openzeppelin/contracts/token/ERC20/ERC20.sol\":8481:8487  amount */\n      dup1\n        /* \"@openzeppelin/contracts/token/ERC20/ERC20.sol\":8465:8477  _totalSupply */\n      0x02\n      0x00\n        /* \"@openzeppelin/contracts/token/ERC20/ERC20.sol\":8465:8487  _totalSupply += amount */\n      dup3\n      dup3\n      sload\n      tag_244\n      swap2\n      swap1\n      tag_136\n      jump\t// in\n    tag_244:\n      swap3\n      pop\n      pop\n      dup2\n      swap1\n      sstore\n      pop\n        /* \"@openzeppelin/contracts/token/ERC20/ERC20.sol\":8519:8525  amount */\n      dup1\n        /* \"@openzeppelin/contracts/token/ERC20/ERC20.sol\":8497:8506  _balances */\n      0x00\n        /* \"@openzeppelin/contracts/token/ERC20/ERC20.sol\":8497:8515  _balances[account] */\n      dup1\n        /* \"@openzeppelin/contracts/token/ERC20/ERC20.sol\":8507:8514  account */\n      dup5\n        /* \"@openzeppelin/contracts/token/ERC20/ERC20.sol\":8497:8515  _balances[account] */\n      0xffffffffffffffffffffffffffffffffffffffff\n      and\n      0xffffffffffffffffffffffffffffffffffffffff\n      and\n      dup2\n      mstore\n      0x20\n      add\n      swap1\n      dup2\n      mstore\n      0x20\n      add\n      0x00\n      keccak256\n      0x00\n        /* \"@openzeppelin/contracts/token/ERC20/ERC20.sol\":8497:8525  _balances[account] += amount */\n      dup3\n      dup3\n      sload\n      tag_245\n      swap2\n      swap1\n      tag_136\n      jump\t// in\n    tag_245:\n      swap3\n      pop\n      pop\n      dup2\n      swap1\n      sstore\n      pop\n        /* \"@openzeppelin/contracts/token/ERC20/ERC20.sol\":8561:8568  account */\n      dup2\n        /* \"@openzeppelin/contracts/token/ERC20/ERC20.sol\":8540:8577  Transfer(address(0), account, amount) */\n      0xffffffffffffffffffffffffffffffffffffffff\n      and\n        /* \"@openzeppelin/contracts/token/ERC20/ERC20.sol\":8557:8558  0 */\n      0x00\n        /* \"@openzeppelin/contracts/token/ERC20/ERC20.sol\":8540:8577  Transfer(address(0), account, amount) */\n      0xffffffffffffffffffffffffffffffffffffffff\n      and\n      0xddf252ad1be2c89b69c2b068fc378daa952ba7f163c4a11628f55a4df523b3ef\n        /* \"@openzeppelin/contracts/token/ERC20/ERC20.sol\":8570:8576  amount */\n      dup4\n        /* \"@openzeppelin/contracts/token/ERC20/ERC20.sol\":8540:8577  Transfer(address(0), account, amount) */\n      mload(0x40)\n      tag_246\n      swap2\n      swap1\n      tag_37\n      jump\t// in\n    tag_246:\n      mload(0x40)\n      dup1\n      swap2\n      sub\n      swap1\n      log3\n        /* \"@openzeppelin/contracts/token/ERC20/ERC20.sol\":8588:8636  _afterTokenTransfer(address(0), account, amount) */\n      tag_247\n        /* \"@openzeppelin/contracts/token/ERC20/ERC20.sol\":8616:8617  0 */\n      0x00\n        /* \"@openzeppelin/contracts/token/ERC20/ERC20.sol\":8620:8627  account */\n      dup4\n        /* \"@openzeppelin/contracts/token/ERC20/ERC20.sol\":8629:8635  amount */\n      dup4\n        /* \"@openzeppelin/contracts/token/ERC20/ERC20.sol\":8588:8607  _afterTokenTransfer */\n      tag_196\n        /* \"@openzeppelin/contracts/token/ERC20/ERC20.sol\":8588:8636  _afterTokenTransfer(address(0), account, amount) */\n      jump\t// in\n    tag_247:\n        /* \"@openzeppelin/contracts/token/ERC20/ERC20.sol\":8254:8643  function _mint(address account, uint256 amount) internal virtual {... */\n      pop\n      pop\n      jump\t// out\n        /* \"#utility.yul\":7:106   */\n    tag_248:\n        /* \"#utility.yul\":59:65   */\n      0x00\n        /* \"#utility.yul\":93:98   */\n      dup2\n        /* \"#utility.yul\":87:99   */\n      mload\n        /* \"#utility.yul\":77:99   */\n      swap1\n      pop\n        /* \"#utility.yul\":7:106   */\n      swap2\n      swap1\n      pop\n      jump\t// out\n        /* \"#utility.yul\":112:281   */\n    tag_249:\n        /* \"#utility.yul\":196:207   */\n      0x00\n        /* \"#utility.yul\":230:236   */\n      dup3\n        /* \"#utility.yul\":225:228   */\n      dup3\n        /* \"#utility.yul\":218:237   */\n      mstore\n        /* \"#utility.yul\":270:274   */\n      0x20\n        /* \"#utility.yul\":265:268   */\n      dup3\n        /* \"#utility.yul\":261:275   */\n      add\n        /* \"#utility.yul\":246:275   */\n      swap1\n      pop\n        /* \"#utility.yul\":112:281   */\n      swap3\n      swap2\n      pop\n      pop\n      jump\t// out\n        /* \"#utility.yul\":287:426   */\n    tag_250:\n        /* \"#utility.yul\":376:382   */\n      dup3\n        /* \"#utility.yul\":371:374   */\n      dup2\n        /* \"#utility.yul\":366:369   */\n      dup4\n        /* \"#utility.yul\":360:383   */\n      mcopy\n        /* \"#utility.yul\":417:418   */\n      0x00\n        /* \"#utility.yul\":408:414   */\n      dup4\n        /* \"#utility.yul\":403:406   */\n      dup4\n        /* \"#utility.yul\":399:415   */\n      add\n        /* \"#utility.yul\":392:419   */\n      mstore\n        /* \"#utility.yul\":287:426   */\n      pop\n      pop\n      pop\n      jump\t// out\n        /* \"#utility.yul\":432:534   */\n    tag_251:\n        /* \"#utility.yul\":473:479   */\n      0x00\n        /* \"#utility.yul\":524:526   */\n      0x1f\n        /* \"#utility.yul\":520:527   */\n      not\n        /* \"#utility.yul\":515:517   */\n      0x1f\n        /* \"#utility.yul\":508:513   */\n      dup4\n        /* \"#utility.yul\":504:518   */\n      add\n        /* \"#utility.yul\":500:528   */\n      and\n        /* \"#utility.yul\":490:528   */\n      swap1\n      pop\n        /* \"#utility.yul\":432:534   */\n      swap2\n      swap1\n      pop\n      jump\t// out\n        /* \"#utility.yul\":540:917   */\n    tag_252:\n        /* \"#utility.yul\":628:631   */\n      0x00\n        /* \"#utility.yul\":656:695   */\n      tag_308\n        /* \"#utility.yul\":689:694   */\n      dup3\n        /* \"#utility.yul\":656:695   */\n      tag_248\n      jump\t// in\n    tag_308:\n        /* \"#utility.yul\":711:782   */\n      tag_309\n        /* \"#utility.yul\":775:781   */\n      dup2\n        /* \"#utility.yul\":770:773   */\n      dup6\n        /* \"#utility.yul\":711:782   */\n      tag_249\n      jump\t// in\n    tag_309:\n        /* \"#utility.yul\":704:782   */\n      swap4\n      pop\n        /* \"#utility.yul\":791:856   */\n      tag_310\n        /* \"#utility.yul\":849:855   */\n      dup2\n        /* \"#utility.yul\":844:847   */\n      dup6\n        /* \"#utility.yul\":837:841   */\n      0x20\n        /* \"#utility.yul\":830:835   */\n      dup7\n        /* \"#utility.yul\":826:842   */\n      add\n        /* \"#utility.yul\":791:856   */\n      tag_250\n      jump\t// in\n    tag_310:\n        /* \"#utility.yul\":881:910   */\n      tag_311\n        /* \"#utility.yul\":903:909   */\n      dup2\n        /* \"#utility.yul\":881:910   */\n      tag_251\n      jump\t// in\n    tag_311:\n        /* \"#utility.yul\":876:879   */\n      dup5\n        /* \"#utility.yul\":872:911   */\n      add\n        /* \"#utility.yul\":865:911   */\n      swap2\n      pop\n        /* \"#utility.yul\":632:917   */\n      pop\n        /* \"#utility.yul\":540:917   */\n      swap3\n      swap2\n      pop\n      pop\n      jump\t// out\n        /* \"#utility.yul\":923:1236   */\n    tag_27:\n        /* \"#utility.yul\":1036:1040   */\n      0x00\n        /* \"#utility.yul\":1074:1076   */\n      0x20\n        /* \"#utility.yul\":1063:1072   */\n      dup3\n        /* \"#utility.yul\":1059:1077   */\n      add\n        /* \"#utility.yul\":1051:1077   */\n      swap1\n      pop\n        /* \"#utility.yul\":1123:1132   */\n      dup2\n        /* \"#utility.yul\":1117:1121   */\n      dup2\n        /* \"#utility.yul\":1113:1133   */\n      sub\n        /* \"#utility.yul\":1109:1110   */\n      0x00\n        /* \"#utility.yul\":1098:1107   */\n      dup4\n        /* \"#utility.yul\":1094:1111   */\n      add\n        /* \"#utility.yul\":1087:1134   */\n      mstore\n        /* \"#utility.yul\":1151:1229   */\n      tag_313\n        /* \"#utility.yul\":1224:1228   */\n      dup2\n        /* \"#utility.yul\":1215:1221   */\n      dup5\n        /* \"#utility.yul\":1151:1229   */\n      tag_252\n      jump\t// in\n    tag_313:\n        /* \"#utility.yul\":1143:1229   */\n      swap1\n      pop\n        /* \"#utility.yul\":923:1236   */\n      swap3\n      swap2\n      pop\n      pop\n      jump\t// out\n        /* \"#utility.yul\":1323:1440   */\n    tag_254:\n        /* \"#utility.yul\":1432:1433   */\n      0x00\n        /* \"#utility.yul\":1429:1430   */\n      dup1\n        /* \"#utility.yul\":1422:1434   */\n      revert\n        /* \"#utility.yul\":1569:1695   */\n    tag_256:\n        /* \"#utility.yul\":1606:1613   */\n      0x00\n        /* \"#utility.yul\":1646:1688   */\n      0xffffffffffffffffffffffffffffffffffffffff\n        /* \"#utility.yul\":1639:1644   */\n      dup3\n        /* \"#utility.yul\":1635:1689   */\n      and\n        /* \"#utility.yul\":1624:1689   */\n      swap1\n      pop\n        /* \"#utility.yul\":1569:1695   */\n      swap2\n      swap1\n      pop\n      jump\t// out\n        /* \"#utility.yul\":1701:1797   */\n    tag_257:\n        /* \"#utility.yul\":1738:1745   */\n      0x00\n        /* \"#utility.yul\":1767:1791   */\n      tag_319\n        /* \"#utility.yul\":1785:1790   */\n      dup3\n        /* \"#utility.yul\":1767:1791   */\n      tag_256\n      jump\t// in\n    tag_319:\n        /* \"#utility.yul\":1756:1791   */\n      swap1\n      pop\n        /* \"#utility.yul\":1701:1797   */\n      swap2\n      swap1\n      pop\n      jump\t// out\n        /* \"#utility.yul\":1803:1925   */\n    tag_258:\n        /* \"#utility.yul\":1876:1900   */\n      tag_321\n        /* \"#utility.yul\":1894:1899   */\n      dup2\n        /* \"#utility.yul\":1876:1900   */\n      tag_257\n      jump\t// in\n    tag_321:\n        /* \"#utility.yul\":1869:1874   */\n      dup2\n        /* \"#utility.yul\":1866:1901   */\n      eq\n        /* \"#utility.yul\":1856:1919   */\n      tag_322\n      jumpi\n        /* \"#utility.yul\":1915:1916   */\n      0x00\n        /* \"#utility.yul\":1912:1913   */\n      dup1\n        /* \"#utility.yul\":1905:1917   */\n      revert\n        /* \"#utility.yul\":1856:1919   */\n    tag_322:\n        /* \"#utility.yul\":1803:1925   */\n      pop\n      jump\t// out\n        /* \"#utility.yul\":1931:2070   */\n    tag_259:\n        /* \"#utility.yul\":1977:1982   */\n      0x00\n        /* \"#utility.yul\":2015:2021   */\n      dup2\n        /* \"#utility.yul\":2002:2022   */\n      calldataload\n        /* \"#utility.yul\":1993:2022   */\n      swap1\n      pop\n        /* \"#utility.yul\":2031:2064   */\n      tag_324\n        /* \"#utility.yul\":2058:2063   */\n      dup2\n        /* \"#utility.yul\":2031:2064   */\n      tag_258\n      jump\t// in\n    tag_324:\n        /* \"#utility.yul\":1931:2070   */\n      swap3\n      swap2\n      pop\n      pop\n      jump\t// out\n        /* \"#utility.yul\":2076:2153   */\n    tag_260:\n        /* \"#utility.yul\":2113:2120   */\n      0x00\n        /* \"#utility.yul\":2142:2147   */\n      dup2\n        /* \"#utility.yul\":2131:2147   */\n      swap1\n      pop\n        /* \"#utility.yul\":2076:2153   */\n      swap2\n      swap1\n      pop\n      jump\t// out\n        /* \"#utility.yul\":2159:2281   */\n    tag_261:\n        /* \"#utility.yul\":2232:2256   */\n      tag_327\n        /* \"#utility.yul\":2250:2255   */\n      dup2\n        /* \"#utility.yul\":2232:2256   */\n      tag_260\n      jump\t// in\n    tag_327:\n        /* \"#utility.yul\":2225:2230   */\n      dup2\n        /* \"#utility.yul\":2222:2257   */\n      eq\n        /* \"#utility.yul\":2212:2275   */\n      tag_328\n      jumpi\n        /* \"#utility.yul\":2271:2272   */\n      0x00\n        /* \"#utility.yul\":2268:2269   */\n      dup1\n        /* \"#utility.yul\":2261:2273   */\n      revert\n        /* \"#utility.yul\":2212:2275   */\n    tag_328:\n        /* \"#utility.yul\":2159:2281   */\n      pop\n      jump\t// out\n        /* \"#utility.yul\":2287:2426   */\n    tag_262:\n        /* \"#utility.yul\":2333:2338   */\n      0x00\n        /* \"#utility.yul\":2371:2377   */\n      dup2\n        /* \"#utility.yul\":2358:2378   */\n      calldataload\n        /* \"#utility.yul\":2349:2378   */\n      swap1\n      pop\n        /* \"#utility.yul\":2387:2420   */\n      tag_330\n        /* \"#utility.yul\":2414:2419   */\n      dup2\n        /* \"#utility.yul\":2387:2420   */\n      tag_261\n      jump\t// in\n    tag_330:\n        /* \"#utility.yul\":2287:2426   */\n      swap3\n      swap2\n      pop\n      pop\n      jump\t// out\n        /* \"#utility.yul\":2432:2906   */\n    tag_30:\n        /* \"#utility.yul\":2500:2506   */\n      0x00\n        /* \"#utility.yul\":2508:2514   */\n      dup1\n        /* \"#utility.yul\":2557:2559   */\n      0x40\n        /* \"#utility.yul\":2545:2554   */\n      dup4\n        /* \"#utility.yul\":2536:2543   */\n      dup6\n        /* \"#utility.yul\":2532:2555   */\n      sub\n        /* \"#utility.yul\":2528:2560   */\n      slt\n        /* \"#utility.yul\":2525:2644   */\n      iszero\n      tag_332\n      jumpi\n        /* \"#utility.yul\":2563:2642   */\n      tag_333\n      tag_254\n      jump\t// in\n    tag_333:\n        /* \"#utility.yul\":2525:2644   */\n    tag_332:\n        /* \"#utility.yul\":2683:2684   */\n      0x00\n        /* \"#utility.yul\":2708:2761   */\n      tag_334\n        /* \"#utility.yul\":2753:2760   */\n      dup6\n        /* \"#utility.yul\":2744:2750   */\n      dup3\n        /* \"#utility.yul\":2733:2742   */\n      dup7\n        /* \"#utility.yul\":2729:2751   */\n      add\n        /* \"#utility.yul\":2708:2761   */\n      tag_259\n      jump\t// in\n    tag_334:\n        /* \"#utility.yul\":2698:2761   */\n      swap3\n      pop\n        /* \"#utility.yul\":2654:2771   */\n      pop\n        /* \"#utility.yul\":2810:2812   */\n      0x20\n        /* \"#utility.yul\":2836:2889   */\n      tag_335\n        /* \"#utility.yul\":2881:2888   */\n      dup6\n        /* \"#utility.yul\":2872:2878   */\n      dup3\n        /* \"#utility.yul\":2861:2870   */\n      dup7\n        /* \"#utility.yul\":2857:2879   */\n      add\n        /* \"#utility.yul\":2836:2889   */\n      tag_262\n      jump\t// in\n    tag_335:\n        /* \"#utility.yul\":2826:2889   */\n      swap2\n      pop\n        /* \"#utility.yul\":2781:2899   */\n      pop\n        /* \"#utility.yul\":2432:2906   */\n      swap3\n      pop\n      swap3\n      swap1\n      pop\n      jump\t// out\n        /* \"#utility.yul\":2912:3002   */\n    tag_263:\n        /* \"#utility.yul\":2946:2953   */\n      0x00\n        /* \"#utility.yul\":2989:2994   */\n      dup2\n        /* \"#utility.yul\":2982:2995   */\n      iszero\n        /* \"#utility.yul\":2975:2996   */\n      iszero\n        /* \"#utility.yul\":2964:2996   */\n      swap1\n      pop\n        /* \"#utility.yul\":2912:3002   */\n      swap2\n      swap1\n      pop\n      jump\t// out\n        /* \"#utility.yul\":3008:3117   */\n    tag_264:\n        /* \"#utility.yul\":3089:3110   */\n      tag_338\n        /* \"#utility.yul\":3104:3109   */\n      dup2\n        /* \"#utility.yul\":3089:3110   */\n      tag_263\n      jump\t// in\n    tag_338:\n        /* \"#utility.yul\":3084:3087   */\n      dup3\n        /* \"#utility.yul\":3077:3111   */\n      mstore\n        /* \"#utility.yul\":3008:3117   */\n      pop\n      pop\n      jump\t// out\n        /* \"#utility.yul\":3123:3333   */\n    tag_33:\n        /* \"#utility.yul\":3210:3214   */\n      0x00\n        /* \"#utility.yul\":3248:3250   */\n      0x20\n        /* \"#utility.yul\":3237:3246   */\n      dup3\n        /* \"#utility.yul\":3233:3251   */\n      add\n        /* \"#utility.yul\":3225:3251   */\n      swap1\n      pop\n        /* \"#utility.yul\":3261:3326   */\n      tag_340\n        /* \"#utility.yul\":3323:3324   */\n      0x00\n        /* \"#utility.yul\":3312:3321   */\n      dup4\n        /* \"#utility.yul\":3308:3325   */\n      add\n        /* \"#utility.yul\":3299:3305   */\n      dup5\n        /* \"#utility.yul\":3261:3326   */\n      tag_264\n      jump\t// in\n    tag_340:\n        /* \"#utility.yul\":3123:3333   */\n      swap3\n      swap2\n      pop\n      pop\n      jump\t// out\n        /* \"#utility.yul\":3339:3457   */\n    tag_265:\n        /* \"#utility.yul\":3426:3450   */\n      tag_342\n        /* \"#utility.yul\":3444:3449   */\n      dup2\n        /* \"#utility.yul\":3426:3450   */\n      tag_260\n      jump\t// in\n    tag_342:\n        /* \"#utility.yul\":3421:3424   */\n      dup3\n        /* \"#utility.yul\":3414:3451   */\n      mstore\n        /* \"#utility.yul\":3339:3457   */\n      pop\n      pop\n      jump\t// out\n        /* \"#utility.yul\":3463:3685   */\n    tag_37:\n        /* \"#utility.yul\":3556:3560   */\n      0x00\n        /* \"#utility.yul\":3594:3596   */\n      0x20\n        /* \"#utility.yul\":3583:3592   */\n      dup3\n        /* \"#utility.yul\":3579:3597   */\n      add\n        /* \"#utility.yul\":3571:3597   */\n      swap1\n      pop\n        /* \"#utility.yul\":3607:3678   */\n      tag_344\n        /* \"#utility.yul\":3675:3676   */\n      0x00\n        /* \"#utility.yul\":3664:3673   */\n      dup4\n        /* \"#utility.yul\":3660:3677   */\n      add\n        /* \"#utility.yul\":3651:3657   */\n      dup5\n        /* \"#utility.yul\":3607:3678   */\n      tag_265\n      jump\t// in\n    tag_344:\n        /* \"#utility.yul\":3463:3685   */\n      swap3\n      swap2\n      pop\n      pop\n      jump\t// out\n        /* \"#utility.yul\":3691:4020   */\n    tag_43:\n        /* \"#utility.yul\":3750:3756   */\n      0x00\n        /* \"#utility.yul\":3799:3801   */\n      0x20\n        /* \"#utility.yul\":3787:3796   */\n      dup3\n        /* \"#utility.yul\":3778:3785   */\n      dup5\n        /* \"#utility.yul\":3774:3797   */\n      sub\n        /* \"#utility.yul\":3770:3802   */\n      slt\n        /* \"#utility.yul\":3767:3886   */\n      iszero\n      tag_346\n      jumpi\n        /* \"#utility.yul\":3805:3884   */\n      tag_347\n      tag_254\n      jump\t// in\n    tag_347:\n        /* \"#utility.yul\":3767:3886   */\n    tag_346:\n        /* \"#utility.yul\":3925:3926   */\n      0x00\n        /* \"#utility.yul\":3950:4003   */\n      tag_348\n        /* \"#utility.yul\":3995:4002   */\n      dup5\n        /* \"#utility.yul\":3986:3992   */\n      dup3\n        /* \"#utility.yul\":3975:3984   */\n      dup6\n        /* \"#utility.yul\":3971:3993   */\n      add\n        /* \"#utility.yul\":3950:4003   */\n      tag_262\n      jump\t// in\n    tag_348:\n        /* \"#utility.yul\":3940:4003   */\n      swap2\n      pop\n        /* \"#utility.yul\":3896:4013   */\n      pop\n        /* \"#utility.yul\":3691:4020   */\n      swap3\n      swap2\n      pop\n      pop\n      jump\t// out\n        /* \"#utility.yul\":4026:4645   */\n    tag_48:\n        /* \"#utility.yul\":4103:4109   */\n      0x00\n        /* \"#utility.yul\":4111:4117   */\n      dup1\n        /* \"#utility.yul\":4119:4125   */\n      0x00\n        /* \"#utility.yul\":4168:4170   */\n      0x60\n        /* \"#utility.yul\":4156:4165   */\n      dup5\n        /* \"#utility.yul\":4147:4154   */\n      dup7\n        /* \"#utility.yul\":4143:4166   */\n      sub\n        /* \"#utility.yul\":4139:4171   */\n      slt\n        /* \"#utility.yul\":4136:4255   */\n      iszero\n      tag_350\n      jumpi\n        /* \"#utility.yul\":4174:4253   */\n      tag_351\n      tag_254\n      jump\t// in\n    tag_351:\n        /* \"#utility.yul\":4136:4255   */\n    tag_350:\n        /* \"#utility.yul\":4294:4295   */\n      0x00\n        /* \"#utility.yul\":4319:4372   */\n      tag_352\n        /* \"#utility.yul\":4364:4371   */\n      dup7\n        /* \"#utility.yul\":4355:4361   */\n      dup3\n        /* \"#utility.yul\":4344:4353   */\n      dup8\n        /* \"#utility.yul\":4340:4362   */\n      add\n        /* \"#utility.yul\":4319:4372   */\n      tag_259\n      jump\t// in\n    tag_352:\n        /* \"#utility.yul\":4309:4372   */\n      swap4\n      pop\n        /* \"#utility.yul\":4265:4382   */\n      pop\n        /* \"#utility.yul\":4421:4423   */\n      0x20\n        /* \"#utility.yul\":4447:4500   */\n      tag_353\n        /* \"#utility.yul\":4492:4499   */\n      dup7\n        /* \"#utility.yul\":4483:4489   */\n      dup3\n        /* \"#utility.yul\":4472:4481   */\n      dup8\n        /* \"#utility.yul\":4468:4490   */\n      add\n        /* \"#utility.yul\":4447:4500   */\n      tag_259\n      jump\t// in\n    tag_353:\n        /* \"#utility.yul\":4437:4500   */\n      swap3\n      pop\n        /* \"#utility.yul\":4392:4510   */\n      pop\n        /* \"#utility.yul\":4549:4551   */\n      0x40\n        /* \"#utility.yul\":4575:4628   */\n      tag_354\n        /* \"#utility.yul\":4620:4627   */\n      dup7\n        /* \"#utility.yul\":4611:4617   */\n      dup3\n        /* \"#utility.yul\":4600:4609   */\n      dup8\n        /* \"#utility.yul\":4596:4618   */\n      add\n        /* \"#utility.yul\":4575:4628   */\n      tag_262\n      jump\t// in\n    tag_354:\n        /* \"#utility.yul\":4565:4628   */\n      swap2\n      pop\n        /* \"#utility.yul\":4520:4638   */\n      pop\n        /* \"#utility.yul\":4026:4645   */\n      swap3\n      pop\n      swap3\n      pop\n      swap3\n      jump\t// out\n        /* \"#utility.yul\":4651:4737   */\n    tag_266:\n        /* \"#utility.yul\":4686:4693   */\n      0x00\n        /* \"#utility.yul\":4726:4730   */\n      0xff\n        /* \"#utility.yul\":4719:4724   */\n      dup3\n        /* \"#utility.yul\":4715:4731   */\n      and\n        /* \"#utility.yul\":4704:4731   */\n      swap1\n      pop\n        /* \"#utility.yul\":4651:4737   */\n      swap2\n      swap1\n      pop\n      jump\t// out\n        /* \"#utility.yul\":4743:4855   */\n    tag_267:\n        /* \"#utility.yul\":4826:4848   */\n      tag_357\n        /* \"#utility.yul\":4842:4847   */\n      dup2\n        /* \"#utility.yul\":4826:4848   */\n      tag_266\n      jump\t// in\n    tag_357:\n        /* \"#utility.yul\":4821:4824   */\n      dup3\n        /* \"#utility.yul\":4814:4849   */\n      mstore\n        /* \"#utility.yul\":4743:4855   */\n      pop\n      pop\n      jump\t// out\n        /* \"#utility.yul\":4861:5075   */\n    tag_54:\n        /* \"#utility.yul\":4950:4954   */\n      0x00\n        /* \"#utility.yul\":4988:4990   */\n      0x20\n        /* \"#utility.yul\":4977:4986   */\n      dup3\n        /* \"#utility.yul\":4973:4991   */\n      add\n        /* \"#utility.yul\":4965:4991   */\n      swap1\n      pop\n        /* \"#utility.yul\":5001:5068   */\n      tag_359\n        /* \"#utility.yul\":5065:5066   */\n      0x00\n        /* \"#utility.yul\":5054:5063   */\n      dup4\n        /* \"#utility.yul\":5050:5067   */\n      add\n        /* \"#utility.yul\":5041:5047   */\n      dup5\n        /* \"#utility.yul\":5001:5068   */\n      tag_267\n      jump\t// in\n    tag_359:\n        /* \"#utility.yul\":4861:5075   */\n      swap3\n      swap2\n      pop\n      pop\n      jump\t// out\n        /* \"#utility.yul\":5081:5185   */\n    tag_268:\n        /* \"#utility.yul\":5126:5133   */\n      0x00\n        /* \"#utility.yul\":5155:5179   */\n      tag_361\n        /* \"#utility.yul\":5173:5178   */\n      dup3\n        /* \"#utility.yul\":5155:5179   */\n      tag_256\n      jump\t// in\n    tag_361:\n        /* \"#utility.yul\":5144:5179   */\n      swap1\n      pop\n        /* \"#utility.yul\":5081:5185   */\n      swap2\n      swap1\n      pop\n      jump\t// out\n        /* \"#utility.yul\":5191:5329   */\n    tag_269:\n        /* \"#utility.yul\":5272:5304   */\n      tag_363\n        /* \"#utility.yul\":5298:5303   */\n      dup2\n        /* \"#utility.yul\":5272:5304   */\n      tag_268\n      jump\t// in\n    tag_363:\n        /* \"#utility.yul\":5265:5270   */\n      dup2\n        /* \"#utility.yul\":5262:5305   */\n      eq\n        /* \"#utility.yul\":5252:5323   */\n      tag_364\n      jumpi\n        /* \"#utility.yul\":5319:5320   */\n      0x00\n        /* \"#utility.yul\":5316:5317   */\n      dup1\n        /* \"#utility.yul\":5309:5321   */\n      revert\n        /* \"#utility.yul\":5252:5323   */\n    tag_364:\n        /* \"#utility.yul\":5191:5329   */\n      pop\n      jump\t// out\n        /* \"#utility.yul\":5335:5490   */\n    tag_270:\n        /* \"#utility.yul\":5389:5394   */\n      0x00\n        /* \"#utility.yul\":5427:5433   */\n      dup2\n        /* \"#utility.yul\":5414:5434   */\n      calldataload\n        /* \"#utility.yul\":5405:5434   */\n      swap1\n      pop\n        /* \"#utility.yul\":5443:5484   */\n      tag_366\n        /* \"#utility.yul\":5478:5483   */\n      dup2\n        /* \"#utility.yul\":5443:5484   */\n      tag_269\n      jump\t// in\n    tag_366:\n        /* \"#utility.yul\":5335:5490   */\n      swap3\n      swap2\n      pop\n      pop\n      jump\t// out\n        /* \"#utility.yul\":5496:5841   */\n    tag_67:\n        /* \"#utility.yul\":5563:5569   */\n      0x00\n        /* \"#utility.yul\":5612:5614   */\n      0x20\n        /* \"#utility.yul\":5600:5609   */\n      dup3\n        /* \"#utility.yul\":5591:5598   */\n      dup5\n        /* \"#utility.yul\":5587:5610   */\n      sub\n        /* \"#utility.yul\":5583:5615   */\n      slt\n        /* \"#utility.yul\":5580:5699   */\n      iszero\n      tag_368\n      jumpi\n        /* \"#utility.yul\":5618:5697   */\n      tag_369\n      tag_254\n      jump\t// in\n    tag_369:\n        /* \"#utility.yul\":5580:5699   */\n    tag_368:\n        /* \"#utility.yul\":5738:5739   */\n      0x00\n        /* \"#utility.yul\":5763:5824   */\n      tag_370\n        /* \"#utility.yul\":5816:5823   */\n      dup5\n        /* \"#utility.yul\":5807:5813   */\n      dup3\n        /* \"#utility.yul\":5796:5805   */\n      dup6\n        /* \"#utility.yul\":5792:5814   */\n      add\n        /* \"#utility.yul\":5763:5824   */\n      tag_270\n      jump\t// in\n    tag_370:\n        /* \"#utility.yul\":5753:5824   */\n      swap2\n      pop\n        /* \"#utility.yul\":5709:5834   */\n      pop\n        /* \"#utility.yul\":5496:5841   */\n      swap3\n      swap2\n      pop\n      pop\n      jump\t// out\n        /* \"#utility.yul\":5847:6176   */\n    tag_71:\n        /* \"#utility.yul\":5906:5912   */\n      0x00\n        /* \"#utility.yul\":5955:5957   */\n      0x20\n        /* \"#utility.yul\":5943:5952   */\n      dup3\n        /* \"#utility.yul\":5934:5941   */\n      dup5\n        /* \"#utility.yul\":5930:5953   */\n      sub\n        /* \"#utility.yul\":5926:5958   */\n      slt\n        /* \"#utility.yul\":5923:6042   */\n      iszero\n      tag_372\n      jumpi\n        /* \"#utility.yul\":5961:6040   */\n      tag_373\n      tag_254\n      jump\t// in\n    tag_373:\n        /* \"#utility.yul\":5923:6042   */\n    tag_372:\n        /* \"#utility.yul\":6081:6082   */\n      0x00\n        /* \"#utility.yul\":6106:6159   */\n      tag_374\n        /* \"#utility.yul\":6151:6158   */\n      dup5\n        /* \"#utility.yul\":6142:6148   */\n      dup3\n        /* \"#utility.yul\":6131:6140   */\n      dup6\n        /* \"#utility.yul\":6127:6149   */\n      add\n        /* \"#utility.yul\":6106:6159   */\n      tag_259\n      jump\t// in\n    tag_374:\n        /* \"#utility.yul\":6096:6159   */\n      swap2\n      pop\n        /* \"#utility.yul\":6052:6169   */\n      pop\n        /* \"#utility.yul\":5847:6176   */\n      swap3\n      swap2\n      pop\n      pop\n      jump\t// out\n        /* \"#utility.yul\":6182:6656   */\n    tag_90:\n        /* \"#utility.yul\":6250:6256   */\n      0x00\n        /* \"#utility.yul\":6258:6264   */\n      dup1\n        /* \"#utility.yul\":6307:6309   */\n      0x40\n        /* \"#utility.yul\":6295:6304   */\n      dup4\n        /* \"#utility.yul\":6286:6293   */\n      dup6\n        /* \"#utility.yul\":6282:6305   */\n      sub\n        /* \"#utility.yul\":6278:6310   */\n      slt\n        /* \"#utility.yul\":6275:6394   */\n      iszero\n      tag_376\n      jumpi\n        /* \"#utility.yul\":6313:6392   */\n      tag_377\n      tag_254\n      jump\t// in\n    tag_377:\n        /* \"#utility.yul\":6275:6394   */\n    tag_376:\n        /* \"#utility.yul\":6433:6434   */\n      0x00\n        /* \"#utility.yul\":6458:6511   */\n      tag_378\n        /* \"#utility.yul\":6503:6510   */\n      dup6\n        /* \"#utility.yul\":6494:6500   */\n      dup3\n        /* \"#utility.yul\":6483:6492   */\n      dup7\n        /* \"#utility.yul\":6479:6501   */\n      add\n        /* \"#utility.yul\":6458:6511   */\n      tag_259\n      jump\t// in\n    tag_378:\n        /* \"#utility.yul\":6448:6511   */\n      swap3\n      pop\n        /* \"#utility.yul\":6404:6521   */\n      pop\n        /* \"#utility.yul\":6560:6562   */\n      0x20\n        /* \"#utility.yul\":6586:6639   */\n      tag_379\n        /* \"#utility.yul\":6631:6638   */\n      dup6\n        /* \"#utility.yul\":6622:6628   */\n      dup3\n        /* \"#utility.yul\":6611:6620   */\n      dup7\n        /* \"#utility.yul\":6607:6629   */\n      add\n        /* \"#utility.yul\":6586:6639   */\n      tag_259\n      jump\t// in\n    tag_379:\n        /* \"#utility.yul\":6576:6639   */\n      swap2\n      pop\n        /* \"#utility.yul\":6531:6649   */\n      pop\n        /* \"#utility.yul\":6182:6656   */\n      swap3\n      pop\n      swap3\n      swap1\n      pop\n      jump\t// out\n        /* \"#utility.yul\":6662:6842   */\n    tag_271:\n        /* \"#utility.yul\":6710:6787   */\n      0x4e487b7100000000000000000000000000000000000000000000000000000000\n        /* \"#utility.yul\":6707:6708   */\n      0x00\n        /* \"#utility.yul\":6700:6788   */\n      mstore\n        /* \"#utility.yul\":6807:6811   */\n      0x22\n        /* \"#utility.yul\":6804:6805   */\n      0x04\n        /* \"#utility.yul\":6797:6812   */\n      mstore\n        /* \"#utility.yul\":6831:6835   */\n      0x24\n        /* \"#utility.yul\":6828:6829   */\n      0x00\n        /* \"#utility.yul\":6821:6836   */\n      revert\n        /* \"#utility.yul\":6848:7168   */\n    tag_98:\n        /* \"#utility.yul\":6892:6898   */\n      0x00\n        /* \"#utility.yul\":6929:6930   */\n      0x02\n        /* \"#utility.yul\":6923:6927   */\n      dup3\n        /* \"#utility.yul\":6919:6931   */\n      div\n        /* \"#utility.yul\":6909:6931   */\n      swap1\n      pop\n        /* \"#utility.yul\":6976:6977   */\n      0x01\n        /* \"#utility.yul\":6970:6974   */\n      dup3\n        /* \"#utility.yul\":6966:6978   */\n      and\n        /* \"#utility.yul\":6997:7015   */\n      dup1\n        /* \"#utility.yul\":6987:7068   */\n      tag_382\n      jumpi\n        /* \"#utility.yul\":7053:7057   */\n      0x7f\n        /* \"#utility.yul\":7045:7051   */\n      dup3\n        /* \"#utility.yul\":7041:7058   */\n      and\n        /* \"#utility.yul\":7031:7058   */\n      swap2\n      pop\n        /* \"#utility.yul\":6987:7068   */\n    tag_382:\n        /* \"#utility.yul\":7115:7117   */\n      0x20\n        /* \"#utility.yul\":7107:7113   */\n      dup3\n        /* \"#utility.yul\":7104:7118   */\n      lt\n        /* \"#utility.yul\":7084:7102   */\n      dup2\n        /* \"#utility.yul\":7081:7119   */\n      sub\n        /* \"#utility.yul\":7078:7162   */\n      tag_383\n      jumpi\n        /* \"#utility.yul\":7134:7152   */\n      tag_384\n      tag_271\n      jump\t// in\n    tag_384:\n        /* \"#utility.yul\":7078:7162   */\n    tag_383:\n        /* \"#utility.yul\":6899:7168   */\n      pop\n        /* \"#utility.yul\":6848:7168   */\n      swap2\n      swap1\n      pop\n      jump\t// out\n        /* \"#utility.yul\":7174:7397   */\n    tag_272:\n        /* \"#utility.yul\":7314:7348   */\n      0x4f776e61626c653a204f6e6c79204f776e65722043616e204d6f646966696520\n        /* \"#utility.yul\":7310:7311   */\n      0x00\n        /* \"#utility.yul\":7302:7308   */\n      dup3\n        /* \"#utility.yul\":7298:7312   */\n      add\n        /* \"#utility.yul\":7291:7349   */\n      mstore\n        /* \"#utility.yul\":7383:7389   */\n      0x5468697300000000000000000000000000000000000000000000000000000000\n        /* \"#utility.yul\":7378:7380   */\n      0x20\n        /* \"#utility.yul\":7370:7376   */\n      dup3\n        /* \"#utility.yul\":7366:7381   */\n      add\n        /* \"#utility.yul\":7359:7390   */\n      mstore\n        /* \"#utility.yul\":7174:7397   */\n      pop\n      jump\t// out\n        /* \"#utility.yul\":7403:7769   */\n    tag_273:\n        /* \"#utility.yul\":7545:7548   */\n      0x00\n        /* \"#utility.yul\":7566:7633   */\n      tag_387\n        /* \"#utility.yul\":7630:7632   */\n      0x24\n        /* \"#utility.yul\":7625:7628   */\n      dup4\n        /* \"#utility.yul\":7566:7633   */\n      tag_249\n      jump\t// in\n    tag_387:\n        /* \"#utility.yul\":7559:7633   */\n      swap2\n      pop\n        /* \"#utility.yul\":7642:7735   */\n      tag_388\n        /* \"#utility.yul\":7731:7734   */\n      dup3\n        /* \"#utility.yul\":7642:7735   */\n      tag_272\n      jump\t// in\n    tag_388:\n        /* \"#utility.yul\":7760:7762   */\n      0x40\n        /* \"#utility.yul\":7755:7758   */\n      dup3\n        /* \"#utility.yul\":7751:7763   */\n      add\n        /* \"#utility.yul\":7744:7763   */\n      swap1\n      pop\n        /* \"#utility.yul\":7403:7769   */\n      swap2\n      swap1\n      pop\n      jump\t// out\n        /* \"#utility.yul\":7775:8194   */\n    tag_113:\n        /* \"#utility.yul\":7941:7945   */\n      0x00\n        /* \"#utility.yul\":7979:7981   */\n      0x20\n        /* \"#utility.yul\":7968:7977   */\n      dup3\n        /* \"#utility.yul\":7964:7982   */\n      add\n        /* \"#utility.yul\":7956:7982   */\n      swap1\n      pop\n        /* \"#utility.yul\":8028:8037   */\n      dup2\n        /* \"#utility.yul\":8022:8026   */\n      dup2\n        /* \"#utility.yul\":8018:8038   */\n      sub\n        /* \"#utility.yul\":8014:8015   */\n      0x00\n        /* \"#utility.yul\":8003:8012   */\n      dup4\n        /* \"#utility.yul\":7999:8016   */\n      add\n        /* \"#utility.yul\":7992:8039   */\n      mstore\n        /* \"#utility.yul\":8056:8187   */\n      tag_390\n        /* \"#utility.yul\":8182:8186   */\n      dup2\n        /* \"#utility.yul\":8056:8187   */\n      tag_273\n      jump\t// in\n    tag_390:\n        /* \"#utility.yul\":8048:8187   */\n      swap1\n      pop\n        /* \"#utility.yul\":7775:8194   */\n      swap2\n      swap1\n      pop\n      jump\t// out\n        /* \"#utility.yul\":8200:8380   */\n    tag_274:\n        /* \"#utility.yul\":8248:8325   */\n      0x4e487b7100000000000000000000000000000000000000000000000000000000\n        /* \"#utility.yul\":8245:8246   */\n      0x00\n        /* \"#utility.yul\":8238:8326   */\n      mstore\n        /* \"#utility.yul\":8345:8349   */\n      0x11\n        /* \"#utility.yul\":8342:8343   */\n      0x04\n        /* \"#utility.yul\":8335:8350   */\n      mstore\n        /* \"#utility.yul\":8369:8373   */\n      0x24\n        /* \"#utility.yul\":8366:8367   */\n      0x00\n        /* \"#utility.yul\":8359:8374   */\n      revert\n        /* \"#utility.yul\":8386:8488   */\n    tag_275:\n        /* \"#utility.yul\":8428:8436   */\n      0x00\n        /* \"#utility.yul\":8475:8480   */\n      dup2\n        /* \"#utility.yul\":8472:8473   */\n      0x01\n        /* \"#utility.yul\":8468:8481   */\n      shr\n        /* \"#utility.yul\":8447:8481   */\n      swap1\n      pop\n        /* \"#utility.yul\":8386:8488   */\n      swap2\n      swap1\n      pop\n      jump\t// out\n        /* \"#utility.yul\":8494:9342   */\n    tag_276:\n        /* \"#utility.yul\":8555:8560   */\n      0x00\n        /* \"#utility.yul\":8562:8566   */\n      dup1\n        /* \"#utility.yul\":8586:8592   */\n      dup3\n        /* \"#utility.yul\":8577:8592   */\n      swap2\n      pop\n        /* \"#utility.yul\":8610:8615   */\n      dup4\n        /* \"#utility.yul\":8601:8615   */\n      swap1\n      pop\n        /* \"#utility.yul\":8624:9336   */\n    tag_394:\n        /* \"#utility.yul\":8645:8646   */\n      0x01\n        /* \"#utility.yul\":8635:8643   */\n      dup6\n        /* \"#utility.yul\":8632:8647   */\n      gt\n        /* \"#utility.yul\":8624:9336   */\n      iszero\n      tag_396\n      jumpi\n        /* \"#utility.yul\":8740:8744   */\n      dup1\n        /* \"#utility.yul\":8735:8738   */\n      dup7\n        /* \"#utility.yul\":8731:8745   */\n      div\n        /* \"#utility.yul\":8725:8729   */\n      dup2\n        /* \"#utility.yul\":8722:8746   */\n      gt\n        /* \"#utility.yul\":8719:8769   */\n      iszero\n      tag_397\n      jumpi\n        /* \"#utility.yul\":8749:8767   */\n      tag_398\n      tag_274\n      jump\t// in\n    tag_398:\n        /* \"#utility.yul\":8719:8769   */\n    tag_397:\n        /* \"#utility.yul\":8799:8800   */\n      0x01\n        /* \"#utility.yul\":8789:8797   */\n      dup6\n        /* \"#utility.yul\":8785:8801   */\n      and\n        /* \"#utility.yul\":8782:9233   */\n      iszero\n      tag_399\n      jumpi\n        /* \"#utility.yul\":9214:9218   */\n      dup1\n        /* \"#utility.yul\":9207:9212   */\n      dup3\n        /* \"#utility.yul\":9203:9219   */\n      mul\n        /* \"#utility.yul\":9194:9219   */\n      swap2\n      pop\n        /* \"#utility.yul\":8782:9233   */\n    tag_399:\n        /* \"#utility.yul\":9264:9268   */\n      dup1\n        /* \"#utility.yul\":9258:9262   */\n      dup2\n        /* \"#utility.yul\":9254:9269   */\n      mul\n        /* \"#utility.yul\":9246:9269   */\n      swap1\n      pop\n        /* \"#utility.yul\":9294:9326   */\n      tag_400\n        /* \"#utility.yul\":9317:9325   */\n      dup6\n        /* \"#utility.yul\":9294:9326   */\n      tag_275\n      jump\t// in\n    tag_400:\n        /* \"#utility.yul\":9282:9326   */\n      swap5\n      pop\n        /* \"#utility.yul\":8624:9336   */\n      jump(tag_394)\n    tag_396:\n        /* \"#utility.yul\":8494:9342   */\n      swap5\n      pop\n      swap5\n      swap3\n      pop\n      pop\n      pop\n      jump\t// out\n        /* \"#utility.yul\":9348:10421   */\n    tag_277:\n        /* \"#utility.yul\":9402:9407   */\n      0x00\n        /* \"#utility.yul\":9593:9601   */\n      dup3\n        /* \"#utility.yul\":9583:9623   */\n      tag_402\n      jumpi\n        /* \"#utility.yul\":9614:9615   */\n      0x01\n        /* \"#utility.yul\":9605:9615   */\n      swap1\n      pop\n        /* \"#utility.yul\":9616:9621   */\n      jump(tag_401)\n        /* \"#utility.yul\":9583:9623   */\n    tag_402:\n        /* \"#utility.yul\":9642:9646   */\n      dup2\n        /* \"#utility.yul\":9632:9668   */\n      tag_403\n      jumpi\n        /* \"#utility.yul\":9659:9660   */\n      0x00\n        /* \"#utility.yul\":9650:9660   */\n      swap1\n      pop\n        /* \"#utility.yul\":9661:9666   */\n      jump(tag_401)\n        /* \"#utility.yul\":9632:9668   */\n    tag_403:\n        /* \"#utility.yul\":9728:9732   */\n      dup2\n        /* \"#utility.yul\":9776:9777   */\n      0x01\n        /* \"#utility.yul\":9771:9798   */\n      dup2\n      eq\n      tag_405\n      jumpi\n        /* \"#utility.yul\":9812:9813   */\n      0x02\n        /* \"#utility.yul\":9807:9998   */\n      dup2\n      eq\n      tag_406\n      jumpi\n        /* \"#utility.yul\":9721:9998   */\n      jump(tag_404)\n        /* \"#utility.yul\":9771:9798   */\n    tag_405:\n        /* \"#utility.yul\":9789:9790   */\n      0x01\n        /* \"#utility.yul\":9780:9790   */\n      swap2\n      pop\n        /* \"#utility.yul\":9791:9796   */\n      pop\n      jump(tag_401)\n        /* \"#utility.yul\":9807:9998   */\n    tag_406:\n        /* \"#utility.yul\":9852:9855   */\n      0xff\n        /* \"#utility.yul\":9842:9850   */\n      dup5\n        /* \"#utility.yul\":9839:9856   */\n      gt\n        /* \"#utility.yul\":9836:9879   */\n      iszero\n      tag_407\n      jumpi\n        /* \"#utility.yul\":9859:9877   */\n      tag_408\n      tag_274\n      jump\t// in\n    tag_408:\n        /* \"#utility.yul\":9836:9879   */\n    tag_407:\n        /* \"#utility.yul\":9908:9916   */\n      dup4\n        /* \"#utility.yul\":9905:9906   */\n      0x02\n        /* \"#utility.yul\":9901:9917   */\n      exp\n        /* \"#utility.yul\":9892:9917   */\n      swap2\n      pop\n        /* \"#utility.yul\":9943:9946   */\n      dup5\n        /* \"#utility.yul\":9936:9941   */\n      dup3\n        /* \"#utility.yul\":9933:9947   */\n      gt\n        /* \"#utility.yul\":9930:9970   */\n      iszero\n      tag_409\n      jumpi\n        /* \"#utility.yul\":9950:9968   */\n      tag_410\n      tag_274\n      jump\t// in\n    tag_410:\n        /* \"#utility.yul\":9930:9970   */\n    tag_409:\n        /* \"#utility.yul\":9983:9988   */\n      pop\n      jump(tag_401)\n        /* \"#utility.yul\":9721:9998   */\n    tag_404:\n      pop\n        /* \"#utility.yul\":10107:10109   */\n      0x20\n        /* \"#utility.yul\":10097:10105   */\n      dup4\n        /* \"#utility.yul\":10094:10110   */\n      lt\n        /* \"#utility.yul\":10088:10091   */\n      0x0133\n        /* \"#utility.yul\":10082:10086   */\n      dup4\n        /* \"#utility.yul\":10079:10092   */\n      lt\n        /* \"#utility.yul\":10075:10111   */\n      and\n        /* \"#utility.yul\":10057:10059   */\n      0x4e\n        /* \"#utility.yul\":10047:10055   */\n      dup5\n        /* \"#utility.yul\":10044:10060   */\n      lt\n        /* \"#utility.yul\":10039:10041   */\n      0x0b\n        /* \"#utility.yul\":10033:10037   */\n      dup5\n        /* \"#utility.yul\":10030:10042   */\n      lt\n        /* \"#utility.yul\":10026:10061   */\n      and\n        /* \"#utility.yul\":10010:10121   */\n      or\n        /* \"#utility.yul\":10007:10253   */\n      iszero\n      tag_411\n      jumpi\n        /* \"#utility.yul\":10163:10171   */\n      dup3\n        /* \"#utility.yul\":10157:10161   */\n      dup3\n        /* \"#utility.yul\":10153:10172   */\n      exp\n        /* \"#utility.yul\":10144:10172   */\n      swap1\n      pop\n        /* \"#utility.yul\":10198:10201   */\n      dup4\n        /* \"#utility.yul\":10191:10196   */\n      dup2\n        /* \"#utility.yul\":10188:10202   */\n      gt\n        /* \"#utility.yul\":10185:10225   */\n      iszero\n      tag_412\n      jumpi\n        /* \"#utility.yul\":10205:10223   */\n      tag_413\n      tag_274\n      jump\t// in\n    tag_413:\n        /* \"#utility.yul\":10185:10225   */\n    tag_412:\n        /* \"#utility.yul\":10238:10243   */\n      jump(tag_401)\n        /* \"#utility.yul\":10007:10253   */\n    tag_411:\n        /* \"#utility.yul\":10278:10320   */\n      tag_414\n        /* \"#utility.yul\":10316:10319   */\n      dup5\n        /* \"#utility.yul\":10306:10314   */\n      dup5\n        /* \"#utility.yul\":10300:10304   */\n      dup5\n        /* \"#utility.yul\":10297:10298   */\n      0x01\n        /* \"#utility.yul\":10278:10320   */\n      tag_276\n      jump\t// in\n    tag_414:\n        /* \"#utility.yul\":10263:10320   */\n      swap3\n      pop\n      swap1\n      pop\n        /* \"#utility.yul\":10352:10356   */\n      dup2\n        /* \"#utility.yul\":10347:10350   */\n      dup5\n        /* \"#utility.yul\":10343:10357   */\n      div\n        /* \"#utility.yul\":10336:10341   */\n      dup2\n        /* \"#utility.yul\":10333:10358   */\n      gt\n        /* \"#utility.yul\":10330:10381   */\n      iszero\n      tag_415\n      jumpi\n        /* \"#utility.yul\":10361:10379   */\n      tag_416\n      tag_274\n      jump\t// in\n    tag_416:\n        /* \"#utility.yul\":10330:10381   */\n    tag_415:\n        /* \"#utility.yul\":10410:10414   */\n      dup2\n        /* \"#utility.yul\":10403:10408   */\n      dup2\n        /* \"#utility.yul\":10399:10415   */\n      mul\n        /* \"#utility.yul\":10390:10415   */\n      swap1\n      pop\n        /* \"#utility.yul\":9348:10421   */\n    tag_401:\n      swap4\n      swap3\n      pop\n      pop\n      pop\n      jump\t// out\n        /* \"#utility.yul\":10427:10708   */\n    tag_117:\n        /* \"#utility.yul\":10485:10490   */\n      0x00\n        /* \"#utility.yul\":10509:10532   */\n      tag_418\n        /* \"#utility.yul\":10527:10531   */\n      dup3\n        /* \"#utility.yul\":10509:10532   */\n      tag_260\n      jump\t// in\n    tag_418:\n        /* \"#utility.yul\":10501:10532   */\n      swap2\n      pop\n        /* \"#utility.yul\":10553:10578   */\n      tag_419\n        /* \"#utility.yul\":10569:10577   */\n      dup4\n        /* \"#utility.yul\":10553:10578   */\n      tag_266\n      jump\t// in\n    tag_419:\n        /* \"#utility.yul\":10541:10578   */\n      swap3\n      pop\n        /* \"#utility.yul\":10597:10701   */\n      tag_420\n        /* \"#utility.yul\":10634:10700   */\n      0xffffffffffffffffffffffffffffffffffffffffffffffffffffffffffffffff\n        /* \"#utility.yul\":10624:10632   */\n      dup5\n        /* \"#utility.yul\":10618:10622   */\n      dup5\n        /* \"#utility.yul\":10597:10701   */\n      tag_277\n      jump\t// in\n    tag_420:\n        /* \"#utility.yul\":10588:10701   */\n      swap1\n      pop\n        /* \"#utility.yul\":10427:10708   */\n      swap3\n      swap2\n      pop\n      pop\n      jump\t// out\n        /* \"#utility.yul\":10714:11124   */\n    tag_119:\n        /* \"#utility.yul\":10754:10761   */\n      0x00\n        /* \"#utility.yul\":10777:10797   */\n      tag_422\n        /* \"#utility.yul\":10795:10796   */\n      dup3\n        /* \"#utility.yul\":10777:10797   */\n      tag_260\n      jump\t// in\n    tag_422:\n        /* \"#utility.yul\":10772:10797   */\n      swap2\n      pop\n        /* \"#utility.yul\":10811:10831   */\n      tag_423\n        /* \"#utility.yul\":10829:10830   */\n      dup4\n        /* \"#utility.yul\":10811:10831   */\n      tag_260\n      jump\t// in\n    tag_423:\n        /* \"#utility.yul\":10806:10831   */\n      swap3\n      pop\n        /* \"#utility.yul\":10866:10867   */\n      dup3\n        /* \"#utility.yul\":10863:10864   */\n      dup3\n        /* \"#utility.yul\":10859:10868   */\n      mul\n        /* \"#utility.yul\":10888:10918   */\n      tag_424\n        /* \"#utility.yul\":10906:10917   */\n      dup2\n        /* \"#utility.yul\":10888:10918   */\n      tag_260\n      jump\t// in\n    tag_424:\n        /* \"#utility.yul\":10877:10918   */\n      swap2\n      pop\n        /* \"#utility.yul\":11067:11068   */\n      dup3\n        /* \"#utility.yul\":11058:11065   */\n      dup3\n        /* \"#utility.yul\":11054:11069   */\n      div\n        /* \"#utility.yul\":11051:11052   */\n      dup5\n        /* \"#utility.yul\":11048:11070   */\n      eq\n        /* \"#utility.yul\":11028:11029   */\n      dup4\n        /* \"#utility.yul\":11021:11030   */\n      iszero\n        /* \"#utility.yul\":11001:11084   */\n      or\n        /* \"#utility.yul\":10978:11117   */\n      tag_425\n      jumpi\n        /* \"#utility.yul\":11097:11115   */\n      tag_426\n      tag_274\n      jump\t// in\n    tag_426:\n        /* \"#utility.yul\":10978:11117   */\n    tag_425:\n        /* \"#utility.yul\":10762:11124   */\n      pop\n        /* \"#utility.yul\":10714:11124   */\n      swap3\n      swap2\n      pop\n      pop\n      jump\t// out\n        /* \"#utility.yul\":11130:11357   */\n    tag_278:\n        /* \"#utility.yul\":11270:11304   */\n      0x45524332303a207472616e7366657220616d6f756e7420657863656564732061\n        /* \"#utility.yul\":11266:11267   */\n      0x00\n        /* \"#utility.yul\":11258:11264   */\n      dup3\n        /* \"#utility.yul\":11254:11268   */\n      add\n        /* \"#utility.yul\":11247:11305   */\n      mstore\n        /* \"#utility.yul\":11339:11349   */\n      0x6c6c6f77616e6365000000000000000000000000000000000000000000000000\n        /* \"#utility.yul\":11334:11336   */\n      0x20\n        /* \"#utility.yul\":11326:11332   */\n      dup3\n        /* \"#utility.yul\":11322:11337   */\n      add\n        /* \"#utility.yul\":11315:11350   */\n      mstore\n        /* \"#utility.yul\":11130:11357   */\n      pop\n      jump\t// out\n        /* \"#utility.yul\":11363:11729   */\n    tag_279:\n        /* \"#utility.yul\":11505:11508   */\n      0x00\n        /* \"#utility.yul\":11526:11593   */\n      tag_429\n        /* \"#utility.yul\":11590:11592   */\n      0x28\n        /* \"#utility.yul\":11585:11588   */\n      dup4\n        /* \"#utility.yul\":11526:11593   */\n      tag_249\n      jump\t// in\n    tag_429:\n        /* \"#utility.yul\":11519:11593   */\n      swap2\n      pop\n        /* \"#utility.yul\":11602:11695   */\n      tag_430\n        /* \"#utility.yul\":11691:11694   */\n      dup3\n        /* \"#utility.yul\":11602:11695   */\n      tag_278\n      jump\t// in\n    tag_430:\n        /* \"#utility.yul\":11720:11722   */\n      0x40\n        /* \"#utility.yul\":11715:11718   */\n      dup3\n        /* \"#utility.yul\":11711:11723   */\n      add\n        /* \"#utility.yul\":11704:11723   */\n      swap1\n      pop\n        /* \"#utility.yul\":11363:11729   */\n      swap2\n      swap1\n      pop\n      jump\t// out\n        /* \"#utility.yul\":11735:12154   */\n    tag_126:\n        /* \"#utility.yul\":11901:11905   */\n      0x00\n        /* \"#utility.yul\":11939:11941   */\n      0x20\n        /* \"#utility.yul\":11928:11937   */\n      dup3\n        /* \"#utility.yul\":11924:11942   */\n      add\n        /* \"#utility.yul\":11916:11942   */\n      swap1\n      pop\n        /* \"#utility.yul\":11988:11997   */\n      dup2\n        /* \"#utility.yul\":11982:11986   */\n      dup2\n        /* \"#utility.yul\":11978:11998   */\n      sub\n        /* \"#utility.yul\":11974:11975   */\n      0x00\n        /* \"#utility.yul\":11963:11972   */\n      dup4\n        /* \"#utility.yul\":11959:11976   */\n      add\n        /* \"#utility.yul\":11952:11999   */\n      mstore\n        /* \"#utility.yul\":12016:12147   */\n      tag_432\n        /* \"#utility.yul\":12142:12146   */\n      dup2\n        /* \"#utility.yul\":12016:12147   */\n      tag_279\n      jump\t// in\n    tag_432:\n        /* \"#utility.yul\":12008:12147   */\n      swap1\n      pop\n        /* \"#utility.yul\":11735:12154   */\n      swap2\n      swap1\n      pop\n      jump\t// out\n        /* \"#utility.yul\":12160:12351   */\n    tag_136:\n        /* \"#utility.yul\":12200:12203   */\n      0x00\n        /* \"#utility.yul\":12219:12239   */\n      tag_434\n        /* \"#utility.yul\":12237:12238   */\n      dup3\n        /* \"#utility.yul\":12219:12239   */\n      tag_260\n      jump\t// in\n    tag_434:\n        /* \"#utility.yul\":12214:12239   */\n      swap2\n      pop\n        /* \"#utility.yul\":12253:12273   */\n      tag_435\n        /* \"#utility.yul\":12271:12272   */\n      dup4\n        /* \"#utility.yul\":12253:12273   */\n      tag_260\n      jump\t// in\n    tag_435:\n        /* \"#utility.yul\":12248:12273   */\n      swap3\n      pop\n        /* \"#utility.yul\":12296:12297   */\n      dup3\n        /* \"#utility.yul\":12293:12294   */\n      dup3\n        /* \"#utility.yul\":12289:12298   */\n      add\n        /* \"#utility.yul\":12282:12298   */\n      swap1\n      pop\n        /* \"#utility.yul\":12317:12320   */\n      dup1\n        /* \"#utility.yul\":12314:12315   */\n      dup3\n        /* \"#utility.yul\":12311:12321   */\n      gt\n        /* \"#utility.yul\":12308:12344   */\n      iszero\n      tag_436\n      jumpi\n        /* \"#utility.yul\":12324:12342   */\n      tag_437\n      tag_274\n      jump\t// in\n    tag_437:\n        /* \"#utility.yul\":12308:12344   */\n    tag_436:\n        /* \"#utility.yul\":12160:12351   */\n      swap3\n      swap2\n      pop\n      pop\n      jump\t// out\n        /* \"#utility.yul\":12357:12580   */\n    tag_280:\n        /* \"#utility.yul\":12497:12531   */\n      0x45524332303a206275726e20616d6f756e74206578636565647320616c6c6f77\n        /* \"#utility.yul\":12493:12494   */\n      0x00\n        /* \"#utility.yul\":12485:12491   */\n      dup3\n        /* \"#utility.yul\":12481:12495   */\n      add\n        /* \"#utility.yul\":12474:12532   */\n      mstore\n        /* \"#utility.yul\":12566:12572   */\n      0x616e636500000000000000000000000000000000000000000000000000000000\n        /* \"#utility.yul\":12561:12563   */\n      0x20\n        /* \"#utility.yul\":12553:12559   */\n      dup3\n        /* \"#utility.yul\":12549:12564   */\n      add\n        /* \"#utility.yul\":12542:12573   */\n      mstore\n        /* \"#utility.yul\":12357:12580   */\n      pop\n      jump\t// out\n        /* \"#utility.yul\":12586:12952   */\n    tag_281:\n        /* \"#utility.yul\":12728:12731   */\n      0x00\n        /* \"#utility.yul\":12749:12816   */\n      tag_440\n        /* \"#utility.yul\":12813:12815   */\n      0x24\n        /* \"#utility.yul\":12808:12811   */\n      dup4\n        /* \"#utility.yul\":12749:12816   */\n      tag_249\n      jump\t// in\n    tag_440:\n        /* \"#utility.yul\":12742:12816   */\n      swap2\n      pop\n        /* \"#utility.yul\":12825:12918   */\n      tag_441\n        /* \"#utility.yul\":12914:12917   */\n      dup3\n        /* \"#utility.yul\":12825:12918   */\n      tag_280\n      jump\t// in\n    tag_441:\n        /* \"#utility.yul\":12943:12945   */\n      0x40\n        /* \"#utility.yul\":12938:12941   */\n      dup3\n        /* \"#utility.yul\":12934:12946   */\n      add\n        /* \"#utility.yul\":12927:12946   */\n      swap1\n      pop\n        /* \"#utility.yul\":12586:12952   */\n      swap2\n      swap1\n      pop\n      jump\t// out\n        /* \"#utility.yul\":12958:13377   */\n    tag_150:\n        /* \"#utility.yul\":13124:13128   */\n      0x00\n        /* \"#utility.yul\":13162:13164   */\n      0x20\n        /* \"#utility.yul\":13151:13160   */\n      dup3\n        /* \"#utility.yul\":13147:13165   */\n      add\n        /* \"#utility.yul\":13139:13165   */\n      swap1\n      pop\n        /* \"#utility.yul\":13211:13220   */\n      dup2\n        /* \"#utility.yul\":13205:13209   */\n      dup2\n        /* \"#utility.yul\":13201:13221   */\n      sub\n        /* \"#utility.yul\":13197:13198   */\n      0x00\n        /* \"#utility.yul\":13186:13195   */\n      dup4\n        /* \"#utility.yul\":13182:13199   */\n      add\n        /* \"#utility.yul\":13175:13222   */\n      mstore\n        /* \"#utility.yul\":13239:13370   */\n      tag_443\n        /* \"#utility.yul\":13365:13369   */\n      dup2\n        /* \"#utility.yul\":13239:13370   */\n      tag_281\n      jump\t// in\n    tag_443:\n        /* \"#utility.yul\":13231:13370   */\n      swap1\n      pop\n        /* \"#utility.yul\":12958:13377   */\n      swap2\n      swap1\n      pop\n      jump\t// out\n        /* \"#utility.yul\":13383:13607   */\n    tag_282:\n        /* \"#utility.yul\":13523:13557   */\n      0x45524332303a2064656372656173656420616c6c6f77616e63652062656c6f77\n        /* \"#utility.yul\":13519:13520   */\n      0x00\n        /* \"#utility.yul\":13511:13517   */\n      dup3\n        /* \"#utility.yul\":13507:13521   */\n      add\n        /* \"#utility.yul\":13500:13558   */\n      mstore\n        /* \"#utility.yul\":13592:13599   */\n      0x207a65726f000000000000000000000000000000000000000000000000000000\n        /* \"#utility.yul\":13587:13589   */\n      0x20\n        /* \"#utility.yul\":13579:13585   */\n      dup3\n        /* \"#utility.yul\":13575:13590   */\n      add\n        /* \"#utility.yul\":13568:13600   */\n      mstore\n        /* \"#utility.yul\":13383:13607   */\n      pop\n      jump\t// out\n        /* \"#utility.yul\":13613:13979   */\n    tag_283:\n        /* \"#utility.yul\":13755:13758   */\n      0x00\n        /* \"#utility.yul\":13776:13843   */\n      tag_446\n        /* \"#utility.yul\":13840:13842   */\n      0x25\n        /* \"#utility.yul\":13835:13838   */\n      dup4\n        /* \"#utility.yul\":13776:13843   */\n      tag_249\n      jump\t// in\n    tag_446:\n        /* \"#utility.yul\":13769:13843   */\n      swap2\n      pop\n        /* \"#utility.yul\":13852:13945   */\n      tag_447\n        /* \"#utility.yul\":13941:13944   */\n      dup3\n        /* \"#utility.yul\":13852:13945   */\n      tag_282\n      jump\t// in\n    tag_447:\n        /* \"#utility.yul\":13970:13972   */\n      0x40\n        /* \"#utility.yul\":13965:13968   */\n      dup3\n        /* \"#utility.yul\":13961:13973   */\n      add\n        /* \"#utility.yul\":13954:13973   */\n      swap1\n      pop\n        /* \"#utility.yul\":13613:13979   */\n      swap2\n      swap1\n      pop\n      jump\t// out\n        /* \"#utility.yul\":13985:14404   */\n    tag_164:\n        /* \"#utility.yul\":14151:14155   */\n      0x00\n        /* \"#utility.yul\":14189:14191   */\n      0x20\n        /* \"#utility.yul\":14178:14187   */\n      dup3\n        /* \"#utility.yul\":14174:14192   */\n      add\n        /* \"#utility.yul\":14166:14192   */\n      swap1\n      pop\n        /* \"#utility.yul\":14238:14247   */\n      dup2\n        /* \"#utility.yul\":14232:14236   */\n      dup2\n        /* \"#utility.yul\":14228:14248   */\n      sub\n        /* \"#utility.yul\":14224:14225   */\n      0x00\n        /* \"#utility.yul\":14213:14222   */\n      dup4\n        /* \"#utility.yul\":14209:14226   */\n      add\n        /* \"#utility.yul\":14202:14249   */\n      mstore\n        /* \"#utility.yul\":14266:14397   */\n      tag_449\n        /* \"#utility.yul\":14392:14396   */\n      dup2\n        /* \"#utility.yul\":14266:14397   */\n      tag_283\n      jump\t// in\n    tag_449:\n        /* \"#utility.yul\":14258:14397   */\n      swap1\n      pop\n        /* \"#utility.yul\":13985:14404   */\n      swap2\n      swap1\n      pop\n      jump\t// out\n        /* \"#utility.yul\":14410:14633   */\n    tag_284:\n        /* \"#utility.yul\":14550:14584   */\n      0x45524332303a20617070726f76652066726f6d20746865207a65726f20616464\n        /* \"#utility.yul\":14546:14547   */\n      0x00\n        /* \"#utility.yul\":14538:14544   */\n      dup3\n        /* \"#utility.yul\":14534:14548   */\n      add\n        /* \"#utility.yul\":14527:14585   */\n      mstore\n        /* \"#utility.yul\":14619:14625   */\n      0x7265737300000000000000000000000000000000000000000000000000000000\n        /* \"#utility.yul\":14614:14616   */\n      0x20\n        /* \"#utility.yul\":14606:14612   */\n      dup3\n        /* \"#utility.yul\":14602:14617   */\n      add\n        /* \"#utility.yul\":14595:14626   */\n      mstore\n        /* \"#utility.yul\":14410:14633   */\n      pop\n      jump\t// out\n        /* \"#utility.yul\":14639:15005   */\n    tag_285:\n        /* \"#utility.yul\":14781:14784   */\n      0x00\n        /* \"#utility.yul\":14802:14869   */\n      tag_452\n        /* \"#utility.yul\":14866:14868   */\n      0x24\n        /* \"#utility.yul\":14861:14864   */\n      dup4\n        /* \"#utility.yul\":14802:14869   */\n      tag_249\n      jump\t// in\n    tag_452:\n        /* \"#utility.yul\":14795:14869   */\n      swap2\n      pop\n        /* \"#utility.yul\":14878:14971   */\n      tag_453\n        /* \"#utility.yul\":14967:14970   */\n      dup3\n        /* \"#utility.yul\":14878:14971   */\n      tag_284\n      jump\t// in\n    tag_453:\n        /* \"#utility.yul\":14996:14998   */\n      0x40\n        /* \"#utility.yul\":14991:14994   */\n      dup3\n        /* \"#utility.yul\":14987:14999   */\n      add\n        /* \"#utility.yul\":14980:14999   */\n      swap1\n      pop\n        /* \"#utility.yul\":14639:15005   */\n      swap2\n      swap1\n      pop\n      jump\t// out\n        /* \"#utility.yul\":15011:15430   */\n    tag_176:\n        /* \"#utility.yul\":15177:15181   */\n      0x00\n        /* \"#utility.yul\":15215:15217   */\n      0x20\n        /* \"#utility.yul\":15204:15213   */\n      dup3\n        /* \"#utility.yul\":15200:15218   */\n      add\n        /* \"#utility.yul\":15192:15218   */\n      swap1\n      pop\n        /* \"#utility.yul\":15264:15273   */\n      dup2\n        /* \"#utility.yul\":15258:15262   */\n      dup2\n        /* \"#utility.yul\":15254:15274   */\n      sub\n        /* \"#utility.yul\":15250:15251   */\n      0x00\n        /* \"#utility.yul\":15239:15248   */\n      dup4\n        /* \"#utility.yul\":15235:15252   */\n      add\n        /* \"#utility.yul\":15228:15275   */\n      mstore\n        /* \"#utility.yul\":15292:15423   */\n      tag_455\n        /* \"#utility.yul\":15418:15422   */\n      dup2\n        /* \"#utility.yul\":15292:15423   */\n      tag_285\n      jump\t// in\n    tag_455:\n        /* \"#utility.yul\":15284:15423   */\n      swap1\n      pop\n        /* \"#utility.yul\":15011:15430   */\n      swap2\n      swap1\n      pop\n      jump\t// out\n        /* \"#utility.yul\":15436:15657   */\n    tag_286:\n        /* \"#utility.yul\":15576:15610   */\n      0x45524332303a20617070726f766520746f20746865207a65726f206164647265\n        /* \"#utility.yul\":15572:15573   */\n      0x00\n        /* \"#utility.yul\":15564:15570   */\n      dup3\n        /* \"#utility.yul\":15560:15574   */\n      add\n        /* \"#utility.yul\":15553:15611   */\n      mstore\n        /* \"#utility.yul\":15645:15649   */\n      0x7373000000000000000000000000000000000000000000000000000000000000\n        /* \"#utility.yul\":15640:15642   */\n      0x20\n        /* \"#utility.yul\":15632:15638   */\n      dup3\n        /* \"#utility.yul\":15628:15643   */\n      add\n        /* \"#utility.yul\":15621:15650   */\n      mstore\n        /* \"#utility.yul\":15436:15657   */\n      pop\n      jump\t// out\n        /* \"#utility.yul\":15663:16029   */\n    tag_287:\n        /* \"#utility.yul\":15805:15808   */\n      0x00\n        /* \"#utility.yul\":15826:15893   */\n      tag_458\n        /* \"#utility.yul\":15890:15892   */\n      0x22\n        /* \"#utility.yul\":15885:15888   */\n      dup4\n        /* \"#utility.yul\":15826:15893   */\n      tag_249\n      jump\t// in\n    tag_458:\n        /* \"#utility.yul\":15819:15893   */\n      swap2\n      pop\n        /* \"#utility.yul\":15902:15995   */\n      tag_459\n        /* \"#utility.yul\":15991:15994   */\n      dup3\n        /* \"#utility.yul\":15902:15995   */\n      tag_286\n      jump\t// in\n    tag_459:\n        /* \"#utility.yul\":16020:16022   */\n      0x40\n        /* \"#utility.yul\":16015:16018   */\n      dup3\n        /* \"#utility.yul\":16011:16023   */\n      add\n        /* \"#utility.yul\":16004:16023   */\n      swap1\n      pop\n        /* \"#utility.yul\":15663:16029   */\n      swap2\n      swap1\n      pop\n      jump\t// out\n        /* \"#utility.yul\":16035:16454   */\n    tag_179:\n        /* \"#utility.yul\":16201:16205   */\n      0x00\n        /* \"#utility.yul\":16239:16241   */\n      0x20\n        /* \"#utility.yul\":16228:16237   */\n      dup3\n        /* \"#utility.yul\":16224:16242   */\n      add\n        /* \"#utility.yul\":16216:16242   */\n      swap1\n      pop\n        /* \"#utility.yul\":16288:16297   */\n      dup2\n        /* \"#utility.yul\":16282:16286   */\n      dup2\n        /* \"#utility.yul\":16278:16298   */\n      sub\n        /* \"#utility.yul\":16274:16275   */\n      0x00\n        /* \"#utility.yul\":16263:16272   */\n      dup4\n        /* \"#utility.yul\":16259:16276   */\n      add\n        /* \"#utility.yul\":16252:16299   */\n      mstore\n        /* \"#utility.yul\":16316:16447   */\n      tag_461\n        /* \"#utility.yul\":16442:16446   */\n      dup2\n        /* \"#utility.yul\":16316:16447   */\n      tag_287\n      jump\t// in\n    tag_461:\n        /* \"#utility.yul\":16308:16447   */\n      swap1\n      pop\n        /* \"#utility.yul\":16035:16454   */\n      swap2\n      swap1\n      pop\n      jump\t// out\n        /* \"#utility.yul\":16460:16684   */\n    tag_288:\n        /* \"#utility.yul\":16600:16634   */\n      0x45524332303a207472616e736665722066726f6d20746865207a65726f206164\n        /* \"#utility.yul\":16596:16597   */\n      0x00\n        /* \"#utility.yul\":16588:16594   */\n      dup3\n        /* \"#utility.yul\":16584:16598   */\n      add\n        /* \"#utility.yul\":16577:16635   */\n      mstore\n        /* \"#utility.yul\":16669:16676   */\n      0x6472657373000000000000000000000000000000000000000000000000000000\n        /* \"#utility.yul\":16664:16666   */\n      0x20\n        /* \"#utility.yul\":16656:16662   */\n      dup3\n        /* \"#utility.yul\":16652:16667   */\n      add\n        /* \"#utility.yul\":16645:16677   */\n      mstore\n        /* \"#utility.yul\":16460:16684   */\n      pop\n      jump\t// out\n        /* \"#utility.yul\":16690:17056   */\n    tag_289:\n        /* \"#utility.yul\":16832:16835   */\n      0x00\n        /* \"#utility.yul\":16853:16920   */\n      tag_464\n        /* \"#utility.yul\":16917:16919   */\n      0x25\n        /* \"#utility.yul\":16912:16915   */\n      dup4\n        /* \"#utility.yul\":16853:16920   */\n      tag_249\n      jump\t// in\n    tag_464:\n        /* \"#utility.yul\":16846:16920   */\n      swap2\n      pop\n        /* \"#utility.yul\":16929:17022   */\n      tag_465\n        /* \"#utility.yul\":17018:17021   */\n      dup3\n        /* \"#utility.yul\":16929:17022   */\n      tag_288\n      jump\t// in\n    tag_465:\n        /* \"#utility.yul\":17047:17049   */\n      0x40\n        /* \"#utility.yul\":17042:17045   */\n      dup3\n        /* \"#utility.yul\":17038:17050   */\n      add\n        /* \"#utility.yul\":17031:17050   */\n      swap1\n      pop\n        /* \"#utility.yul\":16690:17056   */\n      swap2\n      swap1\n      pop\n      jump\t// out\n        /* \"#utility.yul\":17062:17481   */\n    tag_184:\n        /* \"#utility.yul\":17228:17232   */\n      0x00\n        /* \"#utility.yul\":17266:17268   */\n      0x20\n        /* \"#utility.yul\":17255:17264   */\n      dup3\n        /* \"#utility.yul\":17251:17269   */\n      add\n        /* \"#utility.yul\":17243:17269   */\n      swap1\n      pop\n        /* \"#utility.yul\":17315:17324   */\n      dup2\n        /* \"#utility.yul\":17309:17313   */\n      dup2\n        /* \"#utility.yul\":17305:17325   */\n      sub\n        /* \"#utility.yul\":17301:17302   */\n      0x00\n        /* \"#utility.yul\":17290:17299   */\n      dup4\n        /* \"#utility.yul\":17286:17303   */\n      add\n        /* \"#utility.yul\":17279:17326   */\n      mstore\n        /* \"#utility.yul\":17343:17474   */\n      tag_467\n        /* \"#utility.yul\":17469:17473   */\n      dup2\n        /* \"#utility.yul\":17343:17474   */\n      tag_289\n      jump\t// in\n    tag_467:\n        /* \"#utility.yul\":17335:17474   */\n      swap1\n      pop\n        /* \"#utility.yul\":17062:17481   */\n      swap2\n      swap1\n      pop\n      jump\t// out\n        /* \"#utility.yul\":17487:17709   */\n    tag_290:\n        /* \"#utility.yul\":17627:17661   */\n      0x45524332303a207472616e7366657220746f20746865207a65726f2061646472\n        /* \"#utility.yul\":17623:17624   */\n      0x00\n        /* \"#utility.yul\":17615:17621   */\n      dup3\n        /* \"#utility.yul\":17611:17625   */\n      add\n        /* \"#utility.yul\":17604:17662   */\n      mstore\n        /* \"#utility.yul\":17696:17701   */\n      0x6573730000000000000000000000000000000000000000000000000000000000\n        /* \"#utility.yul\":17691:17693   */\n      0x20\n        /* \"#utility.yul\":17683:17689   */\n      dup3\n        /* \"#utility.yul\":17679:17694   */\n      add\n        /* \"#utility.yul\":17672:17702   */\n      mstore\n        /* \"#utility.yul\":17487:17709   */\n      pop\n      jump\t// out\n        /* \"#utility.yul\":17715:18081   */\n    tag_291:\n        /* \"#utility.yul\":17857:17860   */\n      0x00\n        /* \"#utility.yul\":17878:17945   */\n      tag_470\n        /* \"#utility.yul\":17942:17944   */\n      0x23\n        /* \"#utility.yul\":17937:17940   */\n      dup4\n        /* \"#utility.yul\":17878:17945   */\n      tag_249\n      jump\t// in\n    tag_470:\n        /* \"#utility.yul\":17871:17945   */\n      swap2\n      pop\n        /* \"#utility.yul\":17954:18047   */\n      tag_471\n        /* \"#utility.yul\":18043:18046   */\n      dup3\n        /* \"#utility.yul\":17954:18047   */\n      tag_290\n      jump\t// in\n    tag_471:\n        /* \"#utility.yul\":18072:18074   */\n      0x40\n        /* \"#utility.yul\":18067:18070   */\n      dup3\n        /* \"#utility.yul\":18063:18075   */\n      add\n        /* \"#utility.yul\":18056:18075   */\n      swap1\n      pop\n        /* \"#utility.yul\":17715:18081   */\n      swap2\n      swap1\n      pop\n      jump\t// out\n        /* \"#utility.yul\":18087:18506   */\n    tag_187:\n        /* \"#utility.yul\":18253:18257   */\n      0x00\n        /* \"#utility.yul\":18291:18293   */\n      0x20\n        /* \"#utility.yul\":18280:18289   */\n      dup3\n        /* \"#utility.yul\":18276:18294   */\n      add\n        /* \"#utility.yul\":18268:18294   */\n      swap1\n      pop\n        /* \"#utility.yul\":18340:18349   */\n      dup2\n        /* \"#utility.yul\":18334:18338   */\n      dup2\n        /* \"#utility.yul\":18330:18350   */\n      sub\n        /* \"#utility.yul\":18326:18327   */\n      0x00\n        /* \"#utility.yul\":18315:18324   */\n      dup4\n        /* \"#utility.yul\":18311:18328   */\n      add\n        /* \"#utility.yul\":18304:18351   */\n      mstore\n        /* \"#utility.yul\":18368:18499   */\n      tag_473\n        /* \"#utility.yul\":18494:18498   */\n      dup2\n        /* \"#utility.yul\":18368:18499   */\n      tag_291\n      jump\t// in\n    tag_473:\n        /* \"#utility.yul\":18360:18499   */\n      swap1\n      pop\n        /* \"#utility.yul\":18087:18506   */\n      swap2\n      swap1\n      pop\n      jump\t// out\n        /* \"#utility.yul\":18512:18737   */\n    tag_292:\n        /* \"#utility.yul\":18652:18686   */\n      0x45524332303a207472616e7366657220616d6f756e7420657863656564732062\n        /* \"#utility.yul\":18648:18649   */\n      0x00\n        /* \"#utility.yul\":18640:18646   */\n      dup3\n        /* \"#utility.yul\":18636:18650   */\n      add\n        /* \"#utility.yul\":18629:18687   */\n      mstore\n        /* \"#utility.yul\":18721:18729   */\n      0x616c616e63650000000000000000000000000000000000000000000000000000\n        /* \"#utility.yul\":18716:18718   */\n      0x20\n        /* \"#utility.yul\":18708:18714   */\n      dup3\n        /* \"#utility.yul\":18704:18719   */\n      add\n        /* \"#utility.yul\":18697:18730   */\n      mstore\n        /* \"#utility.yul\":18512:18737   */\n      pop\n      jump\t// out\n        /* \"#utility.yul\":18743:19109   */\n    tag_293:\n        /* \"#utility.yul\":18885:18888   */\n      0x00\n        /* \"#utility.yul\":18906:18973   */\n      tag_476\n        /* \"#utility.yul\":18970:18972   */\n      0x26\n        /* \"#utility.yul\":18965:18968   */\n      dup4\n        /* \"#utility.yul\":18906:18973   */\n      tag_249\n      jump\t// in\n    tag_476:\n        /* \"#utility.yul\":18899:18973   */\n      swap2\n      pop\n        /* \"#utility.yul\":18982:19075   */\n      tag_477\n        /* \"#utility.yul\":19071:19074   */\n      dup3\n        /* \"#utility.yul\":18982:19075   */\n      tag_292\n      jump\t// in\n    tag_477:\n        /* \"#utility.yul\":19100:19102   */\n      0x40\n        /* \"#utility.yul\":19095:19098   */\n      dup3\n        /* \"#utility.yul\":19091:19103   */\n      add\n        /* \"#utility.yul\":19084:19103   */\n      swap1\n      pop\n        /* \"#utility.yul\":18743:19109   */\n      swap2\n      swap1\n      pop\n      jump\t// out\n        /* \"#utility.yul\":19115:19534   */\n    tag_192:\n        /* \"#utility.yul\":19281:19285   */\n      0x00\n        /* \"#utility.yul\":19319:19321   */\n      0x20\n        /* \"#utility.yul\":19308:19317   */\n      dup3\n        /* \"#utility.yul\":19304:19322   */\n      add\n        /* \"#utility.yul\":19296:19322   */\n      swap1\n      pop\n        /* \"#utility.yul\":19368:19377   */\n      dup2\n        /* \"#utility.yul\":19362:19366   */\n      dup2\n        /* \"#utility.yul\":19358:19378   */\n      sub\n        /* \"#utility.yul\":19354:19355   */\n      0x00\n        /* \"#utility.yul\":19343:19352   */\n      dup4\n        /* \"#utility.yul\":19339:19356   */\n      add\n        /* \"#utility.yul\":19332:19379   */\n      mstore\n        /* \"#utility.yul\":19396:19527   */\n      tag_479\n        /* \"#utility.yul\":19522:19526   */\n      dup2\n        /* \"#utility.yul\":19396:19527   */\n      tag_293\n      jump\t// in\n    tag_479:\n        /* \"#utility.yul\":19388:19527   */\n      swap1\n      pop\n        /* \"#utility.yul\":19115:19534   */\n      swap2\n      swap1\n      pop\n      jump\t// out\n        /* \"#utility.yul\":19540:19760   */\n    tag_294:\n        /* \"#utility.yul\":19680:19714   */\n      0x45524332303a206275726e2066726f6d20746865207a65726f20616464726573\n        /* \"#utility.yul\":19676:19677   */\n      0x00\n        /* \"#utility.yul\":19668:19674   */\n      dup3\n        /* \"#utility.yul\":19664:19678   */\n      add\n        /* \"#utility.yul\":19657:19715   */\n      mstore\n        /* \"#utility.yul\":19749:19752   */\n      0x7300000000000000000000000000000000000000000000000000000000000000\n        /* \"#utility.yul\":19744:19746   */\n      0x20\n        /* \"#utility.yul\":19736:19742   */\n      dup3\n        /* \"#utility.yul\":19732:19747   */\n      add\n        /* \"#utility.yul\":19725:19753   */\n      mstore\n        /* \"#utility.yul\":19540:19760   */\n      pop\n      jump\t// out\n        /* \"#utility.yul\":19766:20132   */\n    tag_295:\n        /* \"#utility.yul\":19908:19911   */\n      0x00\n        /* \"#utility.yul\":19929:19996   */\n      tag_482\n        /* \"#utility.yul\":19993:19995   */\n      0x21\n        /* \"#utility.yul\":19988:19991   */\n      dup4\n        /* \"#utility.yul\":19929:19996   */\n      tag_249\n      jump\t// in\n    tag_482:\n        /* \"#utility.yul\":19922:19996   */\n      swap2\n      pop\n        /* \"#utility.yul\":20005:20098   */\n      tag_483\n        /* \"#utility.yul\":20094:20097   */\n      dup3\n        /* \"#utility.yul\":20005:20098   */\n      tag_294\n      jump\t// in\n    tag_483:\n        /* \"#utility.yul\":20123:20125   */\n      0x40\n        /* \"#utility.yul\":20118:20121   */\n      dup3\n        /* \"#utility.yul\":20114:20126   */\n      add\n        /* \"#utility.yul\":20107:20126   */\n      swap1\n      pop\n        /* \"#utility.yul\":19766:20132   */\n      swap2\n      swap1\n      pop\n      jump\t// out\n        /* \"#utility.yul\":20138:20557   */\n    tag_200:\n        /* \"#utility.yul\":20304:20308   */\n      0x00\n        /* \"#utility.yul\":20342:20344   */\n      0x20\n        /* \"#utility.yul\":20331:20340   */\n      dup3\n        /* \"#utility.yul\":20327:20345   */\n      add\n        /* \"#utility.yul\":20319:20345   */\n      swap1\n      pop\n        /* \"#utility.yul\":20391:20400   */\n      dup2\n        /* \"#utility.yul\":20385:20389   */\n      dup2\n        /* \"#utility.yul\":20381:20401   */\n      sub\n        /* \"#utility.yul\":20377:20378   */\n      0x00\n        /* \"#utility.yul\":20366:20375   */\n      dup4\n        /* \"#utility.yul\":20362:20379   */\n      add\n        /* \"#utility.yul\":20355:20402   */\n      mstore\n        /* \"#utility.yul\":20419:20550   */\n      tag_485\n        /* \"#utility.yul\":20545:20549   */\n      dup2\n        /* \"#utility.yul\":20419:20550   */\n      tag_295\n      jump\t// in\n    tag_485:\n        /* \"#utility.yul\":20411:20550   */\n      swap1\n      pop\n        /* \"#utility.yul\":20138:20557   */\n      swap2\n      swap1\n      pop\n      jump\t// out\n        /* \"#utility.yul\":20563:20784   */\n    tag_296:\n        /* \"#utility.yul\":20703:20737   */\n      0x45524332303a206275726e20616d6f756e7420657863656564732062616c616e\n        /* \"#utility.yul\":20699:20700   */\n      0x00\n        /* \"#utility.yul\":20691:20697   */\n      dup3\n        /* \"#utility.yul\":20687:20701   */\n      add\n        /* \"#utility.yul\":20680:20738   */\n      mstore\n        /* \"#utility.yul\":20772:20776   */\n      0x6365000000000000000000000000000000000000000000000000000000000000\n        /* \"#utility.yul\":20767:20769   */\n      0x20\n        /* \"#utility.yul\":20759:20765   */\n      dup3\n        /* \"#utility.yul\":20755:20770   */\n      add\n        /* \"#utility.yul\":20748:20777   */\n      mstore\n        /* \"#utility.yul\":20563:20784   */\n      pop\n      jump\t// out\n        /* \"#utility.yul\":20790:21156   */\n    tag_297:\n        /* \"#utility.yul\":20932:20935   */\n      0x00\n        /* \"#utility.yul\":20953:21020   */\n      tag_488\n        /* \"#utility.yul\":21017:21019   */\n      0x22\n        /* \"#utility.yul\":21012:21015   */\n      dup4\n        /* \"#utility.yul\":20953:21020   */\n      tag_249\n      jump\t// in\n    tag_488:\n        /* \"#utility.yul\":20946:21020   */\n      swap2\n      pop\n        /* \"#utility.yul\":21029:21122   */\n      tag_489\n        /* \"#utility.yul\":21118:21121   */\n      dup3\n        /* \"#utility.yul\":21029:21122   */\n      tag_296\n      jump\t// in\n    tag_489:\n        /* \"#utility.yul\":21147:21149   */\n      0x40\n        /* \"#utility.yul\":21142:21145   */\n      dup3\n        /* \"#utility.yul\":21138:21150   */\n      add\n        /* \"#utility.yul\":21131:21150   */\n      swap1\n      pop\n        /* \"#utility.yul\":20790:21156   */\n      swap2\n      swap1\n      pop\n      jump\t// out\n        /* \"#utility.yul\":21162:21581   */\n    tag_204:\n        /* \"#utility.yul\":21328:21332   */\n      0x00\n        /* \"#utility.yul\":21366:21368   */\n      0x20\n        /* \"#utility.yul\":21355:21364   */\n      dup3\n        /* \"#utility.yul\":21351:21369   */\n      add\n        /* \"#utility.yul\":21343:21369   */\n      swap1\n      pop\n        /* \"#utility.yul\":21415:21424   */\n      dup2\n        /* \"#utility.yul\":21409:21413   */\n      dup2\n        /* \"#utility.yul\":21405:21425   */\n      sub\n        /* \"#utility.yul\":21401:21402   */\n      0x00\n        /* \"#utility.yul\":21390:21399   */\n      dup4\n        /* \"#utility.yul\":21386:21403   */\n      add\n        /* \"#utility.yul\":21379:21426   */\n      mstore\n        /* \"#utility.yul\":21443:21574   */\n      tag_491\n        /* \"#utility.yul\":21569:21573   */\n      dup2\n        /* \"#utility.yul\":21443:21574   */\n      tag_297\n      jump\t// in\n    tag_491:\n        /* \"#utility.yul\":21435:21574   */\n      swap1\n      pop\n        /* \"#utility.yul\":21162:21581   */\n      swap2\n      swap1\n      pop\n      jump\t// out\n        /* \"#utility.yul\":21587:21781   */\n    tag_206:\n        /* \"#utility.yul\":21627:21631   */\n      0x00\n        /* \"#utility.yul\":21647:21667   */\n      tag_493\n        /* \"#utility.yul\":21665:21666   */\n      dup3\n        /* \"#utility.yul\":21647:21667   */\n      tag_260\n      jump\t// in\n    tag_493:\n        /* \"#utility.yul\":21642:21667   */\n      swap2\n      pop\n        /* \"#utility.yul\":21681:21701   */\n      tag_494\n        /* \"#utility.yul\":21699:21700   */\n      dup4\n        /* \"#utility.yul\":21681:21701   */\n      tag_260\n      jump\t// in\n    tag_494:\n        /* \"#utility.yul\":21676:21701   */\n      swap3\n      pop\n        /* \"#utility.yul\":21725:21726   */\n      dup3\n        /* \"#utility.yul\":21722:21723   */\n      dup3\n        /* \"#utility.yul\":21718:21727   */\n      sub\n        /* \"#utility.yul\":21710:21727   */\n      swap1\n      pop\n        /* \"#utility.yul\":21749:21750   */\n      dup2\n        /* \"#utility.yul\":21743:21747   */\n      dup2\n        /* \"#utility.yul\":21740:21751   */\n      gt\n        /* \"#utility.yul\":21737:21774   */\n      iszero\n      tag_495\n      jumpi\n        /* \"#utility.yul\":21754:21772   */\n      tag_496\n      tag_274\n      jump\t// in\n    tag_496:\n        /* \"#utility.yul\":21737:21774   */\n    tag_495:\n        /* \"#utility.yul\":21587:21781   */\n      swap3\n      swap2\n      pop\n      pop\n      jump\t// out\n        /* \"#utility.yul\":21787:21962   */\n    tag_298:\n        /* \"#utility.yul\":21927:21954   */\n      0x45524332304361707065643a2063617020657863656564656400000000000000\n        /* \"#utility.yul\":21923:21924   */\n      0x00\n        /* \"#utility.yul\":21915:21921   */\n      dup3\n        /* \"#utility.yul\":21911:21925   */\n      add\n        /* \"#utility.yul\":21904:21955   */\n      mstore\n        /* \"#utility.yul\":21787:21962   */\n      pop\n      jump\t// out\n        /* \"#utility.yul\":21968:22334   */\n    tag_299:\n        /* \"#utility.yul\":22110:22113   */\n      0x00\n        /* \"#utility.yul\":22131:22198   */\n      tag_499\n        /* \"#utility.yul\":22195:22197   */\n      0x19\n        /* \"#utility.yul\":22190:22193   */\n      dup4\n        /* \"#utility.yul\":22131:22198   */\n      tag_249\n      jump\t// in\n    tag_499:\n        /* \"#utility.yul\":22124:22198   */\n      swap2\n      pop\n        /* \"#utility.yul\":22207:22300   */\n      tag_500\n        /* \"#utility.yul\":22296:22299   */\n      dup3\n        /* \"#utility.yul\":22207:22300   */\n      tag_298\n      jump\t// in\n    tag_500:\n        /* \"#utility.yul\":22325:22327   */\n      0x20\n        /* \"#utility.yul\":22320:22323   */\n      dup3\n        /* \"#utility.yul\":22316:22328   */\n      add\n        /* \"#utility.yul\":22309:22328   */\n      swap1\n      pop\n        /* \"#utility.yul\":21968:22334   */\n      swap2\n      swap1\n      pop\n      jump\t// out\n        /* \"#utility.yul\":22340:22759   */\n    tag_228:\n        /* \"#utility.yul\":22506:22510   */\n      0x00\n        /* \"#utility.yul\":22544:22546   */\n      0x20\n        /* \"#utility.yul\":22533:22542   */\n      dup3\n        /* \"#utility.yul\":22529:22547   */\n      add\n        /* \"#utility.yul\":22521:22547   */\n      swap1\n      pop\n        /* \"#utility.yul\":22593:22602   */\n      dup2\n        /* \"#utility.yul\":22587:22591   */\n      dup2\n        /* \"#utility.yul\":22583:22603   */\n      sub\n        /* \"#utility.yul\":22579:22580   */\n      0x00\n        /* \"#utility.yul\":22568:22577   */\n      dup4\n        /* \"#utility.yul\":22564:22581   */\n      add\n        /* \"#utility.yul\":22557:22604   */\n      mstore\n        /* \"#utility.yul\":22621:22752   */\n      tag_502\n        /* \"#utility.yul\":22747:22751   */\n      dup2\n        /* \"#utility.yul\":22621:22752   */\n      tag_299\n      jump\t// in\n    tag_502:\n        /* \"#utility.yul\":22613:22752   */\n      swap1\n      pop\n        /* \"#utility.yul\":22340:22759   */\n      swap2\n      swap1\n      pop\n      jump\t// out\n        /* \"#utility.yul\":22765:22946   */\n    tag_300:\n        /* \"#utility.yul\":22905:22938   */\n      0x45524332303a206d696e7420746f20746865207a65726f206164647265737300\n        /* \"#utility.yul\":22901:22902   */\n      0x00\n        /* \"#utility.yul\":22893:22899   */\n      dup3\n        /* \"#utility.yul\":22889:22903   */\n      add\n        /* \"#utility.yul\":22882:22939   */\n      mstore\n        /* \"#utility.yul\":22765:22946   */\n      pop\n      jump\t// out\n        /* \"#utility.yul\":22952:23318   */\n    tag_301:\n        /* \"#utility.yul\":23094:23097   */\n      0x00\n        /* \"#utility.yul\":23115:23182   */\n      tag_505\n        /* \"#utility.yul\":23179:23181   */\n      0x1f\n        /* \"#utility.yul\":23174:23177   */\n      dup4\n        /* \"#utility.yul\":23115:23182   */\n      tag_249\n      jump\t// in\n    tag_505:\n        /* \"#utility.yul\":23108:23182   */\n      swap2\n      pop\n        /* \"#utility.yul\":23191:23284   */\n      tag_506\n        /* \"#utility.yul\":23280:23283   */\n      dup3\n        /* \"#utility.yul\":23191:23284   */\n      tag_300\n      jump\t// in\n    tag_506:\n        /* \"#utility.yul\":23309:23311   */\n      0x20\n        /* \"#utility.yul\":23304:23307   */\n      dup3\n        /* \"#utility.yul\":23300:23312   */\n      add\n        /* \"#utility.yul\":23293:23312   */\n      swap1\n      pop\n        /* \"#utility.yul\":22952:23318   */\n      swap2\n      swap1\n      pop\n      jump\t// out\n        /* \"#utility.yul\":23324:23743   */\n    tag_242:\n        /* \"#utility.yul\":23490:23494   */\n      0x00\n        /* \"#utility.yul\":23528:23530   */\n      0x20\n        /* \"#utility.yul\":23517:23526   */\n      dup3\n        /* \"#utility.yul\":23513:23531   */\n      add\n        /* \"#utility.yul\":23505:23531   */\n      swap1\n      pop\n        /* \"#utility.yul\":23577:23586   */\n      dup2\n        /* \"#utility.yul\":23571:23575   */\n      dup2\n        /* \"#utility.yul\":23567:23587   */\n      sub\n        /* \"#utility.yul\":23563:23564   */\n      0x00\n        /* \"#utility.yul\":23552:23561   */\n      dup4\n        /* \"#utility.yul\":23548:23565   */\n      add\n        /* \"#utility.yul\":23541:23588   */\n      mstore\n        /* \"#utility.yul\":23605:23736   */\n      tag_508\n        /* \"#utility.yul\":23731:23735   */\n      dup2\n        /* \"#utility.yul\":23605:23736   */\n      tag_301\n      jump\t// in\n    tag_508:\n        /* \"#utility.yul\":23597:23736   */\n      swap1\n      pop\n        /* \"#utility.yul\":23324:23743   */\n      swap2\n      swap1\n      pop\n      jump\t// out\n\n    auxdata: 0xa2646970667358221220bcd0cd5ab2451b977202c3c4a47150fd066a9dfb925638c438dc1b91b65f21c264736f6c634300081a0033\n}\n",
				"bytecode": {
					"linkReferences": {},
					"object": "60a060405234801561000f575f80fd5b50604051612ca3380380612ca38339818101604052810190610031919061056d565b61003f6101d960201b60201c565b600a61004b9190610713565b82610056919061075d565b6040518060400160405280600e81526020017f47656f4e6578757320546f6b656e0000000000000000000000000000000000008152506040518060400160405280600381526020017f474e54000000000000000000000000000000000000000000000000000000000081525081600390816100d191906109cf565b5080600490816100e191906109cf565b5050505f8111610126576040517f08c379a000000000000000000000000000000000000000000000000000000000815260040161011d90610af8565b60405180910390fd5b806080818152505050610167336101416101d960201b60201c565b600a61014d9190610713565b63041cdb4061015c919061075d565b6101e160201b60201c565b3360055f6101000a81548173ffffffffffffffffffffffffffffffffffffffff021916908373ffffffffffffffffffffffffffffffffffffffff1602179055506101b56101d960201b60201c565b600a6101c19190610713565b816101cc919061075d565b6006819055505050610c41565b5f6012905090565b6101ef61025d60201b60201c565b816101fe61026660201b60201c565b6102089190610b16565b1115610249576040517f08c379a000000000000000000000000000000000000000000000000000000000815260040161024090610b93565b60405180910390fd5b610259828261026f60201b60201c565b5050565b5f608051905090565b5f600254905090565b61027d61025d60201b60201c565b8161028c61026660201b60201c565b6102969190610b16565b11156102d7576040517f08c379a00000000000000000000000000000000000000000000000000000000081526004016102ce90610b93565b60405180910390fd5b6102e782826102eb60201b60201c565b5050565b5f73ffffffffffffffffffffffffffffffffffffffff168273ffffffffffffffffffffffffffffffffffffffff1603610359576040517f08c379a000000000000000000000000000000000000000000000000000000000815260040161035090610bfb565b60405180910390fd5b61036a5f838361044e60201b60201c565b8060025f82825461037b9190610b16565b92505081905550805f808473ffffffffffffffffffffffffffffffffffffffff1673ffffffffffffffffffffffffffffffffffffffff1681526020019081526020015f205f8282546103cd9190610b16565b925050819055508173ffffffffffffffffffffffffffffffffffffffff165f73ffffffffffffffffffffffffffffffffffffffff167fddf252ad1be2c89b69c2b068fc378daa952ba7f163c4a11628f55a4df523b3ef836040516104319190610c28565b60405180910390a361044a5f838361051860201b60201c565b5050565b5f73ffffffffffffffffffffffffffffffffffffffff168373ffffffffffffffffffffffffffffffffffffffff16141580156104b657504173ffffffffffffffffffffffffffffffffffffffff168273ffffffffffffffffffffffffffffffffffffffff1614155b80156104ee57505f73ffffffffffffffffffffffffffffffffffffffff164173ffffffffffffffffffffffffffffffffffffffff1614155b156105025761050161051d60201b60201c565b5b61051383838361053160201b60201c565b505050565b505050565b61052f416006546101e160201b60201c565b565b505050565b5f80fd5b5f819050919050565b61054c8161053a565b8114610556575f80fd5b50565b5f8151905061056781610543565b92915050565b5f806040838503121561058357610582610536565b5b5f61059085828601610559565b92505060206105a185828601610559565b9150509250929050565b7f4e487b71000000000000000000000000000000000000000000000000000000005f52601160045260245ffd5b5f8160011c9050919050565b5f808291508390505b600185111561062d57808604811115610609576106086105ab565b5b60018516156106185780820291505b8081029050610626856105d8565b94506105ed565b94509492505050565b5f826106455760019050610700565b81610652575f9050610700565b81600181146106685760028114610672576106a1565b6001915050610700565b60ff841115610684576106836105ab565b5b8360020a91508482111561069b5761069a6105ab565b5b50610700565b5060208310610133831016604e8410600b84101617156106d65782820a9050838111156106d1576106d06105ab565b5b610700565b6106e384848460016105e4565b925090508184048111156106fa576106f96105ab565b5b81810290505b9392505050565b5f60ff82169050919050565b5f61071d8261053a565b915061072883610707565b92506107557fffffffffffffffffffffffffffffffffffffffffffffffffffffffffffffffff8484610636565b905092915050565b5f6107678261053a565b91506107728361053a565b92508282026107808161053a565b91508282048414831517610797576107966105ab565b5b5092915050565b5f81519050919050565b7f4e487b71000000000000000000000000000000000000000000000000000000005f52604160045260245ffd5b7f4e487b71000000000000000000000000000000000000000000000000000000005f52602260045260245ffd5b5f600282049050600182168061081957607f821691505b60208210810361082c5761082b6107d5565b5b50919050565b5f819050815f5260205f209050919050565b5f6020601f8301049050919050565b5f82821b905092915050565b5f6008830261088e7fffffffffffffffffffffffffffffffffffffffffffffffffffffffffffffffff82610853565b6108988683610853565b95508019841693508086168417925050509392505050565b5f819050919050565b5f6108d36108ce6108c98461053a565b6108b0565b61053a565b9050919050565b5f819050919050565b6108ec836108b9565b6109006108f8826108da565b84845461085f565b825550505050565b5f90565b610914610908565b61091f8184846108e3565b505050565b5b81811015610942576109375f8261090c565b600181019050610925565b5050565b601f8211156109875761095881610832565b61096184610844565b81016020851015610970578190505b61098461097c85610844565b830182610924565b50505b505050565b5f82821c905092915050565b5f6109a75f198460080261098c565b1980831691505092915050565b5f6109bf8383610998565b9150826002028217905092915050565b6109d88261079e565b67ffffffffffffffff8111156109f1576109f06107a8565b5b6109fb8254610802565b610a06828285610946565b5f60209050601f831160018114610a37575f8415610a25578287015190505b610a2f85826109b4565b865550610a96565b601f198416610a4586610832565b5f5b82811015610a6c57848901518255600182019150602085019450602081019050610a47565b86831015610a895784890151610a85601f891682610998565b8355505b6001600288020188555050505b505050505050565b5f82825260208201905092915050565b7f45524332304361707065643a20636170206973203000000000000000000000005f82015250565b5f610ae2601583610a9e565b9150610aed82610aae565b602082019050919050565b5f6020820190508181035f830152610b0f81610ad6565b9050919050565b5f610b208261053a565b9150610b2b8361053a565b9250828201905080821115610b4357610b426105ab565b5b92915050565b7f45524332304361707065643a20636170206578636565646564000000000000005f82015250565b5f610b7d601983610a9e565b9150610b8882610b49565b602082019050919050565b5f6020820190508181035f830152610baa81610b71565b9050919050565b7f45524332303a206d696e7420746f20746865207a65726f2061646472657373005f82015250565b5f610be5601f83610a9e565b9150610bf082610bb1565b602082019050919050565b5f6020820190508181035f830152610c1281610bd9565b9050919050565b610c228161053a565b82525050565b5f602082019050610c3b5f830184610c19565b92915050565b60805161204a610c595f395f610639015261204a5ff3fe608060405234801561000f575f80fd5b5060043610610114575f3560e01c806342966c68116100a057806395d89b411161006f57806395d89b41146102f2578063a457c2d714610310578063a9059cbb14610340578063dd62ed3e14610370578063f89d4086146103a057610114565b806342966c681461026e5780636b55e9911461028a57806370a08231146102a657806379cc6790146102d657610114565b80631a18e707116100e75780631a18e707146101a257806323b872dd146101d2578063313ce56714610202578063355274ea14610220578063395093511461023e57610114565b806306fdde0314610118578063095ea7b3146101365780630ac168a11461016657806318160ddd14610184575b5f80fd5b6101206103be565b60405161012d91906113b8565b60405180910390f35b610150600480360381019061014b9190611469565b61044e565b60405161015d91906114c1565b60405180910390f35b61016e61046b565b60405161017b91906114e9565b60405180910390f35b61018c610471565b60405161019991906114e9565b60405180910390f35b6101bc60048036038101906101b79190611502565b61047a565b6040516101c991906114e9565b60405180910390f35b6101ec60048036038101906101e7919061152d565b61053c565b6040516101f991906114c1565b60405180910390f35b61020a61062e565b6040516102179190611598565b60405180910390f35b610228610636565b60405161023591906114e9565b60405180910390f35b61025860048036038101906102539190611469565b61065d565b60405161026591906114c1565b60405180910390f35b61028860048036038101906102839190611502565b610704565b005b6102a4600480360381019061029f91906115ec565b610718565b005b6102c060048036038101906102bb9190611617565b61075f565b6040516102cd91906114e9565b60405180910390f35b6102f060048036038101906102eb9190611469565b6107a4565b005b6102fa61081e565b60405161030791906113b8565b60405180910390f35b61032a60048036038101906103259190611469565b6108ae565b60405161033791906114c1565b60405180910390f35b61035a60048036038101906103559190611469565b610994565b60405161036791906114c1565b60405180910390f35b61038a60048036038101906103859190611642565b6109b1565b60405161039791906114e9565b60405180910390f35b6103a8610a33565b6040516103b591906114e9565b60405180910390f35b6060600380546103cd906116ad565b80601f01602080910402602001604051908101604052809291908181526020018280546103f9906116ad565b80156104445780601f1061041b57610100808354040283529160200191610444565b820191905f5260205f20905b81548152906001019060200180831161042757829003601f168201915b5050505050905090565b5f61046161045a610a3c565b8484610a43565b6001905092915050565b60065481565b5f600254905090565b5f610483610a3c565b73ffffffffffffffffffffffffffffffffffffffff1660055f9054906101000a900473ffffffffffffffffffffffffffffffffffffffff1673ffffffffffffffffffffffffffffffffffffffff1614610511576040517f08c379a00000000000000000000000000000000000000000000000000000000081526004016105089061174d565b60405180910390fd5b61051961062e565b600a61052591906118c7565b826105309190611911565b60068190559050919050565b5f610548848484610c06565b5f60015f8673ffffffffffffffffffffffffffffffffffffffff1673ffffffffffffffffffffffffffffffffffffffff1681526020019081526020015f205f61058f610a3c565b73ffffffffffffffffffffffffffffffffffffffff1673ffffffffffffffffffffffffffffffffffffffff1681526020019081526020015f205490508281101561060e576040517f08c379a0000000000000000000000000000000000000000000000000000000008152600401610605906119c2565b60405180910390fd5b6106228561061a610a3c565b858403610a43565b60019150509392505050565b5f6012905090565b5f7f0000000000000000000000000000000000000000000000000000000000000000905090565b5f6106fa610669610a3c565b848460015f610676610a3c565b73ffffffffffffffffffffffffffffffffffffffff1673ffffffffffffffffffffffffffffffffffffffff1681526020019081526020015f205f8873ffffffffffffffffffffffffffffffffffffffff1673ffffffffffffffffffffffffffffffffffffffff1681526020019081526020015f20546106f591906119e0565b610a43565b6001905092915050565b61071561070f610a3c565b82610e7b565b50565b8073ffffffffffffffffffffffffffffffffffffffff166108fc4790811502906040515f60405180830381858888f1935050505015801561075b573d5f803e3d5ffd5b5050565b5f805f8373ffffffffffffffffffffffffffffffffffffffff1673ffffffffffffffffffffffffffffffffffffffff1681526020019081526020015f20549050919050565b5f6107b6836107b1610a3c565b6109b1565b9050818110156107fb576040517f08c379a00000000000000000000000000000000000000000000000000000000081526004016107f290611a83565b60405180910390fd5b61080f83610807610a3c565b848403610a43565b6108198383610e7b565b505050565b60606004805461082d906116ad565b80601f0160208091040260200160405190810160405280929190818152602001828054610859906116ad565b80156108a45780601f1061087b576101008083540402835291602001916108a4565b820191905f5260205f20905b81548152906001019060200180831161088757829003601f168201915b5050505050905090565b5f8060015f6108bb610a3c565b73ffffffffffffffffffffffffffffffffffffffff1673ffffffffffffffffffffffffffffffffffffffff1681526020019081526020015f205f8573ffffffffffffffffffffffffffffffffffffffff1673ffffffffffffffffffffffffffffffffffffffff1681526020019081526020015f2054905082811015610975576040517f08c379a000000000000000000000000000000000000000000000000000000000815260040161096c90611b11565b60405180910390fd5b610989610980610a3c565b85858403610a43565b600191505092915050565b5f6109a76109a0610a3c565b8484610c06565b6001905092915050565b5f60015f8473ffffffffffffffffffffffffffffffffffffffff1673ffffffffffffffffffffffffffffffffffffffff1681526020019081526020015f205f8373ffffffffffffffffffffffffffffffffffffffff1673ffffffffffffffffffffffffffffffffffffffff1681526020019081526020015f2054905092915050565b5f600654905090565b5f33905090565b5f73ffffffffffffffffffffffffffffffffffffffff168373ffffffffffffffffffffffffffffffffffffffff1603610ab1576040517f08c379a0000000000000000000000000000000000000000000000000000000008152600401610aa890611b9f565b60405180910390fd5b5f73ffffffffffffffffffffffffffffffffffffffff168273ffffffffffffffffffffffffffffffffffffffff1603610b1f576040517f08c379a0000000000000000000000000000000000000000000000000000000008152600401610b1690611c2d565b60405180910390fd5b8060015f8573ffffffffffffffffffffffffffffffffffffffff1673ffffffffffffffffffffffffffffffffffffffff1681526020019081526020015f205f8473ffffffffffffffffffffffffffffffffffffffff1673ffffffffffffffffffffffffffffffffffffffff1681526020019081526020015f20819055508173ffffffffffffffffffffffffffffffffffffffff168373ffffffffffffffffffffffffffffffffffffffff167f8c5be1e5ebec7d5bd14f71427d1e84f3dd0314c0f7b2291e5b200ac8c7c3b92583604051610bf991906114e9565b60405180910390a3505050565b5f73ffffffffffffffffffffffffffffffffffffffff168373ffffffffffffffffffffffffffffffffffffffff1603610c74576040517f08c379a0000000000000000000000000000000000000000000000000000000008152600401610c6b90611cbb565b60405180910390fd5b5f73ffffffffffffffffffffffffffffffffffffffff168273ffffffffffffffffffffffffffffffffffffffff1603610ce2576040517f08c379a0000000000000000000000000000000000000000000000000000000008152600401610cd990611d49565b60405180910390fd5b610ced838383611047565b5f805f8573ffffffffffffffffffffffffffffffffffffffff1673ffffffffffffffffffffffffffffffffffffffff1681526020019081526020015f2054905081811015610d70576040517f08c379a0000000000000000000000000000000000000000000000000000000008152600401610d6790611dd7565b60405180910390fd5b8181035f808673ffffffffffffffffffffffffffffffffffffffff1673ffffffffffffffffffffffffffffffffffffffff1681526020019081526020015f2081905550815f808573ffffffffffffffffffffffffffffffffffffffff1673ffffffffffffffffffffffffffffffffffffffff1681526020019081526020015f205f828254610dfe91906119e0565b925050819055508273ffffffffffffffffffffffffffffffffffffffff168473ffffffffffffffffffffffffffffffffffffffff167fddf252ad1be2c89b69c2b068fc378daa952ba7f163c4a11628f55a4df523b3ef84604051610e6291906114e9565b60405180910390a3610e75848484611105565b50505050565b5f73ffffffffffffffffffffffffffffffffffffffff168273ffffffffffffffffffffffffffffffffffffffff1603610ee9576040517f08c379a0000000000000000000000000000000000000000000000000000000008152600401610ee090611e65565b60405180910390fd5b610ef4825f83611047565b5f805f8473ffffffffffffffffffffffffffffffffffffffff1673ffffffffffffffffffffffffffffffffffffffff1681526020019081526020015f2054905081811015610f77576040517f08c379a0000000000000000000000000000000000000000000000000000000008152600401610f6e90611ef3565b60405180910390fd5b8181035f808573ffffffffffffffffffffffffffffffffffffffff1673ffffffffffffffffffffffffffffffffffffffff1681526020019081526020015f20819055508160025f828254610fcb9190611f11565b925050819055505f73ffffffffffffffffffffffffffffffffffffffff168373ffffffffffffffffffffffffffffffffffffffff167fddf252ad1be2c89b69c2b068fc378daa952ba7f163c4a11628f55a4df523b3ef8460405161102f91906114e9565b60405180910390a3611042835f84611105565b505050565b5f73ffffffffffffffffffffffffffffffffffffffff168373ffffffffffffffffffffffffffffffffffffffff16141580156110af57504173ffffffffffffffffffffffffffffffffffffffff168273ffffffffffffffffffffffffffffffffffffffff1614155b80156110e757505f73ffffffffffffffffffffffffffffffffffffffff164173ffffffffffffffffffffffffffffffffffffffff1614155b156110f5576110f461110a565b5b611100838383611118565b505050565b505050565b6111164160065461111d565b565b505050565b611125610636565b8161112e610471565b61113891906119e0565b1115611179576040517f08c379a000000000000000000000000000000000000000000000000000000000815260040161117090611f8e565b60405180910390fd5b6111838282611187565b5050565b61118f610636565b81611198610471565b6111a291906119e0565b11156111e3576040517f08c379a00000000000000000000000000000000000000000000000000000000081526004016111da90611f8e565b60405180910390fd5b6111ed82826111f1565b5050565b5f73ffffffffffffffffffffffffffffffffffffffff168273ffffffffffffffffffffffffffffffffffffffff160361125f576040517f08c379a000000000000000000000000000000000000000000000000000000000815260040161125690611ff6565b60405180910390fd5b61126a5f8383611047565b8060025f82825461127b91906119e0565b92505081905550805f808473ffffffffffffffffffffffffffffffffffffffff1673ffffffffffffffffffffffffffffffffffffffff1681526020019081526020015f205f8282546112cd91906119e0565b925050819055508173ffffffffffffffffffffffffffffffffffffffff165f73ffffffffffffffffffffffffffffffffffffffff167fddf252ad1be2c89b69c2b068fc378daa952ba7f163c4a11628f55a4df523b3ef8360405161133191906114e9565b60405180910390a36113445f8383611105565b5050565b5f81519050919050565b5f82825260208201905092915050565b8281835e5f83830152505050565b5f601f19601f8301169050919050565b5f61138a82611348565b6113948185611352565b93506113a4818560208601611362565b6113ad81611370565b840191505092915050565b5f6020820190508181035f8301526113d08184611380565b905092915050565b5f80fd5b5f73ffffffffffffffffffffffffffffffffffffffff82169050919050565b5f611405826113dc565b9050919050565b611415816113fb565b811461141f575f80fd5b50565b5f813590506114308161140c565b92915050565b5f819050919050565b61144881611436565b8114611452575f80fd5b50565b5f813590506114638161143f565b92915050565b5f806040838503121561147f5761147e6113d8565b5b5f61148c85828601611422565b925050602061149d85828601611455565b9150509250929050565b5f8115159050919050565b6114bb816114a7565b82525050565b5f6020820190506114d45f8301846114b2565b92915050565b6114e381611436565b82525050565b5f6020820190506114fc5f8301846114da565b92915050565b5f60208284031215611517576115166113d8565b5b5f61152484828501611455565b91505092915050565b5f805f60608486031215611544576115436113d8565b5b5f61155186828701611422565b935050602061156286828701611422565b925050604061157386828701611455565b9150509250925092565b5f60ff82169050919050565b6115928161157d565b82525050565b5f6020820190506115ab5f830184611589565b92915050565b5f6115bb826113dc565b9050919050565b6115cb816115b1565b81146115d5575f80fd5b50565b5f813590506115e6816115c2565b92915050565b5f60208284031215611601576116006113d8565b5b5f61160e848285016115d8565b91505092915050565b5f6020828403121561162c5761162b6113d8565b5b5f61163984828501611422565b91505092915050565b5f8060408385031215611658576116576113d8565b5b5f61166585828601611422565b925050602061167685828601611422565b9150509250929050565b7f4e487b71000000000000000000000000000000000000000000000000000000005f52602260045260245ffd5b5f60028204905060018216806116c457607f821691505b6020821081036116d7576116d6611680565b5b50919050565b7f4f776e61626c653a204f6e6c79204f776e65722043616e204d6f6469666965205f8201527f5468697300000000000000000000000000000000000000000000000000000000602082015250565b5f611737602483611352565b9150611742826116dd565b604082019050919050565b5f6020820190508181035f8301526117648161172b565b9050919050565b7f4e487b71000000000000000000000000000000000000000000000000000000005f52601160045260245ffd5b5f8160011c9050919050565b5f808291508390505b60018511156117ed578086048111156117c9576117c861176b565b5b60018516156117d85780820291505b80810290506117e685611798565b94506117ad565b94509492505050565b5f8261180557600190506118c0565b81611812575f90506118c0565b8160018114611828576002811461183257611861565b60019150506118c0565b60ff8411156118445761184361176b565b5b8360020a91508482111561185b5761185a61176b565b5b506118c0565b5060208310610133831016604e8410600b84101617156118965782820a9050838111156118915761189061176b565b5b6118c0565b6118a384848460016117a4565b925090508184048111156118ba576118b961176b565b5b81810290505b9392505050565b5f6118d182611436565b91506118dc8361157d565b92506119097fffffffffffffffffffffffffffffffffffffffffffffffffffffffffffffffff84846117f6565b905092915050565b5f61191b82611436565b915061192683611436565b925082820261193481611436565b9150828204841483151761194b5761194a61176b565b5b5092915050565b7f45524332303a207472616e7366657220616d6f756e74206578636565647320615f8201527f6c6c6f77616e6365000000000000000000000000000000000000000000000000602082015250565b5f6119ac602883611352565b91506119b782611952565b604082019050919050565b5f6020820190508181035f8301526119d9816119a0565b9050919050565b5f6119ea82611436565b91506119f583611436565b9250828201905080821115611a0d57611a0c61176b565b5b92915050565b7f45524332303a206275726e20616d6f756e74206578636565647320616c6c6f775f8201527f616e636500000000000000000000000000000000000000000000000000000000602082015250565b5f611a6d602483611352565b9150611a7882611a13565b604082019050919050565b5f6020820190508181035f830152611a9a81611a61565b9050919050565b7f45524332303a2064656372656173656420616c6c6f77616e63652062656c6f775f8201527f207a65726f000000000000000000000000000000000000000000000000000000602082015250565b5f611afb602583611352565b9150611b0682611aa1565b604082019050919050565b5f6020820190508181035f830152611b2881611aef565b9050919050565b7f45524332303a20617070726f76652066726f6d20746865207a65726f206164645f8201527f7265737300000000000000000000000000000000000000000000000000000000602082015250565b5f611b89602483611352565b9150611b9482611b2f565b604082019050919050565b5f6020820190508181035f830152611bb681611b7d565b9050919050565b7f45524332303a20617070726f766520746f20746865207a65726f2061646472655f8201527f7373000000000000000000000000000000000000000000000000000000000000602082015250565b5f611c17602283611352565b9150611c2282611bbd565b604082019050919050565b5f6020820190508181035f830152611c4481611c0b565b9050919050565b7f45524332303a207472616e736665722066726f6d20746865207a65726f2061645f8201527f6472657373000000000000000000000000000000000000000000000000000000602082015250565b5f611ca5602583611352565b9150611cb082611c4b565b604082019050919050565b5f6020820190508181035f830152611cd281611c99565b9050919050565b7f45524332303a207472616e7366657220746f20746865207a65726f20616464725f8201527f6573730000000000000000000000000000000000000000000000000000000000602082015250565b5f611d33602383611352565b9150611d3e82611cd9565b604082019050919050565b5f6020820190508181035f830152611d6081611d27565b9050919050565b7f45524332303a207472616e7366657220616d6f756e74206578636565647320625f8201527f616c616e63650000000000000000000000000000000000000000000000000000602082015250565b5f611dc1602683611352565b9150611dcc82611d67565b604082019050919050565b5f6020820190508181035f830152611dee81611db5565b9050919050565b7f45524332303a206275726e2066726f6d20746865207a65726f206164647265735f8201527f7300000000000000000000000000000000000000000000000000000000000000602082015250565b5f611e4f602183611352565b9150611e5a82611df5565b604082019050919050565b5f6020820190508181035f830152611e7c81611e43565b9050919050565b7f45524332303a206275726e20616d6f756e7420657863656564732062616c616e5f8201527f6365000000000000000000000000000000000000000000000000000000000000602082015250565b5f611edd602283611352565b9150611ee882611e83565b604082019050919050565b5f6020820190508181035f830152611f0a81611ed1565b9050919050565b5f611f1b82611436565b9150611f2683611436565b9250828203905081811115611f3e57611f3d61176b565b5b92915050565b7f45524332304361707065643a20636170206578636565646564000000000000005f82015250565b5f611f78601983611352565b9150611f8382611f44565b602082019050919050565b5f6020820190508181035f830152611fa581611f6c565b9050919050565b7f45524332303a206d696e7420746f20746865207a65726f2061646472657373005f82015250565b5f611fe0601f83611352565b9150611feb82611fac565b602082019050919050565b5f6020820190508181035f83015261200d81611fd4565b905091905056fea2646970667358221220bcd0cd5ab2451b977202c3c4a47150fd066a9dfb925638c438dc1b91b65f21c264736f6c634300081a0033",
					"opcodes": "PUSH1 0xA0 PUSH1 0x40 MSTORE CALLVALUE DUP1 ISZERO PUSH2 0xF JUMPI PUSH0 DUP1 REVERT JUMPDEST POP PUSH1 0x40 MLOAD PUSH2 0x2CA3 CODESIZE SUB DUP1 PUSH2 0x2CA3 DUP4 CODECOPY DUP2 DUP2 ADD PUSH1 0x40 MSTORE DUP2 ADD SWAP1 PUSH2 0x31 SWAP2 SWAP1 PUSH2 0x56D JUMP JUMPDEST PUSH2 0x3F PUSH2 0x1D9 PUSH1 0x20 SHL PUSH1 0x20 SHR JUMP JUMPDEST PUSH1 0xA PUSH2 0x4B SWAP2 SWAP1 PUSH2 0x713 JUMP JUMPDEST DUP3 PUSH2 0x56 SWAP2 SWAP1 PUSH2 0x75D JUMP JUMPDEST PUSH1 0x40 MLOAD DUP1 PUSH1 0x40 ADD PUSH1 0x40 MSTORE DUP1 PUSH1 0xE DUP2 MSTORE PUSH1 0x20 ADD PUSH32 0x47656F4E6578757320546F6B656E000000000000000000000000000000000000 DUP2 MSTORE POP PUSH1 0x40 MLOAD DUP1 PUSH1 0x40 ADD PUSH1 0x40 MSTORE DUP1 PUSH1 0x3 DUP2 MSTORE PUSH1 0x20 ADD PUSH32 0x474E540000000000000000000000000000000000000000000000000000000000 DUP2 MSTORE POP DUP2 PUSH1 0x3 SWAP1 DUP2 PUSH2 0xD1 SWAP2 SWAP1 PUSH2 0x9CF JUMP JUMPDEST POP DUP1 PUSH1 0x4 SWAP1 DUP2 PUSH2 0xE1 SWAP2 SWAP1 PUSH2 0x9CF JUMP JUMPDEST POP POP POP PUSH0 DUP2 GT PUSH2 0x126 JUMPI PUSH1 0x40 MLOAD PUSH32 0x8C379A000000000000000000000000000000000000000000000000000000000 DUP2 MSTORE PUSH1 0x4 ADD PUSH2 0x11D SWAP1 PUSH2 0xAF8 JUMP JUMPDEST PUSH1 0x40 MLOAD DUP1 SWAP2 SUB SWAP1 REVERT JUMPDEST DUP1 PUSH1 0x80 DUP2 DUP2 MSTORE POP POP POP PUSH2 0x167 CALLER PUSH2 0x141 PUSH2 0x1D9 PUSH1 0x20 SHL PUSH1 0x20 SHR JUMP JUMPDEST PUSH1 0xA PUSH2 0x14D SWAP2 SWAP1 PUSH2 0x713 JUMP JUMPDEST PUSH4 0x41CDB40 PUSH2 0x15C SWAP2 SWAP1 PUSH2 0x75D JUMP JUMPDEST PUSH2 0x1E1 PUSH1 0x20 SHL PUSH1 0x20 SHR JUMP JUMPDEST CALLER PUSH1 0x5 PUSH0 PUSH2 0x100 EXP DUP2 SLOAD DUP2 PUSH20 0xFFFFFFFFFFFFFFFFFFFFFFFFFFFFFFFFFFFFFFFF MUL NOT AND SWAP1 DUP4 PUSH20 0xFFFFFFFFFFFFFFFFFFFFFFFFFFFFFFFFFFFFFFFF AND MUL OR SWAP1 SSTORE POP PUSH2 0x1B5 PUSH2 0x1D9 PUSH1 0x20 SHL PUSH1 0x20 SHR JUMP JUMPDEST PUSH1 0xA PUSH2 0x1C1 SWAP2 SWAP1 PUSH2 0x713 JUMP JUMPDEST DUP2 PUSH2 0x1CC SWAP2 SWAP1 PUSH2 0x75D JUMP JUMPDEST PUSH1 0x6 DUP2 SWAP1 SSTORE POP POP POP PUSH2 0xC41 JUMP JUMPDEST PUSH0 PUSH1 0x12 SWAP1 POP SWAP1 JUMP JUMPDEST PUSH2 0x1EF PUSH2 0x25D PUSH1 0x20 SHL PUSH1 0x20 SHR JUMP JUMPDEST DUP2 PUSH2 0x1FE PUSH2 0x266 PUSH1 0x20 SHL PUSH1 0x20 SHR JUMP JUMPDEST PUSH2 0x208 SWAP2 SWAP1 PUSH2 0xB16 JUMP JUMPDEST GT ISZERO PUSH2 0x249 JUMPI PUSH1 0x40 MLOAD PUSH32 0x8C379A000000000000000000000000000000000000000000000000000000000 DUP2 MSTORE PUSH1 0x4 ADD PUSH2 0x240 SWAP1 PUSH2 0xB93 JUMP JUMPDEST PUSH1 0x40 MLOAD DUP1 SWAP2 SUB SWAP1 REVERT JUMPDEST PUSH2 0x259 DUP3 DUP3 PUSH2 0x26F PUSH1 0x20 SHL PUSH1 0x20 SHR JUMP JUMPDEST POP POP JUMP JUMPDEST PUSH0 PUSH1 0x80 MLOAD SWAP1 POP SWAP1 JUMP JUMPDEST PUSH0 PUSH1 0x2 SLOAD SWAP1 POP SWAP1 JUMP JUMPDEST PUSH2 0x27D PUSH2 0x25D PUSH1 0x20 SHL PUSH1 0x20 SHR JUMP JUMPDEST DUP2 PUSH2 0x28C PUSH2 0x266 PUSH1 0x20 SHL PUSH1 0x20 SHR JUMP JUMPDEST PUSH2 0x296 SWAP2 SWAP1 PUSH2 0xB16 JUMP JUMPDEST GT ISZERO PUSH2 0x2D7 JUMPI PUSH1 0x40 MLOAD PUSH32 0x8C379A000000000000000000000000000000000000000000000000000000000 DUP2 MSTORE PUSH1 0x4 ADD PUSH2 0x2CE SWAP1 PUSH2 0xB93 JUMP JUMPDEST PUSH1 0x40 MLOAD DUP1 SWAP2 SUB SWAP1 REVERT JUMPDEST PUSH2 0x2E7 DUP3 DUP3 PUSH2 0x2EB PUSH1 0x20 SHL PUSH1 0x20 SHR JUMP JUMPDEST POP POP JUMP JUMPDEST PUSH0 PUSH20 0xFFFFFFFFFFFFFFFFFFFFFFFFFFFFFFFFFFFFFFFF AND DUP3 PUSH20 0xFFFFFFFFFFFFFFFFFFFFFFFFFFFFFFFFFFFFFFFF AND SUB PUSH2 0x359 JUMPI PUSH1 0x40 MLOAD PUSH32 0x8C379A000000000000000000000000000000000000000000000000000000000 DUP2 MSTORE PUSH1 0x4 ADD PUSH2 0x350 SWAP1 PUSH2 0xBFB JUMP JUMPDEST PUSH1 0x40 MLOAD DUP1 SWAP2 SUB SWAP1 REVERT JUMPDEST PUSH2 0x36A PUSH0 DUP4 DUP4 PUSH2 0x44E PUSH1 0x20 SHL PUSH1 0x20 SHR JUMP JUMPDEST DUP1 PUSH1 0x2 PUSH0 DUP3 DUP3 SLOAD PUSH2 0x37B SWAP2 SWAP1 PUSH2 0xB16 JUMP JUMPDEST SWAP3 POP POP DUP2 SWAP1 SSTORE POP DUP1 PUSH0 DUP1 DUP5 PUSH20 0xFFFFFFFFFFFFFFFFFFFFFFFFFFFFFFFFFFFFFFFF AND PUSH20 0xFFFFFFFFFFFFFFFFFFFFFFFFFFFFFFFFFFFFFFFF AND DUP2 MSTORE PUSH1 0x20 ADD SWAP1 DUP2 MSTORE PUSH1 0x20 ADD PUSH0 KECCAK256 PUSH0 DUP3 DUP3 SLOAD PUSH2 0x3CD SWAP2 SWAP1 PUSH2 0xB16 JUMP JUMPDEST SWAP3 POP POP DUP2 SWAP1 SSTORE POP DUP2 PUSH20 0xFFFFFFFFFFFFFFFFFFFFFFFFFFFFFFFFFFFFFFFF AND PUSH0 PUSH20 0xFFFFFFFFFFFFFFFFFFFFFFFFFFFFFFFFFFFFFFFF AND PUSH32 0xDDF252AD1BE2C89B69C2B068FC378DAA952BA7F163C4A11628F55A4DF523B3EF DUP4 PUSH1 0x40 MLOAD PUSH2 0x431 SWAP2 SWAP1 PUSH2 0xC28 JUMP JUMPDEST PUSH1 0x40 MLOAD DUP1 SWAP2 SUB SWAP1 LOG3 PUSH2 0x44A PUSH0 DUP4 DUP4 PUSH2 0x518 PUSH1 0x20 SHL PUSH1 0x20 SHR JUMP JUMPDEST POP POP JUMP JUMPDEST PUSH0 PUSH20 0xFFFFFFFFFFFFFFFFFFFFFFFFFFFFFFFFFFFFFFFF AND DUP4 PUSH20 0xFFFFFFFFFFFFFFFFFFFFFFFFFFFFFFFFFFFFFFFF AND EQ ISZERO DUP1 ISZERO PUSH2 0x4B6 JUMPI POP COINBASE PUSH20 0xFFFFFFFFFFFFFFFFFFFFFFFFFFFFFFFFFFFFFFFF AND DUP3 PUSH20 0xFFFFFFFFFFFFFFFFFFFFFFFFFFFFFFFFFFFFFFFF AND EQ ISZERO JUMPDEST DUP1 ISZERO PUSH2 0x4EE JUMPI POP PUSH0 PUSH20 0xFFFFFFFFFFFFFFFFFFFFFFFFFFFFFFFFFFFFFFFF AND COINBASE PUSH20 0xFFFFFFFFFFFFFFFFFFFFFFFFFFFFFFFFFFFFFFFF AND EQ ISZERO JUMPDEST ISZERO PUSH2 0x502 JUMPI PUSH2 0x501 PUSH2 0x51D PUSH1 0x20 SHL PUSH1 0x20 SHR JUMP JUMPDEST JUMPDEST PUSH2 0x513 DUP4 DUP4 DUP4 PUSH2 0x531 PUSH1 0x20 SHL PUSH1 0x20 SHR JUMP JUMPDEST POP POP POP JUMP JUMPDEST POP POP POP JUMP JUMPDEST PUSH2 0x52F COINBASE PUSH1 0x6 SLOAD PUSH2 0x1E1 PUSH1 0x20 SHL PUSH1 0x20 SHR JUMP JUMPDEST JUMP JUMPDEST POP POP POP JUMP JUMPDEST PUSH0 DUP1 REVERT JUMPDEST PUSH0 DUP2 SWAP1 POP SWAP2 SWAP1 POP JUMP JUMPDEST PUSH2 0x54C DUP2 PUSH2 0x53A JUMP JUMPDEST DUP2 EQ PUSH2 0x556 JUMPI PUSH0 DUP1 REVERT JUMPDEST POP JUMP JUMPDEST PUSH0 DUP2 MLOAD SWAP1 POP PUSH2 0x567 DUP2 PUSH2 0x543 JUMP JUMPDEST SWAP3 SWAP2 POP POP JUMP JUMPDEST PUSH0 DUP1 PUSH1 0x40 DUP4 DUP6 SUB SLT ISZERO PUSH2 0x583 JUMPI PUSH2 0x582 PUSH2 0x536 JUMP JUMPDEST JUMPDEST PUSH0 PUSH2 0x590 DUP6 DUP3 DUP7 ADD PUSH2 0x559 JUMP JUMPDEST SWAP3 POP POP PUSH1 0x20 PUSH2 0x5A1 DUP6 DUP3 DUP7 ADD PUSH2 0x559 JUMP JUMPDEST SWAP2 POP POP SWAP3 POP SWAP3 SWAP1 POP JUMP JUMPDEST PUSH32 0x4E487B7100000000000000000000000000000000000000000000000000000000 PUSH0 MSTORE PUSH1 0x11 PUSH1 0x4 MSTORE PUSH1 0x24 PUSH0 REVERT JUMPDEST PUSH0 DUP2 PUSH1 0x1 SHR SWAP1 POP SWAP2 SWAP1 POP JUMP JUMPDEST PUSH0 DUP1 DUP3 SWAP2 POP DUP4 SWAP1 POP JUMPDEST PUSH1 0x1 DUP6 GT ISZERO PUSH2 0x62D JUMPI DUP1 DUP7 DIV DUP2 GT ISZERO PUSH2 0x609 JUMPI PUSH2 0x608 PUSH2 0x5AB JUMP JUMPDEST JUMPDEST PUSH1 0x1 DUP6 AND ISZERO PUSH2 0x618 JUMPI DUP1 DUP3 MUL SWAP2 POP JUMPDEST DUP1 DUP2 MUL SWAP1 POP PUSH2 0x626 DUP6 PUSH2 0x5D8 JUMP JUMPDEST SWAP5 POP PUSH2 0x5ED JUMP JUMPDEST SWAP5 POP SWAP5 SWAP3 POP POP POP JUMP JUMPDEST PUSH0 DUP3 PUSH2 0x645 JUMPI PUSH1 0x1 SWAP1 POP PUSH2 0x700 JUMP JUMPDEST DUP2 PUSH2 0x652 JUMPI PUSH0 SWAP1 POP PUSH2 0x700 JUMP JUMPDEST DUP2 PUSH1 0x1 DUP2 EQ PUSH2 0x668 JUMPI PUSH1 0x2 DUP2 EQ PUSH2 0x672 JUMPI PUSH2 0x6A1 JUMP JUMPDEST PUSH1 0x1 SWAP2 POP POP PUSH2 0x700 JUMP JUMPDEST PUSH1 0xFF DUP5 GT ISZERO PUSH2 0x684 JUMPI PUSH2 0x683 PUSH2 0x5AB JUMP JUMPDEST JUMPDEST DUP4 PUSH1 0x2 EXP SWAP2 POP DUP5 DUP3 GT ISZERO PUSH2 0x69B JUMPI PUSH2 0x69A PUSH2 0x5AB JUMP JUMPDEST JUMPDEST POP PUSH2 0x700 JUMP JUMPDEST POP PUSH1 0x20 DUP4 LT PUSH2 0x133 DUP4 LT AND PUSH1 0x4E DUP5 LT PUSH1 0xB DUP5 LT AND OR ISZERO PUSH2 0x6D6 JUMPI DUP3 DUP3 EXP SWAP1 POP DUP4 DUP2 GT ISZERO PUSH2 0x6D1 JUMPI PUSH2 0x6D0 PUSH2 0x5AB JUMP JUMPDEST JUMPDEST PUSH2 0x700 JUMP JUMPDEST PUSH2 0x6E3 DUP5 DUP5 DUP5 PUSH1 0x1 PUSH2 0x5E4 JUMP JUMPDEST SWAP3 POP SWAP1 POP DUP2 DUP5 DIV DUP2 GT ISZERO PUSH2 0x6FA JUMPI PUSH2 0x6F9 PUSH2 0x5AB JUMP JUMPDEST JUMPDEST DUP2 DUP2 MUL SWAP1 POP JUMPDEST SWAP4 SWAP3 POP POP POP JUMP JUMPDEST PUSH0 PUSH1 0xFF DUP3 AND SWAP1 POP SWAP2 SWAP1 POP JUMP JUMPDEST PUSH0 PUSH2 0x71D DUP3 PUSH2 0x53A JUMP JUMPDEST SWAP2 POP PUSH2 0x728 DUP4 PUSH2 0x707 JUMP JUMPDEST SWAP3 POP PUSH2 0x755 PUSH32 0xFFFFFFFFFFFFFFFFFFFFFFFFFFFFFFFFFFFFFFFFFFFFFFFFFFFFFFFFFFFFFFFF DUP5 DUP5 PUSH2 0x636 JUMP JUMPDEST SWAP1 POP SWAP3 SWAP2 POP POP JUMP JUMPDEST PUSH0 PUSH2 0x767 DUP3 PUSH2 0x53A JUMP JUMPDEST SWAP2 POP PUSH2 0x772 DUP4 PUSH2 0x53A JUMP JUMPDEST SWAP3 POP DUP3 DUP3 MUL PUSH2 0x780 DUP2 PUSH2 0x53A JUMP JUMPDEST SWAP2 POP DUP3 DUP3 DIV DUP5 EQ DUP4 ISZERO OR PUSH2 0x797 JUMPI PUSH2 0x796 PUSH2 0x5AB JUMP JUMPDEST JUMPDEST POP SWAP3 SWAP2 POP POP JUMP JUMPDEST PUSH0 DUP2 MLOAD SWAP1 POP SWAP2 SWAP1 POP JUMP JUMPDEST PUSH32 0x4E487B7100000000000000000000000000000000000000000000000000000000 PUSH0 MSTORE PUSH1 0x41 PUSH1 0x4 MSTORE PUSH1 0x24 PUSH0 REVERT JUMPDEST PUSH32 0x4E487B7100000000000000000000000000000000000000000000000000000000 PUSH0 MSTORE PUSH1 0x22 PUSH1 0x4 MSTORE PUSH1 0x24 PUSH0 REVERT JUMPDEST PUSH0 PUSH1 0x2 DUP3 DIV SWAP1 POP PUSH1 0x1 DUP3 AND DUP1 PUSH2 0x819 JUMPI PUSH1 0x7F DUP3 AND SWAP2 POP JUMPDEST PUSH1 0x20 DUP3 LT DUP2 SUB PUSH2 0x82C JUMPI PUSH2 0x82B PUSH2 0x7D5 JUMP JUMPDEST JUMPDEST POP SWAP2 SWAP1 POP JUMP JUMPDEST PUSH0 DUP2 SWAP1 POP DUP2 PUSH0 MSTORE PUSH1 0x20 PUSH0 KECCAK256 SWAP1 POP SWAP2 SWAP1 POP JUMP JUMPDEST PUSH0 PUSH1 0x20 PUSH1 0x1F DUP4 ADD DIV SWAP1 POP SWAP2 SWAP1 POP JUMP JUMPDEST PUSH0 DUP3 DUP3 SHL SWAP1 POP SWAP3 SWAP2 POP POP JUMP JUMPDEST PUSH0 PUSH1 0x8 DUP4 MUL PUSH2 0x88E PUSH32 0xFFFFFFFFFFFFFFFFFFFFFFFFFFFFFFFFFFFFFFFFFFFFFFFFFFFFFFFFFFFFFFFF DUP3 PUSH2 0x853 JUMP JUMPDEST PUSH2 0x898 DUP7 DUP4 PUSH2 0x853 JUMP JUMPDEST SWAP6 POP DUP1 NOT DUP5 AND SWAP4 POP DUP1 DUP7 AND DUP5 OR SWAP3 POP POP POP SWAP4 SWAP3 POP POP POP JUMP JUMPDEST PUSH0 DUP2 SWAP1 POP SWAP2 SWAP1 POP JUMP JUMPDEST PUSH0 PUSH2 0x8D3 PUSH2 0x8CE PUSH2 0x8C9 DUP5 PUSH2 0x53A JUMP JUMPDEST PUSH2 0x8B0 JUMP JUMPDEST PUSH2 0x53A JUMP JUMPDEST SWAP1 POP SWAP2 SWAP1 POP JUMP JUMPDEST PUSH0 DUP2 SWAP1 POP SWAP2 SWAP1 POP JUMP JUMPDEST PUSH2 0x8EC DUP4 PUSH2 0x8B9 JUMP JUMPDEST PUSH2 0x900 PUSH2 0x8F8 DUP3 PUSH2 0x8DA JUMP JUMPDEST DUP5 DUP5 SLOAD PUSH2 0x85F JUMP JUMPDEST DUP3 SSTORE POP POP POP POP JUMP JUMPDEST PUSH0 SWAP1 JUMP JUMPDEST PUSH2 0x914 PUSH2 0x908 JUMP JUMPDEST PUSH2 0x91F DUP2 DUP5 DUP5 PUSH2 0x8E3 JUMP JUMPDEST POP POP POP JUMP JUMPDEST JUMPDEST DUP2 DUP2 LT ISZERO PUSH2 0x942 JUMPI PUSH2 0x937 PUSH0 DUP3 PUSH2 0x90C JUMP JUMPDEST PUSH1 0x1 DUP2 ADD SWAP1 POP PUSH2 0x925 JUMP JUMPDEST POP POP JUMP JUMPDEST PUSH1 0x1F DUP3 GT ISZERO PUSH2 0x987 JUMPI PUSH2 0x958 DUP2 PUSH2 0x832 JUMP JUMPDEST PUSH2 0x961 DUP5 PUSH2 0x844 JUMP JUMPDEST DUP2 ADD PUSH1 0x20 DUP6 LT ISZERO PUSH2 0x970 JUMPI DUP2 SWAP1 POP JUMPDEST PUSH2 0x984 PUSH2 0x97C DUP6 PUSH2 0x844 JUMP JUMPDEST DUP4 ADD DUP3 PUSH2 0x924 JUMP JUMPDEST POP POP JUMPDEST POP POP POP JUMP JUMPDEST PUSH0 DUP3 DUP3 SHR SWAP1 POP SWAP3 SWAP2 POP POP JUMP JUMPDEST PUSH0 PUSH2 0x9A7 PUSH0 NOT DUP5 PUSH1 0x8 MUL PUSH2 0x98C JUMP JUMPDEST NOT DUP1 DUP4 AND SWAP2 POP POP SWAP3 SWAP2 POP POP JUMP JUMPDEST PUSH0 PUSH2 0x9BF DUP4 DUP4 PUSH2 0x998 JUMP JUMPDEST SWAP2 POP DUP3 PUSH1 0x2 MUL DUP3 OR SWAP1 POP SWAP3 SWAP2 POP POP JUMP JUMPDEST PUSH2 0x9D8 DUP3 PUSH2 0x79E JUMP JUMPDEST PUSH8 0xFFFFFFFFFFFFFFFF DUP2 GT ISZERO PUSH2 0x9F1 JUMPI PUSH2 0x9F0 PUSH2 0x7A8 JUMP JUMPDEST JUMPDEST PUSH2 0x9FB DUP3 SLOAD PUSH2 0x802 JUMP JUMPDEST PUSH2 0xA06 DUP3 DUP3 DUP6 PUSH2 0x946 JUMP JUMPDEST PUSH0 PUSH1 0x20 SWAP1 POP PUSH1 0x1F DUP4 GT PUSH1 0x1 DUP2 EQ PUSH2 0xA37 JUMPI PUSH0 DUP5 ISZERO PUSH2 0xA25 JUMPI DUP3 DUP8 ADD MLOAD SWAP1 POP JUMPDEST PUSH2 0xA2F DUP6 DUP3 PUSH2 0x9B4 JUMP JUMPDEST DUP7 SSTORE POP PUSH2 0xA96 JUMP JUMPDEST PUSH1 0x1F NOT DUP5 AND PUSH2 0xA45 DUP7 PUSH2 0x832 JUMP JUMPDEST PUSH0 JUMPDEST DUP3 DUP2 LT ISZERO PUSH2 0xA6C JUMPI DUP5 DUP10 ADD MLOAD DUP3 SSTORE PUSH1 0x1 DUP3 ADD SWAP2 POP PUSH1 0x20 DUP6 ADD SWAP5 POP PUSH1 0x20 DUP2 ADD SWAP1 POP PUSH2 0xA47 JUMP JUMPDEST DUP7 DUP4 LT ISZERO PUSH2 0xA89 JUMPI DUP5 DUP10 ADD MLOAD PUSH2 0xA85 PUSH1 0x1F DUP10 AND DUP3 PUSH2 0x998 JUMP JUMPDEST DUP4 SSTORE POP JUMPDEST PUSH1 0x1 PUSH1 0x2 DUP9 MUL ADD DUP9 SSTORE POP POP POP JUMPDEST POP POP POP POP POP POP JUMP JUMPDEST PUSH0 DUP3 DUP3 MSTORE PUSH1 0x20 DUP3 ADD SWAP1 POP SWAP3 SWAP2 POP POP JUMP JUMPDEST PUSH32 0x45524332304361707065643A2063617020697320300000000000000000000000 PUSH0 DUP3 ADD MSTORE POP JUMP JUMPDEST PUSH0 PUSH2 0xAE2 PUSH1 0x15 DUP4 PUSH2 0xA9E JUMP JUMPDEST SWAP2 POP PUSH2 0xAED DUP3 PUSH2 0xAAE JUMP JUMPDEST PUSH1 0x20 DUP3 ADD SWAP1 POP SWAP2 SWAP1 POP JUMP JUMPDEST PUSH0 PUSH1 0x20 DUP3 ADD SWAP1 POP DUP2 DUP2 SUB PUSH0 DUP4 ADD MSTORE PUSH2 0xB0F DUP2 PUSH2 0xAD6 JUMP JUMPDEST SWAP1 POP SWAP2 SWAP1 POP JUMP JUMPDEST PUSH0 PUSH2 0xB20 DUP3 PUSH2 0x53A JUMP JUMPDEST SWAP2 POP PUSH2 0xB2B DUP4 PUSH2 0x53A JUMP JUMPDEST SWAP3 POP DUP3 DUP3 ADD SWAP1 POP DUP1 DUP3 GT ISZERO PUSH2 0xB43 JUMPI PUSH2 0xB42 PUSH2 0x5AB JUMP JUMPDEST JUMPDEST SWAP3 SWAP2 POP POP JUMP JUMPDEST PUSH32 0x45524332304361707065643A2063617020657863656564656400000000000000 PUSH0 DUP3 ADD MSTORE POP JUMP JUMPDEST PUSH0 PUSH2 0xB7D PUSH1 0x19 DUP4 PUSH2 0xA9E JUMP JUMPDEST SWAP2 POP PUSH2 0xB88 DUP3 PUSH2 0xB49 JUMP JUMPDEST PUSH1 0x20 DUP3 ADD SWAP1 POP SWAP2 SWAP1 POP JUMP JUMPDEST PUSH0 PUSH1 0x20 DUP3 ADD SWAP1 POP DUP2 DUP2 SUB PUSH0 DUP4 ADD MSTORE PUSH2 0xBAA DUP2 PUSH2 0xB71 JUMP JUMPDEST SWAP1 POP SWAP2 SWAP1 POP JUMP JUMPDEST PUSH32 0x45524332303A206D696E7420746F20746865207A65726F206164647265737300 PUSH0 DUP3 ADD MSTORE POP JUMP JUMPDEST PUSH0 PUSH2 0xBE5 PUSH1 0x1F DUP4 PUSH2 0xA9E JUMP JUMPDEST SWAP2 POP PUSH2 0xBF0 DUP3 PUSH2 0xBB1 JUMP JUMPDEST PUSH1 0x20 DUP3 ADD SWAP1 POP SWAP2 SWAP1 POP JUMP JUMPDEST PUSH0 PUSH1 0x20 DUP3 ADD SWAP1 POP DUP2 DUP2 SUB PUSH0 DUP4 ADD MSTORE PUSH2 0xC12 DUP2 PUSH2 0xBD9 JUMP JUMPDEST SWAP1 POP SWAP2 SWAP1 POP JUMP JUMPDEST PUSH2 0xC22 DUP2 PUSH2 0x53A JUMP JUMPDEST DUP3 MSTORE POP POP JUMP JUMPDEST PUSH0 PUSH1 0x20 DUP3 ADD SWAP1 POP PUSH2 0xC3B PUSH0 DUP4 ADD DUP5 PUSH2 0xC19 JUMP JUMPDEST SWAP3 SWAP2 POP POP JUMP JUMPDEST PUSH1 0x80 MLOAD PUSH2 0x204A PUSH2 0xC59 PUSH0 CODECOPY PUSH0 PUSH2 0x639 ADD MSTORE PUSH2 0x204A PUSH0 RETURN INVALID PUSH1 0x80 PUSH1 0x40 MSTORE CALLVALUE DUP1 ISZERO PUSH2 0xF JUMPI PUSH0 DUP1 REVERT JUMPDEST POP PUSH1 0x4 CALLDATASIZE LT PUSH2 0x114 JUMPI PUSH0 CALLDATALOAD PUSH1 0xE0 SHR DUP1 PUSH4 0x42966C68 GT PUSH2 0xA0 JUMPI DUP1 PUSH4 0x95D89B41 GT PUSH2 0x6F JUMPI DUP1 PUSH4 0x95D89B41 EQ PUSH2 0x2F2 JUMPI DUP1 PUSH4 0xA457C2D7 EQ PUSH2 0x310 JUMPI DUP1 PUSH4 0xA9059CBB EQ PUSH2 0x340 JUMPI DUP1 PUSH4 0xDD62ED3E EQ PUSH2 0x370 JUMPI DUP1 PUSH4 0xF89D4086 EQ PUSH2 0x3A0 JUMPI PUSH2 0x114 JUMP JUMPDEST DUP1 PUSH4 0x42966C68 EQ PUSH2 0x26E JUMPI DUP1 PUSH4 0x6B55E991 EQ PUSH2 0x28A JUMPI DUP1 PUSH4 0x70A08231 EQ PUSH2 0x2A6 JUMPI DUP1 PUSH4 0x79CC6790 EQ PUSH2 0x2D6 JUMPI PUSH2 0x114 JUMP JUMPDEST DUP1 PUSH4 0x1A18E707 GT PUSH2 0xE7 JUMPI DUP1 PUSH4 0x1A18E707 EQ PUSH2 0x1A2 JUMPI DUP1 PUSH4 0x23B872DD EQ PUSH2 0x1D2 JUMPI DUP1 PUSH4 0x313CE567 EQ PUSH2 0x202 JUMPI DUP1 PUSH4 0x355274EA EQ PUSH2 0x220 JUMPI DUP1 PUSH4 0x39509351 EQ PUSH2 0x23E JUMPI PUSH2 0x114 JUMP JUMPDEST DUP1 PUSH4 0x6FDDE03 EQ PUSH2 0x118 JUMPI DUP1 PUSH4 0x95EA7B3 EQ PUSH2 0x136 JUMPI DUP1 PUSH4 0xAC168A1 EQ PUSH2 0x166 JUMPI DUP1 PUSH4 0x18160DDD EQ PUSH2 0x184 JUMPI JUMPDEST PUSH0 DUP1 REVERT JUMPDEST PUSH2 0x120 PUSH2 0x3BE JUMP JUMPDEST PUSH1 0x40 MLOAD PUSH2 0x12D SWAP2 SWAP1 PUSH2 0x13B8 JUMP JUMPDEST PUSH1 0x40 MLOAD DUP1 SWAP2 SUB SWAP1 RETURN JUMPDEST PUSH2 0x150 PUSH1 0x4 DUP1 CALLDATASIZE SUB DUP2 ADD SWAP1 PUSH2 0x14B SWAP2 SWAP1 PUSH2 0x1469 JUMP JUMPDEST PUSH2 0x44E JUMP JUMPDEST PUSH1 0x40 MLOAD PUSH2 0x15D SWAP2 SWAP1 PUSH2 0x14C1 JUMP JUMPDEST PUSH1 0x40 MLOAD DUP1 SWAP2 SUB SWAP1 RETURN JUMPDEST PUSH2 0x16E PUSH2 0x46B JUMP JUMPDEST PUSH1 0x40 MLOAD PUSH2 0x17B SWAP2 SWAP1 PUSH2 0x14E9 JUMP JUMPDEST PUSH1 0x40 MLOAD DUP1 SWAP2 SUB SWAP1 RETURN JUMPDEST PUSH2 0x18C PUSH2 0x471 JUMP JUMPDEST PUSH1 0x40 MLOAD PUSH2 0x199 SWAP2 SWAP1 PUSH2 0x14E9 JUMP JUMPDEST PUSH1 0x40 MLOAD DUP1 SWAP2 SUB SWAP1 RETURN JUMPDEST PUSH2 0x1BC PUSH1 0x4 DUP1 CALLDATASIZE SUB DUP2 ADD SWAP1 PUSH2 0x1B7 SWAP2 SWAP1 PUSH2 0x1502 JUMP JUMPDEST PUSH2 0x47A JUMP JUMPDEST PUSH1 0x40 MLOAD PUSH2 0x1C9 SWAP2 SWAP1 PUSH2 0x14E9 JUMP JUMPDEST PUSH1 0x40 MLOAD DUP1 SWAP2 SUB SWAP1 RETURN JUMPDEST PUSH2 0x1EC PUSH1 0x4 DUP1 CALLDATASIZE SUB DUP2 ADD SWAP1 PUSH2 0x1E7 SWAP2 SWAP1 PUSH2 0x152D JUMP JUMPDEST PUSH2 0x53C JUMP JUMPDEST PUSH1 0x40 MLOAD PUSH2 0x1F9 SWAP2 SWAP1 PUSH2 0x14C1 JUMP JUMPDEST PUSH1 0x40 MLOAD DUP1 SWAP2 SUB SWAP1 RETURN JUMPDEST PUSH2 0x20A PUSH2 0x62E JUMP JUMPDEST PUSH1 0x40 MLOAD PUSH2 0x217 SWAP2 SWAP1 PUSH2 0x1598 JUMP JUMPDEST PUSH1 0x40 MLOAD DUP1 SWAP2 SUB SWAP1 RETURN JUMPDEST PUSH2 0x228 PUSH2 0x636 JUMP JUMPDEST PUSH1 0x40 MLOAD PUSH2 0x235 SWAP2 SWAP1 PUSH2 0x14E9 JUMP JUMPDEST PUSH1 0x40 MLOAD DUP1 SWAP2 SUB SWAP1 RETURN JUMPDEST PUSH2 0x258 PUSH1 0x4 DUP1 CALLDATASIZE SUB DUP2 ADD SWAP1 PUSH2 0x253 SWAP2 SWAP1 PUSH2 0x1469 JUMP JUMPDEST PUSH2 0x65D JUMP JUMPDEST PUSH1 0x40 MLOAD PUSH2 0x265 SWAP2 SWAP1 PUSH2 0x14C1 JUMP JUMPDEST PUSH1 0x40 MLOAD DUP1 SWAP2 SUB SWAP1 RETURN JUMPDEST PUSH2 0x288 PUSH1 0x4 DUP1 CALLDATASIZE SUB DUP2 ADD SWAP1 PUSH2 0x283 SWAP2 SWAP1 PUSH2 0x1502 JUMP JUMPDEST PUSH2 0x704 JUMP JUMPDEST STOP JUMPDEST PUSH2 0x2A4 PUSH1 0x4 DUP1 CALLDATASIZE SUB DUP2 ADD SWAP1 PUSH2 0x29F SWAP2 SWAP1 PUSH2 0x15EC JUMP JUMPDEST PUSH2 0x718 JUMP JUMPDEST STOP JUMPDEST PUSH2 0x2C0 PUSH1 0x4 DUP1 CALLDATASIZE SUB DUP2 ADD SWAP1 PUSH2 0x2BB SWAP2 SWAP1 PUSH2 0x1617 JUMP JUMPDEST PUSH2 0x75F JUMP JUMPDEST PUSH1 0x40 MLOAD PUSH2 0x2CD SWAP2 SWAP1 PUSH2 0x14E9 JUMP JUMPDEST PUSH1 0x40 MLOAD DUP1 SWAP2 SUB SWAP1 RETURN JUMPDEST PUSH2 0x2F0 PUSH1 0x4 DUP1 CALLDATASIZE SUB DUP2 ADD SWAP1 PUSH2 0x2EB SWAP2 SWAP1 PUSH2 0x1469 JUMP JUMPDEST PUSH2 0x7A4 JUMP JUMPDEST STOP JUMPDEST PUSH2 0x2FA PUSH2 0x81E JUMP JUMPDEST PUSH1 0x40 MLOAD PUSH2 0x307 SWAP2 SWAP1 PUSH2 0x13B8 JUMP JUMPDEST PUSH1 0x40 MLOAD DUP1 SWAP2 SUB SWAP1 RETURN JUMPDEST PUSH2 0x32A PUSH1 0x4 DUP1 CALLDATASIZE SUB DUP2 ADD SWAP1 PUSH2 0x325 SWAP2 SWAP1 PUSH2 0x1469 JUMP JUMPDEST PUSH2 0x8AE JUMP JUMPDEST PUSH1 0x40 MLOAD PUSH2 0x337 SWAP2 SWAP1 PUSH2 0x14C1 JUMP JUMPDEST PUSH1 0x40 MLOAD DUP1 SWAP2 SUB SWAP1 RETURN JUMPDEST PUSH2 0x35A PUSH1 0x4 DUP1 CALLDATASIZE SUB DUP2 ADD SWAP1 PUSH2 0x355 SWAP2 SWAP1 PUSH2 0x1469 JUMP JUMPDEST PUSH2 0x994 JUMP JUMPDEST PUSH1 0x40 MLOAD PUSH2 0x367 SWAP2 SWAP1 PUSH2 0x14C1 JUMP JUMPDEST PUSH1 0x40 MLOAD DUP1 SWAP2 SUB SWAP1 RETURN JUMPDEST PUSH2 0x38A PUSH1 0x4 DUP1 CALLDATASIZE SUB DUP2 ADD SWAP1 PUSH2 0x385 SWAP2 SWAP1 PUSH2 0x1642 JUMP JUMPDEST PUSH2 0x9B1 JUMP JUMPDEST PUSH1 0x40 MLOAD PUSH2 0x397 SWAP2 SWAP1 PUSH2 0x14E9 JUMP JUMPDEST PUSH1 0x40 MLOAD DUP1 SWAP2 SUB SWAP1 RETURN JUMPDEST PUSH2 0x3A8 PUSH2 0xA33 JUMP JUMPDEST PUSH1 0x40 MLOAD PUSH2 0x3B5 SWAP2 SWAP1 PUSH2 0x14E9 JUMP JUMPDEST PUSH1 0x40 MLOAD DUP1 SWAP2 SUB SWAP1 RETURN JUMPDEST PUSH1 0x60 PUSH1 0x3 DUP1 SLOAD PUSH2 0x3CD SWAP1 PUSH2 0x16AD JUMP JUMPDEST DUP1 PUSH1 0x1F ADD PUSH1 0x20 DUP1 SWAP2 DIV MUL PUSH1 0x20 ADD PUSH1 0x40 MLOAD SWAP1 DUP2 ADD PUSH1 0x40 MSTORE DUP1 SWAP3 SWAP2 SWAP1 DUP2 DUP2 MSTORE PUSH1 0x20 ADD DUP3 DUP1 SLOAD PUSH2 0x3F9 SWAP1 PUSH2 0x16AD JUMP JUMPDEST DUP1 ISZERO PUSH2 0x444 JUMPI DUP1 PUSH1 0x1F LT PUSH2 0x41B JUMPI PUSH2 0x100 DUP1 DUP4 SLOAD DIV MUL DUP4 MSTORE SWAP2 PUSH1 0x20 ADD SWAP2 PUSH2 0x444 JUMP JUMPDEST DUP3 ADD SWAP2 SWAP1 PUSH0 MSTORE PUSH1 0x20 PUSH0 KECCAK256 SWAP1 JUMPDEST DUP2 SLOAD DUP2 MSTORE SWAP1 PUSH1 0x1 ADD SWAP1 PUSH1 0x20 ADD DUP1 DUP4 GT PUSH2 0x427 JUMPI DUP3 SWAP1 SUB PUSH1 0x1F AND DUP3 ADD SWAP2 JUMPDEST POP POP POP POP POP SWAP1 POP SWAP1 JUMP JUMPDEST PUSH0 PUSH2 0x461 PUSH2 0x45A PUSH2 0xA3C JUMP JUMPDEST DUP5 DUP5 PUSH2 0xA43 JUMP JUMPDEST PUSH1 0x1 SWAP1 POP SWAP3 SWAP2 POP POP JUMP JUMPDEST PUSH1 0x6 SLOAD DUP2 JUMP JUMPDEST PUSH0 PUSH1 0x2 SLOAD SWAP1 POP SWAP1 JUMP JUMPDEST PUSH0 PUSH2 0x483 PUSH2 0xA3C JUMP JUMPDEST PUSH20 0xFFFFFFFFFFFFFFFFFFFFFFFFFFFFFFFFFFFFFFFF AND PUSH1 0x5 PUSH0 SWAP1 SLOAD SWAP1 PUSH2 0x100 EXP SWAP1 DIV PUSH20 0xFFFFFFFFFFFFFFFFFFFFFFFFFFFFFFFFFFFFFFFF AND PUSH20 0xFFFFFFFFFFFFFFFFFFFFFFFFFFFFFFFFFFFFFFFF AND EQ PUSH2 0x511 JUMPI PUSH1 0x40 MLOAD PUSH32 0x8C379A000000000000000000000000000000000000000000000000000000000 DUP2 MSTORE PUSH1 0x4 ADD PUSH2 0x508 SWAP1 PUSH2 0x174D JUMP JUMPDEST PUSH1 0x40 MLOAD DUP1 SWAP2 SUB SWAP1 REVERT JUMPDEST PUSH2 0x519 PUSH2 0x62E JUMP JUMPDEST PUSH1 0xA PUSH2 0x525 SWAP2 SWAP1 PUSH2 0x18C7 JUMP JUMPDEST DUP3 PUSH2 0x530 SWAP2 SWAP1 PUSH2 0x1911 JUMP JUMPDEST PUSH1 0x6 DUP2 SWAP1 SSTORE SWAP1 POP SWAP2 SWAP1 POP JUMP JUMPDEST PUSH0 PUSH2 0x548 DUP5 DUP5 DUP5 PUSH2 0xC06 JUMP JUMPDEST PUSH0 PUSH1 0x1 PUSH0 DUP7 PUSH20 0xFFFFFFFFFFFFFFFFFFFFFFFFFFFFFFFFFFFFFFFF AND PUSH20 0xFFFFFFFFFFFFFFFFFFFFFFFFFFFFFFFFFFFFFFFF AND DUP2 MSTORE PUSH1 0x20 ADD SWAP1 DUP2 MSTORE PUSH1 0x20 ADD PUSH0 KECCAK256 PUSH0 PUSH2 0x58F PUSH2 0xA3C JUMP JUMPDEST PUSH20 0xFFFFFFFFFFFFFFFFFFFFFFFFFFFFFFFFFFFFFFFF AND PUSH20 0xFFFFFFFFFFFFFFFFFFFFFFFFFFFFFFFFFFFFFFFF AND DUP2 MSTORE PUSH1 0x20 ADD SWAP1 DUP2 MSTORE PUSH1 0x20 ADD PUSH0 KECCAK256 SLOAD SWAP1 POP DUP3 DUP2 LT ISZERO PUSH2 0x60E JUMPI PUSH1 0x40 MLOAD PUSH32 0x8C379A000000000000000000000000000000000000000000000000000000000 DUP2 MSTORE PUSH1 0x4 ADD PUSH2 0x605 SWAP1 PUSH2 0x19C2 JUMP JUMPDEST PUSH1 0x40 MLOAD DUP1 SWAP2 SUB SWAP1 REVERT JUMPDEST PUSH2 0x622 DUP6 PUSH2 0x61A PUSH2 0xA3C JUMP JUMPDEST DUP6 DUP5 SUB PUSH2 0xA43 JUMP JUMPDEST PUSH1 0x1 SWAP2 POP POP SWAP4 SWAP3 POP POP POP JUMP JUMPDEST PUSH0 PUSH1 0x12 SWAP1 POP SWAP1 JUMP JUMPDEST PUSH0 PUSH32 0x0 SWAP1 POP SWAP1 JUMP JUMPDEST PUSH0 PUSH2 0x6FA PUSH2 0x669 PUSH2 0xA3C JUMP JUMPDEST DUP5 DUP5 PUSH1 0x1 PUSH0 PUSH2 0x676 PUSH2 0xA3C JUMP JUMPDEST PUSH20 0xFFFFFFFFFFFFFFFFFFFFFFFFFFFFFFFFFFFFFFFF AND PUSH20 0xFFFFFFFFFFFFFFFFFFFFFFFFFFFFFFFFFFFFFFFF AND DUP2 MSTORE PUSH1 0x20 ADD SWAP1 DUP2 MSTORE PUSH1 0x20 ADD PUSH0 KECCAK256 PUSH0 DUP9 PUSH20 0xFFFFFFFFFFFFFFFFFFFFFFFFFFFFFFFFFFFFFFFF AND PUSH20 0xFFFFFFFFFFFFFFFFFFFFFFFFFFFFFFFFFFFFFFFF AND DUP2 MSTORE PUSH1 0x20 ADD SWAP1 DUP2 MSTORE PUSH1 0x20 ADD PUSH0 KECCAK256 SLOAD PUSH2 0x6F5 SWAP2 SWAP1 PUSH2 0x19E0 JUMP JUMPDEST PUSH2 0xA43 JUMP JUMPDEST PUSH1 0x1 SWAP1 POP SWAP3 SWAP2 POP POP JUMP JUMPDEST PUSH2 0x715 PUSH2 0x70F PUSH2 0xA3C JUMP JUMPDEST DUP3 PUSH2 0xE7B JUMP JUMPDEST POP JUMP JUMPDEST DUP1 PUSH20 0xFFFFFFFFFFFFFFFFFFFFFFFFFFFFFFFFFFFFFFFF AND PUSH2 0x8FC SELFBALANCE SWAP1 DUP2 ISZERO MUL SWAP1 PUSH1 0x40 MLOAD PUSH0 PUSH1 0x40 MLOAD DUP1 DUP4 SUB DUP2 DUP6 DUP9 DUP9 CALL SWAP4 POP POP POP POP ISZERO DUP1 ISZERO PUSH2 0x75B JUMPI RETURNDATASIZE PUSH0 DUP1 RETURNDATACOPY RETURNDATASIZE PUSH0 REVERT JUMPDEST POP POP JUMP JUMPDEST PUSH0 DUP1 PUSH0 DUP4 PUSH20 0xFFFFFFFFFFFFFFFFFFFFFFFFFFFFFFFFFFFFFFFF AND PUSH20 0xFFFFFFFFFFFFFFFFFFFFFFFFFFFFFFFFFFFFFFFF AND DUP2 MSTORE PUSH1 0x20 ADD SWAP1 DUP2 MSTORE PUSH1 0x20 ADD PUSH0 KECCAK256 SLOAD SWAP1 POP SWAP2 SWAP1 POP JUMP JUMPDEST PUSH0 PUSH2 0x7B6 DUP4 PUSH2 0x7B1 PUSH2 0xA3C JUMP JUMPDEST PUSH2 0x9B1 JUMP JUMPDEST SWAP1 POP DUP2 DUP2 LT ISZERO PUSH2 0x7FB JUMPI PUSH1 0x40 MLOAD PUSH32 0x8C379A000000000000000000000000000000000000000000000000000000000 DUP2 MSTORE PUSH1 0x4 ADD PUSH2 0x7F2 SWAP1 PUSH2 0x1A83 JUMP JUMPDEST PUSH1 0x40 MLOAD DUP1 SWAP2 SUB SWAP1 REVERT JUMPDEST PUSH2 0x80F DUP4 PUSH2 0x807 PUSH2 0xA3C JUMP JUMPDEST DUP5 DUP5 SUB PUSH2 0xA43 JUMP JUMPDEST PUSH2 0x819 DUP4 DUP4 PUSH2 0xE7B JUMP JUMPDEST POP POP POP JUMP JUMPDEST PUSH1 0x60 PUSH1 0x4 DUP1 SLOAD PUSH2 0x82D SWAP1 PUSH2 0x16AD JUMP JUMPDEST DUP1 PUSH1 0x1F ADD PUSH1 0x20 DUP1 SWAP2 DIV MUL PUSH1 0x20 ADD PUSH1 0x40 MLOAD SWAP1 DUP2 ADD PUSH1 0x40 MSTORE DUP1 SWAP3 SWAP2 SWAP1 DUP2 DUP2 MSTORE PUSH1 0x20 ADD DUP3 DUP1 SLOAD PUSH2 0x859 SWAP1 PUSH2 0x16AD JUMP JUMPDEST DUP1 ISZERO PUSH2 0x8A4 JUMPI DUP1 PUSH1 0x1F LT PUSH2 0x87B JUMPI PUSH2 0x100 DUP1 DUP4 SLOAD DIV MUL DUP4 MSTORE SWAP2 PUSH1 0x20 ADD SWAP2 PUSH2 0x8A4 JUMP JUMPDEST DUP3 ADD SWAP2 SWAP1 PUSH0 MSTORE PUSH1 0x20 PUSH0 KECCAK256 SWAP1 JUMPDEST DUP2 SLOAD DUP2 MSTORE SWAP1 PUSH1 0x1 ADD SWAP1 PUSH1 0x20 ADD DUP1 DUP4 GT PUSH2 0x887 JUMPI DUP3 SWAP1 SUB PUSH1 0x1F AND DUP3 ADD SWAP2 JUMPDEST POP POP POP POP POP SWAP1 POP SWAP1 JUMP JUMPDEST PUSH0 DUP1 PUSH1 0x1 PUSH0 PUSH2 0x8BB PUSH2 0xA3C JUMP JUMPDEST PUSH20 0xFFFFFFFFFFFFFFFFFFFFFFFFFFFFFFFFFFFFFFFF AND PUSH20 0xFFFFFFFFFFFFFFFFFFFFFFFFFFFFFFFFFFFFFFFF AND DUP2 MSTORE PUSH1 0x20 ADD SWAP1 DUP2 MSTORE PUSH1 0x20 ADD PUSH0 KECCAK256 PUSH0 DUP6 PUSH20 0xFFFFFFFFFFFFFFFFFFFFFFFFFFFFFFFFFFFFFFFF AND PUSH20 0xFFFFFFFFFFFFFFFFFFFFFFFFFFFFFFFFFFFFFFFF AND DUP2 MSTORE PUSH1 0x20 ADD SWAP1 DUP2 MSTORE PUSH1 0x20 ADD PUSH0 KECCAK256 SLOAD SWAP1 POP DUP3 DUP2 LT ISZERO PUSH2 0x975 JUMPI PUSH1 0x40 MLOAD PUSH32 0x8C379A000000000000000000000000000000000000000000000000000000000 DUP2 MSTORE PUSH1 0x4 ADD PUSH2 0x96C SWAP1 PUSH2 0x1B11 JUMP JUMPDEST PUSH1 0x40 MLOAD DUP1 SWAP2 SUB SWAP1 REVERT JUMPDEST PUSH2 0x989 PUSH2 0x980 PUSH2 0xA3C JUMP JUMPDEST DUP6 DUP6 DUP5 SUB PUSH2 0xA43 JUMP JUMPDEST PUSH1 0x1 SWAP2 POP POP SWAP3 SWAP2 POP POP JUMP JUMPDEST PUSH0 PUSH2 0x9A7 PUSH2 0x9A0 PUSH2 0xA3C JUMP JUMPDEST DUP5 DUP5 PUSH2 0xC06 JUMP JUMPDEST PUSH1 0x1 SWAP1 POP SWAP3 SWAP2 POP POP JUMP JUMPDEST PUSH0 PUSH1 0x1 PUSH0 DUP5 PUSH20 0xFFFFFFFFFFFFFFFFFFFFFFFFFFFFFFFFFFFFFFFF AND PUSH20 0xFFFFFFFFFFFFFFFFFFFFFFFFFFFFFFFFFFFFFFFF AND DUP2 MSTORE PUSH1 0x20 ADD SWAP1 DUP2 MSTORE PUSH1 0x20 ADD PUSH0 KECCAK256 PUSH0 DUP4 PUSH20 0xFFFFFFFFFFFFFFFFFFFFFFFFFFFFFFFFFFFFFFFF AND PUSH20 0xFFFFFFFFFFFFFFFFFFFFFFFFFFFFFFFFFFFFFFFF AND DUP2 MSTORE PUSH1 0x20 ADD SWAP1 DUP2 MSTORE PUSH1 0x20 ADD PUSH0 KECCAK256 SLOAD SWAP1 POP SWAP3 SWAP2 POP POP JUMP JUMPDEST PUSH0 PUSH1 0x6 SLOAD SWAP1 POP SWAP1 JUMP JUMPDEST PUSH0 CALLER SWAP1 POP SWAP1 JUMP JUMPDEST PUSH0 PUSH20 0xFFFFFFFFFFFFFFFFFFFFFFFFFFFFFFFFFFFFFFFF AND DUP4 PUSH20 0xFFFFFFFFFFFFFFFFFFFFFFFFFFFFFFFFFFFFFFFF AND SUB PUSH2 0xAB1 JUMPI PUSH1 0x40 MLOAD PUSH32 0x8C379A000000000000000000000000000000000000000000000000000000000 DUP2 MSTORE PUSH1 0x4 ADD PUSH2 0xAA8 SWAP1 PUSH2 0x1B9F JUMP JUMPDEST PUSH1 0x40 MLOAD DUP1 SWAP2 SUB SWAP1 REVERT JUMPDEST PUSH0 PUSH20 0xFFFFFFFFFFFFFFFFFFFFFFFFFFFFFFFFFFFFFFFF AND DUP3 PUSH20 0xFFFFFFFFFFFFFFFFFFFFFFFFFFFFFFFFFFFFFFFF AND SUB PUSH2 0xB1F JUMPI PUSH1 0x40 MLOAD PUSH32 0x8C379A000000000000000000000000000000000000000000000000000000000 DUP2 MSTORE PUSH1 0x4 ADD PUSH2 0xB16 SWAP1 PUSH2 0x1C2D JUMP JUMPDEST PUSH1 0x40 MLOAD DUP1 SWAP2 SUB SWAP1 REVERT JUMPDEST DUP1 PUSH1 0x1 PUSH0 DUP6 PUSH20 0xFFFFFFFFFFFFFFFFFFFFFFFFFFFFFFFFFFFFFFFF AND PUSH20 0xFFFFFFFFFFFFFFFFFFFFFFFFFFFFFFFFFFFFFFFF AND DUP2 MSTORE PUSH1 0x20 ADD SWAP1 DUP2 MSTORE PUSH1 0x20 ADD PUSH0 KECCAK256 PUSH0 DUP5 PUSH20 0xFFFFFFFFFFFFFFFFFFFFFFFFFFFFFFFFFFFFFFFF AND PUSH20 0xFFFFFFFFFFFFFFFFFFFFFFFFFFFFFFFFFFFFFFFF AND DUP2 MSTORE PUSH1 0x20 ADD SWAP1 DUP2 MSTORE PUSH1 0x20 ADD PUSH0 KECCAK256 DUP2 SWAP1 SSTORE POP DUP2 PUSH20 0xFFFFFFFFFFFFFFFFFFFFFFFFFFFFFFFFFFFFFFFF AND DUP4 PUSH20 0xFFFFFFFFFFFFFFFFFFFFFFFFFFFFFFFFFFFFFFFF AND PUSH32 0x8C5BE1E5EBEC7D5BD14F71427D1E84F3DD0314C0F7B2291E5B200AC8C7C3B925 DUP4 PUSH1 0x40 MLOAD PUSH2 0xBF9 SWAP2 SWAP1 PUSH2 0x14E9 JUMP JUMPDEST PUSH1 0x40 MLOAD DUP1 SWAP2 SUB SWAP1 LOG3 POP POP POP JUMP JUMPDEST PUSH0 PUSH20 0xFFFFFFFFFFFFFFFFFFFFFFFFFFFFFFFFFFFFFFFF AND DUP4 PUSH20 0xFFFFFFFFFFFFFFFFFFFFFFFFFFFFFFFFFFFFFFFF AND SUB PUSH2 0xC74 JUMPI PUSH1 0x40 MLOAD PUSH32 0x8C379A000000000000000000000000000000000000000000000000000000000 DUP2 MSTORE PUSH1 0x4 ADD PUSH2 0xC6B SWAP1 PUSH2 0x1CBB JUMP JUMPDEST PUSH1 0x40 MLOAD DUP1 SWAP2 SUB SWAP1 REVERT JUMPDEST PUSH0 PUSH20 0xFFFFFFFFFFFFFFFFFFFFFFFFFFFFFFFFFFFFFFFF AND DUP3 PUSH20 0xFFFFFFFFFFFFFFFFFFFFFFFFFFFFFFFFFFFFFFFF AND SUB PUSH2 0xCE2 JUMPI PUSH1 0x40 MLOAD PUSH32 0x8C379A000000000000000000000000000000000000000000000000000000000 DUP2 MSTORE PUSH1 0x4 ADD PUSH2 0xCD9 SWAP1 PUSH2 0x1D49 JUMP JUMPDEST PUSH1 0x40 MLOAD DUP1 SWAP2 SUB SWAP1 REVERT JUMPDEST PUSH2 0xCED DUP4 DUP4 DUP4 PUSH2 0x1047 JUMP JUMPDEST PUSH0 DUP1 PUSH0 DUP6 PUSH20 0xFFFFFFFFFFFFFFFFFFFFFFFFFFFFFFFFFFFFFFFF AND PUSH20 0xFFFFFFFFFFFFFFFFFFFFFFFFFFFFFFFFFFFFFFFF AND DUP2 MSTORE PUSH1 0x20 ADD SWAP1 DUP2 MSTORE PUSH1 0x20 ADD PUSH0 KECCAK256 SLOAD SWAP1 POP DUP2 DUP2 LT ISZERO PUSH2 0xD70 JUMPI PUSH1 0x40 MLOAD PUSH32 0x8C379A000000000000000000000000000000000000000000000000000000000 DUP2 MSTORE PUSH1 0x4 ADD PUSH2 0xD67 SWAP1 PUSH2 0x1DD7 JUMP JUMPDEST PUSH1 0x40 MLOAD DUP1 SWAP2 SUB SWAP1 REVERT JUMPDEST DUP2 DUP2 SUB PUSH0 DUP1 DUP7 PUSH20 0xFFFFFFFFFFFFFFFFFFFFFFFFFFFFFFFFFFFFFFFF AND PUSH20 0xFFFFFFFFFFFFFFFFFFFFFFFFFFFFFFFFFFFFFFFF AND DUP2 MSTORE PUSH1 0x20 ADD SWAP1 DUP2 MSTORE PUSH1 0x20 ADD PUSH0 KECCAK256 DUP2 SWAP1 SSTORE POP DUP2 PUSH0 DUP1 DUP6 PUSH20 0xFFFFFFFFFFFFFFFFFFFFFFFFFFFFFFFFFFFFFFFF AND PUSH20 0xFFFFFFFFFFFFFFFFFFFFFFFFFFFFFFFFFFFFFFFF AND DUP2 MSTORE PUSH1 0x20 ADD SWAP1 DUP2 MSTORE PUSH1 0x20 ADD PUSH0 KECCAK256 PUSH0 DUP3 DUP3 SLOAD PUSH2 0xDFE SWAP2 SWAP1 PUSH2 0x19E0 JUMP JUMPDEST SWAP3 POP POP DUP2 SWAP1 SSTORE POP DUP3 PUSH20 0xFFFFFFFFFFFFFFFFFFFFFFFFFFFFFFFFFFFFFFFF AND DUP5 PUSH20 0xFFFFFFFFFFFFFFFFFFFFFFFFFFFFFFFFFFFFFFFF AND PUSH32 0xDDF252AD1BE2C89B69C2B068FC378DAA952BA7F163C4A11628F55A4DF523B3EF DUP5 PUSH1 0x40 MLOAD PUSH2 0xE62 SWAP2 SWAP1 PUSH2 0x14E9 JUMP JUMPDEST PUSH1 0x40 MLOAD DUP1 SWAP2 SUB SWAP1 LOG3 PUSH2 0xE75 DUP5 DUP5 DUP5 PUSH2 0x1105 JUMP JUMPDEST POP POP POP POP JUMP JUMPDEST PUSH0 PUSH20 0xFFFFFFFFFFFFFFFFFFFFFFFFFFFFFFFFFFFFFFFF AND DUP3 PUSH20 0xFFFFFFFFFFFFFFFFFFFFFFFFFFFFFFFFFFFFFFFF AND SUB PUSH2 0xEE9 JUMPI PUSH1 0x40 MLOAD PUSH32 0x8C379A000000000000000000000000000000000000000000000000000000000 DUP2 MSTORE PUSH1 0x4 ADD PUSH2 0xEE0 SWAP1 PUSH2 0x1E65 JUMP JUMPDEST PUSH1 0x40 MLOAD DUP1 SWAP2 SUB SWAP1 REVERT JUMPDEST PUSH2 0xEF4 DUP3 PUSH0 DUP4 PUSH2 0x1047 JUMP JUMPDEST PUSH0 DUP1 PUSH0 DUP5 PUSH20 0xFFFFFFFFFFFFFFFFFFFFFFFFFFFFFFFFFFFFFFFF AND PUSH20 0xFFFFFFFFFFFFFFFFFFFFFFFFFFFFFFFFFFFFFFFF AND DUP2 MSTORE PUSH1 0x20 ADD SWAP1 DUP2 MSTORE PUSH1 0x20 ADD PUSH0 KECCAK256 SLOAD SWAP1 POP DUP2 DUP2 LT ISZERO PUSH2 0xF77 JUMPI PUSH1 0x40 MLOAD PUSH32 0x8C379A000000000000000000000000000000000000000000000000000000000 DUP2 MSTORE PUSH1 0x4 ADD PUSH2 0xF6E SWAP1 PUSH2 0x1EF3 JUMP JUMPDEST PUSH1 0x40 MLOAD DUP1 SWAP2 SUB SWAP1 REVERT JUMPDEST DUP2 DUP2 SUB PUSH0 DUP1 DUP6 PUSH20 0xFFFFFFFFFFFFFFFFFFFFFFFFFFFFFFFFFFFFFFFF AND PUSH20 0xFFFFFFFFFFFFFFFFFFFFFFFFFFFFFFFFFFFFFFFF AND DUP2 MSTORE PUSH1 0x20 ADD SWAP1 DUP2 MSTORE PUSH1 0x20 ADD PUSH0 KECCAK256 DUP2 SWAP1 SSTORE POP DUP2 PUSH1 0x2 PUSH0 DUP3 DUP3 SLOAD PUSH2 0xFCB SWAP2 SWAP1 PUSH2 0x1F11 JUMP JUMPDEST SWAP3 POP POP DUP2 SWAP1 SSTORE POP PUSH0 PUSH20 0xFFFFFFFFFFFFFFFFFFFFFFFFFFFFFFFFFFFFFFFF AND DUP4 PUSH20 0xFFFFFFFFFFFFFFFFFFFFFFFFFFFFFFFFFFFFFFFF AND PUSH32 0xDDF252AD1BE2C89B69C2B068FC378DAA952BA7F163C4A11628F55A4DF523B3EF DUP5 PUSH1 0x40 MLOAD PUSH2 0x102F SWAP2 SWAP1 PUSH2 0x14E9 JUMP JUMPDEST PUSH1 0x40 MLOAD DUP1 SWAP2 SUB SWAP1 LOG3 PUSH2 0x1042 DUP4 PUSH0 DUP5 PUSH2 0x1105 JUMP JUMPDEST POP POP POP JUMP JUMPDEST PUSH0 PUSH20 0xFFFFFFFFFFFFFFFFFFFFFFFFFFFFFFFFFFFFFFFF AND DUP4 PUSH20 0xFFFFFFFFFFFFFFFFFFFFFFFFFFFFFFFFFFFFFFFF AND EQ ISZERO DUP1 ISZERO PUSH2 0x10AF JUMPI POP COINBASE PUSH20 0xFFFFFFFFFFFFFFFFFFFFFFFFFFFFFFFFFFFFFFFF AND DUP3 PUSH20 0xFFFFFFFFFFFFFFFFFFFFFFFFFFFFFFFFFFFFFFFF AND EQ ISZERO JUMPDEST DUP1 ISZERO PUSH2 0x10E7 JUMPI POP PUSH0 PUSH20 0xFFFFFFFFFFFFFFFFFFFFFFFFFFFFFFFFFFFFFFFF AND COINBASE PUSH20 0xFFFFFFFFFFFFFFFFFFFFFFFFFFFFFFFFFFFFFFFF AND EQ ISZERO JUMPDEST ISZERO PUSH2 0x10F5 JUMPI PUSH2 0x10F4 PUSH2 0x110A JUMP JUMPDEST JUMPDEST PUSH2 0x1100 DUP4 DUP4 DUP4 PUSH2 0x1118 JUMP JUMPDEST POP POP POP JUMP JUMPDEST POP POP POP JUMP JUMPDEST PUSH2 0x1116 COINBASE PUSH1 0x6 SLOAD PUSH2 0x111D JUMP JUMPDEST JUMP JUMPDEST POP POP POP JUMP JUMPDEST PUSH2 0x1125 PUSH2 0x636 JUMP JUMPDEST DUP2 PUSH2 0x112E PUSH2 0x471 JUMP JUMPDEST PUSH2 0x1138 SWAP2 SWAP1 PUSH2 0x19E0 JUMP JUMPDEST GT ISZERO PUSH2 0x1179 JUMPI PUSH1 0x40 MLOAD PUSH32 0x8C379A000000000000000000000000000000000000000000000000000000000 DUP2 MSTORE PUSH1 0x4 ADD PUSH2 0x1170 SWAP1 PUSH2 0x1F8E JUMP JUMPDEST PUSH1 0x40 MLOAD DUP1 SWAP2 SUB SWAP1 REVERT JUMPDEST PUSH2 0x1183 DUP3 DUP3 PUSH2 0x1187 JUMP JUMPDEST POP POP JUMP JUMPDEST PUSH2 0x118F PUSH2 0x636 JUMP JUMPDEST DUP2 PUSH2 0x1198 PUSH2 0x471 JUMP JUMPDEST PUSH2 0x11A2 SWAP2 SWAP1 PUSH2 0x19E0 JUMP JUMPDEST GT ISZERO PUSH2 0x11E3 JUMPI PUSH1 0x40 MLOAD PUSH32 0x8C379A000000000000000000000000000000000000000000000000000000000 DUP2 MSTORE PUSH1 0x4 ADD PUSH2 0x11DA SWAP1 PUSH2 0x1F8E JUMP JUMPDEST PUSH1 0x40 MLOAD DUP1 SWAP2 SUB SWAP1 REVERT JUMPDEST PUSH2 0x11ED DUP3 DUP3 PUSH2 0x11F1 JUMP JUMPDEST POP POP JUMP JUMPDEST PUSH0 PUSH20 0xFFFFFFFFFFFFFFFFFFFFFFFFFFFFFFFFFFFFFFFF AND DUP3 PUSH20 0xFFFFFFFFFFFFFFFFFFFFFFFFFFFFFFFFFFFFFFFF AND SUB PUSH2 0x125F JUMPI PUSH1 0x40 MLOAD PUSH32 0x8C379A000000000000000000000000000000000000000000000000000000000 DUP2 MSTORE PUSH1 0x4 ADD PUSH2 0x1256 SWAP1 PUSH2 0x1FF6 JUMP JUMPDEST PUSH1 0x40 MLOAD DUP1 SWAP2 SUB SWAP1 REVERT JUMPDEST PUSH2 0x126A PUSH0 DUP4 DUP4 PUSH2 0x1047 JUMP JUMPDEST DUP1 PUSH1 0x2 PUSH0 DUP3 DUP3 SLOAD PUSH2 0x127B SWAP2 SWAP1 PUSH2 0x19E0 JUMP JUMPDEST SWAP3 POP POP DUP2 SWAP1 SSTORE POP DUP1 PUSH0 DUP1 DUP5 PUSH20 0xFFFFFFFFFFFFFFFFFFFFFFFFFFFFFFFFFFFFFFFF AND PUSH20 0xFFFFFFFFFFFFFFFFFFFFFFFFFFFFFFFFFFFFFFFF AND DUP2 MSTORE PUSH1 0x20 ADD SWAP1 DUP2 MSTORE PUSH1 0x20 ADD PUSH0 KECCAK256 PUSH0 DUP3 DUP3 SLOAD PUSH2 0x12CD SWAP2 SWAP1 PUSH2 0x19E0 JUMP JUMPDEST SWAP3 POP POP DUP2 SWAP1 SSTORE POP DUP2 PUSH20 0xFFFFFFFFFFFFFFFFFFFFFFFFFFFFFFFFFFFFFFFF AND PUSH0 PUSH20 0xFFFFFFFFFFFFFFFFFFFFFFFFFFFFFFFFFFFFFFFF AND PUSH32 0xDDF252AD1BE2C89B69C2B068FC378DAA952BA7F163C4A11628F55A4DF523B3EF DUP4 PUSH1 0x40 MLOAD PUSH2 0x1331 SWAP2 SWAP1 PUSH2 0x14E9 JUMP JUMPDEST PUSH1 0x40 MLOAD DUP1 SWAP2 SUB SWAP1 LOG3 PUSH2 0x1344 PUSH0 DUP4 DUP4 PUSH2 0x1105 JUMP JUMPDEST POP POP JUMP JUMPDEST PUSH0 DUP2 MLOAD SWAP1 POP SWAP2 SWAP1 POP JUMP JUMPDEST PUSH0 DUP3 DUP3 MSTORE PUSH1 0x20 DUP3 ADD SWAP1 POP SWAP3 SWAP2 POP POP JUMP JUMPDEST DUP3 DUP2 DUP4 MCOPY PUSH0 DUP4 DUP4 ADD MSTORE POP POP POP JUMP JUMPDEST PUSH0 PUSH1 0x1F NOT PUSH1 0x1F DUP4 ADD AND SWAP1 POP SWAP2 SWAP1 POP JUMP JUMPDEST PUSH0 PUSH2 0x138A DUP3 PUSH2 0x1348 JUMP JUMPDEST PUSH2 0x1394 DUP2 DUP6 PUSH2 0x1352 JUMP JUMPDEST SWAP4 POP PUSH2 0x13A4 DUP2 DUP6 PUSH1 0x20 DUP7 ADD PUSH2 0x1362 JUMP JUMPDEST PUSH2 0x13AD DUP2 PUSH2 0x1370 JUMP JUMPDEST DUP5 ADD SWAP2 POP POP SWAP3 SWAP2 POP POP JUMP JUMPDEST PUSH0 PUSH1 0x20 DUP3 ADD SWAP1 POP DUP2 DUP2 SUB PUSH0 DUP4 ADD MSTORE PUSH2 0x13D0 DUP2 DUP5 PUSH2 0x1380 JUMP JUMPDEST SWAP1 POP SWAP3 SWAP2 POP POP JUMP JUMPDEST PUSH0 DUP1 REVERT JUMPDEST PUSH0 PUSH20 0xFFFFFFFFFFFFFFFFFFFFFFFFFFFFFFFFFFFFFFFF DUP3 AND SWAP1 POP SWAP2 SWAP1 POP JUMP JUMPDEST PUSH0 PUSH2 0x1405 DUP3 PUSH2 0x13DC JUMP JUMPDEST SWAP1 POP SWAP2 SWAP1 POP JUMP JUMPDEST PUSH2 0x1415 DUP2 PUSH2 0x13FB JUMP JUMPDEST DUP2 EQ PUSH2 0x141F JUMPI PUSH0 DUP1 REVERT JUMPDEST POP JUMP JUMPDEST PUSH0 DUP2 CALLDATALOAD SWAP1 POP PUSH2 0x1430 DUP2 PUSH2 0x140C JUMP JUMPDEST SWAP3 SWAP2 POP POP JUMP JUMPDEST PUSH0 DUP2 SWAP1 POP SWAP2 SWAP1 POP JUMP JUMPDEST PUSH2 0x1448 DUP2 PUSH2 0x1436 JUMP JUMPDEST DUP2 EQ PUSH2 0x1452 JUMPI PUSH0 DUP1 REVERT JUMPDEST POP JUMP JUMPDEST PUSH0 DUP2 CALLDATALOAD SWAP1 POP PUSH2 0x1463 DUP2 PUSH2 0x143F JUMP JUMPDEST SWAP3 SWAP2 POP POP JUMP JUMPDEST PUSH0 DUP1 PUSH1 0x40 DUP4 DUP6 SUB SLT ISZERO PUSH2 0x147F JUMPI PUSH2 0x147E PUSH2 0x13D8 JUMP JUMPDEST JUMPDEST PUSH0 PUSH2 0x148C DUP6 DUP3 DUP7 ADD PUSH2 0x1422 JUMP JUMPDEST SWAP3 POP POP PUSH1 0x20 PUSH2 0x149D DUP6 DUP3 DUP7 ADD PUSH2 0x1455 JUMP JUMPDEST SWAP2 POP POP SWAP3 POP SWAP3 SWAP1 POP JUMP JUMPDEST PUSH0 DUP2 ISZERO ISZERO SWAP1 POP SWAP2 SWAP1 POP JUMP JUMPDEST PUSH2 0x14BB DUP2 PUSH2 0x14A7 JUMP JUMPDEST DUP3 MSTORE POP POP JUMP JUMPDEST PUSH0 PUSH1 0x20 DUP3 ADD SWAP1 POP PUSH2 0x14D4 PUSH0 DUP4 ADD DUP5 PUSH2 0x14B2 JUMP JUMPDEST SWAP3 SWAP2 POP POP JUMP JUMPDEST PUSH2 0x14E3 DUP2 PUSH2 0x1436 JUMP JUMPDEST DUP3 MSTORE POP POP JUMP JUMPDEST PUSH0 PUSH1 0x20 DUP3 ADD SWAP1 POP PUSH2 0x14FC PUSH0 DUP4 ADD DUP5 PUSH2 0x14DA JUMP JUMPDEST SWAP3 SWAP2 POP POP JUMP JUMPDEST PUSH0 PUSH1 0x20 DUP3 DUP5 SUB SLT ISZERO PUSH2 0x1517 JUMPI PUSH2 0x1516 PUSH2 0x13D8 JUMP JUMPDEST JUMPDEST PUSH0 PUSH2 0x1524 DUP5 DUP3 DUP6 ADD PUSH2 0x1455 JUMP JUMPDEST SWAP2 POP POP SWAP3 SWAP2 POP POP JUMP JUMPDEST PUSH0 DUP1 PUSH0 PUSH1 0x60 DUP5 DUP7 SUB SLT ISZERO PUSH2 0x1544 JUMPI PUSH2 0x1543 PUSH2 0x13D8 JUMP JUMPDEST JUMPDEST PUSH0 PUSH2 0x1551 DUP7 DUP3 DUP8 ADD PUSH2 0x1422 JUMP JUMPDEST SWAP4 POP POP PUSH1 0x20 PUSH2 0x1562 DUP7 DUP3 DUP8 ADD PUSH2 0x1422 JUMP JUMPDEST SWAP3 POP POP PUSH1 0x40 PUSH2 0x1573 DUP7 DUP3 DUP8 ADD PUSH2 0x1455 JUMP JUMPDEST SWAP2 POP POP SWAP3 POP SWAP3 POP SWAP3 JUMP JUMPDEST PUSH0 PUSH1 0xFF DUP3 AND SWAP1 POP SWAP2 SWAP1 POP JUMP JUMPDEST PUSH2 0x1592 DUP2 PUSH2 0x157D JUMP JUMPDEST DUP3 MSTORE POP POP JUMP JUMPDEST PUSH0 PUSH1 0x20 DUP3 ADD SWAP1 POP PUSH2 0x15AB PUSH0 DUP4 ADD DUP5 PUSH2 0x1589 JUMP JUMPDEST SWAP3 SWAP2 POP POP JUMP JUMPDEST PUSH0 PUSH2 0x15BB DUP3 PUSH2 0x13DC JUMP JUMPDEST SWAP1 POP SWAP2 SWAP1 POP JUMP JUMPDEST PUSH2 0x15CB DUP2 PUSH2 0x15B1 JUMP JUMPDEST DUP2 EQ PUSH2 0x15D5 JUMPI PUSH0 DUP1 REVERT JUMPDEST POP JUMP JUMPDEST PUSH0 DUP2 CALLDATALOAD SWAP1 POP PUSH2 0x15E6 DUP2 PUSH2 0x15C2 JUMP JUMPDEST SWAP3 SWAP2 POP POP JUMP JUMPDEST PUSH0 PUSH1 0x20 DUP3 DUP5 SUB SLT ISZERO PUSH2 0x1601 JUMPI PUSH2 0x1600 PUSH2 0x13D8 JUMP JUMPDEST JUMPDEST PUSH0 PUSH2 0x160E DUP5 DUP3 DUP6 ADD PUSH2 0x15D8 JUMP JUMPDEST SWAP2 POP POP SWAP3 SWAP2 POP POP JUMP JUMPDEST PUSH0 PUSH1 0x20 DUP3 DUP5 SUB SLT ISZERO PUSH2 0x162C JUMPI PUSH2 0x162B PUSH2 0x13D8 JUMP JUMPDEST JUMPDEST PUSH0 PUSH2 0x1639 DUP5 DUP3 DUP6 ADD PUSH2 0x1422 JUMP JUMPDEST SWAP2 POP POP SWAP3 SWAP2 POP POP JUMP JUMPDEST PUSH0 DUP1 PUSH1 0x40 DUP4 DUP6 SUB SLT ISZERO PUSH2 0x1658 JUMPI PUSH2 0x1657 PUSH2 0x13D8 JUMP JUMPDEST JUMPDEST PUSH0 PUSH2 0x1665 DUP6 DUP3 DUP7 ADD PUSH2 0x1422 JUMP JUMPDEST SWAP3 POP POP PUSH1 0x20 PUSH2 0x1676 DUP6 DUP3 DUP7 ADD PUSH2 0x1422 JUMP JUMPDEST SWAP2 POP POP SWAP3 POP SWAP3 SWAP1 POP JUMP JUMPDEST PUSH32 0x4E487B7100000000000000000000000000000000000000000000000000000000 PUSH0 MSTORE PUSH1 0x22 PUSH1 0x4 MSTORE PUSH1 0x24 PUSH0 REVERT JUMPDEST PUSH0 PUSH1 0x2 DUP3 DIV SWAP1 POP PUSH1 0x1 DUP3 AND DUP1 PUSH2 0x16C4 JUMPI PUSH1 0x7F DUP3 AND SWAP2 POP JUMPDEST PUSH1 0x20 DUP3 LT DUP2 SUB PUSH2 0x16D7 JUMPI PUSH2 0x16D6 PUSH2 0x1680 JUMP JUMPDEST JUMPDEST POP SWAP2 SWAP1 POP JUMP JUMPDEST PUSH32 0x4F776E61626C653A204F6E6C79204F776E65722043616E204D6F646966696520 PUSH0 DUP3 ADD MSTORE PUSH32 0x5468697300000000000000000000000000000000000000000000000000000000 PUSH1 0x20 DUP3 ADD MSTORE POP JUMP JUMPDEST PUSH0 PUSH2 0x1737 PUSH1 0x24 DUP4 PUSH2 0x1352 JUMP JUMPDEST SWAP2 POP PUSH2 0x1742 DUP3 PUSH2 0x16DD JUMP JUMPDEST PUSH1 0x40 DUP3 ADD SWAP1 POP SWAP2 SWAP1 POP JUMP JUMPDEST PUSH0 PUSH1 0x20 DUP3 ADD SWAP1 POP DUP2 DUP2 SUB PUSH0 DUP4 ADD MSTORE PUSH2 0x1764 DUP2 PUSH2 0x172B JUMP JUMPDEST SWAP1 POP SWAP2 SWAP1 POP JUMP JUMPDEST PUSH32 0x4E487B7100000000000000000000000000000000000000000000000000000000 PUSH0 MSTORE PUSH1 0x11 PUSH1 0x4 MSTORE PUSH1 0x24 PUSH0 REVERT JUMPDEST PUSH0 DUP2 PUSH1 0x1 SHR SWAP1 POP SWAP2 SWAP1 POP JUMP JUMPDEST PUSH0 DUP1 DUP3 SWAP2 POP DUP4 SWAP1 POP JUMPDEST PUSH1 0x1 DUP6 GT ISZERO PUSH2 0x17ED JUMPI DUP1 DUP7 DIV DUP2 GT ISZERO PUSH2 0x17C9 JUMPI PUSH2 0x17C8 PUSH2 0x176B JUMP JUMPDEST JUMPDEST PUSH1 0x1 DUP6 AND ISZERO PUSH2 0x17D8 JUMPI DUP1 DUP3 MUL SWAP2 POP JUMPDEST DUP1 DUP2 MUL SWAP1 POP PUSH2 0x17E6 DUP6 PUSH2 0x1798 JUMP JUMPDEST SWAP5 POP PUSH2 0x17AD JUMP JUMPDEST SWAP5 POP SWAP5 SWAP3 POP POP POP JUMP JUMPDEST PUSH0 DUP3 PUSH2 0x1805 JUMPI PUSH1 0x1 SWAP1 POP PUSH2 0x18C0 JUMP JUMPDEST DUP2 PUSH2 0x1812 JUMPI PUSH0 SWAP1 POP PUSH2 0x18C0 JUMP JUMPDEST DUP2 PUSH1 0x1 DUP2 EQ PUSH2 0x1828 JUMPI PUSH1 0x2 DUP2 EQ PUSH2 0x1832 JUMPI PUSH2 0x1861 JUMP JUMPDEST PUSH1 0x1 SWAP2 POP POP PUSH2 0x18C0 JUMP JUMPDEST PUSH1 0xFF DUP5 GT ISZERO PUSH2 0x1844 JUMPI PUSH2 0x1843 PUSH2 0x176B JUMP JUMPDEST JUMPDEST DUP4 PUSH1 0x2 EXP SWAP2 POP DUP5 DUP3 GT ISZERO PUSH2 0x185B JUMPI PUSH2 0x185A PUSH2 0x176B JUMP JUMPDEST JUMPDEST POP PUSH2 0x18C0 JUMP JUMPDEST POP PUSH1 0x20 DUP4 LT PUSH2 0x133 DUP4 LT AND PUSH1 0x4E DUP5 LT PUSH1 0xB DUP5 LT AND OR ISZERO PUSH2 0x1896 JUMPI DUP3 DUP3 EXP SWAP1 POP DUP4 DUP2 GT ISZERO PUSH2 0x1891 JUMPI PUSH2 0x1890 PUSH2 0x176B JUMP JUMPDEST JUMPDEST PUSH2 0x18C0 JUMP JUMPDEST PUSH2 0x18A3 DUP5 DUP5 DUP5 PUSH1 0x1 PUSH2 0x17A4 JUMP JUMPDEST SWAP3 POP SWAP1 POP DUP2 DUP5 DIV DUP2 GT ISZERO PUSH2 0x18BA JUMPI PUSH2 0x18B9 PUSH2 0x176B JUMP JUMPDEST JUMPDEST DUP2 DUP2 MUL SWAP1 POP JUMPDEST SWAP4 SWAP3 POP POP POP JUMP JUMPDEST PUSH0 PUSH2 0x18D1 DUP3 PUSH2 0x1436 JUMP JUMPDEST SWAP2 POP PUSH2 0x18DC DUP4 PUSH2 0x157D JUMP JUMPDEST SWAP3 POP PUSH2 0x1909 PUSH32 0xFFFFFFFFFFFFFFFFFFFFFFFFFFFFFFFFFFFFFFFFFFFFFFFFFFFFFFFFFFFFFFFF DUP5 DUP5 PUSH2 0x17F6 JUMP JUMPDEST SWAP1 POP SWAP3 SWAP2 POP POP JUMP JUMPDEST PUSH0 PUSH2 0x191B DUP3 PUSH2 0x1436 JUMP JUMPDEST SWAP2 POP PUSH2 0x1926 DUP4 PUSH2 0x1436 JUMP JUMPDEST SWAP3 POP DUP3 DUP3 MUL PUSH2 0x1934 DUP2 PUSH2 0x1436 JUMP JUMPDEST SWAP2 POP DUP3 DUP3 DIV DUP5 EQ DUP4 ISZERO OR PUSH2 0x194B JUMPI PUSH2 0x194A PUSH2 0x176B JUMP JUMPDEST JUMPDEST POP SWAP3 SWAP2 POP POP JUMP JUMPDEST PUSH32 0x45524332303A207472616E7366657220616D6F756E7420657863656564732061 PUSH0 DUP3 ADD MSTORE PUSH32 0x6C6C6F77616E6365000000000000000000000000000000000000000000000000 PUSH1 0x20 DUP3 ADD MSTORE POP JUMP JUMPDEST PUSH0 PUSH2 0x19AC PUSH1 0x28 DUP4 PUSH2 0x1352 JUMP JUMPDEST SWAP2 POP PUSH2 0x19B7 DUP3 PUSH2 0x1952 JUMP JUMPDEST PUSH1 0x40 DUP3 ADD SWAP1 POP SWAP2 SWAP1 POP JUMP JUMPDEST PUSH0 PUSH1 0x20 DUP3 ADD SWAP1 POP DUP2 DUP2 SUB PUSH0 DUP4 ADD MSTORE PUSH2 0x19D9 DUP2 PUSH2 0x19A0 JUMP JUMPDEST SWAP1 POP SWAP2 SWAP1 POP JUMP JUMPDEST PUSH0 PUSH2 0x19EA DUP3 PUSH2 0x1436 JUMP JUMPDEST SWAP2 POP PUSH2 0x19F5 DUP4 PUSH2 0x1436 JUMP JUMPDEST SWAP3 POP DUP3 DUP3 ADD SWAP1 POP DUP1 DUP3 GT ISZERO PUSH2 0x1A0D JUMPI PUSH2 0x1A0C PUSH2 0x176B JUMP JUMPDEST JUMPDEST SWAP3 SWAP2 POP POP JUMP JUMPDEST PUSH32 0x45524332303A206275726E20616D6F756E74206578636565647320616C6C6F77 PUSH0 DUP3 ADD MSTORE PUSH32 0x616E636500000000000000000000000000000000000000000000000000000000 PUSH1 0x20 DUP3 ADD MSTORE POP JUMP JUMPDEST PUSH0 PUSH2 0x1A6D PUSH1 0x24 DUP4 PUSH2 0x1352 JUMP JUMPDEST SWAP2 POP PUSH2 0x1A78 DUP3 PUSH2 0x1A13 JUMP JUMPDEST PUSH1 0x40 DUP3 ADD SWAP1 POP SWAP2 SWAP1 POP JUMP JUMPDEST PUSH0 PUSH1 0x20 DUP3 ADD SWAP1 POP DUP2 DUP2 SUB PUSH0 DUP4 ADD MSTORE PUSH2 0x1A9A DUP2 PUSH2 0x1A61 JUMP JUMPDEST SWAP1 POP SWAP2 SWAP1 POP JUMP JUMPDEST PUSH32 0x45524332303A2064656372656173656420616C6C6F77616E63652062656C6F77 PUSH0 DUP3 ADD MSTORE PUSH32 0x207A65726F000000000000000000000000000000000000000000000000000000 PUSH1 0x20 DUP3 ADD MSTORE POP JUMP JUMPDEST PUSH0 PUSH2 0x1AFB PUSH1 0x25 DUP4 PUSH2 0x1352 JUMP JUMPDEST SWAP2 POP PUSH2 0x1B06 DUP3 PUSH2 0x1AA1 JUMP JUMPDEST PUSH1 0x40 DUP3 ADD SWAP1 POP SWAP2 SWAP1 POP JUMP JUMPDEST PUSH0 PUSH1 0x20 DUP3 ADD SWAP1 POP DUP2 DUP2 SUB PUSH0 DUP4 ADD MSTORE PUSH2 0x1B28 DUP2 PUSH2 0x1AEF JUMP JUMPDEST SWAP1 POP SWAP2 SWAP1 POP JUMP JUMPDEST PUSH32 0x45524332303A20617070726F76652066726F6D20746865207A65726F20616464 PUSH0 DUP3 ADD MSTORE PUSH32 0x7265737300000000000000000000000000000000000000000000000000000000 PUSH1 0x20 DUP3 ADD MSTORE POP JUMP JUMPDEST PUSH0 PUSH2 0x1B89 PUSH1 0x24 DUP4 PUSH2 0x1352 JUMP JUMPDEST SWAP2 POP PUSH2 0x1B94 DUP3 PUSH2 0x1B2F JUMP JUMPDEST PUSH1 0x40 DUP3 ADD SWAP1 POP SWAP2 SWAP1 POP JUMP JUMPDEST PUSH0 PUSH1 0x20 DUP3 ADD SWAP1 POP DUP2 DUP2 SUB PUSH0 DUP4 ADD MSTORE PUSH2 0x1BB6 DUP2 PUSH2 0x1B7D JUMP JUMPDEST SWAP1 POP SWAP2 SWAP1 POP JUMP JUMPDEST PUSH32 0x45524332303A20617070726F766520746F20746865207A65726F206164647265 PUSH0 DUP3 ADD MSTORE PUSH32 0x7373000000000000000000000000000000000000000000000000000000000000 PUSH1 0x20 DUP3 ADD MSTORE POP JUMP JUMPDEST PUSH0 PUSH2 0x1C17 PUSH1 0x22 DUP4 PUSH2 0x1352 JUMP JUMPDEST SWAP2 POP PUSH2 0x1C22 DUP3 PUSH2 0x1BBD JUMP JUMPDEST PUSH1 0x40 DUP3 ADD SWAP1 POP SWAP2 SWAP1 POP JUMP JUMPDEST PUSH0 PUSH1 0x20 DUP3 ADD SWAP1 POP DUP2 DUP2 SUB PUSH0 DUP4 ADD MSTORE PUSH2 0x1C44 DUP2 PUSH2 0x1C0B JUMP JUMPDEST SWAP1 POP SWAP2 SWAP1 POP JUMP JUMPDEST PUSH32 0x45524332303A207472616E736665722066726F6D20746865207A65726F206164 PUSH0 DUP3 ADD MSTORE PUSH32 0x6472657373000000000000000000000000000000000000000000000000000000 PUSH1 0x20 DUP3 ADD MSTORE POP JUMP JUMPDEST PUSH0 PUSH2 0x1CA5 PUSH1 0x25 DUP4 PUSH2 0x1352 JUMP JUMPDEST SWAP2 POP PUSH2 0x1CB0 DUP3 PUSH2 0x1C4B JUMP JUMPDEST PUSH1 0x40 DUP3 ADD SWAP1 POP SWAP2 SWAP1 POP JUMP JUMPDEST PUSH0 PUSH1 0x20 DUP3 ADD SWAP1 POP DUP2 DUP2 SUB PUSH0 DUP4 ADD MSTORE PUSH2 0x1CD2 DUP2 PUSH2 0x1C99 JUMP JUMPDEST SWAP1 POP SWAP2 SWAP1 POP JUMP JUMPDEST PUSH32 0x45524332303A207472616E7366657220746F20746865207A65726F2061646472 PUSH0 DUP3 ADD MSTORE PUSH32 0x6573730000000000000000000000000000000000000000000000000000000000 PUSH1 0x20 DUP3 ADD MSTORE POP JUMP JUMPDEST PUSH0 PUSH2 0x1D33 PUSH1 0x23 DUP4 PUSH2 0x1352 JUMP JUMPDEST SWAP2 POP PUSH2 0x1D3E DUP3 PUSH2 0x1CD9 JUMP JUMPDEST PUSH1 0x40 DUP3 ADD SWAP1 POP SWAP2 SWAP1 POP JUMP JUMPDEST PUSH0 PUSH1 0x20 DUP3 ADD SWAP1 POP DUP2 DUP2 SUB PUSH0 DUP4 ADD MSTORE PUSH2 0x1D60 DUP2 PUSH2 0x1D27 JUMP JUMPDEST SWAP1 POP SWAP2 SWAP1 POP JUMP JUMPDEST PUSH32 0x45524332303A207472616E7366657220616D6F756E7420657863656564732062 PUSH0 DUP3 ADD MSTORE PUSH32 0x616C616E63650000000000000000000000000000000000000000000000000000 PUSH1 0x20 DUP3 ADD MSTORE POP JUMP JUMPDEST PUSH0 PUSH2 0x1DC1 PUSH1 0x26 DUP4 PUSH2 0x1352 JUMP JUMPDEST SWAP2 POP PUSH2 0x1DCC DUP3 PUSH2 0x1D67 JUMP JUMPDEST PUSH1 0x40 DUP3 ADD SWAP1 POP SWAP2 SWAP1 POP JUMP JUMPDEST PUSH0 PUSH1 0x20 DUP3 ADD SWAP1 POP DUP2 DUP2 SUB PUSH0 DUP4 ADD MSTORE PUSH2 0x1DEE DUP2 PUSH2 0x1DB5 JUMP JUMPDEST SWAP1 POP SWAP2 SWAP1 POP JUMP JUMPDEST PUSH32 0x45524332303A206275726E2066726F6D20746865207A65726F20616464726573 PUSH0 DUP3 ADD MSTORE PUSH32 0x7300000000000000000000000000000000000000000000000000000000000000 PUSH1 0x20 DUP3 ADD MSTORE POP JUMP JUMPDEST PUSH0 PUSH2 0x1E4F PUSH1 0x21 DUP4 PUSH2 0x1352 JUMP JUMPDEST SWAP2 POP PUSH2 0x1E5A DUP3 PUSH2 0x1DF5 JUMP JUMPDEST PUSH1 0x40 DUP3 ADD SWAP1 POP SWAP2 SWAP1 POP JUMP JUMPDEST PUSH0 PUSH1 0x20 DUP3 ADD SWAP1 POP DUP2 DUP2 SUB PUSH0 DUP4 ADD MSTORE PUSH2 0x1E7C DUP2 PUSH2 0x1E43 JUMP JUMPDEST SWAP1 POP SWAP2 SWAP1 POP JUMP JUMPDEST PUSH32 0x45524332303A206275726E20616D6F756E7420657863656564732062616C616E PUSH0 DUP3 ADD MSTORE PUSH32 0x6365000000000000000000000000000000000000000000000000000000000000 PUSH1 0x20 DUP3 ADD MSTORE POP JUMP JUMPDEST PUSH0 PUSH2 0x1EDD PUSH1 0x22 DUP4 PUSH2 0x1352 JUMP JUMPDEST SWAP2 POP PUSH2 0x1EE8 DUP3 PUSH2 0x1E83 JUMP JUMPDEST PUSH1 0x40 DUP3 ADD SWAP1 POP SWAP2 SWAP1 POP JUMP JUMPDEST PUSH0 PUSH1 0x20 DUP3 ADD SWAP1 POP DUP2 DUP2 SUB PUSH0 DUP4 ADD MSTORE PUSH2 0x1F0A DUP2 PUSH2 0x1ED1 JUMP JUMPDEST SWAP1 POP SWAP2 SWAP1 POP JUMP JUMPDEST PUSH0 PUSH2 0x1F1B DUP3 PUSH2 0x1436 JUMP JUMPDEST SWAP2 POP PUSH2 0x1F26 DUP4 PUSH2 0x1436 JUMP JUMPDEST SWAP3 POP DUP3 DUP3 SUB SWAP1 POP DUP2 DUP2 GT ISZERO PUSH2 0x1F3E JUMPI PUSH2 0x1F3D PUSH2 0x176B JUMP JUMPDEST JUMPDEST SWAP3 SWAP2 POP POP JUMP JUMPDEST PUSH32 0x45524332304361707065643A2063617020657863656564656400000000000000 PUSH0 DUP3 ADD MSTORE POP JUMP JUMPDEST PUSH0 PUSH2 0x1F78 PUSH1 0x19 DUP4 PUSH2 0x1352 JUMP JUMPDEST SWAP2 POP PUSH2 0x1F83 DUP3 PUSH2 0x1F44 JUMP JUMPDEST PUSH1 0x20 DUP3 ADD SWAP1 POP SWAP2 SWAP1 POP JUMP JUMPDEST PUSH0 PUSH1 0x20 DUP3 ADD SWAP1 POP DUP2 DUP2 SUB PUSH0 DUP4 ADD MSTORE PUSH2 0x1FA5 DUP2 PUSH2 0x1F6C JUMP JUMPDEST SWAP1 POP SWAP2 SWAP1 POP JUMP JUMPDEST PUSH32 0x45524332303A206D696E7420746F20746865207A65726F206164647265737300 PUSH0 DUP3 ADD MSTORE POP JUMP JUMPDEST PUSH0 PUSH2 0x1FE0 PUSH1 0x1F DUP4 PUSH2 0x1352 JUMP JUMPDEST SWAP2 POP PUSH2 0x1FEB DUP3 PUSH2 0x1FAC JUMP JUMPDEST PUSH1 0x20 DUP3 ADD SWAP1 POP SWAP2 SWAP1 POP JUMP JUMPDEST PUSH0 PUSH1 0x20 DUP3 ADD SWAP1 POP DUP2 DUP2 SUB PUSH0 DUP4 ADD MSTORE PUSH2 0x200D DUP2 PUSH2 0x1FD4 JUMP JUMPDEST SWAP1 POP SWAP2 SWAP1 POP JUMP INVALID LOG2 PUSH5 0x6970667358 0x22 SLT KECCAK256 0xBC 0xD0 0xCD GAS 0xB2 GASLIMIT SHL SWAP8 PUSH19 0x2C3C4A47150FD066A9DFB925638C438DC1B91 0xB6 PUSH0 0x21 0xC2 PUSH5 0x736F6C6343 STOP ADDMOD BYTE STOP CALLER "
				},
				"gasEstimates": {
					"creation": {
						"codeDepositCost": "1653200",
						"executionCost": "infinite",
						"totalCost": "infinite"
					},
					"external": {
						"allowance(address,address)": "infinite",
						"approve(address,uint256)": "infinite",
						"balanceOf(address)": "2896",
						"blockReward()": "2493",
						"burn(uint256)": "infinite",
						"burnFrom(address,uint256)": "infinite",
						"cap()": "infinite",
						"decimals()": "405",
						"decreaseAllowance(address,uint256)": "infinite",
						"getBlockReward()": "2542",
						"increaseAllowance(address,uint256)": "infinite",
						"name()": "infinite",
						"setBlockReward(uint256)": "infinite",
						"symbol()": "infinite",
						"totalSupply()": "2522",
						"transfer(address,uint256)": "infinite",
						"transferEther(address)": "infinite",
						"transferFrom(address,address,uint256)": "infinite"
					},
					"internal": {
						"_beforeTokenTransfer(address,address,uint256)": "infinite",
						"_mint(address,uint256)": "infinite",
						"_mintMinerReward()": "infinite"
					}
				},
				"methodIdentifiers": {
					"allowance(address,address)": "dd62ed3e",
					"approve(address,uint256)": "095ea7b3",
					"balanceOf(address)": "70a08231",
					"blockReward()": "0ac168a1",
					"burn(uint256)": "42966c68",
					"burnFrom(address,uint256)": "79cc6790",
					"cap()": "355274ea",
					"decimals()": "313ce567",
					"decreaseAllowance(address,uint256)": "a457c2d7",
					"getBlockReward()": "f89d4086",
					"increaseAllowance(address,uint256)": "39509351",
					"name()": "06fdde03",
					"setBlockReward(uint256)": "1a18e707",
					"symbol()": "95d89b41",
					"totalSupply()": "18160ddd",
					"transfer(address,uint256)": "a9059cbb",
					"transferEther(address)": "6b55e991",
					"transferFrom(address,address,uint256)": "23b872dd"
				}
			},
			"storageLayout": {
				"storage": [
					{
						"astId": 15,
						"contract": "contracts/GeoNexusToken.sol:GeoNexusToken",
						"label": "_balances",
						"offset": 0,
						"slot": "0",
						"type": "t_mapping(t_address,t_uint256)"
					},
					{
						"astId": 21,
						"contract": "contracts/GeoNexusToken.sol:GeoNexusToken",
						"label": "_allowances",
						"offset": 0,
						"slot": "1",
						"type": "t_mapping(t_address,t_mapping(t_address,t_uint256))"
					},
					{
						"astId": 23,
						"contract": "contracts/GeoNexusToken.sol:GeoNexusToken",
						"label": "_totalSupply",
						"offset": 0,
						"slot": "2",
						"type": "t_uint256"
					},
					{
						"astId": 25,
						"contract": "contracts/GeoNexusToken.sol:GeoNexusToken",
						"label": "_name",
						"offset": 0,
						"slot": "3",
						"type": "t_string_storage"
					},
					{
						"astId": 27,
						"contract": "contracts/GeoNexusToken.sol:GeoNexusToken",
						"label": "_symbol",
						"offset": 0,
						"slot": "4",
						"type": "t_string_storage"
					},
					{
						"astId": 810,
						"contract": "contracts/GeoNexusToken.sol:GeoNexusToken",
						"label": "owner",
						"offset": 0,
						"slot": "5",
						"type": "t_address_payable"
					},
					{
						"astId": 812,
						"contract": "contracts/GeoNexusToken.sol:GeoNexusToken",
						"label": "blockReward",
						"offset": 0,
						"slot": "6",
						"type": "t_uint256"
					}
				],
				"types": {
					"t_address": {
						"encoding": "inplace",
						"label": "address",
						"numberOfBytes": "20"
					},
					"t_address_payable": {
						"encoding": "inplace",
						"label": "address payable",
						"numberOfBytes": "20"
					},
					"t_mapping(t_address,t_mapping(t_address,t_uint256))": {
						"encoding": "mapping",
						"key": "t_address",
						"label": "mapping(address => mapping(address => uint256))",
						"numberOfBytes": "32",
						"value": "t_mapping(t_address,t_uint256)"
					},
					"t_mapping(t_address,t_uint256)": {
						"encoding": "mapping",
						"key": "t_address",
						"label": "mapping(address => uint256)",
						"numberOfBytes": "32",
						"value": "t_uint256"
					},
					"t_string_storage": {
						"encoding": "bytes",
						"label": "string",
						"numberOfBytes": "32"
					},
					"t_uint256": {
						"encoding": "inplace",
						"label": "uint256",
						"numberOfBytes": "32"
					}
				}
			},
			"userdoc": {
				"kind": "user",
				"methods": {},
				"version": 1
			}
		}
	}
}