{
	"contracts/Faucet.sol": {
		"Faucet": {
			"abi": [
				{
					"inputs": [
						{
							"internalType": "contract IERC20",
							"name": "token",
							"type": "address"
						}
					],
					"stateMutability": "nonpayable",
					"type": "constructor"
				},
				{
					"anonymous": false,
					"inputs": [
						{
							"indexed": true,
							"internalType": "address",
							"name": "from",
							"type": "address"
						},
						{
							"indexed": false,
							"internalType": "uint256",
							"name": "amount",
							"type": "uint256"
						}
					],
					"name": "Deposit",
					"type": "event"
				},
				{
					"anonymous": false,
					"inputs": [
						{
							"indexed": true,
							"internalType": "address",
							"name": "to",
							"type": "address"
						},
						{
							"indexed": false,
							"internalType": "uint256",
							"name": "amount",
							"type": "uint256"
						}
					],
					"name": "Withdrawal",
					"type": "event"
				},
				{
					"inputs": [
						{
							"internalType": "address",
							"name": "_address",
							"type": "address"
						}
					],
					"name": "allowedToWithdraw",
					"outputs": [
						{
							"internalType": "bool",
							"name": "",
							"type": "bool"
						}
					],
					"stateMutability": "view",
					"type": "function"
				},
				{
					"inputs": [],
					"name": "getBalance",
					"outputs": [
						{
							"internalType": "uint256",
							"name": "",
							"type": "uint256"
						}
					],
					"stateMutability": "view",
					"type": "function"
				},
				{
					"inputs": [
						{
							"internalType": "contract IERC20",
							"name": "token",
							"type": "address"
						}
					],
					"name": "setToken",
					"outputs": [],
					"stateMutability": "nonpayable",
					"type": "function"
				},
				{
					"inputs": [
						{
							"internalType": "uint256",
							"name": "amount",
							"type": "uint256"
						}
					],
					"name": "setWaitTime",
					"outputs": [],
					"stateMutability": "nonpayable",
					"type": "function"
				},
				{
					"inputs": [
						{
							"internalType": "uint256",
							"name": "amount",
							"type": "uint256"
						}
					],
					"name": "setWithdrawalAmount",
					"outputs": [],
					"stateMutability": "nonpayable",
					"type": "function"
				},
				{
					"inputs": [],
					"name": "waitTime",
					"outputs": [
						{
							"internalType": "uint256",
							"name": "",
							"type": "uint256"
						}
					],
					"stateMutability": "view",
					"type": "function"
				},
				{
					"inputs": [],
					"name": "withdraw",
					"outputs": [],
					"stateMutability": "nonpayable",
					"type": "function"
				},
				{
					"inputs": [],
					"name": "withdrawalAmount",
					"outputs": [
						{
							"internalType": "uint256",
							"name": "",
							"type": "uint256"
						}
					],
					"stateMutability": "view",
					"type": "function"
				},
				{
					"stateMutability": "payable",
					"type": "receive"
				}
			],
			"devdoc": {
				"kind": "dev",
				"methods": {},
				"version": 1
			},
			"evm": {
				"assembly": "    /* \"contracts/Faucet.sol\":116:2572  contract Faucet {... */\n  mstore(0x40, 0x80)\n    /* \"contracts/Faucet.sol\":273:288  50 * (10 ** 18) */\n  0x02b5e3af16b1880000\n    /* \"contracts/Faucet.sol\":239:288  uint256 public withdrawalAmount = 50 * (10 ** 18) */\n  0x02\n  sstore\n    /* \"contracts/Faucet.sol\":354:366  4320 minutes */\n  0x03f480\n    /* \"contracts/Faucet.sol\":328:366  uint256 public waitTime = 4320 minutes */\n  0x03\n  sstore\n    /* \"contracts/Faucet.sol\":532:627  constructor (IERC20 token) {... */\n  callvalue\n  dup1\n  iszero\n  tag_1\n  jumpi\n  0x00\n  dup1\n  revert\ntag_1:\n  pop\n  mload(0x40)\n  sub(codesize, bytecodeSize)\n  dup1\n  bytecodeSize\n  dup4\n  codecopy\n  dup2\n  dup2\n  add\n  0x40\n  mstore\n  dup2\n  add\n  swap1\n  tag_2\n  swap2\n  swap1\n  tag_3\n  jump\t// in\ntag_2:\n    /* \"contracts/Faucet.sol\":578:583  token */\n  dup1\n    /* \"contracts/Faucet.sol\":569:575  _token */\n  0x01\n  0x00\n    /* \"contracts/Faucet.sol\":569:583  _token = token */\n  0x0100\n  exp\n  dup2\n  sload\n  dup2\n  0xffffffffffffffffffffffffffffffffffffffff\n  mul\n  not\n  and\n  swap1\n  dup4\n  0xffffffffffffffffffffffffffffffffffffffff\n  and\n  mul\n  or\n  swap1\n  sstore\n  pop\n    /* \"contracts/Faucet.sol\":609:619  msg.sender */\n  caller\n    /* \"contracts/Faucet.sol\":593:598  owner */\n  0x00\n  dup1\n    /* \"contracts/Faucet.sol\":593:620  owner = payable(msg.sender) */\n  0x0100\n  exp\n  dup2\n  sload\n  dup2\n  0xffffffffffffffffffffffffffffffffffffffff\n  mul\n  not\n  and\n  swap1\n  dup4\n  0xffffffffffffffffffffffffffffffffffffffff\n  and\n  mul\n  or\n  swap1\n  sstore\n  pop\n    /* \"contracts/Faucet.sol\":532:627  constructor (IERC20 token) {... */\n  pop\n    /* \"contracts/Faucet.sol\":116:2572  contract Faucet {... */\n  jump(tag_6)\n    /* \"#utility.yul\":88:205   */\ntag_8:\n    /* \"#utility.yul\":197:198   */\n  0x00\n    /* \"#utility.yul\":194:195   */\n  dup1\n    /* \"#utility.yul\":187:199   */\n  revert\n    /* \"#utility.yul\":334:460   */\ntag_10:\n    /* \"#utility.yul\":371:378   */\n  0x00\n    /* \"#utility.yul\":411:453   */\n  0xffffffffffffffffffffffffffffffffffffffff\n    /* \"#utility.yul\":404:409   */\n  dup3\n    /* \"#utility.yul\":400:454   */\n  and\n    /* \"#utility.yul\":389:454   */\n  swap1\n  pop\n    /* \"#utility.yul\":334:460   */\n  swap2\n  swap1\n  pop\n  jump\t// out\n    /* \"#utility.yul\":466:562   */\ntag_11:\n    /* \"#utility.yul\":503:510   */\n  0x00\n    /* \"#utility.yul\":532:556   */\n  tag_21\n    /* \"#utility.yul\":550:555   */\n  dup3\n    /* \"#utility.yul\":532:556   */\n  tag_10\n  jump\t// in\ntag_21:\n    /* \"#utility.yul\":521:556   */\n  swap1\n  pop\n    /* \"#utility.yul\":466:562   */\n  swap2\n  swap1\n  pop\n  jump\t// out\n    /* \"#utility.yul\":568:677   */\ntag_12:\n    /* \"#utility.yul\":618:625   */\n  0x00\n    /* \"#utility.yul\":647:671   */\n  tag_23\n    /* \"#utility.yul\":665:670   */\n  dup3\n    /* \"#utility.yul\":647:671   */\n  tag_11\n  jump\t// in\ntag_23:\n    /* \"#utility.yul\":636:671   */\n  swap1\n  pop\n    /* \"#utility.yul\":568:677   */\n  swap2\n  swap1\n  pop\n  jump\t// out\n    /* \"#utility.yul\":683:831   */\ntag_13:\n    /* \"#utility.yul\":769:806   */\n  tag_25\n    /* \"#utility.yul\":800:805   */\n  dup2\n    /* \"#utility.yul\":769:806   */\n  tag_12\n  jump\t// in\ntag_25:\n    /* \"#utility.yul\":762:767   */\n  dup2\n    /* \"#utility.yul\":759:807   */\n  eq\n    /* \"#utility.yul\":749:825   */\n  tag_26\n  jumpi\n    /* \"#utility.yul\":821:822   */\n  0x00\n    /* \"#utility.yul\":818:819   */\n  dup1\n    /* \"#utility.yul\":811:823   */\n  revert\n    /* \"#utility.yul\":749:825   */\ntag_26:\n    /* \"#utility.yul\":683:831   */\n  pop\n  jump\t// out\n    /* \"#utility.yul\":837:1006   */\ntag_14:\n    /* \"#utility.yul\":907:912   */\n  0x00\n    /* \"#utility.yul\":938:944   */\n  dup2\n    /* \"#utility.yul\":932:945   */\n  mload\n    /* \"#utility.yul\":923:945   */\n  swap1\n  pop\n    /* \"#utility.yul\":954:1000   */\n  tag_28\n    /* \"#utility.yul\":994:999   */\n  dup2\n    /* \"#utility.yul\":954:1000   */\n  tag_13\n  jump\t// in\ntag_28:\n    /* \"#utility.yul\":837:1006   */\n  swap3\n  swap2\n  pop\n  pop\n  jump\t// out\n    /* \"#utility.yul\":1012:1389   */\ntag_3:\n    /* \"#utility.yul\":1095:1101   */\n  0x00\n    /* \"#utility.yul\":1144:1146   */\n  0x20\n    /* \"#utility.yul\":1132:1141   */\n  dup3\n    /* \"#utility.yul\":1123:1130   */\n  dup5\n    /* \"#utility.yul\":1119:1142   */\n  sub\n    /* \"#utility.yul\":1115:1147   */\n  slt\n    /* \"#utility.yul\":1112:1231   */\n  iszero\n  tag_30\n  jumpi\n    /* \"#utility.yul\":1150:1229   */\n  tag_31\n  tag_8\n  jump\t// in\ntag_31:\n    /* \"#utility.yul\":1112:1231   */\ntag_30:\n    /* \"#utility.yul\":1270:1271   */\n  0x00\n    /* \"#utility.yul\":1295:1372   */\n  tag_32\n    /* \"#utility.yul\":1364:1371   */\n  dup5\n    /* \"#utility.yul\":1355:1361   */\n  dup3\n    /* \"#utility.yul\":1344:1353   */\n  dup6\n    /* \"#utility.yul\":1340:1362   */\n  add\n    /* \"#utility.yul\":1295:1372   */\n  tag_14\n  jump\t// in\ntag_32:\n    /* \"#utility.yul\":1285:1372   */\n  swap2\n  pop\n    /* \"#utility.yul\":1241:1382   */\n  pop\n    /* \"#utility.yul\":1012:1389   */\n  swap3\n  swap2\n  pop\n  pop\n  jump\t// out\n    /* \"contracts/Faucet.sol\":116:2572  contract Faucet {... */\ntag_6:\n  dataSize(sub_0)\n  dup1\n  dataOffset(sub_0)\n  0x00\n  codecopy\n  0x00\n  return\nstop\n\nsub_0: assembly {\n        /* \"contracts/Faucet.sol\":116:2572  contract Faucet {... */\n      mstore(0x40, 0x80)\n      jumpi(tag_1, lt(calldatasize, 0x04))\n      shr(0xe0, calldataload(0x00))\n      dup1\n      0x3ccfd60b\n      gt\n      tag_11\n      jumpi\n      dup1\n      0x3ccfd60b\n      eq\n      tag_7\n      jumpi\n      dup1\n      0xccca123b\n      eq\n      tag_8\n      jumpi\n      dup1\n      0xdf351aaf\n      eq\n      tag_9\n      jumpi\n      dup1\n      0xe6e268f4\n      eq\n      tag_10\n      jumpi\n      jump(tag_2)\n    tag_11:\n      dup1\n      0x12065fe0\n      eq\n      tag_3\n      jumpi\n      dup1\n      0x144fa6d7\n      eq\n      tag_4\n      jumpi\n      dup1\n      0x168ee33a\n      eq\n      tag_5\n      jumpi\n      dup1\n      0x2d291cad\n      eq\n      tag_6\n      jumpi\n      jump(tag_2)\n    tag_1:\n      jumpi(tag_2, calldatasize)\n        /* \"contracts/Faucet.sol\":717:727  msg.sender */\n      caller\n        /* \"contracts/Faucet.sol\":709:739  Deposit(msg.sender, msg.value) */\n      0xffffffffffffffffffffffffffffffffffffffff\n      and\n      0xe1fffcc4923d04b559f4d29a8bfc6cda04eb5b0d3c460751c2402c5c5cc9109c\n        /* \"contracts/Faucet.sol\":729:738  msg.value */\n      callvalue\n        /* \"contracts/Faucet.sol\":709:739  Deposit(msg.sender, msg.value) */\n      mload(0x40)\n      tag_14\n      swap2\n      swap1\n      tag_15\n      jump\t// in\n    tag_14:\n      mload(0x40)\n      dup1\n      swap2\n      sub\n      swap1\n      log2\n        /* \"contracts/Faucet.sol\":116:2572  contract Faucet {... */\n      stop\n    tag_2:\n      0x00\n      dup1\n      revert\n        /* \"contracts/Faucet.sol\":1481:1586  function getBalance() public view returns (uint256) {... */\n    tag_3:\n      callvalue\n      dup1\n      iszero\n      tag_16\n      jumpi\n      0x00\n      dup1\n      revert\n    tag_16:\n      pop\n      tag_17\n      tag_18\n      jump\t// in\n    tag_17:\n      mload(0x40)\n      tag_19\n      swap2\n      swap1\n      tag_15\n      jump\t// in\n    tag_19:\n      mload(0x40)\n      dup1\n      swap2\n      sub\n      swap1\n      return\n        /* \"contracts/Faucet.sol\":2295:2375  function setToken(IERC20 token) public onlyOwner {... */\n    tag_4:\n      callvalue\n      dup1\n      iszero\n      tag_20\n      jumpi\n      0x00\n      dup1\n      revert\n    tag_20:\n      pop\n      tag_21\n      0x04\n      dup1\n      calldatasize\n      sub\n      dup2\n      add\n      swap1\n      tag_22\n      swap2\n      swap1\n      tag_23\n      jump\t// in\n    tag_22:\n      tag_24\n      jump\t// in\n    tag_21:\n      stop\n        /* \"contracts/Faucet.sol\":1905:2125  function setWithdrawalAmount(uint256 amount) public onlyOwner {... */\n    tag_5:\n      callvalue\n      dup1\n      iszero\n      tag_25\n      jumpi\n      0x00\n      dup1\n      revert\n    tag_25:\n      pop\n      tag_26\n      0x04\n      dup1\n      calldatasize\n      sub\n      dup2\n      add\n      swap1\n      tag_27\n      swap2\n      swap1\n      tag_28\n      jump\t// in\n    tag_27:\n      tag_29\n      jump\t// in\n    tag_26:\n      stop\n        /* \"contracts/Faucet.sol\":1592:1864  function allowedToWithdraw(address _address) public view returns (bool) {... */\n    tag_6:\n      callvalue\n      dup1\n      iszero\n      tag_30\n      jumpi\n      0x00\n      dup1\n      revert\n    tag_30:\n      pop\n      tag_31\n      0x04\n      dup1\n      calldatasize\n      sub\n      dup2\n      add\n      swap1\n      tag_32\n      swap2\n      swap1\n      tag_33\n      jump\t// in\n    tag_32:\n      tag_34\n      jump\t// in\n    tag_31:\n      mload(0x40)\n      tag_35\n      swap2\n      swap1\n      tag_36\n      jump\t// in\n    tag_35:\n      mload(0x40)\n      dup1\n      swap2\n      sub\n      swap1\n      return\n        /* \"contracts/Faucet.sol\":793:1475  function withdraw() public {... */\n    tag_7:\n      callvalue\n      dup1\n      iszero\n      tag_37\n      jumpi\n      0x00\n      dup1\n      revert\n    tag_37:\n      pop\n      tag_38\n      tag_39\n      jump\t// in\n    tag_38:\n      stop\n        /* \"contracts/Faucet.sol\":328:366  uint256 public waitTime = 4320 minutes */\n    tag_8:\n      callvalue\n      dup1\n      iszero\n      tag_40\n      jumpi\n      0x00\n      dup1\n      revert\n    tag_40:\n      pop\n      tag_41\n      tag_42\n      jump\t// in\n    tag_41:\n      mload(0x40)\n      tag_43\n      swap2\n      swap1\n      tag_15\n      jump\t// in\n    tag_43:\n      mload(0x40)\n      dup1\n      swap2\n      sub\n      swap1\n      return\n        /* \"contracts/Faucet.sol\":2159:2259  function setWaitTime(uint256 amount) public onlyOwner {... */\n    tag_9:\n      callvalue\n      dup1\n      iszero\n      tag_44\n      jumpi\n      0x00\n      dup1\n      revert\n    tag_44:\n      pop\n      tag_45\n      0x04\n      dup1\n      calldatasize\n      sub\n      dup2\n      add\n      swap1\n      tag_46\n      swap2\n      swap1\n      tag_28\n      jump\t// in\n    tag_46:\n      tag_47\n      jump\t// in\n    tag_45:\n      stop\n        /* \"contracts/Faucet.sol\":239:288  uint256 public withdrawalAmount = 50 * (10 ** 18) */\n    tag_10:\n      callvalue\n      dup1\n      iszero\n      tag_48\n      jumpi\n      0x00\n      dup1\n      revert\n    tag_48:\n      pop\n      tag_49\n      tag_50\n      jump\t// in\n    tag_49:\n      mload(0x40)\n      tag_51\n      swap2\n      swap1\n      tag_15\n      jump\t// in\n    tag_51:\n      mload(0x40)\n      dup1\n      swap2\n      sub\n      swap1\n      return\n        /* \"contracts/Faucet.sol\":1481:1586  function getBalance() public view returns (uint256) {... */\n    tag_18:\n        /* \"contracts/Faucet.sol\":1524:1531  uint256 */\n      0x00\n        /* \"contracts/Faucet.sol\":1548:1554  _token */\n      0x01\n      0x00\n      swap1\n      sload\n      swap1\n      0x0100\n      exp\n      swap1\n      div\n      0xffffffffffffffffffffffffffffffffffffffff\n      and\n        /* \"contracts/Faucet.sol\":1548:1564  _token.balanceOf */\n      0xffffffffffffffffffffffffffffffffffffffff\n      and\n      0x70a08231\n        /* \"contracts/Faucet.sol\":1573:1577  this */\n      address\n        /* \"contracts/Faucet.sol\":1548:1579  _token.balanceOf(address(this)) */\n      mload(0x40)\n      dup3\n      0xffffffff\n      and\n      0xe0\n      shl\n      dup2\n      mstore\n      0x04\n      add\n      tag_53\n      swap2\n      swap1\n      tag_54\n      jump\t// in\n    tag_53:\n      0x20\n      mload(0x40)\n      dup1\n      dup4\n      sub\n      dup2\n      dup7\n      gas\n      staticcall\n      iszero\n      dup1\n      iszero\n      tag_56\n      jumpi\n      returndatasize\n      0x00\n      dup1\n      returndatacopy\n      revert(0x00, returndatasize)\n    tag_56:\n      pop\n      pop\n      pop\n      pop\n      mload(0x40)\n      returndatasize\n      not(0x1f)\n      0x1f\n      dup3\n      add\n      and\n      dup3\n      add\n      dup1\n      0x40\n      mstore\n      pop\n      dup2\n      add\n      swap1\n      tag_57\n      swap2\n      swap1\n      tag_58\n      jump\t// in\n    tag_57:\n        /* \"contracts/Faucet.sol\":1541:1579  return _token.balanceOf(address(this)) */\n      swap1\n      pop\n        /* \"contracts/Faucet.sol\":1481:1586  function getBalance() public view returns (uint256) {... */\n      swap1\n      jump\t// out\n        /* \"contracts/Faucet.sol\":2295:2375  function setToken(IERC20 token) public onlyOwner {... */\n    tag_24:\n        /* \"contracts/Faucet.sol\":2496:2501  owner */\n      0x00\n      dup1\n      sload\n      swap1\n      0x0100\n      exp\n      swap1\n      div\n      0xffffffffffffffffffffffffffffffffffffffff\n      and\n        /* \"contracts/Faucet.sol\":2482:2501  msg.sender == owner */\n      0xffffffffffffffffffffffffffffffffffffffff\n      and\n        /* \"contracts/Faucet.sol\":2482:2492  msg.sender */\n      caller\n        /* \"contracts/Faucet.sol\":2482:2501  msg.sender == owner */\n      0xffffffffffffffffffffffffffffffffffffffff\n      and\n      eq\n        /* \"contracts/Faucet.sol\":2474:2552  require(msg.sender == owner, \"Only the contract owner can call this function\") */\n      tag_60\n      jumpi\n      mload(0x40)\n      0x08c379a000000000000000000000000000000000000000000000000000000000\n      dup2\n      mstore\n      0x04\n      add\n      tag_61\n      swap1\n      tag_62\n      jump\t// in\n    tag_61:\n      mload(0x40)\n      dup1\n      swap2\n      sub\n      swap1\n      revert\n    tag_60:\n        /* \"contracts/Faucet.sol\":2363:2368  token */\n      dup1\n        /* \"contracts/Faucet.sol\":2354:2360  _token */\n      0x01\n      0x00\n        /* \"contracts/Faucet.sol\":2354:2368  _token = token */\n      0x0100\n      exp\n      dup2\n      sload\n      dup2\n      0xffffffffffffffffffffffffffffffffffffffff\n      mul\n      not\n      and\n      swap1\n      dup4\n      0xffffffffffffffffffffffffffffffffffffffff\n      and\n      mul\n      or\n      swap1\n      sstore\n      pop\n        /* \"contracts/Faucet.sol\":2295:2375  function setToken(IERC20 token) public onlyOwner {... */\n      pop\n      jump\t// out\n        /* \"contracts/Faucet.sol\":1905:2125  function setWithdrawalAmount(uint256 amount) public onlyOwner {... */\n    tag_29:\n        /* \"contracts/Faucet.sol\":2496:2501  owner */\n      0x00\n      dup1\n      sload\n      swap1\n      0x0100\n      exp\n      swap1\n      div\n      0xffffffffffffffffffffffffffffffffffffffff\n      and\n        /* \"contracts/Faucet.sol\":2482:2501  msg.sender == owner */\n      0xffffffffffffffffffffffffffffffffffffffff\n      and\n        /* \"contracts/Faucet.sol\":2482:2492  msg.sender */\n      caller\n        /* \"contracts/Faucet.sol\":2482:2501  msg.sender == owner */\n      0xffffffffffffffffffffffffffffffffffffffff\n      and\n      eq\n        /* \"contracts/Faucet.sol\":2474:2552  require(msg.sender == owner, \"Only the contract owner can call this function\") */\n      tag_65\n      jumpi\n      mload(0x40)\n      0x08c379a000000000000000000000000000000000000000000000000000000000\n      dup2\n      mstore\n      0x04\n      add\n      tag_66\n      swap1\n      tag_62\n      jump\t// in\n    tag_66:\n      mload(0x40)\n      dup1\n      swap2\n      sub\n      swap1\n      revert\n    tag_65:\n        /* \"contracts/Faucet.sol\":2051:2069  10000 * (10 ** 18) */\n      0x021e19e0c9bab2400000\n        /* \"contracts/Faucet.sol\":2041:2047  amount */\n      dup2\n        /* \"contracts/Faucet.sol\":2041:2069  amount <= 10000 * (10 ** 18) */\n      gt\n      iszero\n        /* \"contracts/Faucet.sol\":2033:2070  require(amount <= 10000 * (10 ** 18)) */\n      tag_68\n      jumpi\n      0x00\n      dup1\n      revert\n    tag_68:\n        /* \"contracts/Faucet.sol\":2109:2117  10 ** 18 */\n      0x0de0b6b3a7640000\n        /* \"contracts/Faucet.sol\":2099:2105  amount */\n      dup2\n        /* \"contracts/Faucet.sol\":2099:2118  amount * (10 ** 18) */\n      tag_69\n      swap2\n      swap1\n      tag_70\n      jump\t// in\n    tag_69:\n        /* \"contracts/Faucet.sol\":2080:2096  withdrawalAmount */\n      0x02\n        /* \"contracts/Faucet.sol\":2080:2118  withdrawalAmount = amount * (10 ** 18) */\n      dup2\n      swap1\n      sstore\n      pop\n        /* \"contracts/Faucet.sol\":1905:2125  function setWithdrawalAmount(uint256 amount) public onlyOwner {... */\n      pop\n      jump\t// out\n        /* \"contracts/Faucet.sol\":1592:1864  function allowedToWithdraw(address _address) public view returns (bool) {... */\n    tag_34:\n        /* \"contracts/Faucet.sol\":1658:1662  bool */\n      0x00\n        /* \"contracts/Faucet.sol\":1706:1707  0 */\n      dup1\n        /* \"contracts/Faucet.sol\":1678:1692  lastAccessTime */\n      0x04\n        /* \"contracts/Faucet.sol\":1678:1702  lastAccessTime[_address] */\n      0x00\n        /* \"contracts/Faucet.sol\":1693:1701  _address */\n      dup5\n        /* \"contracts/Faucet.sol\":1678:1702  lastAccessTime[_address] */\n      0xffffffffffffffffffffffffffffffffffffffff\n      and\n      0xffffffffffffffffffffffffffffffffffffffff\n      and\n      dup2\n      mstore\n      0x20\n      add\n      swap1\n      dup2\n      mstore\n      0x20\n      add\n      0x00\n      keccak256\n      sload\n        /* \"contracts/Faucet.sol\":1678:1707  lastAccessTime[_address] == 0 */\n      sub\n        /* \"contracts/Faucet.sol\":1674:1836  if (lastAccessTime[_address] == 0) {... */\n      tag_72\n      jumpi\n        /* \"contracts/Faucet.sol\":1730:1734  true */\n      0x01\n        /* \"contracts/Faucet.sol\":1723:1734  return true */\n      swap1\n      pop\n      jump(tag_71)\n        /* \"contracts/Faucet.sol\":1674:1836  if (lastAccessTime[_address] == 0) {... */\n    tag_72:\n        /* \"contracts/Faucet.sol\":1774:1788  lastAccessTime */\n      0x04\n        /* \"contracts/Faucet.sol\":1774:1798  lastAccessTime[_address] */\n      0x00\n        /* \"contracts/Faucet.sol\":1789:1797  _address */\n      dup4\n        /* \"contracts/Faucet.sol\":1774:1798  lastAccessTime[_address] */\n      0xffffffffffffffffffffffffffffffffffffffff\n      and\n      0xffffffffffffffffffffffffffffffffffffffff\n      and\n      dup2\n      mstore\n      0x20\n      add\n      swap1\n      dup2\n      mstore\n      0x20\n      add\n      0x00\n      keccak256\n      sload\n        /* \"contracts/Faucet.sol\":1755:1770  block.timestamp */\n      timestamp\n        /* \"contracts/Faucet.sol\":1755:1798  block.timestamp >= lastAccessTime[_address] */\n      lt\n        /* \"contracts/Faucet.sol\":1751:1836  if (block.timestamp >= lastAccessTime[_address]) {... */\n      tag_74\n      jumpi\n        /* \"contracts/Faucet.sol\":1821:1825  true */\n      0x01\n        /* \"contracts/Faucet.sol\":1814:1825  return true */\n      swap1\n      pop\n      jump(tag_71)\n        /* \"contracts/Faucet.sol\":1751:1836  if (block.timestamp >= lastAccessTime[_address]) {... */\n    tag_74:\n        /* \"contracts/Faucet.sol\":1852:1857  false */\n      0x00\n        /* \"contracts/Faucet.sol\":1845:1857  return false */\n      swap1\n      pop\n        /* \"contracts/Faucet.sol\":1592:1864  function allowedToWithdraw(address _address) public view returns (bool) {... */\n    tag_71:\n      swap2\n      swap1\n      pop\n      jump\t// out\n        /* \"contracts/Faucet.sol\":793:1475  function withdraw() public {... */\n    tag_39:\n        /* \"contracts/Faucet.sol\":838:867  allowedToWithdraw(msg.sender) */\n      tag_76\n        /* \"contracts/Faucet.sol\":856:866  msg.sender */\n      caller\n        /* \"contracts/Faucet.sol\":838:855  allowedToWithdraw */\n      tag_34\n        /* \"contracts/Faucet.sol\":838:867  allowedToWithdraw(msg.sender) */\n      jump\t// in\n    tag_76:\n        /* \"contracts/Faucet.sol\":830:937  require(allowedToWithdraw(msg.sender), \"Insufficient time elapsed since last withdrawal - try again later\") */\n      tag_77\n      jumpi\n      mload(0x40)\n      0x08c379a000000000000000000000000000000000000000000000000000000000\n      dup2\n      mstore\n      0x04\n      add\n      tag_78\n      swap1\n      tag_79\n      jump\t// in\n    tag_78:\n      mload(0x40)\n      dup1\n      swap2\n      sub\n      swap1\n      revert\n    tag_77:\n        /* \"contracts/Faucet.sol\":975:992  1000 * (10 ** 18) */\n      0x3635c9adc5dea00000\n        /* \"contracts/Faucet.sol\":955:971  withdrawalAmount */\n      sload(0x02)\n        /* \"contracts/Faucet.sol\":955:992  withdrawalAmount <= 1000 * (10 ** 18) */\n      gt\n      iszero\n        /* \"contracts/Faucet.sol\":947:1050  require(withdrawalAmount <= 1000 * (10 ** 18), \"Request exceeds maximum withdrawal amount of 1000 GNT\") */\n      tag_80\n      jumpi\n      mload(0x40)\n      0x08c379a000000000000000000000000000000000000000000000000000000000\n      dup2\n      mstore\n      0x04\n      add\n      tag_81\n      swap1\n      tag_82\n      jump\t// in\n    tag_81:\n      mload(0x40)\n      dup1\n      swap2\n      sub\n      swap1\n      revert\n    tag_80:\n        /* \"contracts/Faucet.sol\":1103:1119  withdrawalAmount */\n      sload(0x02)\n        /* \"contracts/Faucet.sol\":1068:1074  _token */\n      0x01\n      0x00\n      swap1\n      sload\n      swap1\n      0x0100\n      exp\n      swap1\n      div\n      0xffffffffffffffffffffffffffffffffffffffff\n      and\n        /* \"contracts/Faucet.sol\":1068:1084  _token.balanceOf */\n      0xffffffffffffffffffffffffffffffffffffffff\n      and\n      0x70a08231\n        /* \"contracts/Faucet.sol\":1093:1097  this */\n      address\n        /* \"contracts/Faucet.sol\":1068:1099  _token.balanceOf(address(this)) */\n      mload(0x40)\n      dup3\n      0xffffffff\n      and\n      0xe0\n      shl\n      dup2\n      mstore\n      0x04\n      add\n      tag_83\n      swap2\n      swap1\n      tag_54\n      jump\t// in\n    tag_83:\n      0x20\n      mload(0x40)\n      dup1\n      dup4\n      sub\n      dup2\n      dup7\n      gas\n      staticcall\n      iszero\n      dup1\n      iszero\n      tag_85\n      jumpi\n      returndatasize\n      0x00\n      dup1\n      returndatacopy\n      revert(0x00, returndatasize)\n    tag_85:\n      pop\n      pop\n      pop\n      pop\n      mload(0x40)\n      returndatasize\n      not(0x1f)\n      0x1f\n      dup3\n      add\n      and\n      dup3\n      add\n      dup1\n      0x40\n      mstore\n      pop\n      dup2\n      add\n      swap1\n      tag_86\n      swap2\n      swap1\n      tag_58\n      jump\t// in\n    tag_86:\n        /* \"contracts/Faucet.sol\":1068:1119  _token.balanceOf(address(this)) >= withdrawalAmount */\n      lt\n      iszero\n        /* \"contracts/Faucet.sol\":1060:1177  require(_token.balanceOf(address(this)) >= withdrawalAmount, \"Insufficient balance in faucet for withdrawal request\") */\n      tag_87\n      jumpi\n      mload(0x40)\n      0x08c379a000000000000000000000000000000000000000000000000000000000\n      dup2\n      mstore\n      0x04\n      add\n      tag_88\n      swap1\n      tag_89\n      jump\t// in\n    tag_88:\n      mload(0x40)\n      dup1\n      swap2\n      sub\n      swap1\n      revert\n    tag_87:\n        /* \"contracts/Faucet.sol\":1217:1218  0 */\n      0x00\n        /* \"contracts/Faucet.sol\":1195:1219  msg.sender != address(0) */\n      0xffffffffffffffffffffffffffffffffffffffff\n      and\n        /* \"contracts/Faucet.sol\":1195:1205  msg.sender */\n      caller\n        /* \"contracts/Faucet.sol\":1195:1219  msg.sender != address(0) */\n      0xffffffffffffffffffffffffffffffffffffffff\n      and\n      sub\n        /* \"contracts/Faucet.sol\":1187:1270  require(msg.sender != address(0), \"Request must not originate from a zero account\") */\n      tag_90\n      jumpi\n      mload(0x40)\n      0x08c379a000000000000000000000000000000000000000000000000000000000\n      dup2\n      mstore\n      0x04\n      add\n      tag_91\n      swap1\n      tag_92\n      jump\t// in\n    tag_91:\n      mload(0x40)\n      dup1\n      swap2\n      sub\n      swap1\n      revert\n    tag_90:\n        /* \"contracts/Faucet.sol\":1349:1355  _token */\n      0x01\n      0x00\n      swap1\n      sload\n      swap1\n      0x0100\n      exp\n      swap1\n      div\n      0xffffffffffffffffffffffffffffffffffffffff\n      and\n        /* \"contracts/Faucet.sol\":1349:1364  _token.transfer */\n      0xffffffffffffffffffffffffffffffffffffffff\n      and\n      0xa9059cbb\n        /* \"contracts/Faucet.sol\":1365:1375  msg.sender */\n      caller\n        /* \"contracts/Faucet.sol\":1377:1393  withdrawalAmount */\n      sload(0x02)\n        /* \"contracts/Faucet.sol\":1349:1394  _token.transfer(msg.sender, withdrawalAmount) */\n      mload(0x40)\n      dup4\n      0xffffffff\n      and\n      0xe0\n      shl\n      dup2\n      mstore\n      0x04\n      add\n      tag_93\n      swap3\n      swap2\n      swap1\n      tag_94\n      jump\t// in\n    tag_93:\n      0x20\n      mload(0x40)\n      dup1\n      dup4\n      sub\n      dup2\n      0x00\n      dup8\n      gas\n      call\n      iszero\n      dup1\n      iszero\n      tag_96\n      jumpi\n      returndatasize\n      0x00\n      dup1\n      returndatacopy\n      revert(0x00, returndatasize)\n    tag_96:\n      pop\n      pop\n      pop\n      pop\n      mload(0x40)\n      returndatasize\n      not(0x1f)\n      0x1f\n      dup3\n      add\n      and\n      dup3\n      add\n      dup1\n      0x40\n      mstore\n      pop\n      dup2\n      add\n      swap1\n      tag_97\n      swap2\n      swap1\n      tag_98\n      jump\t// in\n    tag_97:\n      pop\n        /* \"contracts/Faucet.sol\":1460:1468  waitTime */\n      sload(0x03)\n        /* \"contracts/Faucet.sol\":1442:1457  block.timestamp */\n      timestamp\n        /* \"contracts/Faucet.sol\":1442:1468  block.timestamp + waitTime */\n      tag_99\n      swap2\n      swap1\n      tag_100\n      jump\t// in\n    tag_99:\n        /* \"contracts/Faucet.sol\":1413:1427  lastAccessTime */\n      0x04\n        /* \"contracts/Faucet.sol\":1413:1439  lastAccessTime[msg.sender] */\n      0x00\n        /* \"contracts/Faucet.sol\":1428:1438  msg.sender */\n      caller\n        /* \"contracts/Faucet.sol\":1413:1439  lastAccessTime[msg.sender] */\n      0xffffffffffffffffffffffffffffffffffffffff\n      and\n      0xffffffffffffffffffffffffffffffffffffffff\n      and\n      dup2\n      mstore\n      0x20\n      add\n      swap1\n      dup2\n      mstore\n      0x20\n      add\n      0x00\n      keccak256\n        /* \"contracts/Faucet.sol\":1413:1468  lastAccessTime[msg.sender] = block.timestamp + waitTime */\n      dup2\n      swap1\n      sstore\n      pop\n        /* \"contracts/Faucet.sol\":793:1475  function withdraw() public {... */\n      jump\t// out\n        /* \"contracts/Faucet.sol\":328:366  uint256 public waitTime = 4320 minutes */\n    tag_42:\n      sload(0x03)\n      dup2\n      jump\t// out\n        /* \"contracts/Faucet.sol\":2159:2259  function setWaitTime(uint256 amount) public onlyOwner {... */\n    tag_47:\n        /* \"contracts/Faucet.sol\":2496:2501  owner */\n      0x00\n      dup1\n      sload\n      swap1\n      0x0100\n      exp\n      swap1\n      div\n      0xffffffffffffffffffffffffffffffffffffffff\n      and\n        /* \"contracts/Faucet.sol\":2482:2501  msg.sender == owner */\n      0xffffffffffffffffffffffffffffffffffffffff\n      and\n        /* \"contracts/Faucet.sol\":2482:2492  msg.sender */\n      caller\n        /* \"contracts/Faucet.sol\":2482:2501  msg.sender == owner */\n      0xffffffffffffffffffffffffffffffffffffffff\n      and\n      eq\n        /* \"contracts/Faucet.sol\":2474:2552  require(msg.sender == owner, \"Only the contract owner can call this function\") */\n      tag_102\n      jumpi\n      mload(0x40)\n      0x08c379a000000000000000000000000000000000000000000000000000000000\n      dup2\n      mstore\n      0x04\n      add\n      tag_103\n      swap1\n      tag_62\n      jump\t// in\n    tag_103:\n      mload(0x40)\n      dup1\n      swap2\n      sub\n      swap1\n      revert\n    tag_102:\n        /* \"contracts/Faucet.sol\":2243:2252  1 minutes */\n      0x3c\n        /* \"contracts/Faucet.sol\":2234:2240  amount */\n      dup2\n        /* \"contracts/Faucet.sol\":2234:2252  amount * 1 minutes */\n      tag_105\n      swap2\n      swap1\n      tag_70\n      jump\t// in\n    tag_105:\n        /* \"contracts/Faucet.sol\":2223:2231  waitTime */\n      0x03\n        /* \"contracts/Faucet.sol\":2223:2252  waitTime = amount * 1 minutes */\n      dup2\n      swap1\n      sstore\n      pop\n        /* \"contracts/Faucet.sol\":2159:2259  function setWaitTime(uint256 amount) public onlyOwner {... */\n      pop\n      jump\t// out\n        /* \"contracts/Faucet.sol\":239:288  uint256 public withdrawalAmount = 50 * (10 ** 18) */\n    tag_50:\n      sload(0x02)\n      dup2\n      jump\t// out\n        /* \"#utility.yul\":7:84   */\n    tag_106:\n        /* \"#utility.yul\":44:51   */\n      0x00\n        /* \"#utility.yul\":73:78   */\n      dup2\n        /* \"#utility.yul\":62:78   */\n      swap1\n      pop\n        /* \"#utility.yul\":7:84   */\n      swap2\n      swap1\n      pop\n      jump\t// out\n        /* \"#utility.yul\":90:208   */\n    tag_107:\n        /* \"#utility.yul\":177:201   */\n      tag_141\n        /* \"#utility.yul\":195:200   */\n      dup2\n        /* \"#utility.yul\":177:201   */\n      tag_106\n      jump\t// in\n    tag_141:\n        /* \"#utility.yul\":172:175   */\n      dup3\n        /* \"#utility.yul\":165:202   */\n      mstore\n        /* \"#utility.yul\":90:208   */\n      pop\n      pop\n      jump\t// out\n        /* \"#utility.yul\":214:436   */\n    tag_15:\n        /* \"#utility.yul\":307:311   */\n      0x00\n        /* \"#utility.yul\":345:347   */\n      0x20\n        /* \"#utility.yul\":334:343   */\n      dup3\n        /* \"#utility.yul\":330:348   */\n      add\n        /* \"#utility.yul\":322:348   */\n      swap1\n      pop\n        /* \"#utility.yul\":358:429   */\n      tag_143\n        /* \"#utility.yul\":426:427   */\n      0x00\n        /* \"#utility.yul\":415:424   */\n      dup4\n        /* \"#utility.yul\":411:428   */\n      add\n        /* \"#utility.yul\":402:408   */\n      dup5\n        /* \"#utility.yul\":358:429   */\n      tag_107\n      jump\t// in\n    tag_143:\n        /* \"#utility.yul\":214:436   */\n      swap3\n      swap2\n      pop\n      pop\n      jump\t// out\n        /* \"#utility.yul\":523:640   */\n    tag_109:\n        /* \"#utility.yul\":632:633   */\n      0x00\n        /* \"#utility.yul\":629:630   */\n      dup1\n        /* \"#utility.yul\":622:634   */\n      revert\n        /* \"#utility.yul\":769:895   */\n    tag_111:\n        /* \"#utility.yul\":806:813   */\n      0x00\n        /* \"#utility.yul\":846:888   */\n      0xffffffffffffffffffffffffffffffffffffffff\n        /* \"#utility.yul\":839:844   */\n      dup3\n        /* \"#utility.yul\":835:889   */\n      and\n        /* \"#utility.yul\":824:889   */\n      swap1\n      pop\n        /* \"#utility.yul\":769:895   */\n      swap2\n      swap1\n      pop\n      jump\t// out\n        /* \"#utility.yul\":901:997   */\n    tag_112:\n        /* \"#utility.yul\":938:945   */\n      0x00\n        /* \"#utility.yul\":967:991   */\n      tag_149\n        /* \"#utility.yul\":985:990   */\n      dup3\n        /* \"#utility.yul\":967:991   */\n      tag_111\n      jump\t// in\n    tag_149:\n        /* \"#utility.yul\":956:991   */\n      swap1\n      pop\n        /* \"#utility.yul\":901:997   */\n      swap2\n      swap1\n      pop\n      jump\t// out\n        /* \"#utility.yul\":1003:1112   */\n    tag_113:\n        /* \"#utility.yul\":1053:1060   */\n      0x00\n        /* \"#utility.yul\":1082:1106   */\n      tag_151\n        /* \"#utility.yul\":1100:1105   */\n      dup3\n        /* \"#utility.yul\":1082:1106   */\n      tag_112\n      jump\t// in\n    tag_151:\n        /* \"#utility.yul\":1071:1106   */\n      swap1\n      pop\n        /* \"#utility.yul\":1003:1112   */\n      swap2\n      swap1\n      pop\n      jump\t// out\n        /* \"#utility.yul\":1118:1266   */\n    tag_114:\n        /* \"#utility.yul\":1204:1241   */\n      tag_153\n        /* \"#utility.yul\":1235:1240   */\n      dup2\n        /* \"#utility.yul\":1204:1241   */\n      tag_113\n      jump\t// in\n    tag_153:\n        /* \"#utility.yul\":1197:1202   */\n      dup2\n        /* \"#utility.yul\":1194:1242   */\n      eq\n        /* \"#utility.yul\":1184:1260   */\n      tag_154\n      jumpi\n        /* \"#utility.yul\":1256:1257   */\n      0x00\n        /* \"#utility.yul\":1253:1254   */\n      dup1\n        /* \"#utility.yul\":1246:1258   */\n      revert\n        /* \"#utility.yul\":1184:1260   */\n    tag_154:\n        /* \"#utility.yul\":1118:1266   */\n      pop\n      jump\t// out\n        /* \"#utility.yul\":1272:1437   */\n    tag_115:\n        /* \"#utility.yul\":1331:1336   */\n      0x00\n        /* \"#utility.yul\":1369:1375   */\n      dup2\n        /* \"#utility.yul\":1356:1376   */\n      calldataload\n        /* \"#utility.yul\":1347:1376   */\n      swap1\n      pop\n        /* \"#utility.yul\":1385:1431   */\n      tag_156\n        /* \"#utility.yul\":1425:1430   */\n      dup2\n        /* \"#utility.yul\":1385:1431   */\n      tag_114\n      jump\t// in\n    tag_156:\n        /* \"#utility.yul\":1272:1437   */\n      swap3\n      swap2\n      pop\n      pop\n      jump\t// out\n        /* \"#utility.yul\":1443:1798   */\n    tag_23:\n        /* \"#utility.yul\":1515:1521   */\n      0x00\n        /* \"#utility.yul\":1564:1566   */\n      0x20\n        /* \"#utility.yul\":1552:1561   */\n      dup3\n        /* \"#utility.yul\":1543:1550   */\n      dup5\n        /* \"#utility.yul\":1539:1562   */\n      sub\n        /* \"#utility.yul\":1535:1567   */\n      slt\n        /* \"#utility.yul\":1532:1651   */\n      iszero\n      tag_158\n      jumpi\n        /* \"#utility.yul\":1570:1649   */\n      tag_159\n      tag_109\n      jump\t// in\n    tag_159:\n        /* \"#utility.yul\":1532:1651   */\n    tag_158:\n        /* \"#utility.yul\":1690:1691   */\n      0x00\n        /* \"#utility.yul\":1715:1781   */\n      tag_160\n        /* \"#utility.yul\":1773:1780   */\n      dup5\n        /* \"#utility.yul\":1764:1770   */\n      dup3\n        /* \"#utility.yul\":1753:1762   */\n      dup6\n        /* \"#utility.yul\":1749:1771   */\n      add\n        /* \"#utility.yul\":1715:1781   */\n      tag_115\n      jump\t// in\n    tag_160:\n        /* \"#utility.yul\":1705:1781   */\n      swap2\n      pop\n        /* \"#utility.yul\":1661:1791   */\n      pop\n        /* \"#utility.yul\":1443:1798   */\n      swap3\n      swap2\n      pop\n      pop\n      jump\t// out\n        /* \"#utility.yul\":1804:1926   */\n    tag_116:\n        /* \"#utility.yul\":1877:1901   */\n      tag_162\n        /* \"#utility.yul\":1895:1900   */\n      dup2\n        /* \"#utility.yul\":1877:1901   */\n      tag_106\n      jump\t// in\n    tag_162:\n        /* \"#utility.yul\":1870:1875   */\n      dup2\n        /* \"#utility.yul\":1867:1902   */\n      eq\n        /* \"#utility.yul\":1857:1920   */\n      tag_163\n      jumpi\n        /* \"#utility.yul\":1916:1917   */\n      0x00\n        /* \"#utility.yul\":1913:1914   */\n      dup1\n        /* \"#utility.yul\":1906:1918   */\n      revert\n        /* \"#utility.yul\":1857:1920   */\n    tag_163:\n        /* \"#utility.yul\":1804:1926   */\n      pop\n      jump\t// out\n        /* \"#utility.yul\":1932:2071   */\n    tag_117:\n        /* \"#utility.yul\":1978:1983   */\n      0x00\n        /* \"#utility.yul\":2016:2022   */\n      dup2\n        /* \"#utility.yul\":2003:2023   */\n      calldataload\n        /* \"#utility.yul\":1994:2023   */\n      swap1\n      pop\n        /* \"#utility.yul\":2032:2065   */\n      tag_165\n        /* \"#utility.yul\":2059:2064   */\n      dup2\n        /* \"#utility.yul\":2032:2065   */\n      tag_116\n      jump\t// in\n    tag_165:\n        /* \"#utility.yul\":1932:2071   */\n      swap3\n      swap2\n      pop\n      pop\n      jump\t// out\n        /* \"#utility.yul\":2077:2406   */\n    tag_28:\n        /* \"#utility.yul\":2136:2142   */\n      0x00\n        /* \"#utility.yul\":2185:2187   */\n      0x20\n        /* \"#utility.yul\":2173:2182   */\n      dup3\n        /* \"#utility.yul\":2164:2171   */\n      dup5\n        /* \"#utility.yul\":2160:2183   */\n      sub\n        /* \"#utility.yul\":2156:2188   */\n      slt\n        /* \"#utility.yul\":2153:2272   */\n      iszero\n      tag_167\n      jumpi\n        /* \"#utility.yul\":2191:2270   */\n      tag_168\n      tag_109\n      jump\t// in\n    tag_168:\n        /* \"#utility.yul\":2153:2272   */\n    tag_167:\n        /* \"#utility.yul\":2311:2312   */\n      0x00\n        /* \"#utility.yul\":2336:2389   */\n      tag_169\n        /* \"#utility.yul\":2381:2388   */\n      dup5\n        /* \"#utility.yul\":2372:2378   */\n      dup3\n        /* \"#utility.yul\":2361:2370   */\n      dup6\n        /* \"#utility.yul\":2357:2379   */\n      add\n        /* \"#utility.yul\":2336:2389   */\n      tag_117\n      jump\t// in\n    tag_169:\n        /* \"#utility.yul\":2326:2389   */\n      swap2\n      pop\n        /* \"#utility.yul\":2282:2399   */\n      pop\n        /* \"#utility.yul\":2077:2406   */\n      swap3\n      swap2\n      pop\n      pop\n      jump\t// out\n        /* \"#utility.yul\":2412:2534   */\n    tag_118:\n        /* \"#utility.yul\":2485:2509   */\n      tag_171\n        /* \"#utility.yul\":2503:2508   */\n      dup2\n        /* \"#utility.yul\":2485:2509   */\n      tag_112\n      jump\t// in\n    tag_171:\n        /* \"#utility.yul\":2478:2483   */\n      dup2\n        /* \"#utility.yul\":2475:2510   */\n      eq\n        /* \"#utility.yul\":2465:2528   */\n      tag_172\n      jumpi\n        /* \"#utility.yul\":2524:2525   */\n      0x00\n        /* \"#utility.yul\":2521:2522   */\n      dup1\n        /* \"#utility.yul\":2514:2526   */\n      revert\n        /* \"#utility.yul\":2465:2528   */\n    tag_172:\n        /* \"#utility.yul\":2412:2534   */\n      pop\n      jump\t// out\n        /* \"#utility.yul\":2540:2679   */\n    tag_119:\n        /* \"#utility.yul\":2586:2591   */\n      0x00\n        /* \"#utility.yul\":2624:2630   */\n      dup2\n        /* \"#utility.yul\":2611:2631   */\n      calldataload\n        /* \"#utility.yul\":2602:2631   */\n      swap1\n      pop\n        /* \"#utility.yul\":2640:2673   */\n      tag_174\n        /* \"#utility.yul\":2667:2672   */\n      dup2\n        /* \"#utility.yul\":2640:2673   */\n      tag_118\n      jump\t// in\n    tag_174:\n        /* \"#utility.yul\":2540:2679   */\n      swap3\n      swap2\n      pop\n      pop\n      jump\t// out\n        /* \"#utility.yul\":2685:3014   */\n    tag_33:\n        /* \"#utility.yul\":2744:2750   */\n      0x00\n        /* \"#utility.yul\":2793:2795   */\n      0x20\n        /* \"#utility.yul\":2781:2790   */\n      dup3\n        /* \"#utility.yul\":2772:2779   */\n      dup5\n        /* \"#utility.yul\":2768:2791   */\n      sub\n        /* \"#utility.yul\":2764:2796   */\n      slt\n        /* \"#utility.yul\":2761:2880   */\n      iszero\n      tag_176\n      jumpi\n        /* \"#utility.yul\":2799:2878   */\n      tag_177\n      tag_109\n      jump\t// in\n    tag_177:\n        /* \"#utility.yul\":2761:2880   */\n    tag_176:\n        /* \"#utility.yul\":2919:2920   */\n      0x00\n        /* \"#utility.yul\":2944:2997   */\n      tag_178\n        /* \"#utility.yul\":2989:2996   */\n      dup5\n        /* \"#utility.yul\":2980:2986   */\n      dup3\n        /* \"#utility.yul\":2969:2978   */\n      dup6\n        /* \"#utility.yul\":2965:2987   */\n      add\n        /* \"#utility.yul\":2944:2997   */\n      tag_119\n      jump\t// in\n    tag_178:\n        /* \"#utility.yul\":2934:2997   */\n      swap2\n      pop\n        /* \"#utility.yul\":2890:3007   */\n      pop\n        /* \"#utility.yul\":2685:3014   */\n      swap3\n      swap2\n      pop\n      pop\n      jump\t// out\n        /* \"#utility.yul\":3020:3110   */\n    tag_120:\n        /* \"#utility.yul\":3054:3061   */\n      0x00\n        /* \"#utility.yul\":3097:3102   */\n      dup2\n        /* \"#utility.yul\":3090:3103   */\n      iszero\n        /* \"#utility.yul\":3083:3104   */\n      iszero\n        /* \"#utility.yul\":3072:3104   */\n      swap1\n      pop\n        /* \"#utility.yul\":3020:3110   */\n      swap2\n      swap1\n      pop\n      jump\t// out\n        /* \"#utility.yul\":3116:3225   */\n    tag_121:\n        /* \"#utility.yul\":3197:3218   */\n      tag_181\n        /* \"#utility.yul\":3212:3217   */\n      dup2\n        /* \"#utility.yul\":3197:3218   */\n      tag_120\n      jump\t// in\n    tag_181:\n        /* \"#utility.yul\":3192:3195   */\n      dup3\n        /* \"#utility.yul\":3185:3219   */\n      mstore\n        /* \"#utility.yul\":3116:3225   */\n      pop\n      pop\n      jump\t// out\n        /* \"#utility.yul\":3231:3441   */\n    tag_36:\n        /* \"#utility.yul\":3318:3322   */\n      0x00\n        /* \"#utility.yul\":3356:3358   */\n      0x20\n        /* \"#utility.yul\":3345:3354   */\n      dup3\n        /* \"#utility.yul\":3341:3359   */\n      add\n        /* \"#utility.yul\":3333:3359   */\n      swap1\n      pop\n        /* \"#utility.yul\":3369:3434   */\n      tag_183\n        /* \"#utility.yul\":3431:3432   */\n      0x00\n        /* \"#utility.yul\":3420:3429   */\n      dup4\n        /* \"#utility.yul\":3416:3433   */\n      add\n        /* \"#utility.yul\":3407:3413   */\n      dup5\n        /* \"#utility.yul\":3369:3434   */\n      tag_121\n      jump\t// in\n    tag_183:\n        /* \"#utility.yul\":3231:3441   */\n      swap3\n      swap2\n      pop\n      pop\n      jump\t// out\n        /* \"#utility.yul\":3447:3565   */\n    tag_122:\n        /* \"#utility.yul\":3534:3558   */\n      tag_185\n        /* \"#utility.yul\":3552:3557   */\n      dup2\n        /* \"#utility.yul\":3534:3558   */\n      tag_112\n      jump\t// in\n    tag_185:\n        /* \"#utility.yul\":3529:3532   */\n      dup3\n        /* \"#utility.yul\":3522:3559   */\n      mstore\n        /* \"#utility.yul\":3447:3565   */\n      pop\n      pop\n      jump\t// out\n        /* \"#utility.yul\":3571:3793   */\n    tag_54:\n        /* \"#utility.yul\":3664:3668   */\n      0x00\n        /* \"#utility.yul\":3702:3704   */\n      0x20\n        /* \"#utility.yul\":3691:3700   */\n      dup3\n        /* \"#utility.yul\":3687:3705   */\n      add\n        /* \"#utility.yul\":3679:3705   */\n      swap1\n      pop\n        /* \"#utility.yul\":3715:3786   */\n      tag_187\n        /* \"#utility.yul\":3783:3784   */\n      0x00\n        /* \"#utility.yul\":3772:3781   */\n      dup4\n        /* \"#utility.yul\":3768:3785   */\n      add\n        /* \"#utility.yul\":3759:3765   */\n      dup5\n        /* \"#utility.yul\":3715:3786   */\n      tag_122\n      jump\t// in\n    tag_187:\n        /* \"#utility.yul\":3571:3793   */\n      swap3\n      swap2\n      pop\n      pop\n      jump\t// out\n        /* \"#utility.yul\":3799:3942   */\n    tag_123:\n        /* \"#utility.yul\":3856:3861   */\n      0x00\n        /* \"#utility.yul\":3887:3893   */\n      dup2\n        /* \"#utility.yul\":3881:3894   */\n      mload\n        /* \"#utility.yul\":3872:3894   */\n      swap1\n      pop\n        /* \"#utility.yul\":3903:3936   */\n      tag_189\n        /* \"#utility.yul\":3930:3935   */\n      dup2\n        /* \"#utility.yul\":3903:3936   */\n      tag_116\n      jump\t// in\n    tag_189:\n        /* \"#utility.yul\":3799:3942   */\n      swap3\n      swap2\n      pop\n      pop\n      jump\t// out\n        /* \"#utility.yul\":3948:4299   */\n    tag_58:\n        /* \"#utility.yul\":4018:4024   */\n      0x00\n        /* \"#utility.yul\":4067:4069   */\n      0x20\n        /* \"#utility.yul\":4055:4064   */\n      dup3\n        /* \"#utility.yul\":4046:4053   */\n      dup5\n        /* \"#utility.yul\":4042:4065   */\n      sub\n        /* \"#utility.yul\":4038:4070   */\n      slt\n        /* \"#utility.yul\":4035:4154   */\n      iszero\n      tag_191\n      jumpi\n        /* \"#utility.yul\":4073:4152   */\n      tag_192\n      tag_109\n      jump\t// in\n    tag_192:\n        /* \"#utility.yul\":4035:4154   */\n    tag_191:\n        /* \"#utility.yul\":4193:4194   */\n      0x00\n        /* \"#utility.yul\":4218:4282   */\n      tag_193\n        /* \"#utility.yul\":4274:4281   */\n      dup5\n        /* \"#utility.yul\":4265:4271   */\n      dup3\n        /* \"#utility.yul\":4254:4263   */\n      dup6\n        /* \"#utility.yul\":4250:4272   */\n      add\n        /* \"#utility.yul\":4218:4282   */\n      tag_123\n      jump\t// in\n    tag_193:\n        /* \"#utility.yul\":4208:4282   */\n      swap2\n      pop\n        /* \"#utility.yul\":4164:4292   */\n      pop\n        /* \"#utility.yul\":3948:4299   */\n      swap3\n      swap2\n      pop\n      pop\n      jump\t// out\n        /* \"#utility.yul\":4305:4474   */\n    tag_124:\n        /* \"#utility.yul\":4389:4400   */\n      0x00\n        /* \"#utility.yul\":4423:4429   */\n      dup3\n        /* \"#utility.yul\":4418:4421   */\n      dup3\n        /* \"#utility.yul\":4411:4430   */\n      mstore\n        /* \"#utility.yul\":4463:4467   */\n      0x20\n        /* \"#utility.yul\":4458:4461   */\n      dup3\n        /* \"#utility.yul\":4454:4468   */\n      add\n        /* \"#utility.yul\":4439:4468   */\n      swap1\n      pop\n        /* \"#utility.yul\":4305:4474   */\n      swap3\n      swap2\n      pop\n      pop\n      jump\t// out\n        /* \"#utility.yul\":4480:4713   */\n    tag_125:\n        /* \"#utility.yul\":4620:4654   */\n      0x4f6e6c792074686520636f6e7472616374206f776e65722063616e2063616c6c\n        /* \"#utility.yul\":4616:4617   */\n      0x00\n        /* \"#utility.yul\":4608:4614   */\n      dup3\n        /* \"#utility.yul\":4604:4618   */\n      add\n        /* \"#utility.yul\":4597:4655   */\n      mstore\n        /* \"#utility.yul\":4689:4705   */\n      0x20746869732066756e6374696f6e000000000000000000000000000000000000\n        /* \"#utility.yul\":4684:4686   */\n      0x20\n        /* \"#utility.yul\":4676:4682   */\n      dup3\n        /* \"#utility.yul\":4672:4687   */\n      add\n        /* \"#utility.yul\":4665:4706   */\n      mstore\n        /* \"#utility.yul\":4480:4713   */\n      pop\n      jump\t// out\n        /* \"#utility.yul\":4719:5085   */\n    tag_126:\n        /* \"#utility.yul\":4861:4864   */\n      0x00\n        /* \"#utility.yul\":4882:4949   */\n      tag_197\n        /* \"#utility.yul\":4946:4948   */\n      0x2e\n        /* \"#utility.yul\":4941:4944   */\n      dup4\n        /* \"#utility.yul\":4882:4949   */\n      tag_124\n      jump\t// in\n    tag_197:\n        /* \"#utility.yul\":4875:4949   */\n      swap2\n      pop\n        /* \"#utility.yul\":4958:5051   */\n      tag_198\n        /* \"#utility.yul\":5047:5050   */\n      dup3\n        /* \"#utility.yul\":4958:5051   */\n      tag_125\n      jump\t// in\n    tag_198:\n        /* \"#utility.yul\":5076:5078   */\n      0x40\n        /* \"#utility.yul\":5071:5074   */\n      dup3\n        /* \"#utility.yul\":5067:5079   */\n      add\n        /* \"#utility.yul\":5060:5079   */\n      swap1\n      pop\n        /* \"#utility.yul\":4719:5085   */\n      swap2\n      swap1\n      pop\n      jump\t// out\n        /* \"#utility.yul\":5091:5510   */\n    tag_62:\n        /* \"#utility.yul\":5257:5261   */\n      0x00\n        /* \"#utility.yul\":5295:5297   */\n      0x20\n        /* \"#utility.yul\":5284:5293   */\n      dup3\n        /* \"#utility.yul\":5280:5298   */\n      add\n        /* \"#utility.yul\":5272:5298   */\n      swap1\n      pop\n        /* \"#utility.yul\":5344:5353   */\n      dup2\n        /* \"#utility.yul\":5338:5342   */\n      dup2\n        /* \"#utility.yul\":5334:5354   */\n      sub\n        /* \"#utility.yul\":5330:5331   */\n      0x00\n        /* \"#utility.yul\":5319:5328   */\n      dup4\n        /* \"#utility.yul\":5315:5332   */\n      add\n        /* \"#utility.yul\":5308:5355   */\n      mstore\n        /* \"#utility.yul\":5372:5503   */\n      tag_200\n        /* \"#utility.yul\":5498:5502   */\n      dup2\n        /* \"#utility.yul\":5372:5503   */\n      tag_126\n      jump\t// in\n    tag_200:\n        /* \"#utility.yul\":5364:5503   */\n      swap1\n      pop\n        /* \"#utility.yul\":5091:5510   */\n      swap2\n      swap1\n      pop\n      jump\t// out\n        /* \"#utility.yul\":5516:5696   */\n    tag_127:\n        /* \"#utility.yul\":5564:5641   */\n      0x4e487b7100000000000000000000000000000000000000000000000000000000\n        /* \"#utility.yul\":5561:5562   */\n      0x00\n        /* \"#utility.yul\":5554:5642   */\n      mstore\n        /* \"#utility.yul\":5661:5665   */\n      0x11\n        /* \"#utility.yul\":5658:5659   */\n      0x04\n        /* \"#utility.yul\":5651:5666   */\n      mstore\n        /* \"#utility.yul\":5685:5689   */\n      0x24\n        /* \"#utility.yul\":5682:5683   */\n      0x00\n        /* \"#utility.yul\":5675:5690   */\n      revert\n        /* \"#utility.yul\":5702:6112   */\n    tag_70:\n        /* \"#utility.yul\":5742:5749   */\n      0x00\n        /* \"#utility.yul\":5765:5785   */\n      tag_203\n        /* \"#utility.yul\":5783:5784   */\n      dup3\n        /* \"#utility.yul\":5765:5785   */\n      tag_106\n      jump\t// in\n    tag_203:\n        /* \"#utility.yul\":5760:5785   */\n      swap2\n      pop\n        /* \"#utility.yul\":5799:5819   */\n      tag_204\n        /* \"#utility.yul\":5817:5818   */\n      dup4\n        /* \"#utility.yul\":5799:5819   */\n      tag_106\n      jump\t// in\n    tag_204:\n        /* \"#utility.yul\":5794:5819   */\n      swap3\n      pop\n        /* \"#utility.yul\":5854:5855   */\n      dup3\n        /* \"#utility.yul\":5851:5852   */\n      dup3\n        /* \"#utility.yul\":5847:5856   */\n      mul\n        /* \"#utility.yul\":5876:5906   */\n      tag_205\n        /* \"#utility.yul\":5894:5905   */\n      dup2\n        /* \"#utility.yul\":5876:5906   */\n      tag_106\n      jump\t// in\n    tag_205:\n        /* \"#utility.yul\":5865:5906   */\n      swap2\n      pop\n        /* \"#utility.yul\":6055:6056   */\n      dup3\n        /* \"#utility.yul\":6046:6053   */\n      dup3\n        /* \"#utility.yul\":6042:6057   */\n      div\n        /* \"#utility.yul\":6039:6040   */\n      dup5\n        /* \"#utility.yul\":6036:6058   */\n      eq\n        /* \"#utility.yul\":6016:6017   */\n      dup4\n        /* \"#utility.yul\":6009:6018   */\n      iszero\n        /* \"#utility.yul\":5989:6072   */\n      or\n        /* \"#utility.yul\":5966:6105   */\n      tag_206\n      jumpi\n        /* \"#utility.yul\":6085:6103   */\n      tag_207\n      tag_127\n      jump\t// in\n    tag_207:\n        /* \"#utility.yul\":5966:6105   */\n    tag_206:\n        /* \"#utility.yul\":5750:6112   */\n      pop\n        /* \"#utility.yul\":5702:6112   */\n      swap3\n      swap2\n      pop\n      pop\n      jump\t// out\n        /* \"#utility.yul\":6118:6407   */\n    tag_128:\n        /* \"#utility.yul\":6258:6292   */\n      0x496e73756666696369656e742074696d6520656c61707365642073696e636520\n        /* \"#utility.yul\":6254:6255   */\n      0x00\n        /* \"#utility.yul\":6246:6252   */\n      dup3\n        /* \"#utility.yul\":6242:6256   */\n      add\n        /* \"#utility.yul\":6235:6293   */\n      mstore\n        /* \"#utility.yul\":6327:6361   */\n      0x6c617374207769746864726177616c202d2074727920616761696e206c617465\n        /* \"#utility.yul\":6322:6324   */\n      0x20\n        /* \"#utility.yul\":6314:6320   */\n      dup3\n        /* \"#utility.yul\":6310:6325   */\n      add\n        /* \"#utility.yul\":6303:6362   */\n      mstore\n        /* \"#utility.yul\":6396:6399   */\n      0x7200000000000000000000000000000000000000000000000000000000000000\n        /* \"#utility.yul\":6391:6393   */\n      0x40\n        /* \"#utility.yul\":6383:6389   */\n      dup3\n        /* \"#utility.yul\":6379:6394   */\n      add\n        /* \"#utility.yul\":6372:6400   */\n      mstore\n        /* \"#utility.yul\":6118:6407   */\n      pop\n      jump\t// out\n        /* \"#utility.yul\":6413:6779   */\n    tag_129:\n        /* \"#utility.yul\":6555:6558   */\n      0x00\n        /* \"#utility.yul\":6576:6643   */\n      tag_210\n        /* \"#utility.yul\":6640:6642   */\n      0x41\n        /* \"#utility.yul\":6635:6638   */\n      dup4\n        /* \"#utility.yul\":6576:6643   */\n      tag_124\n      jump\t// in\n    tag_210:\n        /* \"#utility.yul\":6569:6643   */\n      swap2\n      pop\n        /* \"#utility.yul\":6652:6745   */\n      tag_211\n        /* \"#utility.yul\":6741:6744   */\n      dup3\n        /* \"#utility.yul\":6652:6745   */\n      tag_128\n      jump\t// in\n    tag_211:\n        /* \"#utility.yul\":6770:6772   */\n      0x60\n        /* \"#utility.yul\":6765:6768   */\n      dup3\n        /* \"#utility.yul\":6761:6773   */\n      add\n        /* \"#utility.yul\":6754:6773   */\n      swap1\n      pop\n        /* \"#utility.yul\":6413:6779   */\n      swap2\n      swap1\n      pop\n      jump\t// out\n        /* \"#utility.yul\":6785:7204   */\n    tag_79:\n        /* \"#utility.yul\":6951:6955   */\n      0x00\n        /* \"#utility.yul\":6989:6991   */\n      0x20\n        /* \"#utility.yul\":6978:6987   */\n      dup3\n        /* \"#utility.yul\":6974:6992   */\n      add\n        /* \"#utility.yul\":6966:6992   */\n      swap1\n      pop\n        /* \"#utility.yul\":7038:7047   */\n      dup2\n        /* \"#utility.yul\":7032:7036   */\n      dup2\n        /* \"#utility.yul\":7028:7048   */\n      sub\n        /* \"#utility.yul\":7024:7025   */\n      0x00\n        /* \"#utility.yul\":7013:7022   */\n      dup4\n        /* \"#utility.yul\":7009:7026   */\n      add\n        /* \"#utility.yul\":7002:7049   */\n      mstore\n        /* \"#utility.yul\":7066:7197   */\n      tag_213\n        /* \"#utility.yul\":7192:7196   */\n      dup2\n        /* \"#utility.yul\":7066:7197   */\n      tag_129\n      jump\t// in\n    tag_213:\n        /* \"#utility.yul\":7058:7197   */\n      swap1\n      pop\n        /* \"#utility.yul\":6785:7204   */\n      swap2\n      swap1\n      pop\n      jump\t// out\n        /* \"#utility.yul\":7210:7450   */\n    tag_130:\n        /* \"#utility.yul\":7350:7384   */\n      0x526571756573742065786365656473206d6178696d756d207769746864726177\n        /* \"#utility.yul\":7346:7347   */\n      0x00\n        /* \"#utility.yul\":7338:7344   */\n      dup3\n        /* \"#utility.yul\":7334:7348   */\n      add\n        /* \"#utility.yul\":7327:7385   */\n      mstore\n        /* \"#utility.yul\":7419:7442   */\n      0x616c20616d6f756e74206f66203130303020474e540000000000000000000000\n        /* \"#utility.yul\":7414:7416   */\n      0x20\n        /* \"#utility.yul\":7406:7412   */\n      dup3\n        /* \"#utility.yul\":7402:7417   */\n      add\n        /* \"#utility.yul\":7395:7443   */\n      mstore\n        /* \"#utility.yul\":7210:7450   */\n      pop\n      jump\t// out\n        /* \"#utility.yul\":7456:7822   */\n    tag_131:\n        /* \"#utility.yul\":7598:7601   */\n      0x00\n        /* \"#utility.yul\":7619:7686   */\n      tag_216\n        /* \"#utility.yul\":7683:7685   */\n      0x35\n        /* \"#utility.yul\":7678:7681   */\n      dup4\n        /* \"#utility.yul\":7619:7686   */\n      tag_124\n      jump\t// in\n    tag_216:\n        /* \"#utility.yul\":7612:7686   */\n      swap2\n      pop\n        /* \"#utility.yul\":7695:7788   */\n      tag_217\n        /* \"#utility.yul\":7784:7787   */\n      dup3\n        /* \"#utility.yul\":7695:7788   */\n      tag_130\n      jump\t// in\n    tag_217:\n        /* \"#utility.yul\":7813:7815   */\n      0x40\n        /* \"#utility.yul\":7808:7811   */\n      dup3\n        /* \"#utility.yul\":7804:7816   */\n      add\n        /* \"#utility.yul\":7797:7816   */\n      swap1\n      pop\n        /* \"#utility.yul\":7456:7822   */\n      swap2\n      swap1\n      pop\n      jump\t// out\n        /* \"#utility.yul\":7828:8247   */\n    tag_82:\n        /* \"#utility.yul\":7994:7998   */\n      0x00\n        /* \"#utility.yul\":8032:8034   */\n      0x20\n        /* \"#utility.yul\":8021:8030   */\n      dup3\n        /* \"#utility.yul\":8017:8035   */\n      add\n        /* \"#utility.yul\":8009:8035   */\n      swap1\n      pop\n        /* \"#utility.yul\":8081:8090   */\n      dup2\n        /* \"#utility.yul\":8075:8079   */\n      dup2\n        /* \"#utility.yul\":8071:8091   */\n      sub\n        /* \"#utility.yul\":8067:8068   */\n      0x00\n        /* \"#utility.yul\":8056:8065   */\n      dup4\n        /* \"#utility.yul\":8052:8069   */\n      add\n        /* \"#utility.yul\":8045:8092   */\n      mstore\n        /* \"#utility.yul\":8109:8240   */\n      tag_219\n        /* \"#utility.yul\":8235:8239   */\n      dup2\n        /* \"#utility.yul\":8109:8240   */\n      tag_131\n      jump\t// in\n    tag_219:\n        /* \"#utility.yul\":8101:8240   */\n      swap1\n      pop\n        /* \"#utility.yul\":7828:8247   */\n      swap2\n      swap1\n      pop\n      jump\t// out\n        /* \"#utility.yul\":8253:8493   */\n    tag_132:\n        /* \"#utility.yul\":8393:8427   */\n      0x496e73756666696369656e742062616c616e636520696e206661756365742066\n        /* \"#utility.yul\":8389:8390   */\n      0x00\n        /* \"#utility.yul\":8381:8387   */\n      dup3\n        /* \"#utility.yul\":8377:8391   */\n      add\n        /* \"#utility.yul\":8370:8428   */\n      mstore\n        /* \"#utility.yul\":8462:8485   */\n      0x6f72207769746864726177616c20726571756573740000000000000000000000\n        /* \"#utility.yul\":8457:8459   */\n      0x20\n        /* \"#utility.yul\":8449:8455   */\n      dup3\n        /* \"#utility.yul\":8445:8460   */\n      add\n        /* \"#utility.yul\":8438:8486   */\n      mstore\n        /* \"#utility.yul\":8253:8493   */\n      pop\n      jump\t// out\n        /* \"#utility.yul\":8499:8865   */\n    tag_133:\n        /* \"#utility.yul\":8641:8644   */\n      0x00\n        /* \"#utility.yul\":8662:8729   */\n      tag_222\n        /* \"#utility.yul\":8726:8728   */\n      0x35\n        /* \"#utility.yul\":8721:8724   */\n      dup4\n        /* \"#utility.yul\":8662:8729   */\n      tag_124\n      jump\t// in\n    tag_222:\n        /* \"#utility.yul\":8655:8729   */\n      swap2\n      pop\n        /* \"#utility.yul\":8738:8831   */\n      tag_223\n        /* \"#utility.yul\":8827:8830   */\n      dup3\n        /* \"#utility.yul\":8738:8831   */\n      tag_132\n      jump\t// in\n    tag_223:\n        /* \"#utility.yul\":8856:8858   */\n      0x40\n        /* \"#utility.yul\":8851:8854   */\n      dup3\n        /* \"#utility.yul\":8847:8859   */\n      add\n        /* \"#utility.yul\":8840:8859   */\n      swap1\n      pop\n        /* \"#utility.yul\":8499:8865   */\n      swap2\n      swap1\n      pop\n      jump\t// out\n        /* \"#utility.yul\":8871:9290   */\n    tag_89:\n        /* \"#utility.yul\":9037:9041   */\n      0x00\n        /* \"#utility.yul\":9075:9077   */\n      0x20\n        /* \"#utility.yul\":9064:9073   */\n      dup3\n        /* \"#utility.yul\":9060:9078   */\n      add\n        /* \"#utility.yul\":9052:9078   */\n      swap1\n      pop\n        /* \"#utility.yul\":9124:9133   */\n      dup2\n        /* \"#utility.yul\":9118:9122   */\n      dup2\n        /* \"#utility.yul\":9114:9134   */\n      sub\n        /* \"#utility.yul\":9110:9111   */\n      0x00\n        /* \"#utility.yul\":9099:9108   */\n      dup4\n        /* \"#utility.yul\":9095:9112   */\n      add\n        /* \"#utility.yul\":9088:9135   */\n      mstore\n        /* \"#utility.yul\":9152:9283   */\n      tag_225\n        /* \"#utility.yul\":9278:9282   */\n      dup2\n        /* \"#utility.yul\":9152:9283   */\n      tag_133\n      jump\t// in\n    tag_225:\n        /* \"#utility.yul\":9144:9283   */\n      swap1\n      pop\n        /* \"#utility.yul\":8871:9290   */\n      swap2\n      swap1\n      pop\n      jump\t// out\n        /* \"#utility.yul\":9296:9529   */\n    tag_134:\n        /* \"#utility.yul\":9436:9470   */\n      0x52657175657374206d757374206e6f74206f726967696e6174652066726f6d20\n        /* \"#utility.yul\":9432:9433   */\n      0x00\n        /* \"#utility.yul\":9424:9430   */\n      dup3\n        /* \"#utility.yul\":9420:9434   */\n      add\n        /* \"#utility.yul\":9413:9471   */\n      mstore\n        /* \"#utility.yul\":9505:9521   */\n      0x61207a65726f206163636f756e74000000000000000000000000000000000000\n        /* \"#utility.yul\":9500:9502   */\n      0x20\n        /* \"#utility.yul\":9492:9498   */\n      dup3\n        /* \"#utility.yul\":9488:9503   */\n      add\n        /* \"#utility.yul\":9481:9522   */\n      mstore\n        /* \"#utility.yul\":9296:9529   */\n      pop\n      jump\t// out\n        /* \"#utility.yul\":9535:9901   */\n    tag_135:\n        /* \"#utility.yul\":9677:9680   */\n      0x00\n        /* \"#utility.yul\":9698:9765   */\n      tag_228\n        /* \"#utility.yul\":9762:9764   */\n      0x2e\n        /* \"#utility.yul\":9757:9760   */\n      dup4\n        /* \"#utility.yul\":9698:9765   */\n      tag_124\n      jump\t// in\n    tag_228:\n        /* \"#utility.yul\":9691:9765   */\n      swap2\n      pop\n        /* \"#utility.yul\":9774:9867   */\n      tag_229\n        /* \"#utility.yul\":9863:9866   */\n      dup3\n        /* \"#utility.yul\":9774:9867   */\n      tag_134\n      jump\t// in\n    tag_229:\n        /* \"#utility.yul\":9892:9894   */\n      0x40\n        /* \"#utility.yul\":9887:9890   */\n      dup3\n        /* \"#utility.yul\":9883:9895   */\n      add\n        /* \"#utility.yul\":9876:9895   */\n      swap1\n      pop\n        /* \"#utility.yul\":9535:9901   */\n      swap2\n      swap1\n      pop\n      jump\t// out\n        /* \"#utility.yul\":9907:10326   */\n    tag_92:\n        /* \"#utility.yul\":10073:10077   */\n      0x00\n        /* \"#utility.yul\":10111:10113   */\n      0x20\n        /* \"#utility.yul\":10100:10109   */\n      dup3\n        /* \"#utility.yul\":10096:10114   */\n      add\n        /* \"#utility.yul\":10088:10114   */\n      swap1\n      pop\n        /* \"#utility.yul\":10160:10169   */\n      dup2\n        /* \"#utility.yul\":10154:10158   */\n      dup2\n        /* \"#utility.yul\":10150:10170   */\n      sub\n        /* \"#utility.yul\":10146:10147   */\n      0x00\n        /* \"#utility.yul\":10135:10144   */\n      dup4\n        /* \"#utility.yul\":10131:10148   */\n      add\n        /* \"#utility.yul\":10124:10171   */\n      mstore\n        /* \"#utility.yul\":10188:10319   */\n      tag_231\n        /* \"#utility.yul\":10314:10318   */\n      dup2\n        /* \"#utility.yul\":10188:10319   */\n      tag_135\n      jump\t// in\n    tag_231:\n        /* \"#utility.yul\":10180:10319   */\n      swap1\n      pop\n        /* \"#utility.yul\":9907:10326   */\n      swap2\n      swap1\n      pop\n      jump\t// out\n        /* \"#utility.yul\":10332:10664   */\n    tag_94:\n        /* \"#utility.yul\":10453:10457   */\n      0x00\n        /* \"#utility.yul\":10491:10493   */\n      0x40\n        /* \"#utility.yul\":10480:10489   */\n      dup3\n        /* \"#utility.yul\":10476:10494   */\n      add\n        /* \"#utility.yul\":10468:10494   */\n      swap1\n      pop\n        /* \"#utility.yul\":10504:10575   */\n      tag_233\n        /* \"#utility.yul\":10572:10573   */\n      0x00\n        /* \"#utility.yul\":10561:10570   */\n      dup4\n        /* \"#utility.yul\":10557:10574   */\n      add\n        /* \"#utility.yul\":10548:10554   */\n      dup6\n        /* \"#utility.yul\":10504:10575   */\n      tag_122\n      jump\t// in\n    tag_233:\n        /* \"#utility.yul\":10585:10657   */\n      tag_234\n        /* \"#utility.yul\":10653:10655   */\n      0x20\n        /* \"#utility.yul\":10642:10651   */\n      dup4\n        /* \"#utility.yul\":10638:10656   */\n      add\n        /* \"#utility.yul\":10629:10635   */\n      dup5\n        /* \"#utility.yul\":10585:10657   */\n      tag_107\n      jump\t// in\n    tag_234:\n        /* \"#utility.yul\":10332:10664   */\n      swap4\n      swap3\n      pop\n      pop\n      pop\n      jump\t// out\n        /* \"#utility.yul\":10670:10786   */\n    tag_136:\n        /* \"#utility.yul\":10740:10761   */\n      tag_236\n        /* \"#utility.yul\":10755:10760   */\n      dup2\n        /* \"#utility.yul\":10740:10761   */\n      tag_120\n      jump\t// in\n    tag_236:\n        /* \"#utility.yul\":10733:10738   */\n      dup2\n        /* \"#utility.yul\":10730:10762   */\n      eq\n        /* \"#utility.yul\":10720:10780   */\n      tag_237\n      jumpi\n        /* \"#utility.yul\":10776:10777   */\n      0x00\n        /* \"#utility.yul\":10773:10774   */\n      dup1\n        /* \"#utility.yul\":10766:10778   */\n      revert\n        /* \"#utility.yul\":10720:10780   */\n    tag_237:\n        /* \"#utility.yul\":10670:10786   */\n      pop\n      jump\t// out\n        /* \"#utility.yul\":10792:10929   */\n    tag_137:\n        /* \"#utility.yul\":10846:10851   */\n      0x00\n        /* \"#utility.yul\":10877:10883   */\n      dup2\n        /* \"#utility.yul\":10871:10884   */\n      mload\n        /* \"#utility.yul\":10862:10884   */\n      swap1\n      pop\n        /* \"#utility.yul\":10893:10923   */\n      tag_239\n        /* \"#utility.yul\":10917:10922   */\n      dup2\n        /* \"#utility.yul\":10893:10923   */\n      tag_136\n      jump\t// in\n    tag_239:\n        /* \"#utility.yul\":10792:10929   */\n      swap3\n      swap2\n      pop\n      pop\n      jump\t// out\n        /* \"#utility.yul\":10935:11280   */\n    tag_98:\n        /* \"#utility.yul\":11002:11008   */\n      0x00\n        /* \"#utility.yul\":11051:11053   */\n      0x20\n        /* \"#utility.yul\":11039:11048   */\n      dup3\n        /* \"#utility.yul\":11030:11037   */\n      dup5\n        /* \"#utility.yul\":11026:11049   */\n      sub\n        /* \"#utility.yul\":11022:11054   */\n      slt\n        /* \"#utility.yul\":11019:11138   */\n      iszero\n      tag_241\n      jumpi\n        /* \"#utility.yul\":11057:11136   */\n      tag_242\n      tag_109\n      jump\t// in\n    tag_242:\n        /* \"#utility.yul\":11019:11138   */\n    tag_241:\n        /* \"#utility.yul\":11177:11178   */\n      0x00\n        /* \"#utility.yul\":11202:11263   */\n      tag_243\n        /* \"#utility.yul\":11255:11262   */\n      dup5\n        /* \"#utility.yul\":11246:11252   */\n      dup3\n        /* \"#utility.yul\":11235:11244   */\n      dup6\n        /* \"#utility.yul\":11231:11253   */\n      add\n        /* \"#utility.yul\":11202:11263   */\n      tag_137\n      jump\t// in\n    tag_243:\n        /* \"#utility.yul\":11192:11263   */\n      swap2\n      pop\n        /* \"#utility.yul\":11148:11273   */\n      pop\n        /* \"#utility.yul\":10935:11280   */\n      swap3\n      swap2\n      pop\n      pop\n      jump\t// out\n        /* \"#utility.yul\":11286:11477   */\n    tag_100:\n        /* \"#utility.yul\":11326:11329   */\n      0x00\n        /* \"#utility.yul\":11345:11365   */\n      tag_245\n        /* \"#utility.yul\":11363:11364   */\n      dup3\n        /* \"#utility.yul\":11345:11365   */\n      tag_106\n      jump\t// in\n    tag_245:\n        /* \"#utility.yul\":11340:11365   */\n      swap2\n      pop\n        /* \"#utility.yul\":11379:11399   */\n      tag_246\n        /* \"#utility.yul\":11397:11398   */\n      dup4\n        /* \"#utility.yul\":11379:11399   */\n      tag_106\n      jump\t// in\n    tag_246:\n        /* \"#utility.yul\":11374:11399   */\n      swap3\n      pop\n        /* \"#utility.yul\":11422:11423   */\n      dup3\n        /* \"#utility.yul\":11419:11420   */\n      dup3\n        /* \"#utility.yul\":11415:11424   */\n      add\n        /* \"#utility.yul\":11408:11424   */\n      swap1\n      pop\n        /* \"#utility.yul\":11443:11446   */\n      dup1\n        /* \"#utility.yul\":11440:11441   */\n      dup3\n        /* \"#utility.yul\":11437:11447   */\n      gt\n        /* \"#utility.yul\":11434:11470   */\n      iszero\n      tag_247\n      jumpi\n        /* \"#utility.yul\":11450:11468   */\n      tag_248\n      tag_127\n      jump\t// in\n    tag_248:\n        /* \"#utility.yul\":11434:11470   */\n    tag_247:\n        /* \"#utility.yul\":11286:11477   */\n      swap3\n      swap2\n      pop\n      pop\n      jump\t// out\n\n    auxdata: 0xa2646970667358221220e070251e7f81bf005c1b970b42d3794b1dd720052017ecd09edc25632759cf5e64736f6c634300081a0033\n}\n",
				"bytecode": {
					"linkReferences": {},
					"object": "60806040526802b5e3af16b18800006002556203f480600355348015610023575f80fd5b5060405161104138038061104183398181016040528101906100459190610139565b8060015f6101000a81548173ffffffffffffffffffffffffffffffffffffffff021916908373ffffffffffffffffffffffffffffffffffffffff160217905550335f806101000a81548173ffffffffffffffffffffffffffffffffffffffff021916908373ffffffffffffffffffffffffffffffffffffffff16021790555050610164565b5f80fd5b5f73ffffffffffffffffffffffffffffffffffffffff82169050919050565b5f6100f7826100ce565b9050919050565b5f610108826100ed565b9050919050565b610118816100fe565b8114610122575f80fd5b50565b5f815190506101338161010f565b92915050565b5f6020828403121561014e5761014d6100ca565b5b5f61015b84828501610125565b91505092915050565b610ed0806101715f395ff3fe60806040526004361061007e575f3560e01c80633ccfd60b1161004d5780633ccfd60b1461018d578063ccca123b146101a3578063df351aaf146101cd578063e6e268f4146101f5576100d3565b806312065fe0146100d7578063144fa6d714610101578063168ee33a146101295780632d291cad14610151576100d3565b366100d3573373ffffffffffffffffffffffffffffffffffffffff167fe1fffcc4923d04b559f4d29a8bfc6cda04eb5b0d3c460751c2402c5c5cc9109c346040516100c9919061088a565b60405180910390a2005b5f80fd5b3480156100e2575f80fd5b506100eb61021f565b6040516100f8919061088a565b60405180910390f35b34801561010c575f80fd5b5061012760048036038101906101229190610912565b6102be565b005b348015610134575f80fd5b5061014f600480360381019061014a9190610967565b61038e565b005b34801561015c575f80fd5b50610177600480360381019061017291906109bc565b61044e565b6040516101849190610a01565b60405180910390f35b348015610198575f80fd5b506101a16104f2565b005b3480156101ae575f80fd5b506101b76107c3565b6040516101c4919061088a565b60405180910390f35b3480156101d8575f80fd5b506101f360048036038101906101ee9190610967565b6107c9565b005b348015610200575f80fd5b5061020961086c565b604051610216919061088a565b60405180910390f35b5f60015f9054906101000a900473ffffffffffffffffffffffffffffffffffffffff1673ffffffffffffffffffffffffffffffffffffffff166370a08231306040518263ffffffff1660e01b815260040161027a9190610a29565b602060405180830381865afa158015610295573d5f803e3d5ffd5b505050506040513d601f19601f820116820180604052508101906102b99190610a56565b905090565b5f8054906101000a900473ffffffffffffffffffffffffffffffffffffffff1673ffffffffffffffffffffffffffffffffffffffff163373ffffffffffffffffffffffffffffffffffffffff161461034b576040517f08c379a000000000000000000000000000000000000000000000000000000000815260040161034290610b01565b60405180910390fd5b8060015f6101000a81548173ffffffffffffffffffffffffffffffffffffffff021916908373ffffffffffffffffffffffffffffffffffffffff16021790555050565b5f8054906101000a900473ffffffffffffffffffffffffffffffffffffffff1673ffffffffffffffffffffffffffffffffffffffff163373ffffffffffffffffffffffffffffffffffffffff161461041b576040517f08c379a000000000000000000000000000000000000000000000000000000000815260040161041290610b01565b60405180910390fd5b69021e19e0c9bab2400000811115610431575f80fd5b670de0b6b3a7640000816104459190610b4c565b60028190555050565b5f8060045f8473ffffffffffffffffffffffffffffffffffffffff1673ffffffffffffffffffffffffffffffffffffffff1681526020019081526020015f20540361049c57600190506104ed565b60045f8373ffffffffffffffffffffffffffffffffffffffff1673ffffffffffffffffffffffffffffffffffffffff1681526020019081526020015f205442106104e957600190506104ed565b5f90505b919050565b6104fb3361044e565b61053a576040517f08c379a000000000000000000000000000000000000000000000000000000000815260040161053190610c23565b60405180910390fd5b683635c9adc5dea000006002541115610588576040517f08c379a000000000000000000000000000000000000000000000000000000000815260040161057f90610cb1565b60405180910390fd5b60025460015f9054906101000a900473ffffffffffffffffffffffffffffffffffffffff1673ffffffffffffffffffffffffffffffffffffffff166370a08231306040518263ffffffff1660e01b81526004016105e59190610a29565b602060405180830381865afa158015610600573d5f803e3d5ffd5b505050506040513d601f19601f820116820180604052508101906106249190610a56565b1015610665576040517f08c379a000000000000000000000000000000000000000000000000000000000815260040161065c90610d3f565b60405180910390fd5b5f73ffffffffffffffffffffffffffffffffffffffff163373ffffffffffffffffffffffffffffffffffffffff16036106d3576040517f08c379a00000000000000000000000000000000000000000000000000000000081526004016106ca90610dcd565b60405180910390fd5b60015f9054906101000a900473ffffffffffffffffffffffffffffffffffffffff1673ffffffffffffffffffffffffffffffffffffffff1663a9059cbb336002546040518363ffffffff1660e01b8152600401610731929190610deb565b6020604051808303815f875af115801561074d573d5f803e3d5ffd5b505050506040513d601f19601f820116820180604052508101906107719190610e3c565b50600354426107809190610e67565b60045f3373ffffffffffffffffffffffffffffffffffffffff1673ffffffffffffffffffffffffffffffffffffffff1681526020019081526020015f2081905550565b60035481565b5f8054906101000a900473ffffffffffffffffffffffffffffffffffffffff1673ffffffffffffffffffffffffffffffffffffffff163373ffffffffffffffffffffffffffffffffffffffff1614610856576040517f08c379a000000000000000000000000000000000000000000000000000000000815260040161084d90610b01565b60405180910390fd5b603c816108639190610b4c565b60038190555050565b60025481565b5f819050919050565b61088481610872565b82525050565b5f60208201905061089d5f83018461087b565b92915050565b5f80fd5b5f73ffffffffffffffffffffffffffffffffffffffff82169050919050565b5f6108d0826108a7565b9050919050565b5f6108e1826108c6565b9050919050565b6108f1816108d7565b81146108fb575f80fd5b50565b5f8135905061090c816108e8565b92915050565b5f60208284031215610927576109266108a3565b5b5f610934848285016108fe565b91505092915050565b61094681610872565b8114610950575f80fd5b50565b5f813590506109618161093d565b92915050565b5f6020828403121561097c5761097b6108a3565b5b5f61098984828501610953565b91505092915050565b61099b816108c6565b81146109a5575f80fd5b50565b5f813590506109b681610992565b92915050565b5f602082840312156109d1576109d06108a3565b5b5f6109de848285016109a8565b91505092915050565b5f8115159050919050565b6109fb816109e7565b82525050565b5f602082019050610a145f8301846109f2565b92915050565b610a23816108c6565b82525050565b5f602082019050610a3c5f830184610a1a565b92915050565b5f81519050610a508161093d565b92915050565b5f60208284031215610a6b57610a6a6108a3565b5b5f610a7884828501610a42565b91505092915050565b5f82825260208201905092915050565b7f4f6e6c792074686520636f6e7472616374206f776e65722063616e2063616c6c5f8201527f20746869732066756e6374696f6e000000000000000000000000000000000000602082015250565b5f610aeb602e83610a81565b9150610af682610a91565b604082019050919050565b5f6020820190508181035f830152610b1881610adf565b9050919050565b7f4e487b71000000000000000000000000000000000000000000000000000000005f52601160045260245ffd5b5f610b5682610872565b9150610b6183610872565b9250828202610b6f81610872565b91508282048414831517610b8657610b85610b1f565b5b5092915050565b7f496e73756666696369656e742074696d6520656c61707365642073696e6365205f8201527f6c617374207769746864726177616c202d2074727920616761696e206c61746560208201527f7200000000000000000000000000000000000000000000000000000000000000604082015250565b5f610c0d604183610a81565b9150610c1882610b8d565b606082019050919050565b5f6020820190508181035f830152610c3a81610c01565b9050919050565b7f526571756573742065786365656473206d6178696d756d2077697468647261775f8201527f616c20616d6f756e74206f66203130303020474e540000000000000000000000602082015250565b5f610c9b603583610a81565b9150610ca682610c41565b604082019050919050565b5f6020820190508181035f830152610cc881610c8f565b9050919050565b7f496e73756666696369656e742062616c616e636520696e2066617563657420665f8201527f6f72207769746864726177616c20726571756573740000000000000000000000602082015250565b5f610d29603583610a81565b9150610d3482610ccf565b604082019050919050565b5f6020820190508181035f830152610d5681610d1d565b9050919050565b7f52657175657374206d757374206e6f74206f726967696e6174652066726f6d205f8201527f61207a65726f206163636f756e74000000000000000000000000000000000000602082015250565b5f610db7602e83610a81565b9150610dc282610d5d565b604082019050919050565b5f6020820190508181035f830152610de481610dab565b9050919050565b5f604082019050610dfe5f830185610a1a565b610e0b602083018461087b565b9392505050565b610e1b816109e7565b8114610e25575f80fd5b50565b5f81519050610e3681610e12565b92915050565b5f60208284031215610e5157610e506108a3565b5b5f610e5e84828501610e28565b91505092915050565b5f610e7182610872565b9150610e7c83610872565b9250828201905080821115610e9457610e93610b1f565b5b9291505056fea2646970667358221220e070251e7f81bf005c1b970b42d3794b1dd720052017ecd09edc25632759cf5e64736f6c634300081a0033",
					"opcodes": "PUSH1 0x80 PUSH1 0x40 MSTORE PUSH9 0x2B5E3AF16B1880000 PUSH1 0x2 SSTORE PUSH3 0x3F480 PUSH1 0x3 SSTORE CALLVALUE DUP1 ISZERO PUSH2 0x23 JUMPI PUSH0 DUP1 REVERT JUMPDEST POP PUSH1 0x40 MLOAD PUSH2 0x1041 CODESIZE SUB DUP1 PUSH2 0x1041 DUP4 CODECOPY DUP2 DUP2 ADD PUSH1 0x40 MSTORE DUP2 ADD SWAP1 PUSH2 0x45 SWAP2 SWAP1 PUSH2 0x139 JUMP JUMPDEST DUP1 PUSH1 0x1 PUSH0 PUSH2 0x100 EXP DUP2 SLOAD DUP2 PUSH20 0xFFFFFFFFFFFFFFFFFFFFFFFFFFFFFFFFFFFFFFFF MUL NOT AND SWAP1 DUP4 PUSH20 0xFFFFFFFFFFFFFFFFFFFFFFFFFFFFFFFFFFFFFFFF AND MUL OR SWAP1 SSTORE POP CALLER PUSH0 DUP1 PUSH2 0x100 EXP DUP2 SLOAD DUP2 PUSH20 0xFFFFFFFFFFFFFFFFFFFFFFFFFFFFFFFFFFFFFFFF MUL NOT AND SWAP1 DUP4 PUSH20 0xFFFFFFFFFFFFFFFFFFFFFFFFFFFFFFFFFFFFFFFF AND MUL OR SWAP1 SSTORE POP POP PUSH2 0x164 JUMP JUMPDEST PUSH0 DUP1 REVERT JUMPDEST PUSH0 PUSH20 0xFFFFFFFFFFFFFFFFFFFFFFFFFFFFFFFFFFFFFFFF DUP3 AND SWAP1 POP SWAP2 SWAP1 POP JUMP JUMPDEST PUSH0 PUSH2 0xF7 DUP3 PUSH2 0xCE JUMP JUMPDEST SWAP1 POP SWAP2 SWAP1 POP JUMP JUMPDEST PUSH0 PUSH2 0x108 DUP3 PUSH2 0xED JUMP JUMPDEST SWAP1 POP SWAP2 SWAP1 POP JUMP JUMPDEST PUSH2 0x118 DUP2 PUSH2 0xFE JUMP JUMPDEST DUP2 EQ PUSH2 0x122 JUMPI PUSH0 DUP1 REVERT JUMPDEST POP JUMP JUMPDEST PUSH0 DUP2 MLOAD SWAP1 POP PUSH2 0x133 DUP2 PUSH2 0x10F JUMP JUMPDEST SWAP3 SWAP2 POP POP JUMP JUMPDEST PUSH0 PUSH1 0x20 DUP3 DUP5 SUB SLT ISZERO PUSH2 0x14E JUMPI PUSH2 0x14D PUSH2 0xCA JUMP JUMPDEST JUMPDEST PUSH0 PUSH2 0x15B DUP5 DUP3 DUP6 ADD PUSH2 0x125 JUMP JUMPDEST SWAP2 POP POP SWAP3 SWAP2 POP POP JUMP JUMPDEST PUSH2 0xED0 DUP1 PUSH2 0x171 PUSH0 CODECOPY PUSH0 RETURN INVALID PUSH1 0x80 PUSH1 0x40 MSTORE PUSH1 0x4 CALLDATASIZE LT PUSH2 0x7E JUMPI PUSH0 CALLDATALOAD PUSH1 0xE0 SHR DUP1 PUSH4 0x3CCFD60B GT PUSH2 0x4D JUMPI DUP1 PUSH4 0x3CCFD60B EQ PUSH2 0x18D JUMPI DUP1 PUSH4 0xCCCA123B EQ PUSH2 0x1A3 JUMPI DUP1 PUSH4 0xDF351AAF EQ PUSH2 0x1CD JUMPI DUP1 PUSH4 0xE6E268F4 EQ PUSH2 0x1F5 JUMPI PUSH2 0xD3 JUMP JUMPDEST DUP1 PUSH4 0x12065FE0 EQ PUSH2 0xD7 JUMPI DUP1 PUSH4 0x144FA6D7 EQ PUSH2 0x101 JUMPI DUP1 PUSH4 0x168EE33A EQ PUSH2 0x129 JUMPI DUP1 PUSH4 0x2D291CAD EQ PUSH2 0x151 JUMPI PUSH2 0xD3 JUMP JUMPDEST CALLDATASIZE PUSH2 0xD3 JUMPI CALLER PUSH20 0xFFFFFFFFFFFFFFFFFFFFFFFFFFFFFFFFFFFFFFFF AND PUSH32 0xE1FFFCC4923D04B559F4D29A8BFC6CDA04EB5B0D3C460751C2402C5C5CC9109C CALLVALUE PUSH1 0x40 MLOAD PUSH2 0xC9 SWAP2 SWAP1 PUSH2 0x88A JUMP JUMPDEST PUSH1 0x40 MLOAD DUP1 SWAP2 SUB SWAP1 LOG2 STOP JUMPDEST PUSH0 DUP1 REVERT JUMPDEST CALLVALUE DUP1 ISZERO PUSH2 0xE2 JUMPI PUSH0 DUP1 REVERT JUMPDEST POP PUSH2 0xEB PUSH2 0x21F JUMP JUMPDEST PUSH1 0x40 MLOAD PUSH2 0xF8 SWAP2 SWAP1 PUSH2 0x88A JUMP JUMPDEST PUSH1 0x40 MLOAD DUP1 SWAP2 SUB SWAP1 RETURN JUMPDEST CALLVALUE DUP1 ISZERO PUSH2 0x10C JUMPI PUSH0 DUP1 REVERT JUMPDEST POP PUSH2 0x127 PUSH1 0x4 DUP1 CALLDATASIZE SUB DUP2 ADD SWAP1 PUSH2 0x122 SWAP2 SWAP1 PUSH2 0x912 JUMP JUMPDEST PUSH2 0x2BE JUMP JUMPDEST STOP JUMPDEST CALLVALUE DUP1 ISZERO PUSH2 0x134 JUMPI PUSH0 DUP1 REVERT JUMPDEST POP PUSH2 0x14F PUSH1 0x4 DUP1 CALLDATASIZE SUB DUP2 ADD SWAP1 PUSH2 0x14A SWAP2 SWAP1 PUSH2 0x967 JUMP JUMPDEST PUSH2 0x38E JUMP JUMPDEST STOP JUMPDEST CALLVALUE DUP1 ISZERO PUSH2 0x15C JUMPI PUSH0 DUP1 REVERT JUMPDEST POP PUSH2 0x177 PUSH1 0x4 DUP1 CALLDATASIZE SUB DUP2 ADD SWAP1 PUSH2 0x172 SWAP2 SWAP1 PUSH2 0x9BC JUMP JUMPDEST PUSH2 0x44E JUMP JUMPDEST PUSH1 0x40 MLOAD PUSH2 0x184 SWAP2 SWAP1 PUSH2 0xA01 JUMP JUMPDEST PUSH1 0x40 MLOAD DUP1 SWAP2 SUB SWAP1 RETURN JUMPDEST CALLVALUE DUP1 ISZERO PUSH2 0x198 JUMPI PUSH0 DUP1 REVERT JUMPDEST POP PUSH2 0x1A1 PUSH2 0x4F2 JUMP JUMPDEST STOP JUMPDEST CALLVALUE DUP1 ISZERO PUSH2 0x1AE JUMPI PUSH0 DUP1 REVERT JUMPDEST POP PUSH2 0x1B7 PUSH2 0x7C3 JUMP JUMPDEST PUSH1 0x40 MLOAD PUSH2 0x1C4 SWAP2 SWAP1 PUSH2 0x88A JUMP JUMPDEST PUSH1 0x40 MLOAD DUP1 SWAP2 SUB SWAP1 RETURN JUMPDEST CALLVALUE DUP1 ISZERO PUSH2 0x1D8 JUMPI PUSH0 DUP1 REVERT JUMPDEST POP PUSH2 0x1F3 PUSH1 0x4 DUP1 CALLDATASIZE SUB DUP2 ADD SWAP1 PUSH2 0x1EE SWAP2 SWAP1 PUSH2 0x967 JUMP JUMPDEST PUSH2 0x7C9 JUMP JUMPDEST STOP JUMPDEST CALLVALUE DUP1 ISZERO PUSH2 0x200 JUMPI PUSH0 DUP1 REVERT JUMPDEST POP PUSH2 0x209 PUSH2 0x86C JUMP JUMPDEST PUSH1 0x40 MLOAD PUSH2 0x216 SWAP2 SWAP1 PUSH2 0x88A JUMP JUMPDEST PUSH1 0x40 MLOAD DUP1 SWAP2 SUB SWAP1 RETURN JUMPDEST PUSH0 PUSH1 0x1 PUSH0 SWAP1 SLOAD SWAP1 PUSH2 0x100 EXP SWAP1 DIV PUSH20 0xFFFFFFFFFFFFFFFFFFFFFFFFFFFFFFFFFFFFFFFF AND PUSH20 0xFFFFFFFFFFFFFFFFFFFFFFFFFFFFFFFFFFFFFFFF AND PUSH4 0x70A08231 ADDRESS PUSH1 0x40 MLOAD DUP3 PUSH4 0xFFFFFFFF AND PUSH1 0xE0 SHL DUP2 MSTORE PUSH1 0x4 ADD PUSH2 0x27A SWAP2 SWAP1 PUSH2 0xA29 JUMP JUMPDEST PUSH1 0x20 PUSH1 0x40 MLOAD DUP1 DUP4 SUB DUP2 DUP7 GAS STATICCALL ISZERO DUP1 ISZERO PUSH2 0x295 JUMPI RETURNDATASIZE PUSH0 DUP1 RETURNDATACOPY RETURNDATASIZE PUSH0 REVERT JUMPDEST POP POP POP POP PUSH1 0x40 MLOAD RETURNDATASIZE PUSH1 0x1F NOT PUSH1 0x1F DUP3 ADD AND DUP3 ADD DUP1 PUSH1 0x40 MSTORE POP DUP2 ADD SWAP1 PUSH2 0x2B9 SWAP2 SWAP1 PUSH2 0xA56 JUMP JUMPDEST SWAP1 POP SWAP1 JUMP JUMPDEST PUSH0 DUP1 SLOAD SWAP1 PUSH2 0x100 EXP SWAP1 DIV PUSH20 0xFFFFFFFFFFFFFFFFFFFFFFFFFFFFFFFFFFFFFFFF AND PUSH20 0xFFFFFFFFFFFFFFFFFFFFFFFFFFFFFFFFFFFFFFFF AND CALLER PUSH20 0xFFFFFFFFFFFFFFFFFFFFFFFFFFFFFFFFFFFFFFFF AND EQ PUSH2 0x34B JUMPI PUSH1 0x40 MLOAD PUSH32 0x8C379A000000000000000000000000000000000000000000000000000000000 DUP2 MSTORE PUSH1 0x4 ADD PUSH2 0x342 SWAP1 PUSH2 0xB01 JUMP JUMPDEST PUSH1 0x40 MLOAD DUP1 SWAP2 SUB SWAP1 REVERT JUMPDEST DUP1 PUSH1 0x1 PUSH0 PUSH2 0x100 EXP DUP2 SLOAD DUP2 PUSH20 0xFFFFFFFFFFFFFFFFFFFFFFFFFFFFFFFFFFFFFFFF MUL NOT AND SWAP1 DUP4 PUSH20 0xFFFFFFFFFFFFFFFFFFFFFFFFFFFFFFFFFFFFFFFF AND MUL OR SWAP1 SSTORE POP POP JUMP JUMPDEST PUSH0 DUP1 SLOAD SWAP1 PUSH2 0x100 EXP SWAP1 DIV PUSH20 0xFFFFFFFFFFFFFFFFFFFFFFFFFFFFFFFFFFFFFFFF AND PUSH20 0xFFFFFFFFFFFFFFFFFFFFFFFFFFFFFFFFFFFFFFFF AND CALLER PUSH20 0xFFFFFFFFFFFFFFFFFFFFFFFFFFFFFFFFFFFFFFFF AND EQ PUSH2 0x41B JUMPI PUSH1 0x40 MLOAD PUSH32 0x8C379A000000000000000000000000000000000000000000000000000000000 DUP2 MSTORE PUSH1 0x4 ADD PUSH2 0x412 SWAP1 PUSH2 0xB01 JUMP JUMPDEST PUSH1 0x40 MLOAD DUP1 SWAP2 SUB SWAP1 REVERT JUMPDEST PUSH10 0x21E19E0C9BAB2400000 DUP2 GT ISZERO PUSH2 0x431 JUMPI PUSH0 DUP1 REVERT JUMPDEST PUSH8 0xDE0B6B3A7640000 DUP2 PUSH2 0x445 SWAP2 SWAP1 PUSH2 0xB4C JUMP JUMPDEST PUSH1 0x2 DUP2 SWAP1 SSTORE POP POP JUMP JUMPDEST PUSH0 DUP1 PUSH1 0x4 PUSH0 DUP5 PUSH20 0xFFFFFFFFFFFFFFFFFFFFFFFFFFFFFFFFFFFFFFFF AND PUSH20 0xFFFFFFFFFFFFFFFFFFFFFFFFFFFFFFFFFFFFFFFF AND DUP2 MSTORE PUSH1 0x20 ADD SWAP1 DUP2 MSTORE PUSH1 0x20 ADD PUSH0 KECCAK256 SLOAD SUB PUSH2 0x49C JUMPI PUSH1 0x1 SWAP1 POP PUSH2 0x4ED JUMP JUMPDEST PUSH1 0x4 PUSH0 DUP4 PUSH20 0xFFFFFFFFFFFFFFFFFFFFFFFFFFFFFFFFFFFFFFFF AND PUSH20 0xFFFFFFFFFFFFFFFFFFFFFFFFFFFFFFFFFFFFFFFF AND DUP2 MSTORE PUSH1 0x20 ADD SWAP1 DUP2 MSTORE PUSH1 0x20 ADD PUSH0 KECCAK256 SLOAD TIMESTAMP LT PUSH2 0x4E9 JUMPI PUSH1 0x1 SWAP1 POP PUSH2 0x4ED JUMP JUMPDEST PUSH0 SWAP1 POP JUMPDEST SWAP2 SWAP1 POP JUMP JUMPDEST PUSH2 0x4FB CALLER PUSH2 0x44E JUMP JUMPDEST PUSH2 0x53A JUMPI PUSH1 0x40 MLOAD PUSH32 0x8C379A000000000000000000000000000000000000000000000000000000000 DUP2 MSTORE PUSH1 0x4 ADD PUSH2 0x531 SWAP1 PUSH2 0xC23 JUMP JUMPDEST PUSH1 0x40 MLOAD DUP1 SWAP2 SUB SWAP1 REVERT JUMPDEST PUSH9 0x3635C9ADC5DEA00000 PUSH1 0x2 SLOAD GT ISZERO PUSH2 0x588 JUMPI PUSH1 0x40 MLOAD PUSH32 0x8C379A000000000000000000000000000000000000000000000000000000000 DUP2 MSTORE PUSH1 0x4 ADD PUSH2 0x57F SWAP1 PUSH2 0xCB1 JUMP JUMPDEST PUSH1 0x40 MLOAD DUP1 SWAP2 SUB SWAP1 REVERT JUMPDEST PUSH1 0x2 SLOAD PUSH1 0x1 PUSH0 SWAP1 SLOAD SWAP1 PUSH2 0x100 EXP SWAP1 DIV PUSH20 0xFFFFFFFFFFFFFFFFFFFFFFFFFFFFFFFFFFFFFFFF AND PUSH20 0xFFFFFFFFFFFFFFFFFFFFFFFFFFFFFFFFFFFFFFFF AND PUSH4 0x70A08231 ADDRESS PUSH1 0x40 MLOAD DUP3 PUSH4 0xFFFFFFFF AND PUSH1 0xE0 SHL DUP2 MSTORE PUSH1 0x4 ADD PUSH2 0x5E5 SWAP2 SWAP1 PUSH2 0xA29 JUMP JUMPDEST PUSH1 0x20 PUSH1 0x40 MLOAD DUP1 DUP4 SUB DUP2 DUP7 GAS STATICCALL ISZERO DUP1 ISZERO PUSH2 0x600 JUMPI RETURNDATASIZE PUSH0 DUP1 RETURNDATACOPY RETURNDATASIZE PUSH0 REVERT JUMPDEST POP POP POP POP PUSH1 0x40 MLOAD RETURNDATASIZE PUSH1 0x1F NOT PUSH1 0x1F DUP3 ADD AND DUP3 ADD DUP1 PUSH1 0x40 MSTORE POP DUP2 ADD SWAP1 PUSH2 0x624 SWAP2 SWAP1 PUSH2 0xA56 JUMP JUMPDEST LT ISZERO PUSH2 0x665 JUMPI PUSH1 0x40 MLOAD PUSH32 0x8C379A000000000000000000000000000000000000000000000000000000000 DUP2 MSTORE PUSH1 0x4 ADD PUSH2 0x65C SWAP1 PUSH2 0xD3F JUMP JUMPDEST PUSH1 0x40 MLOAD DUP1 SWAP2 SUB SWAP1 REVERT JUMPDEST PUSH0 PUSH20 0xFFFFFFFFFFFFFFFFFFFFFFFFFFFFFFFFFFFFFFFF AND CALLER PUSH20 0xFFFFFFFFFFFFFFFFFFFFFFFFFFFFFFFFFFFFFFFF AND SUB PUSH2 0x6D3 JUMPI PUSH1 0x40 MLOAD PUSH32 0x8C379A000000000000000000000000000000000000000000000000000000000 DUP2 MSTORE PUSH1 0x4 ADD PUSH2 0x6CA SWAP1 PUSH2 0xDCD JUMP JUMPDEST PUSH1 0x40 MLOAD DUP1 SWAP2 SUB SWAP1 REVERT JUMPDEST PUSH1 0x1 PUSH0 SWAP1 SLOAD SWAP1 PUSH2 0x100 EXP SWAP1 DIV PUSH20 0xFFFFFFFFFFFFFFFFFFFFFFFFFFFFFFFFFFFFFFFF AND PUSH20 0xFFFFFFFFFFFFFFFFFFFFFFFFFFFFFFFFFFFFFFFF AND PUSH4 0xA9059CBB CALLER PUSH1 0x2 SLOAD PUSH1 0x40 MLOAD DUP4 PUSH4 0xFFFFFFFF AND PUSH1 0xE0 SHL DUP2 MSTORE PUSH1 0x4 ADD PUSH2 0x731 SWAP3 SWAP2 SWAP1 PUSH2 0xDEB JUMP JUMPDEST PUSH1 0x20 PUSH1 0x40 MLOAD DUP1 DUP4 SUB DUP2 PUSH0 DUP8 GAS CALL ISZERO DUP1 ISZERO PUSH2 0x74D JUMPI RETURNDATASIZE PUSH0 DUP1 RETURNDATACOPY RETURNDATASIZE PUSH0 REVERT JUMPDEST POP POP POP POP PUSH1 0x40 MLOAD RETURNDATASIZE PUSH1 0x1F NOT PUSH1 0x1F DUP3 ADD AND DUP3 ADD DUP1 PUSH1 0x40 MSTORE POP DUP2 ADD SWAP1 PUSH2 0x771 SWAP2 SWAP1 PUSH2 0xE3C JUMP JUMPDEST POP PUSH1 0x3 SLOAD TIMESTAMP PUSH2 0x780 SWAP2 SWAP1 PUSH2 0xE67 JUMP JUMPDEST PUSH1 0x4 PUSH0 CALLER PUSH20 0xFFFFFFFFFFFFFFFFFFFFFFFFFFFFFFFFFFFFFFFF AND PUSH20 0xFFFFFFFFFFFFFFFFFFFFFFFFFFFFFFFFFFFFFFFF AND DUP2 MSTORE PUSH1 0x20 ADD SWAP1 DUP2 MSTORE PUSH1 0x20 ADD PUSH0 KECCAK256 DUP2 SWAP1 SSTORE POP JUMP JUMPDEST PUSH1 0x3 SLOAD DUP2 JUMP JUMPDEST PUSH0 DUP1 SLOAD SWAP1 PUSH2 0x100 EXP SWAP1 DIV PUSH20 0xFFFFFFFFFFFFFFFFFFFFFFFFFFFFFFFFFFFFFFFF AND PUSH20 0xFFFFFFFFFFFFFFFFFFFFFFFFFFFFFFFFFFFFFFFF AND CALLER PUSH20 0xFFFFFFFFFFFFFFFFFFFFFFFFFFFFFFFFFFFFFFFF AND EQ PUSH2 0x856 JUMPI PUSH1 0x40 MLOAD PUSH32 0x8C379A000000000000000000000000000000000000000000000000000000000 DUP2 MSTORE PUSH1 0x4 ADD PUSH2 0x84D SWAP1 PUSH2 0xB01 JUMP JUMPDEST PUSH1 0x40 MLOAD DUP1 SWAP2 SUB SWAP1 REVERT JUMPDEST PUSH1 0x3C DUP2 PUSH2 0x863 SWAP2 SWAP1 PUSH2 0xB4C JUMP JUMPDEST PUSH1 0x3 DUP2 SWAP1 SSTORE POP POP JUMP JUMPDEST PUSH1 0x2 SLOAD DUP2 JUMP JUMPDEST PUSH0 DUP2 SWAP1 POP SWAP2 SWAP1 POP JUMP JUMPDEST PUSH2 0x884 DUP2 PUSH2 0x872 JUMP JUMPDEST DUP3 MSTORE POP POP JUMP JUMPDEST PUSH0 PUSH1 0x20 DUP3 ADD SWAP1 POP PUSH2 0x89D PUSH0 DUP4 ADD DUP5 PUSH2 0x87B JUMP JUMPDEST SWAP3 SWAP2 POP POP JUMP JUMPDEST PUSH0 DUP1 REVERT JUMPDEST PUSH0 PUSH20 0xFFFFFFFFFFFFFFFFFFFFFFFFFFFFFFFFFFFFFFFF DUP3 AND SWAP1 POP SWAP2 SWAP1 POP JUMP JUMPDEST PUSH0 PUSH2 0x8D0 DUP3 PUSH2 0x8A7 JUMP JUMPDEST SWAP1 POP SWAP2 SWAP1 POP JUMP JUMPDEST PUSH0 PUSH2 0x8E1 DUP3 PUSH2 0x8C6 JUMP JUMPDEST SWAP1 POP SWAP2 SWAP1 POP JUMP JUMPDEST PUSH2 0x8F1 DUP2 PUSH2 0x8D7 JUMP JUMPDEST DUP2 EQ PUSH2 0x8FB JUMPI PUSH0 DUP1 REVERT JUMPDEST POP JUMP JUMPDEST PUSH0 DUP2 CALLDATALOAD SWAP1 POP PUSH2 0x90C DUP2 PUSH2 0x8E8 JUMP JUMPDEST SWAP3 SWAP2 POP POP JUMP JUMPDEST PUSH0 PUSH1 0x20 DUP3 DUP5 SUB SLT ISZERO PUSH2 0x927 JUMPI PUSH2 0x926 PUSH2 0x8A3 JUMP JUMPDEST JUMPDEST PUSH0 PUSH2 0x934 DUP5 DUP3 DUP6 ADD PUSH2 0x8FE JUMP JUMPDEST SWAP2 POP POP SWAP3 SWAP2 POP POP JUMP JUMPDEST PUSH2 0x946 DUP2 PUSH2 0x872 JUMP JUMPDEST DUP2 EQ PUSH2 0x950 JUMPI PUSH0 DUP1 REVERT JUMPDEST POP JUMP JUMPDEST PUSH0 DUP2 CALLDATALOAD SWAP1 POP PUSH2 0x961 DUP2 PUSH2 0x93D JUMP JUMPDEST SWAP3 SWAP2 POP POP JUMP JUMPDEST PUSH0 PUSH1 0x20 DUP3 DUP5 SUB SLT ISZERO PUSH2 0x97C JUMPI PUSH2 0x97B PUSH2 0x8A3 JUMP JUMPDEST JUMPDEST PUSH0 PUSH2 0x989 DUP5 DUP3 DUP6 ADD PUSH2 0x953 JUMP JUMPDEST SWAP2 POP POP SWAP3 SWAP2 POP POP JUMP JUMPDEST PUSH2 0x99B DUP2 PUSH2 0x8C6 JUMP JUMPDEST DUP2 EQ PUSH2 0x9A5 JUMPI PUSH0 DUP1 REVERT JUMPDEST POP JUMP JUMPDEST PUSH0 DUP2 CALLDATALOAD SWAP1 POP PUSH2 0x9B6 DUP2 PUSH2 0x992 JUMP JUMPDEST SWAP3 SWAP2 POP POP JUMP JUMPDEST PUSH0 PUSH1 0x20 DUP3 DUP5 SUB SLT ISZERO PUSH2 0x9D1 JUMPI PUSH2 0x9D0 PUSH2 0x8A3 JUMP JUMPDEST JUMPDEST PUSH0 PUSH2 0x9DE DUP5 DUP3 DUP6 ADD PUSH2 0x9A8 JUMP JUMPDEST SWAP2 POP POP SWAP3 SWAP2 POP POP JUMP JUMPDEST PUSH0 DUP2 ISZERO ISZERO SWAP1 POP SWAP2 SWAP1 POP JUMP JUMPDEST PUSH2 0x9FB DUP2 PUSH2 0x9E7 JUMP JUMPDEST DUP3 MSTORE POP POP JUMP JUMPDEST PUSH0 PUSH1 0x20 DUP3 ADD SWAP1 POP PUSH2 0xA14 PUSH0 DUP4 ADD DUP5 PUSH2 0x9F2 JUMP JUMPDEST SWAP3 SWAP2 POP POP JUMP JUMPDEST PUSH2 0xA23 DUP2 PUSH2 0x8C6 JUMP JUMPDEST DUP3 MSTORE POP POP JUMP JUMPDEST PUSH0 PUSH1 0x20 DUP3 ADD SWAP1 POP PUSH2 0xA3C PUSH0 DUP4 ADD DUP5 PUSH2 0xA1A JUMP JUMPDEST SWAP3 SWAP2 POP POP JUMP JUMPDEST PUSH0 DUP2 MLOAD SWAP1 POP PUSH2 0xA50 DUP2 PUSH2 0x93D JUMP JUMPDEST SWAP3 SWAP2 POP POP JUMP JUMPDEST PUSH0 PUSH1 0x20 DUP3 DUP5 SUB SLT ISZERO PUSH2 0xA6B JUMPI PUSH2 0xA6A PUSH2 0x8A3 JUMP JUMPDEST JUMPDEST PUSH0 PUSH2 0xA78 DUP5 DUP3 DUP6 ADD PUSH2 0xA42 JUMP JUMPDEST SWAP2 POP POP SWAP3 SWAP2 POP POP JUMP JUMPDEST PUSH0 DUP3 DUP3 MSTORE PUSH1 0x20 DUP3 ADD SWAP1 POP SWAP3 SWAP2 POP POP JUMP JUMPDEST PUSH32 0x4F6E6C792074686520636F6E7472616374206F776E65722063616E2063616C6C PUSH0 DUP3 ADD MSTORE PUSH32 0x20746869732066756E6374696F6E000000000000000000000000000000000000 PUSH1 0x20 DUP3 ADD MSTORE POP JUMP JUMPDEST PUSH0 PUSH2 0xAEB PUSH1 0x2E DUP4 PUSH2 0xA81 JUMP JUMPDEST SWAP2 POP PUSH2 0xAF6 DUP3 PUSH2 0xA91 JUMP JUMPDEST PUSH1 0x40 DUP3 ADD SWAP1 POP SWAP2 SWAP1 POP JUMP JUMPDEST PUSH0 PUSH1 0x20 DUP3 ADD SWAP1 POP DUP2 DUP2 SUB PUSH0 DUP4 ADD MSTORE PUSH2 0xB18 DUP2 PUSH2 0xADF JUMP JUMPDEST SWAP1 POP SWAP2 SWAP1 POP JUMP JUMPDEST PUSH32 0x4E487B7100000000000000000000000000000000000000000000000000000000 PUSH0 MSTORE PUSH1 0x11 PUSH1 0x4 MSTORE PUSH1 0x24 PUSH0 REVERT JUMPDEST PUSH0 PUSH2 0xB56 DUP3 PUSH2 0x872 JUMP JUMPDEST SWAP2 POP PUSH2 0xB61 DUP4 PUSH2 0x872 JUMP JUMPDEST SWAP3 POP DUP3 DUP3 MUL PUSH2 0xB6F DUP2 PUSH2 0x872 JUMP JUMPDEST SWAP2 POP DUP3 DUP3 DIV DUP5 EQ DUP4 ISZERO OR PUSH2 0xB86 JUMPI PUSH2 0xB85 PUSH2 0xB1F JUMP JUMPDEST JUMPDEST POP SWAP3 SWAP2 POP POP JUMP JUMPDEST PUSH32 0x496E73756666696369656E742074696D6520656C61707365642073696E636520 PUSH0 DUP3 ADD MSTORE PUSH32 0x6C617374207769746864726177616C202D2074727920616761696E206C617465 PUSH1 0x20 DUP3 ADD MSTORE PUSH32 0x7200000000000000000000000000000000000000000000000000000000000000 PUSH1 0x40 DUP3 ADD MSTORE POP JUMP JUMPDEST PUSH0 PUSH2 0xC0D PUSH1 0x41 DUP4 PUSH2 0xA81 JUMP JUMPDEST SWAP2 POP PUSH2 0xC18 DUP3 PUSH2 0xB8D JUMP JUMPDEST PUSH1 0x60 DUP3 ADD SWAP1 POP SWAP2 SWAP1 POP JUMP JUMPDEST PUSH0 PUSH1 0x20 DUP3 ADD SWAP1 POP DUP2 DUP2 SUB PUSH0 DUP4 ADD MSTORE PUSH2 0xC3A DUP2 PUSH2 0xC01 JUMP JUMPDEST SWAP1 POP SWAP2 SWAP1 POP JUMP JUMPDEST PUSH32 0x526571756573742065786365656473206D6178696D756D207769746864726177 PUSH0 DUP3 ADD MSTORE PUSH32 0x616C20616D6F756E74206F66203130303020474E540000000000000000000000 PUSH1 0x20 DUP3 ADD MSTORE POP JUMP JUMPDEST PUSH0 PUSH2 0xC9B PUSH1 0x35 DUP4 PUSH2 0xA81 JUMP JUMPDEST SWAP2 POP PUSH2 0xCA6 DUP3 PUSH2 0xC41 JUMP JUMPDEST PUSH1 0x40 DUP3 ADD SWAP1 POP SWAP2 SWAP1 POP JUMP JUMPDEST PUSH0 PUSH1 0x20 DUP3 ADD SWAP1 POP DUP2 DUP2 SUB PUSH0 DUP4 ADD MSTORE PUSH2 0xCC8 DUP2 PUSH2 0xC8F JUMP JUMPDEST SWAP1 POP SWAP2 SWAP1 POP JUMP JUMPDEST PUSH32 0x496E73756666696369656E742062616C616E636520696E206661756365742066 PUSH0 DUP3 ADD MSTORE PUSH32 0x6F72207769746864726177616C20726571756573740000000000000000000000 PUSH1 0x20 DUP3 ADD MSTORE POP JUMP JUMPDEST PUSH0 PUSH2 0xD29 PUSH1 0x35 DUP4 PUSH2 0xA81 JUMP JUMPDEST SWAP2 POP PUSH2 0xD34 DUP3 PUSH2 0xCCF JUMP JUMPDEST PUSH1 0x40 DUP3 ADD SWAP1 POP SWAP2 SWAP1 POP JUMP JUMPDEST PUSH0 PUSH1 0x20 DUP3 ADD SWAP1 POP DUP2 DUP2 SUB PUSH0 DUP4 ADD MSTORE PUSH2 0xD56 DUP2 PUSH2 0xD1D JUMP JUMPDEST SWAP1 POP SWAP2 SWAP1 POP JUMP JUMPDEST PUSH32 0x52657175657374206D757374206E6F74206F726967696E6174652066726F6D20 PUSH0 DUP3 ADD MSTORE PUSH32 0x61207A65726F206163636F756E74000000000000000000000000000000000000 PUSH1 0x20 DUP3 ADD MSTORE POP JUMP JUMPDEST PUSH0 PUSH2 0xDB7 PUSH1 0x2E DUP4 PUSH2 0xA81 JUMP JUMPDEST SWAP2 POP PUSH2 0xDC2 DUP3 PUSH2 0xD5D JUMP JUMPDEST PUSH1 0x40 DUP3 ADD SWAP1 POP SWAP2 SWAP1 POP JUMP JUMPDEST PUSH0 PUSH1 0x20 DUP3 ADD SWAP1 POP DUP2 DUP2 SUB PUSH0 DUP4 ADD MSTORE PUSH2 0xDE4 DUP2 PUSH2 0xDAB JUMP JUMPDEST SWAP1 POP SWAP2 SWAP1 POP JUMP JUMPDEST PUSH0 PUSH1 0x40 DUP3 ADD SWAP1 POP PUSH2 0xDFE PUSH0 DUP4 ADD DUP6 PUSH2 0xA1A JUMP JUMPDEST PUSH2 0xE0B PUSH1 0x20 DUP4 ADD DUP5 PUSH2 0x87B JUMP JUMPDEST SWAP4 SWAP3 POP POP POP JUMP JUMPDEST PUSH2 0xE1B DUP2 PUSH2 0x9E7 JUMP JUMPDEST DUP2 EQ PUSH2 0xE25 JUMPI PUSH0 DUP1 REVERT JUMPDEST POP JUMP JUMPDEST PUSH0 DUP2 MLOAD SWAP1 POP PUSH2 0xE36 DUP2 PUSH2 0xE12 JUMP JUMPDEST SWAP3 SWAP2 POP POP JUMP JUMPDEST PUSH0 PUSH1 0x20 DUP3 DUP5 SUB SLT ISZERO PUSH2 0xE51 JUMPI PUSH2 0xE50 PUSH2 0x8A3 JUMP JUMPDEST JUMPDEST PUSH0 PUSH2 0xE5E DUP5 DUP3 DUP6 ADD PUSH2 0xE28 JUMP JUMPDEST SWAP2 POP POP SWAP3 SWAP2 POP POP JUMP JUMPDEST PUSH0 PUSH2 0xE71 DUP3 PUSH2 0x872 JUMP JUMPDEST SWAP2 POP PUSH2 0xE7C DUP4 PUSH2 0x872 JUMP JUMPDEST SWAP3 POP DUP3 DUP3 ADD SWAP1 POP DUP1 DUP3 GT ISZERO PUSH2 0xE94 JUMPI PUSH2 0xE93 PUSH2 0xB1F JUMP JUMPDEST JUMPDEST SWAP3 SWAP2 POP POP JUMP INVALID LOG2 PUSH5 0x6970667358 0x22 SLT KECCAK256 0xE0 PUSH17 0x251E7F81BF005C1B970B42D3794B1DD720 SDIV KECCAK256 OR 0xEC 0xD0 SWAP15 0xDC 0x25 PUSH4 0x2759CF5E PUSH5 0x736F6C6343 STOP ADDMOD BYTE STOP CALLER "
				},
				"gasEstimates": {
					"creation": {
						"codeDepositCost": "758400",
						"executionCost": "infinite",
						"totalCost": "infinite"
					},
					"external": {
						"allowedToWithdraw(address)": "5146",
						"getBalance()": "infinite",
						"setToken(address)": "26946",
						"setWaitTime(uint256)": "infinite",
						"setWithdrawalAmount(uint256)": "infinite",
						"waitTime()": "2447",
						"withdraw()": "infinite",
						"withdrawalAmount()": "2491"
					}
				},
				"methodIdentifiers": {
					"allowedToWithdraw(address)": "2d291cad",
					"getBalance()": "12065fe0",
					"setToken(address)": "144fa6d7",
					"setWaitTime(uint256)": "df351aaf",
					"setWithdrawalAmount(uint256)": "168ee33a",
					"waitTime()": "ccca123b",
					"withdraw()": "3ccfd60b",
					"withdrawalAmount()": "e6e268f4"
				}
			},
			"storageLayout": {
				"storage": [
					{
						"astId": 82,
						"contract": "contracts/Faucet.sol:Faucet",
						"label": "owner",
						"offset": 0,
						"slot": "0",
						"type": "t_address_payable"
					},
					{
						"astId": 85,
						"contract": "contracts/Faucet.sol:Faucet",
						"label": "_token",
						"offset": 0,
						"slot": "1",
						"type": "t_contract(IERC20)77"
					},
					{
						"astId": 93,
						"contract": "contracts/Faucet.sol:Faucet",
						"label": "withdrawalAmount",
						"offset": 0,
						"slot": "2",
						"type": "t_uint256"
					},
					{
						"astId": 96,
						"contract": "contracts/Faucet.sol:Faucet",
						"label": "waitTime",
						"offset": 0,
						"slot": "3",
						"type": "t_uint256"
					},
					{
						"astId": 112,
						"contract": "contracts/Faucet.sol:Faucet",
						"label": "lastAccessTime",
						"offset": 0,
						"slot": "4",
						"type": "t_mapping(t_address,t_uint256)"
					}
				],
				"types": {
					"t_address": {
						"encoding": "inplace",
						"label": "address",
						"numberOfBytes": "20"
					},
					"t_address_payable": {
						"encoding": "inplace",
						"label": "address payable",
						"numberOfBytes": "20"
					},
					"t_contract(IERC20)77": {
						"encoding": "inplace",
						"label": "contract IERC20",
						"numberOfBytes": "20"
					},
					"t_mapping(t_address,t_uint256)": {
						"encoding": "mapping",
						"key": "t_address",
						"label": "mapping(address => uint256)",
						"numberOfBytes": "32",
						"value": "t_uint256"
					},
					"t_uint256": {
						"encoding": "inplace",
						"label": "uint256",
						"numberOfBytes": "32"
					}
				}
			},
			"userdoc": {
				"kind": "user",
				"methods": {},
				"version": 1
			}
		}
	}
}